{
	"src/Energy.sol": {
		"Energy": {
			"abi": [
				{
					"anonymous": false,
					"inputs": [
						{
							"indexed": false,
							"internalType": "address",
							"name": "account",
							"type": "address"
						},
						{
							"indexed": false,
							"internalType": "uint256",
							"name": "claimTime",
							"type": "uint256"
						}
					],
					"name": "ClaimEnergy",
					"type": "event"
				},
				{
					"inputs": [],
					"name": "sendClaimEnergyRequest",
					"outputs": [],
					"stateMutability": "nonpayable",
					"type": "function"
				}
			],
			"devdoc": {
				"kind": "dev",
				"methods": {},
				"version": 1
			},
			"evm": {
				"assembly": "    /* \"src/Energy.sol\":65:293  contract Energy {... */\n  mstore(0x40, 0x80)\n  callvalue\n  dup1\n  iszero\n  tag_1\n  jumpi\n  0x00\n  dup1\n  revert\ntag_1:\n  pop\n  dataSize(sub_0)\n  dup1\n  dataOffset(sub_0)\n  0x00\n  codecopy\n  0x00\n  return\nstop\n\nsub_0: assembly {\n        /* \"src/Energy.sol\":65:293  contract Energy {... */\n      mstore(0x40, 0x80)\n      callvalue\n      dup1\n      iszero\n      tag_1\n      jumpi\n      0x00\n      dup1\n      revert\n    tag_1:\n      pop\n      jumpi(tag_2, lt(calldatasize, 0x04))\n      shr(0xe0, calldataload(0x00))\n      dup1\n      0x343bda5a\n      eq\n      tag_3\n      jumpi\n    tag_2:\n      0x00\n      dup1\n      revert\n        /* \"src/Energy.sol\":148:290  function sendClaimEnergyRequest() public {... */\n    tag_3:\n      tag_4\n      tag_5\n      jump\t// in\n    tag_4:\n      stop\n    tag_5:\n        /* \"src/Energy.sol\":249:283  ClaimEnergy(msg.sender, claimTime) */\n      0x40\n      dup1\n      mload\n        /* \"src/Energy.sol\":261:271  msg.sender */\n      caller\n        /* \"#utility.yul\":188:239   */\n      dup2\n      mstore\n        /* \"src/Energy.sol\":219:234  block.timestamp */\n      timestamp\n        /* \"#utility.yul\":270:272   */\n      0x20\n        /* \"#utility.yul\":255:273   */\n      dup3\n      add\n        /* \"#utility.yul\":248:282   */\n      dup2\n      swap1\n      mstore\n        /* \"src/Energy.sol\":219:234  block.timestamp */\n      swap2\n        /* \"src/Energy.sol\":249:283  ClaimEnergy(msg.sender, claimTime) */\n      0xc6f07a7ceb11070d946940d70ce6ee1b1ea3c16cceab5a3db28041b0360a1f27\n      swap2\n        /* \"#utility.yul\":161:179   */\n      add\n        /* \"src/Energy.sol\":249:283  ClaimEnergy(msg.sender, claimTime) */\n      mload(0x40)\n      dup1\n      swap2\n      sub\n      swap1\n      log1\n        /* \"src/Energy.sol\":189:290  {... */\n      pop\n        /* \"src/Energy.sol\":148:290  function sendClaimEnergyRequest() public {... */\n      jump\t// out\n\n    auxdata: 0xa2646970667358221220cde0f1efe7f99c4697f8145fbb40315de9078fe19271cd49ae5a473b52d9a55a64736f6c63430008170033\n}\n",
				"bytecode": {
					"linkReferences": {},
					"object": "6080604052348015600f57600080fd5b5060a98061001e6000396000f3fe6080604052348015600f57600080fd5b506004361060285760003560e01c8063343bda5a14602d575b600080fd5b60336035565b005b604080513381524260208201819052917fc6f07a7ceb11070d946940d70ce6ee1b1ea3c16cceab5a3db28041b0360a1f27910160405180910390a15056fea2646970667358221220cde0f1efe7f99c4697f8145fbb40315de9078fe19271cd49ae5a473b52d9a55a64736f6c63430008170033",
					"opcodes": "PUSH1 0x80 PUSH1 0x40 MSTORE CALLVALUE DUP1 ISZERO PUSH1 0xF JUMPI PUSH1 0x0 DUP1 REVERT JUMPDEST POP PUSH1 0xA9 DUP1 PUSH2 0x1E PUSH1 0x0 CODECOPY PUSH1 0x0 RETURN INVALID PUSH1 0x80 PUSH1 0x40 MSTORE CALLVALUE DUP1 ISZERO PUSH1 0xF JUMPI PUSH1 0x0 DUP1 REVERT JUMPDEST POP PUSH1 0x4 CALLDATASIZE LT PUSH1 0x28 JUMPI PUSH1 0x0 CALLDATALOAD PUSH1 0xE0 SHR DUP1 PUSH4 0x343BDA5A EQ PUSH1 0x2D JUMPI JUMPDEST PUSH1 0x0 DUP1 REVERT JUMPDEST PUSH1 0x33 PUSH1 0x35 JUMP JUMPDEST STOP JUMPDEST PUSH1 0x40 DUP1 MLOAD CALLER DUP2 MSTORE TIMESTAMP PUSH1 0x20 DUP3 ADD DUP2 SWAP1 MSTORE SWAP2 PUSH32 0xC6F07A7CEB11070D946940D70CE6EE1B1EA3C16CCEAB5A3DB28041B0360A1F27 SWAP2 ADD PUSH1 0x40 MLOAD DUP1 SWAP2 SUB SWAP1 LOG1 POP JUMP INVALID LOG2 PUSH5 0x6970667358 0x22 SLT KECCAK256 0xCD 0xE0 CALL 0xEF 0xE7 0xF9 SWAP13 CHAINID SWAP8 0xF8 EQ PUSH0 0xBB BLOCKHASH BALANCE 0x5D 0xE9 SMOD DUP16 0xE1 SWAP3 PUSH18 0xCD49AE5A473B52D9A55A64736F6C63430008 OR STOP CALLER "
				},
				"gasEstimates": {
					"creation": {
						"codeDepositCost": "33800",
						"executionCost": "87",
						"totalCost": "33887"
					},
					"external": {
						"sendClaimEnergyRequest()": "1462"
					}
				},
				"methodIdentifiers": {
					"sendClaimEnergyRequest()": "343bda5a"
				}
			},
			"storageLayout": {
				"storage": [],
				"types": null
			},
			"userdoc": {
				"kind": "user",
				"methods": {},
				"version": 1
			}
		}
	}
}