{
	"data": {
		"bytecode": {
			"linkReferences": {},
			"object": "60a0604052306080523480156200001557600080fd5b506200002062000026565b620000da565b7ff0c57e16840df040f15088dc2f81fe391c3923bec73e23a9662efc9c229c6a00805468010000000000000000900460ff1615620000775760405163f92ee8a960e01b815260040160405180910390fd5b80546001600160401b0390811614620000d75780546001600160401b0319166001600160401b0390811782556040519081527fc7f505b2f371ae2175ee4913f4499e1f2633a7b5936321eed1cdaeb6115181d29060200160405180910390a15b50565b6080516151de62000104600039600081816132060152818161322f015261337001526151de6000f3fe6080604052600436106103a65760003560e01c80637c772596116101e7578063c87b56dd1161010d578063e985e9c5116100a0578063f6eed83d1161006f578063f6eed83d14610b98578063f930191014610bae578063fb14192414610bc3578063fbe0c7a514610bd957600080fd5b8063e985e9c514610b18578063ecc3495614610b38578063f1372e2614610b58578063f2fde38b14610b7857600080fd5b8063d28cb317116100dc578063d28cb31714610aa3578063dbdff2c114610ac3578063dc2369dd14610ad8578063de6d90d114610af857600080fd5b8063c87b56dd14610a3a578063c88eb8e914610a5a578063ca9e676814610a7b578063d0d41fe114610a8357600080fd5b8063a3d62e9c11610185578063b88d4fde11610154578063b88d4fde146109ba578063b9ac62f5146109da578063bdd42c35146109fa578063bfe9e14714610a1a57600080fd5b8063a3d62e9c14610933578063aaaf1a5414610953578063aabd690414610969578063ad3cb1cc1461098957600080fd5b80638f62b56e116101c15780638f62b56e146108b157806395d89b41146108de5780639e2591dd146108f3578063a22cb4651461091357600080fd5b80637c7725961461084a5780638743da6d1461087c5780638da5cb5b1461089c57600080fd5b806348cb18d0116102cc5780636352211e1161026a578063704b6c0211610239578063704b6c021461079157806370a08231146107b1578063715018a6146107d1578063743bd935146107e657600080fd5b80636352211e146107115780636605bfda146107315780636af65929146107515780636e342b311461077157600080fd5b806352d1902d116102a657806352d1902d1461063957806355b6303a1461064e578063571f0910146106db5780635c01491f146106fb57600080fd5b806348cb18d0146105e15780634f1ef286146105f4578063527863341461060757600080fd5b8063200b2caf116103445780633c3a8746116103135780633c3a87461461055f5780633d504a701461057f57806342842e0e146105ac5780634718121a146105cc57600080fd5b8063200b2caf146104d257806323b872dd146104ff5780632e1a7d4d1461051f5780632fe24d361461053f57600080fd5b8063081812fc11610380578063081812fc14610441578063095ea7b3146104615780631ae52519146104835780631d4cf063146104ae57600080fd5b806301bc45c9146103b257806301ffc9a7146103ef57806306fdde031461041f57600080fd5b366103ad57005b600080fd5b3480156103be57600080fd5b50601c546103d2906001600160a01b031681565b6040516001600160a01b0390911681526020015b60405180910390f35b3480156103fb57600080fd5b5061040f61040a366004614273565b610bf9565b60405190151581526020016103e6565b34801561042b57600080fd5b50610434610c4b565b6040516103e691906142e0565b34801561044d57600080fd5b506103d261045c3660046142f3565b610cef565b34801561046d57600080fd5b5061048161047c366004614321565b610d04565b005b34801561048f57600080fd5b5061049961012c81565b60405163ffffffff90911681526020016103e6565b3480156104ba57600080fd5b506104c460145481565b6040519081526020016103e6565b3480156104de57600080fd5b506104f26104ed36600461441a565b610d13565b6040516103e6919061448a565b34801561050b57600080fd5b5061048161051a36600461449d565b610f0f565b34801561052b57600080fd5b5061048161053a3660046142f3565b610f9a565b34801561054b57600080fd5b5061048161055a3660046144de565b6110df565b34801561056b57600080fd5b5061043461057a3660046142f3565b6110f9565b34801561058b57600080fd5b506104c461059a3660046142f3565b60156020526000908152604090205481565b3480156105b857600080fd5b506104816105c736600461449d565b611146565b3480156105d857600080fd5b506104c4611161565b6104816105ef36600461454f565b6111e7565b61048161060236600461466e565b61179d565b34801561061357600080fd5b506106276106223660046142f3565b6117b8565b6040516103e6969594939291906146bd565b34801561064557600080fd5b506104c461182c565b34801561065a57600080fd5b50600854600954600a54600b54600c54600d54600e54600f5460105461068e9897969594939291906001600160a01b031689565b60408051998a5260208a0198909852968801959095526060870193909352608086019190915260a085015260c084015260e08301526001600160a01b0316610100820152610120016103e6565b3480156106e757600080fd5b506104816106f6366004614703565b611849565b34801561070757600080fd5b506104c460185481565b34801561071d57600080fd5b506103d261072c3660046142f3565b6119e6565b34801561073d57600080fd5b5061048161074c3660046147c3565b6119f1565b34801561075d57600080fd5b50601a546103d2906001600160a01b031681565b34801561077d57600080fd5b506104c461078c3660046147e0565b611a1b565b34801561079d57600080fd5b506104816107ac3660046147c3565b611a70565b3480156107bd57600080fd5b506104c46107cc3660046147c3565b611a9a565b3480156107dd57600080fd5b50610481611af6565b3480156107f257600080fd5b506001546002546003546004546005546006546007546108159695949392919087565b604080519788526020880196909652948601939093526060850191909152608084015260a083015260c082015260e0016103e6565b34801561085657600080fd5b5061086a610865366004614802565b611b0a565b60405160ff90911681526020016103e6565b34801561088857600080fd5b50601b546103d2906001600160a01b031681565b3480156108a857600080fd5b506103d2611bb2565b3480156108bd57600080fd5b506104c46108cc3660046147c3565b60166020526000908152604090205481565b3480156108ea57600080fd5b50610434611be0565b3480156108ff57600080fd5b506104c461090e3660046142f3565b611c1f565b34801561091f57600080fd5b5061048161092e366004614842565b611c6e565b34801561093f57600080fd5b5061040f61094e366004614888565b611c79565b34801561095f57600080fd5b506104c460175481565b34801561097557600080fd5b5061048161098436600461490d565b611e6a565b34801561099557600080fd5b50610434604051806040016040528060058152602001640352e302e360dc1b81525081565b3480156109c657600080fd5b506104816109d5366004614928565b611ed6565b3480156109e657600080fd5b506104346109f53660046142f3565b611eed565b348015610a0657600080fd5b50610481610a153660046147c3565b611faf565b348015610a2657600080fd5b50610481610a35366004614993565b6120fb565b348015610a4657600080fd5b50610434610a553660046142f3565b612278565b348015610a6657600080fd5b50601c5461040f90600160a01b900460ff1681565b6104816122c9565b348015610a8f57600080fd5b50610481610a9e3660046147c3565b6125b3565b348015610aaf57600080fd5b506000546103d2906001600160a01b031681565b348015610acf57600080fd5b506104c46125dd565b348015610ae457600080fd5b50610481610af33660046149d6565b612723565b348015610b0457600080fd5b506104c4610b1336600461441a565b6127e3565b348015610b2457600080fd5b5061040f610b33366004614a4a565b61284e565b348015610b4457600080fd5b50610481610b5336600461441a565b61289b565b348015610b6457600080fd5b50610481610b733660046147c3565b612a26565b348015610b8457600080fd5b50610481610b933660046147c3565b612b3d565b348015610ba457600080fd5b506104c460125481565b348015610bba57600080fd5b506104c4600281565b348015610bcf57600080fd5b506104c460195481565b348015610be557600080fd5b50610481610bf43660046147c3565b612b7b565b60006001600160e01b031982166380ac58cd60e01b1480610c2a57506001600160e01b03198216635b5e139f60e01b145b80610c4557506301ffc9a760e01b6001600160e01b03198316145b92915050565b6000805160206151698339815191528054606091908190610c6b90614a83565b80601f0160208091040260200160405190810160405280929190818152602001828054610c9790614a83565b8015610ce45780601f10610cb957610100808354040283529160200191610ce4565b820191906000526020600020905b815481529060010190602001808311610cc757829003601f168201915b505050505091505090565b6000610cfa82612c4c565b50610c4582612c84565b610d0f828233612cbe565b5050565b60606002825110158015610d2957506009825111155b610d745760405162461bcd60e51b815260206004820152601760248201527663616e206f6e6c792075736520322d392063656c6c732160481b60448201526064015b60405180910390fd5b600082516001600160401b03811115610d8f57610d8f61434d565b604051908082528060200260200182016040528015610db8578160200160208202803683370190505b50905082516001600160401b03811115610dd457610dd461434d565b604051908082528060200260200182016040528015610dfd578160200160208202803683370190505b50915060005b8351811015610f08576000848281518110610e2057610e20614abd565b60209081029190910181015160008181526013909252604082206001810154919350916001600160401b03600160a01b8304811692610e6891600160601b9091041642614ae9565b905060005b85811015610eab5784878281518110610e8857610e88614abd565b602002602001015103610ea35782610e9f81614afc565b9350505b600101610e6d565b506000610eb88383611a1b565b905084878781518110610ecd57610ecd614abd565b60200260200101818152505080888781518110610eec57610eec614abd565b6020908102919091010152505060019093019250610e03915050565b5050919050565b6001600160a01b038216610f3957604051633250574960e11b815260006004820152602401610d6b565b6000610f46838333612ccb565b9050836001600160a01b0316816001600160a01b031614610f94576040516364283d7b60e01b81526001600160a01b0380861660048301526024820184905282166044820152606401610d6b565b50505050565b610fa2612dd5565b601c54600160a01b900460ff16610fcb5760405162461bcd60e51b8152600401610d6b90614b15565b6000601954601854601754610fe09190614b3e565b610fea9190614b3e565b610ff49047614ae9565b90508082111561103d5760405162461bcd60e51b8152602060048201526014602482015273496e73756666696369656e742062616c616e636560601b6044820152606401610d6b565b6000611047611bb2565b90506000816001600160a01b0316846040515b60006040518083038185875af1925050503d8060008114611097576040519150601f19603f3d011682016040523d82523d6000602084013e61109c565b606091505b5050905080610f945760405162461bcd60e51b815260206004820152600f60248201526e195d1a081cd95b990819985a5b1959608a1b6044820152606401610d6b565b6110e7612dd5565b601d6110f4828483614b99565b505050565b6060600061110683612e07565b90506111126003613129565b61111c6003613129565b8260405160200161112f93929190614c58565b604051602081830303815290604052915050919050565b6110f483838360405180602001604052806000815250611ed6565b60015460009081906111739042614ae9565b90506111e16111ab6001600601548361118c9190614ce2565b6111969084614ae9565b62015180670de0b6b3a7640000919091020490565b6004546005546003546111dc906111d4906111c7906001614b3e565b670de0b6b3a76400000290565b6006546131bb565b6131d0565b91505090565b60028151101580156111fb57506009815111155b6112415760405162461bcd60e51b815260206004820152601760248201527663616e206f6e6c792075736520322d392063656c6c732160481b6044820152606401610d6b565b60008082516001600160401b0381111561125d5761125d61434d565b604051908082528060200260200182016040528015611286578160200160208202803683370190505b509050600083516001600160401b038111156112a4576112a461434d565b6040519080825280602002602001820160405280156112cd578160200160208202803683370190505b5090506000805b85518110156115385760008682815181106112f1576112f1614abd565b602002602001015160008151811061130b5761130b614abd565b602090810291909101810151600081815260139092526040909120600181015491925090600160601b90046001600160401b031661137d5760405162461bcd60e51b815260206004820152600f60248201526e18d95b1b081b9bdd081b5a5b9d1959608a1b6044820152606401610d6b565b600181015460009061139f90600160601b90046001600160401b031642614ae9565b60018301549091506000906113c490600160a01b90046001600160401b031683611a1b565b60008080526003850160205260409020549091508886815181106113ea576113ea614abd565b60209081029190910101526001830154875163ffffffff9091169088908790811061141757611417614abd565b63ffffffff90921660209283029190910190910152600183810180546014906114529084906001600160401b03600160a01b90910416614cf6565b92506101000a8154816001600160401b0302191690836001600160401b03160217905550600060648260056114879190614d1d565b6114919190614d34565b9050806015600087815260200190815260200160002060008282546114b69190614b3e565b9250508190555080601760008282546114cf9190614b3e565b909155506114df90508188614b3e565b60408051878152602081018490529198507f738839bda7d29c2427f1ad26dd7c7656f9279838d328a99782228cd2a7850f4b910160405180910390a1611525828b614b3e565b995050600190940193506112d492505050565b5060006115458286614ae9565b9050601361155482600e614d1d565b61155e9190614d34565b6018600082825461156f9190614b3e565b909155506013905061158282600e614d1d565b61158c9190614d34565b6115969082614ae9565b601960008282546115a79190614b3e565b909155507f05f8bb74e03945494e71bd982bef079e849d8fe7e68e7f11c7717bb06eb8c919905060136115db83600e614d1d565b6115e59190614d34565b60405190815260200160405180910390a17fbd3c961e1b7be8d4b0018893119c5870d43607962cdd0983efb2c77e5a7897e8601361162483600e614d1d565b61162e9190614d34565b6116389083614ae9565b60405190815260200160405180910390a18434101561168e5760405162461bcd60e51b8152602060048201526012602482015271496e73756666696369656e742066756e647360701b6044820152606401610d6b565b600054604051639b8d51b360e01b81526001600160a01b0390911690639b8d51b3906116c690339089908b908a908a90600401614d7f565b600060405180830381600087803b1580156116e057600080fd5b505af11580156116f4573d6000803e3d6000fd5b50505050843411156117955760003361170d8734614ae9565b604051600081818185875af1925050503d8060008114611749576040519150601f19603f3d011682016040523d82523d6000602084013e61174e565b606091505b50509050806117935760405162461bcd60e51b8152602060048201526011602482015270195d1a081c995d1d5c9b8819985a5b1959607a1b6044820152606401610d6b565b505b505050505050565b6117a56131fb565b6117ae826132a0565b610d0f82826132a8565b600081815260136020526040812060018101546060926001600160401b036401000000008304169263ffffffff90921691819081906117f688611eed565b600182015460029092015490999698509496506001600160401b03600160601b8204811696600160a01b90920416949350915050565b6000611836613365565b5060008051602061518983398151915290565b7ff0c57e16840df040f15088dc2f81fe391c3923bec73e23a9662efc9c229c6a008054600160401b810460ff1615906001600160401b031660008115801561188e5750825b90506000826001600160401b031660011480156118aa5750303b155b9050811580156118b8575080155b156118d65760405163f92ee8a960e01b815260040160405180910390fd5b845467ffffffffffffffff19166001178555831561190057845460ff60401b1916600160401b1785555b6040518060600160405280602a815260200161513f602a9139601d906119269082614e48565b50600080546001600160a01b03808b166001600160a01b031992831617909255601a80548d8416908316179055601b80548c84169216919091179055601c80546001600160a81b031916918d1691909117600160a01b17905561198987876133ae565b6119928c6133c0565b83156119d857845460ff60401b19168555604051600181527fc7f505b2f371ae2175ee4913f4499e1f2633a7b5936321eed1cdaeb6115181d29060200160405180910390a15b505050505050505050505050565b6000610c4582612c4c565b6119f9612dd5565b601b80546001600160a01b0319166001600160a01b0392909216919091179055565b6000611a69611a3e60086007015484611a349190614ce2565b6111969085614ae9565b600a54600b546111dc611a556111c7896001614b3e565b600854600954600c54600d54600e546133d1565b9392505050565b611a78612dd5565b601c80546001600160a01b0319166001600160a01b0392909216919091179055565b60006000805160206151698339815191526001600160a01b038316611ad5576040516322718ad960e21b815260006004820152602401610d6b565b6001600160a01b039092166000908152600390920160205250604090205490565b611afe612dd5565b611b086000613437565b565b600080805b6009811015611b6b5780600414158015611b505750838160098110611b3657611b36614abd565b602002016020810190611b499190614f07565b60ff166001145b15611b6357611b60600183614f22565b91505b600101611b0f565b508060ff16600203611b8757611a6960a0840160808501614f07565b60018160ff16111580611b9e575060048160ff1610155b611ba9576001611a69565b60009392505050565b7f9016d09d72d40fdae2fd8ceac6b6234c7706214fd39c1cd1e609a0528c199300546001600160a01b031690565b7f80bb2b638cc20bc4d0a60d66940f3ab4a00c1d7b313497ca82fb0b4ab0079301805460609160008051602061516983398151915291610c6b90614a83565b60008181526013602052604081206001015464010000000090046001600160401b03168161012c6002611c528443614ae9565b611c5c9190614d1d565b611c669190614d34565b949350505050565b610d0f3383836134a8565b6040805160c081018252600060608083018281526080840183905260a0840183905283528351808201855282815260208181018490528186018490528085019190915284519182018552828252810182905280840182905292820192909252815b6009811015611d5057838160098110611cf557611cf5614abd565b602002015160ff1660011482600383611d0e9190614d34565b60038110611d1e57611d1e614abd565b6020020151611d2e600384614ce2565b60038110611d3e57611d3e614abd565b91151560209092020152600101611cda565b506001806000805b60038160ff161015611de85760005b60038160ff161015611ddf578460ff168260ff16148015611d8d57508360ff168160ff16145b611dd757858260ff1660038110611da657611da6614abd565b60200201518160ff1660038110611dbf57611dbf614abd565b602002015115611dd75782611dd381614f3b565b9350505b600101611d67565b50600101611d58565b50838360ff1660038110611dfe57611dfe614abd565b60200201518260ff1660038110611e1757611e17614abd565b602002015115611e53578060ff1660021480611e3657508060ff166003145b15611e475750600195945050505050565b50600095945050505050565b8060ff16600303611e475750600195945050505050565b601c546001600160a01b03163314611eb85760405162461bcd60e51b81526020600482015260116024820152701c195c9b5a5cdcda5bdb8819195b9a5959607a1b6044820152606401610d6b565b601c8054911515600160a01b0260ff60a01b19909216919091179055565b611ee1848484610f0f565b610f9484848484613559565b6000818152601360205260409020606090816009805b8015611fa5576000611f40611f19600184614ae9565b600881901c6000908152600388016020526040902054600160ff9092169190911b16151590565b90508015611f6f5783604051602001611f599190614f5a565b6040516020818303038152906040529350611f92565b83604051602001611f809190614f7f565b60405160208183030381529060405293505b5080611f9d81614fa4565b915050611f03565b5090949350505050565b601c54600160a01b900460ff16611fd85760405162461bcd60e51b8152600401610d6b90614b15565b601a546001600160a01b031633146120205760405162461bcd60e51b815260206004820152600b60248201526a36bab9ba103132903232bb60a91b6044820152606401610d6b565b6018548061205d5760405162461bcd60e51b815260206004820152600a6024820152696e6f206465762066656560b01b6044820152606401610d6b565b60006018819055506000826001600160a01b0316826040515b60006040518083038185875af1925050503d80600081146120b3576040519150601f19603f3d011682016040523d82523d6000602084013e6120b8565b606091505b50509050806110f45760405162461bcd60e51b815260206004820152600f60248201526e195d1a081cd95b990819985a5b1959608a1b6044820152606401610d6b565b612103612dd5565b600254600354146121485760405162461bcd60e51b815260206004820152600f60248201526e61756374696f6e206f6e676f696e6760881b6044820152606401610d6b565b42831161218b5760405162461bcd60e51b8152602060048201526011602482015270696e76616c696420737461727454696d6560781b6044820152606401610d6b565b60006121a76121a287670de0b6b3a7640000614fbb565b61367b565b9050600081126121f95760405162461bcd60e51b815260206004820152601b60248201527f4e4f4e5f4e454741544956455f44454341595f434f4e5354414e5400000000006044820152606401610d6b565b6122056101ff84614ce2565b156122525760405162461bcd60e51b815260206004820152601760248201527f696e76616c69642073656c6c61626c65206e756d6265720000000000000000006044820152606401610d6b565b600060035560019390935560049590955560059190915560069190915560025550600755565b606061228382612c4c565b50600061228e6138b1565b905060008151116122ae5760405180602001604052806000815250611a69565b806122b884613129565b60405160200161112f929190614fdb565b6002546003541061230f5760405162461bcd60e51b815260206004820152601060248201526f185d58dd1a5bdb88199a5b9a5cda195960821b6044820152606401610d6b565b60015442116123545760405162461bcd60e51b8152602060048201526011602482015270185d58dd1a5bdb881b9bdd081cdd185c9d607a1b6044820152606401610d6b565b600061235e611161565b9050803410156123a55760405162461bcd60e51b8152602060048201526012602482015271496e73756666696369656e742066756e647360701b6044820152606401610d6b565b6014546123b23382613943565b600380549060006123c283614afc565b9091555050601480549060006123d783614afc565b919050555060006123e66125dd565b6000838152601360209081526040808320868155600181018054426001600160401b03908116600160601b0267ffffffffffffffff60601b1943929092166401000000000291909116640100000000600160a01b03199092169190911717905560028101889055838052600381019092528220805484179055919250805b60098110156124a657600881901c6000908152600384016020526040902054600160ff83161b161561249e5761249b60018361500a565b91505b600101612464565b5060018201805463ffffffff191663ffffffff8316179055601880548691906000906124d3908490614b3e565b909155505060408051858152602081018790527f9f74ee5818c4770a14515d68c91cf4bbb689a4746304b42e83d03bd08afea52d910160405180910390a1843411156125ac576000336125268734614ae9565b604051600081818185875af1925050503d8060008114612562576040519150601f19603f3d011682016040523d82523d6000602084013e612567565b606091505b50509050806117955760405162461bcd60e51b8152602060048201526011602482015270195d1a081c995d1d5c9b8819985a5b1959607a1b6044820152606401610d6b565b5050505050565b6125bb612dd5565b601a80546001600160a01b0319166001600160a01b0392909216919091179055565b600080423360405160200161260e92919091825260601b6bffffffffffffffffffffffff1916602082015260340190565b6040516020818303038152906040528051906020012060001c905060005b6101ff8110156126ad5760006101ff6126458385614b3e565b61264f9190614ce2565b600881901c600090815260116020526040902054909150600160ff83161b166126a457600881901c60009081526011602052604090208054600160ff84161b17905561269c816001614b3e565b935050505090565b5060010161262c565b50601160205260007f4ad3b33220dddc71b994a52d72c06b10862965f7d926534c05c00fb7e819e7b781905560018082527f17bc176d2408558f6e4111feebc3cab4e16b63e967be91cde721f4c8a488b5528290556012805491929091612715908490614b3e565b909155506111e190506125dd565b61272b612dd5565b60006127426121a288670de0b6b3a7640000614fbb565b9050600081126127945760405162461bcd60e51b815260206004820152601b60248201527f4e4f4e5f4e454741544956455f44454341595f434f4e5354414e5400000000006044820152606401610d6b565b600899909955600997909755600a95909555600b96909655600c91909155600d5550600e92909255600f91909155601080546001600160a01b0319166001600160a01b03909216919091179055565b6000806127ef836139a8565b90506000805b82518110156128465760006015600085848151811061281657612816614abd565b60200260200101518152602001908152602001600020549050808361283b9190614b3e565b9250506001016127f5565b509392505050565b6001600160a01b0391821660009081527f80bb2b638cc20bc4d0a60d66940f3ab4a00c1d7b313497ca82fb0b4ab00793056020908152604080832093909416825291909152205460ff1690565b601c54600160a01b900460ff166128c45760405162461bcd60e51b8152600401610d6b90614b15565b60006128cf826139a8565b90506000805b82518110156129d25760006129028483815181106128f5576128f5614abd565b6020026020010151613b42565b9050336001600160a01b03821614612938576040516318256a9b60e01b81526001600160a01b0382166004820152602401610d6b565b60006015600086858151811061295057612950614abd565b6020026020010151815260200190815260200160002054905060008111156129c85761297c8185614b3e565b935060006015600087868151811061299657612996614abd565b602002602001015181526020019081526020016000208190555080601760008282546129c29190614ae9565b90915550505b50506001016128d5565b5060008111612a115760405162461bcd60e51b815260206004820152600b60248201526a6e6f2072656e742066656560a81b6044820152606401610d6b565b6000336001600160a01b03168260405161105a565b612a2e612dd5565b601454612a3b8282613943565b60148054906000612a4b83614afc565b91905055506000612a5a6125dd565b6000838152601360209081526040808320868155600181018054426001600160401b03908116600160601b0267ffffffffffffffff60601b1943929092166401000000000291909116640100000000600160a01b03199092169190911717905560028101849055838052600381019092528220805484179055919250805b6009811015612b1a57600881901c6000908152600384016020526040902054600160ff83161b1615612b1257612b0f60018361500a565b91505b600101612ad8565b50600191909101805463ffffffff191663ffffffff909216919091179055505050565b612b45612dd5565b6001600160a01b038116612b6f57604051631e4fbdf760e01b815260006004820152602401610d6b565b612b7881613437565b50565b601c54600160a01b900460ff16612ba45760405162461bcd60e51b8152600401610d6b90614b15565b601b546001600160a01b03163314612bf15760405162461bcd60e51b815260206004820152601060248201526f6d75737420626520747265617375727960801b6044820152606401610d6b565b60195480612c2f5760405162461bcd60e51b815260206004820152600b60248201526a6e6f20706f6f6c2066656560a81b6044820152606401610d6b565b60006019819055506000826001600160a01b031682604051612076565b600080612c5883613b42565b90506001600160a01b038116610c4557604051637e27328960e01b815260048101849052602401610d6b565b60009081527f80bb2b638cc20bc4d0a60d66940f3ab4a00c1d7b313497ca82fb0b4ab007930460205260409020546001600160a01b031690565b6110f48383836001613b7c565b600060008051602061516983398151915281612ce685613b42565b90506001600160a01b03841615612d0257612d02818587613c92565b6001600160a01b03811615612d4257612d1f600086600080613b7c565b6001600160a01b0381166000908152600383016020526040902080546000190190555b6001600160a01b03861615612d73576001600160a01b03861660009081526003830160205260409020805460010190555b600085815260028301602052604080822080546001600160a01b0319166001600160a01b038a811691821790925591518893918516917fddf252ad1be2c89b69c2b068fc378daa952ba7f163c4a11628f55a4df523b3ef91a495945050505050565b33612dde611bb2565b6001600160a01b031614611b085760405163118cdaa760e01b8152336004820152602401610d6b565b6000818152601360205260408082208151600380825260808201909352606093919291829182816020015b6060815260200190600190039081612e3257905050905060005b82811015612f7557836001600160401b03811115612e6c57612e6c61434d565b604051908082528060200260200182016040528015612e95578160200160208202803683370190505b50828281518110612ea857612ea8614abd565b602002602001018190525060005b84811015612f6c57612f1d600182612ece8886614d1d565b612ed89190614b3e565b612ee28789614d1d565b612eec9190614ae9565b612ef69190614ae9565b600881901c6000908152600389016020526040902054600160ff9092169190911b16151590565b612f28576000612f2b565b60015b60ff16838381518110612f4057612f40614abd565b60200260200101518281518110612f5957612f59614abd565b6020908102919091010152600101612eb6565b50600101612e4c565b50604080516020810190915260008082525b8381101561311e576000838281518110612fa357612fa3614abd565b6020026020010151600081518110612fbd57612fbd614abd565b602002602001015190506000805b878110156130a3576000868581518110612fe757612fe7614abd565b6020026020010151828151811061300057613000614abd565b60200260200101519050838103613023578261301b81614afc565b93505061309a565b8561302d84613129565b8560011461305457604051806040016040528060018152602001603160f91b81525061306f565b604051806040016040528060018152602001606f60f81b8152505b60405160200161308193929190615027565b6040516020818303038152906040529550809350600192505b50600101612fcb565b50836130ae82613129565b836001146130d557604051806040016040528060018152602001603160f91b8152506130f0565b604051806040016040528060018152602001606f60f81b8152505b6040516020016131029392919061506a565b60408051808303601f1901815291905293505050600101612f87565b509695505050505050565b6060600061313683613cf6565b60010190506000816001600160401b038111156131555761315561434d565b6040519080825280601f01601f19166020018201604052801561317f576020820181803683370190505b5090508181016020015b600019016f181899199a1a9b1b9c1cb0b131b232b360811b600a86061a8153600a850494508461318957509392505050565b6000670de0b6b3a76400008302829005611a69565b60006131f2846131ed670de0b6b3a7640000858903870205613dce565b613f77565b95945050505050565b306001600160a01b037f000000000000000000000000000000000000000000000000000000000000000016148061328257507f00000000000000000000000000000000000000000000000000000000000000006001600160a01b0316613276600080516020615189833981519152546001600160a01b031690565b6001600160a01b031614155b15611b085760405163703e46dd60e11b815260040160405180910390fd5b612b78612dd5565b816001600160a01b03166352d1902d6040518163ffffffff1660e01b8152600401602060405180830381865afa925050508015613302575060408051601f3d908101601f191682019092526132ff918101906150b9565b60015b61332a57604051634c9c8ce360e01b81526001600160a01b0383166004820152602401610d6b565b600080516020615189833981519152811461335b57604051632a87526960e21b815260048101829052602401610d6b565b6110f48383613faa565b306001600160a01b037f00000000000000000000000000000000000000000000000000000000000000001614611b085760405163703e46dd60e11b815260040160405180910390fd5b6133b6614000565b610d0f8282614049565b6133c8614000565b612b788161407a565b6000858712156134195761340f6133ff670de0b6b3a7640000898701671bc16d674ec800008802050361367b565b670de0b6b3a76400000284900590565b600003905061342d565b50848603670de0b6b3a76400000281900584015b9695505050505050565b7f9016d09d72d40fdae2fd8ceac6b6234c7706214fd39c1cd1e609a0528c19930080546001600160a01b031981166001600160a01b03848116918217845560405192169182907f8be0079c531659141344cd1fd0a4f28419497f9722a3daafe3b4186f6b6457e090600090a3505050565b6000805160206151698339815191526001600160a01b0383166134e957604051630b61174360e31b81526001600160a01b0384166004820152602401610d6b565b6001600160a01b038481166000818152600584016020908152604080832094881680845294825291829020805460ff191687151590811790915591519182527f17307eab39ab6107e8899845ad3d59bd9653f200f220920489ca2b5937696c31910160405180910390a350505050565b6001600160a01b0383163b15610f9457604051630a85bd0160e11b81526001600160a01b0384169063150b7a029061359b9033908890879087906004016150d2565b6020604051808303816000875af19250505080156135d6575060408051601f3d908101601f191682019092526135d391810190615105565b60015b61363f573d808015613604576040519150601f19603f3d011682016040523d82523d6000602084013e613609565b606091505b50805160000361363757604051633250574960e11b81526001600160a01b0385166004820152602401610d6b565b805181602001fd5b6001600160e01b03198116630a85bd0160e11b146125ac57604051633250574960e11b81526001600160a01b0385166004820152602401610d6b565b60008082136136b85760405162461bcd60e51b815260206004820152600960248201526815539111519253915160ba1b6044820152606401610d6b565b5060606fffffffffffffffffffffffffffffffff821160071b82811c6001600160401b031060061b1782811c63ffffffff1060051b1782811c61ffff1060041b1782811c60ff10600390811b90911783811c600f1060021b1783811c909110600190811b90911783811c90911017609f81810383019390931b90921c6c465772b2bbbb5f824b15207a3081018102821d6d0388eaa27412d5aca026815d636e018102821d6d0df99ac502031bf953eff472fdcc018102821d6d13cdffb29d51d99322bdff5f2211018102821d6d0a0f742023def783a307a986912e018102821d6d01920d8043ca89b5239253284e42018102821d6c0b7a86d7375468fac667a0a527016c29508e458543d8aa4df2abee7882018202831d6d0139601a2efabe717e604cbb4894018202831d6d02247f7a7b6594320649aa03aba1018202831d6c8c3f38e95a6b1ff2ab1c3b343619018202831d6d02384773bdf1ac5676facced60901901820290921d6cb9a025d814b29c212b8b1a07cd190102780a09507084cc699bb0e71ea869ffffffffffffffffffffffff190105711340daa0d5f769dba1915cef59f0815a550602605f19919091017d0267a36c0c95b3975ab3ee5b203a7614a3f75373f047d803ae7b6687f2b302017d57115e47018c7177eebf7cd370a3356a1b7863008a5ae8028c72b88642840160ae1d90565b6060601d80546138c090614a83565b80601f01602080910402602001604051908101604052809291908181526020018280546138ec90614a83565b80156139395780601f1061390e57610100808354040283529160200191613939565b820191906000526020600020905b81548152906001019060200180831161391c57829003601f168201915b5050505050905090565b6001600160a01b03821661396d57604051633250574960e11b815260006004820152602401610d6b565b600061397b83836000612ccb565b90506001600160a01b038116156110f4576040516339e3563760e11b815260006004820152602401610d6b565b6060600082516001600160401b038111156139c5576139c561434d565b6040519080825280602002602001820160405280156139ee578160200160208202803683370190505b5090506000805b8451811015613aa8576000805b83811015613a5457848181518110613a1c57613a1c614abd565b6020026020010151878481518110613a3657613a36614abd565b602002602001015103613a4c5760019150613a54565b600101613a02565b5080613a9f57858281518110613a6c57613a6c614abd565b6020026020010151848481518110613a8657613a86614abd565b602090810291909101015282613a9b81614afc565b9350505b506001016139f5565b506000816001600160401b03811115613ac357613ac361434d565b604051908082528060200260200182016040528015613aec578160200160208202803683370190505b50905060005b82811015613b3957838181518110613b0c57613b0c614abd565b6020026020010151828281518110613b2657613b26614abd565b6020908102919091010152600101613af2565b50949350505050565b60009081527f80bb2b638cc20bc4d0a60d66940f3ab4a00c1d7b313497ca82fb0b4ab007930260205260409020546001600160a01b031690565b6000805160206151698339815191528180613b9f57506001600160a01b03831615155b15613c61576000613baf85612c4c565b90506001600160a01b03841615801590613bdb5750836001600160a01b0316816001600160a01b031614155b8015613bee5750613bec818561284e565b155b15613c175760405163a9fbf51f60e01b81526001600160a01b0385166004820152602401610d6b565b8215613c5f5784866001600160a01b0316826001600160a01b03167f8c5be1e5ebec7d5bd14f71427d1e84f3dd0314c0f7b2291e5b200ac8c7c3b92560405160405180910390a45b505b600093845260040160205250506040902080546001600160a01b0319166001600160a01b0392909216919091179055565b613c9d838383614082565b6110f4576001600160a01b038316613ccb57604051637e27328960e01b815260048101829052602401610d6b565b60405163177e802f60e01b81526001600160a01b038316600482015260248101829052604401610d6b565b60008072184f03e93ff9f4daa797ed6e38ed64bf6a1f0160401b8310613d355772184f03e93ff9f4daa797ed6e38ed64bf6a1f0160401b830492506040015b6d04ee2d6d415b85acef81000000008310613d61576d04ee2d6d415b85acef8100000000830492506020015b662386f26fc100008310613d7f57662386f26fc10000830492506010015b6305f5e1008310613d97576305f5e100830492506008015b6127108310613dab57612710830492506004015b60648310613dbd576064830492506002015b600a8310610c455760010192915050565b6000680248ce36a70cb26b3e198213613de957506000919050565b680755bf798b4a1bf1e58212613e305760405162461bcd60e51b815260206004820152600c60248201526b4558505f4f564552464c4f5760a01b6044820152606401610d6b565b6503782dace9d9604e83901b059150600060606bb17217f7d1cf79abc9e3b39884821b056001605f1b01901d6bb17217f7d1cf79abc9e3b39881029093036c240c330e9fb2d9cbaf0fd5aafb1981018102606090811d6d0277594991cfc85f6e2461837cd9018202811d6d1a521255e34f6a5061b25ef1c9c319018202811d6db1bbb201f443cf962f1a1d3db4a5018202811d6e02c72388d9f74f51a9331fed693f1419018202811d6e05180bb14799ab47a8a8cb2a527d57016d02d16720577bd19bf614176fe9ea6c10fe68e7fd37d0007b713f765084018402831d9081019084016d01d3967ed30fc4f89c02bab5708119010290911d6e0587f503bb6ea29d25fcb740196450019091026d360d7aeea093263ecc6e0ecb291760621b010574029d9dc38563c32e5c2f6dc192ee70ef65f9978af30260c3939093039290921c92915050565b81810282158382058314176000198410600160ff1b84131716613f9957600080fd5b670de0b6b3a7640000900592915050565b613fb3826140e7565b6040516001600160a01b038316907fbc7cd75a20ee27fd9adebab32041f755214dbc6bffa90cc0225b39da2e5c2d3b90600090a2805115613ff8576110f4828261414c565b610d0f6141b9565b7ff0c57e16840df040f15088dc2f81fe391c3923bec73e23a9662efc9c229c6a0054600160401b900460ff16611b0857604051631afcd79f60e31b815260040160405180910390fd5b614051614000565b6000805160206151698339815191528061406b8482614e48565b5060018101610f948382614e48565b612b45614000565b60006001600160a01b03831615801590611c665750826001600160a01b0316846001600160a01b031614806140bc57506140bc848461284e565b80611c665750826001600160a01b03166140d583612c84565b6001600160a01b031614949350505050565b806001600160a01b03163b60000361411d57604051634c9c8ce360e01b81526001600160a01b0382166004820152602401610d6b565b60008051602061518983398151915280546001600160a01b0319166001600160a01b0392909216919091179055565b6060600080846001600160a01b0316846040516141699190615122565b600060405180830381855af49150503d80600081146141a4576040519150601f19603f3d011682016040523d82523d6000602084013e6141a9565b606091505b50915091506131f28583836141d8565b3415611b085760405163b398979f60e01b815260040160405180910390fd5b6060826141ed576141e882614234565b611a69565b815115801561420457506001600160a01b0384163b155b1561422d57604051639996b31560e01b81526001600160a01b0385166004820152602401610d6b565b5080611a69565b8051156142445780518082602001fd5b604051630a12f52160e11b815260040160405180910390fd5b6001600160e01b031981168114612b7857600080fd5b60006020828403121561428557600080fd5b8135611a698161425d565b60005b838110156142ab578181015183820152602001614293565b50506000910152565b600081518084526142cc816020860160208601614290565b601f01601f19169290920160200192915050565b602081526000611a6960208301846142b4565b60006020828403121561430557600080fd5b5035919050565b6001600160a01b0381168114612b7857600080fd5b6000806040838503121561433457600080fd5b823561433f8161430c565b946020939093013593505050565b634e487b7160e01b600052604160045260246000fd5b604051601f8201601f191681016001600160401b038111828210171561438b5761438b61434d565b604052919050565b60006001600160401b038211156143ac576143ac61434d565b5060051b60200190565b600082601f8301126143c757600080fd5b813560206143dc6143d783614393565b614363565b8083825260208201915060208460051b8701019350868411156143fe57600080fd5b602086015b8481101561311e5780358352918301918301614403565b60006020828403121561442c57600080fd5b81356001600160401b0381111561444257600080fd5b611c66848285016143b6565b60008151808452602080850194506020840160005b8381101561447f57815187529582019590820190600101614463565b509495945050505050565b602081526000611a69602083018461444e565b6000806000606084860312156144b257600080fd5b83356144bd8161430c565b925060208401356144cd8161430c565b929592945050506040919091013590565b600080602083850312156144f157600080fd5b82356001600160401b038082111561450857600080fd5b818501915085601f83011261451c57600080fd5b81358181111561452b57600080fd5b86602082850101111561453d57600080fd5b60209290920196919550909350505050565b6000602080838503121561456257600080fd5b82356001600160401b038082111561457957600080fd5b818501915085601f83011261458d57600080fd5b813561459b6143d782614393565b81815260059190911b830184019084810190888311156145ba57600080fd5b8585015b838110156145f2578035858111156145d65760008081fd5b6145e48b89838a01016143b6565b8452509186019186016145be565b5098975050505050505050565b600082601f83011261461057600080fd5b81356001600160401b038111156146295761462961434d565b61463c601f8201601f1916602001614363565b81815284602083860101111561465157600080fd5b816020850160208301376000918101602001919091529392505050565b6000806040838503121561468157600080fd5b823561468c8161430c565b915060208301356001600160401b038111156146a757600080fd5b6146b3858286016145ff565b9150509250929050565b60c0815260006146d060c08301896142b4565b60208301979097525060408101949094526001600160401b0392831660608501529116608083015260a090910152919050565b600080600080600080600060e0888a03121561471e57600080fd5b87356147298161430c565b965060208801356147398161430c565b955060408801356147498161430c565b945060608801356147598161430c565b935060808801356147698161430c565b925060a08801356001600160401b038082111561478557600080fd5b6147918b838c016145ff565b935060c08a01359150808211156147a757600080fd5b506147b48a828b016145ff565b91505092959891949750929550565b6000602082840312156147d557600080fd5b8135611a698161430c565b600080604083850312156147f357600080fd5b50508035926020909101359150565b600061012080838503121561481657600080fd5b83818401111561482557600080fd5b509092915050565b8035801515811461483d57600080fd5b919050565b6000806040838503121561485557600080fd5b82356148608161430c565b915061486e6020840161482d565b90509250929050565b803560ff8116811461483d57600080fd5b600061012080838503121561489c57600080fd5b83601f8401126148ab57600080fd5b6040518181018181106001600160401b03821117156148cc576148cc61434d565b6040529083019080858311156148e157600080fd5b845b83811015614902576148f481614877565b8252602091820191016148e3565b509095945050505050565b60006020828403121561491f57600080fd5b611a698261482d565b6000806000806080858703121561493e57600080fd5b84356149498161430c565b935060208501356149598161430c565b92506040850135915060608501356001600160401b0381111561497b57600080fd5b614987878288016145ff565b91505092959194509250565b60008060008060008060c087890312156149ac57600080fd5b505084359660208601359650604086013595606081013595506080810135945060a0013592509050565b60008060008060008060008060006101208a8c0312156149f557600080fd5b8935985060208a0135975060408a0135965060608a0135955060808a0135945060a08a0135935060c08a0135925060e08a013591506101008a0135614a398161430c565b809150509295985092959850929598565b60008060408385031215614a5d57600080fd5b8235614a688161430c565b91506020830135614a788161430c565b809150509250929050565b600181811c90821680614a9757607f821691505b602082108103614ab757634e487b7160e01b600052602260045260246000fd5b50919050565b634e487b7160e01b600052603260045260246000fd5b634e487b7160e01b600052601160045260246000fd5b81810381811115610c4557610c45614ad3565b600060018201614b0e57614b0e614ad3565b5060010190565b6020808252600f908201526e1dda5d1a191c985dc81c185d5cd959608a1b604082015260600190565b80820180821115610c4557610c45614ad3565b601f8211156110f4576000816000526020600020601f850160051c81016020861015614b7a5750805b601f850160051c820191505b8181101561179557828155600101614b86565b6001600160401b03831115614bb057614bb061434d565b614bc483614bbe8354614a83565b83614b51565b6000601f841160018114614bf85760008515614be05750838201355b600019600387901b1c1916600186901b1783556125ac565b600083815260209020601f19861690835b82811015614c295786850135825560209485019460019092019101614c09565b5086821015614c465760001960f88860031b161c19848701351681555b505060018560011b0183555050505050565b6303c101e960e51b815260008451614c77816004850160208901614290565b65016103c901e960d51b6004918401918201528451614c9d81600a840160208901614290565b600560f91b600a92909101918201528351614cbf81600b840160208801614290565b01600b0195945050505050565b634e487b7160e01b600052601260045260246000fd5b600082614cf157614cf1614ccc565b500690565b6001600160401b03818116838216019080821115614d1657614d16614ad3565b5092915050565b8082028115828204841417610c4557610c45614ad3565b600082614d4357614d43614ccc565b500490565b60008151808452602080850194506020840160005b8381101561447f57815163ffffffff1687529582019590820190600101614d5d565b600060a0820160018060a01b03881683526020878185015260a0604085015281875180845260c08601915060c08160051b87010193508289016000805b83811015614e105788870360bf19018552825180518089529087019087890190845b81811015614dfa57835183529289019291890191600101614dde565b5090985050509385019391850191600101614dbc565b5050505050508281036060840152614e28818661444e565b90508281036080840152614e3c8185614d48565b98975050505050505050565b81516001600160401b03811115614e6157614e6161434d565b614e7581614e6f8454614a83565b84614b51565b602080601f831160018114614eaa5760008415614e925750858301515b600019600386901b1c1916600185901b178555611795565b600085815260208120601f198616915b82811015614ed957888601518255948401946001909101908401614eba565b5085821015614ef75787850151600019600388901b60f8161c191681555b5050505050600190811b01905550565b600060208284031215614f1957600080fd5b611a6982614877565b60ff8181168382160190811115610c4557610c45614ad3565b600060ff821660ff8103614f5157614f51614ad3565b60010192915050565b60008251614f6c818460208701614290565b603160f81b920191825250600101919050565b60008251614f91818460208701614290565b600360fc1b920191825250600101919050565b600081614fb357614fb3614ad3565b506000190190565b8181036000831280158383131683831282161715614d1657614d16614ad3565b60008351614fed818460208801614290565b835190830190615001818360208801614290565b01949350505050565b63ffffffff818116838216019080821115614d1657614d16614ad3565b60008451615039818460208901614290565b84519083019061504d818360208901614290565b8451910190615060818360208801614290565b0195945050505050565b6000845161507c818460208901614290565b845190830190615090818360208901614290565b84519101906150a3818360208801614290565b600960fa1b910190815260010195945050505050565b6000602082840312156150cb57600080fd5b5051919050565b6001600160a01b038581168252841660208201526040810183905260806060820181905260009061342d908301846142b4565b60006020828403121561511757600080fd5b8151611a698161425d565b60008251615134818460208701614290565b919091019291505056fe68747470733a2f2f666163746f72796170692e63656c6c756c612e6c6966652f63656c6c546f6b656e2f80bb2b638cc20bc4d0a60d66940f3ab4a00c1d7b313497ca82fb0b4ab0079300360894a13ba1a3210667c828492db98dca3e2076cc3735a920a3ca505d382bbca2646970667358221220405cfe2f2bc1c15ff2d3a4a0663bbf1421e7ce893b15fae4706892db6bcb2d5864736f6c63430008170033",
			"opcodes": "PUSH1 0xA0 PUSH1 0x40 MSTORE ADDRESS PUSH1 0x80 MSTORE CALLVALUE DUP1 ISZERO PUSH3 0x15 JUMPI PUSH1 0x0 DUP1 REVERT JUMPDEST POP PUSH3 0x20 PUSH3 0x26 JUMP JUMPDEST PUSH3 0xDA JUMP JUMPDEST PUSH32 0xF0C57E16840DF040F15088DC2F81FE391C3923BEC73E23A9662EFC9C229C6A00 DUP1 SLOAD PUSH9 0x10000000000000000 SWAP1 DIV PUSH1 0xFF AND ISZERO PUSH3 0x77 JUMPI PUSH1 0x40 MLOAD PUSH4 0xF92EE8A9 PUSH1 0xE0 SHL DUP2 MSTORE PUSH1 0x4 ADD PUSH1 0x40 MLOAD DUP1 SWAP2 SUB SWAP1 REVERT JUMPDEST DUP1 SLOAD PUSH1 0x1 PUSH1 0x1 PUSH1 0x40 SHL SUB SWAP1 DUP2 AND EQ PUSH3 0xD7 JUMPI DUP1 SLOAD PUSH1 0x1 PUSH1 0x1 PUSH1 0x40 SHL SUB NOT AND PUSH1 0x1 PUSH1 0x1 PUSH1 0x40 SHL SUB SWAP1 DUP2 OR DUP3 SSTORE PUSH1 0x40 MLOAD SWAP1 DUP2 MSTORE PUSH32 0xC7F505B2F371AE2175EE4913F4499E1F2633A7B5936321EED1CDAEB6115181D2 SWAP1 PUSH1 0x20 ADD PUSH1 0x40 MLOAD DUP1 SWAP2 SUB SWAP1 LOG1 JUMPDEST POP JUMP JUMPDEST PUSH1 0x80 MLOAD PUSH2 0x51DE PUSH3 0x104 PUSH1 0x0 CODECOPY PUSH1 0x0 DUP2 DUP2 PUSH2 0x3206 ADD MSTORE DUP2 DUP2 PUSH2 0x322F ADD MSTORE PUSH2 0x3370 ADD MSTORE PUSH2 0x51DE PUSH1 0x0 RETURN INVALID PUSH1 0x80 PUSH1 0x40 MSTORE PUSH1 0x4 CALLDATASIZE LT PUSH2 0x3A6 JUMPI PUSH1 0x0 CALLDATALOAD PUSH1 0xE0 SHR DUP1 PUSH4 0x7C772596 GT PUSH2 0x1E7 JUMPI DUP1 PUSH4 0xC87B56DD GT PUSH2 0x10D JUMPI DUP1 PUSH4 0xE985E9C5 GT PUSH2 0xA0 JUMPI DUP1 PUSH4 0xF6EED83D GT PUSH2 0x6F JUMPI DUP1 PUSH4 0xF6EED83D EQ PUSH2 0xB98 JUMPI DUP1 PUSH4 0xF9301910 EQ PUSH2 0xBAE JUMPI DUP1 PUSH4 0xFB141924 EQ PUSH2 0xBC3 JUMPI DUP1 PUSH4 0xFBE0C7A5 EQ PUSH2 0xBD9 JUMPI PUSH1 0x0 DUP1 REVERT JUMPDEST DUP1 PUSH4 0xE985E9C5 EQ PUSH2 0xB18 JUMPI DUP1 PUSH4 0xECC34956 EQ PUSH2 0xB38 JUMPI DUP1 PUSH4 0xF1372E26 EQ PUSH2 0xB58 JUMPI DUP1 PUSH4 0xF2FDE38B EQ PUSH2 0xB78 JUMPI PUSH1 0x0 DUP1 REVERT JUMPDEST DUP1 PUSH4 0xD28CB317 GT PUSH2 0xDC JUMPI DUP1 PUSH4 0xD28CB317 EQ PUSH2 0xAA3 JUMPI DUP1 PUSH4 0xDBDFF2C1 EQ PUSH2 0xAC3 JUMPI DUP1 PUSH4 0xDC2369DD EQ PUSH2 0xAD8 JUMPI DUP1 PUSH4 0xDE6D90D1 EQ PUSH2 0xAF8 JUMPI PUSH1 0x0 DUP1 REVERT JUMPDEST DUP1 PUSH4 0xC87B56DD EQ PUSH2 0xA3A JUMPI DUP1 PUSH4 0xC88EB8E9 EQ PUSH2 0xA5A JUMPI DUP1 PUSH4 0xCA9E6768 EQ PUSH2 0xA7B JUMPI DUP1 PUSH4 0xD0D41FE1 EQ PUSH2 0xA83 JUMPI PUSH1 0x0 DUP1 REVERT JUMPDEST DUP1 PUSH4 0xA3D62E9C GT PUSH2 0x185 JUMPI DUP1 PUSH4 0xB88D4FDE GT PUSH2 0x154 JUMPI DUP1 PUSH4 0xB88D4FDE EQ PUSH2 0x9BA JUMPI DUP1 PUSH4 0xB9AC62F5 EQ PUSH2 0x9DA JUMPI DUP1 PUSH4 0xBDD42C35 EQ PUSH2 0x9FA JUMPI DUP1 PUSH4 0xBFE9E147 EQ PUSH2 0xA1A JUMPI PUSH1 0x0 DUP1 REVERT JUMPDEST DUP1 PUSH4 0xA3D62E9C EQ PUSH2 0x933 JUMPI DUP1 PUSH4 0xAAAF1A54 EQ PUSH2 0x953 JUMPI DUP1 PUSH4 0xAABD6904 EQ PUSH2 0x969 JUMPI DUP1 PUSH4 0xAD3CB1CC EQ PUSH2 0x989 JUMPI PUSH1 0x0 DUP1 REVERT JUMPDEST DUP1 PUSH4 0x8F62B56E GT PUSH2 0x1C1 JUMPI DUP1 PUSH4 0x8F62B56E EQ PUSH2 0x8B1 JUMPI DUP1 PUSH4 0x95D89B41 EQ PUSH2 0x8DE JUMPI DUP1 PUSH4 0x9E2591DD EQ PUSH2 0x8F3 JUMPI DUP1 PUSH4 0xA22CB465 EQ PUSH2 0x913 JUMPI PUSH1 0x0 DUP1 REVERT JUMPDEST DUP1 PUSH4 0x7C772596 EQ PUSH2 0x84A JUMPI DUP1 PUSH4 0x8743DA6D EQ PUSH2 0x87C JUMPI DUP1 PUSH4 0x8DA5CB5B EQ PUSH2 0x89C JUMPI PUSH1 0x0 DUP1 REVERT JUMPDEST DUP1 PUSH4 0x48CB18D0 GT PUSH2 0x2CC JUMPI DUP1 PUSH4 0x6352211E GT PUSH2 0x26A JUMPI DUP1 PUSH4 0x704B6C02 GT PUSH2 0x239 JUMPI DUP1 PUSH4 0x704B6C02 EQ PUSH2 0x791 JUMPI DUP1 PUSH4 0x70A08231 EQ PUSH2 0x7B1 JUMPI DUP1 PUSH4 0x715018A6 EQ PUSH2 0x7D1 JUMPI DUP1 PUSH4 0x743BD935 EQ PUSH2 0x7E6 JUMPI PUSH1 0x0 DUP1 REVERT JUMPDEST DUP1 PUSH4 0x6352211E EQ PUSH2 0x711 JUMPI DUP1 PUSH4 0x6605BFDA EQ PUSH2 0x731 JUMPI DUP1 PUSH4 0x6AF65929 EQ PUSH2 0x751 JUMPI DUP1 PUSH4 0x6E342B31 EQ PUSH2 0x771 JUMPI PUSH1 0x0 DUP1 REVERT JUMPDEST DUP1 PUSH4 0x52D1902D GT PUSH2 0x2A6 JUMPI DUP1 PUSH4 0x52D1902D EQ PUSH2 0x639 JUMPI DUP1 PUSH4 0x55B6303A EQ PUSH2 0x64E JUMPI DUP1 PUSH4 0x571F0910 EQ PUSH2 0x6DB JUMPI DUP1 PUSH4 0x5C01491F EQ PUSH2 0x6FB JUMPI PUSH1 0x0 DUP1 REVERT JUMPDEST DUP1 PUSH4 0x48CB18D0 EQ PUSH2 0x5E1 JUMPI DUP1 PUSH4 0x4F1EF286 EQ PUSH2 0x5F4 JUMPI DUP1 PUSH4 0x52786334 EQ PUSH2 0x607 JUMPI PUSH1 0x0 DUP1 REVERT JUMPDEST DUP1 PUSH4 0x200B2CAF GT PUSH2 0x344 JUMPI DUP1 PUSH4 0x3C3A8746 GT PUSH2 0x313 JUMPI DUP1 PUSH4 0x3C3A8746 EQ PUSH2 0x55F JUMPI DUP1 PUSH4 0x3D504A70 EQ PUSH2 0x57F JUMPI DUP1 PUSH4 0x42842E0E EQ PUSH2 0x5AC JUMPI DUP1 PUSH4 0x4718121A EQ PUSH2 0x5CC JUMPI PUSH1 0x0 DUP1 REVERT JUMPDEST DUP1 PUSH4 0x200B2CAF EQ PUSH2 0x4D2 JUMPI DUP1 PUSH4 0x23B872DD EQ PUSH2 0x4FF JUMPI DUP1 PUSH4 0x2E1A7D4D EQ PUSH2 0x51F JUMPI DUP1 PUSH4 0x2FE24D36 EQ PUSH2 0x53F JUMPI PUSH1 0x0 DUP1 REVERT JUMPDEST DUP1 PUSH4 0x81812FC GT PUSH2 0x380 JUMPI DUP1 PUSH4 0x81812FC EQ PUSH2 0x441 JUMPI DUP1 PUSH4 0x95EA7B3 EQ PUSH2 0x461 JUMPI DUP1 PUSH4 0x1AE52519 EQ PUSH2 0x483 JUMPI DUP1 PUSH4 0x1D4CF063 EQ PUSH2 0x4AE JUMPI PUSH1 0x0 DUP1 REVERT JUMPDEST DUP1 PUSH4 0x1BC45C9 EQ PUSH2 0x3B2 JUMPI DUP1 PUSH4 0x1FFC9A7 EQ PUSH2 0x3EF JUMPI DUP1 PUSH4 0x6FDDE03 EQ PUSH2 0x41F JUMPI PUSH1 0x0 DUP1 REVERT JUMPDEST CALLDATASIZE PUSH2 0x3AD JUMPI STOP JUMPDEST PUSH1 0x0 DUP1 REVERT JUMPDEST CALLVALUE DUP1 ISZERO PUSH2 0x3BE JUMPI PUSH1 0x0 DUP1 REVERT JUMPDEST POP PUSH1 0x1C SLOAD PUSH2 0x3D2 SWAP1 PUSH1 0x1 PUSH1 0x1 PUSH1 0xA0 SHL SUB AND DUP2 JUMP JUMPDEST PUSH1 0x40 MLOAD PUSH1 0x1 PUSH1 0x1 PUSH1 0xA0 SHL SUB SWAP1 SWAP2 AND DUP2 MSTORE PUSH1 0x20 ADD JUMPDEST PUSH1 0x40 MLOAD DUP1 SWAP2 SUB SWAP1 RETURN JUMPDEST CALLVALUE DUP1 ISZERO PUSH2 0x3FB JUMPI PUSH1 0x0 DUP1 REVERT JUMPDEST POP PUSH2 0x40F PUSH2 0x40A CALLDATASIZE PUSH1 0x4 PUSH2 0x4273 JUMP JUMPDEST PUSH2 0xBF9 JUMP JUMPDEST PUSH1 0x40 MLOAD SWAP1 ISZERO ISZERO DUP2 MSTORE PUSH1 0x20 ADD PUSH2 0x3E6 JUMP JUMPDEST CALLVALUE DUP1 ISZERO PUSH2 0x42B JUMPI PUSH1 0x0 DUP1 REVERT JUMPDEST POP PUSH2 0x434 PUSH2 0xC4B JUMP JUMPDEST PUSH1 0x40 MLOAD PUSH2 0x3E6 SWAP2 SWAP1 PUSH2 0x42E0 JUMP JUMPDEST CALLVALUE DUP1 ISZERO PUSH2 0x44D JUMPI PUSH1 0x0 DUP1 REVERT JUMPDEST POP PUSH2 0x3D2 PUSH2 0x45C CALLDATASIZE PUSH1 0x4 PUSH2 0x42F3 JUMP JUMPDEST PUSH2 0xCEF JUMP JUMPDEST CALLVALUE DUP1 ISZERO PUSH2 0x46D JUMPI PUSH1 0x0 DUP1 REVERT JUMPDEST POP PUSH2 0x481 PUSH2 0x47C CALLDATASIZE PUSH1 0x4 PUSH2 0x4321 JUMP JUMPDEST PUSH2 0xD04 JUMP JUMPDEST STOP JUMPDEST CALLVALUE DUP1 ISZERO PUSH2 0x48F JUMPI PUSH1 0x0 DUP1 REVERT JUMPDEST POP PUSH2 0x499 PUSH2 0x12C DUP2 JUMP JUMPDEST PUSH1 0x40 MLOAD PUSH4 0xFFFFFFFF SWAP1 SWAP2 AND DUP2 MSTORE PUSH1 0x20 ADD PUSH2 0x3E6 JUMP JUMPDEST CALLVALUE DUP1 ISZERO PUSH2 0x4BA JUMPI PUSH1 0x0 DUP1 REVERT JUMPDEST POP PUSH2 0x4C4 PUSH1 0x14 SLOAD DUP2 JUMP JUMPDEST PUSH1 0x40 MLOAD SWAP1 DUP2 MSTORE PUSH1 0x20 ADD PUSH2 0x3E6 JUMP JUMPDEST CALLVALUE DUP1 ISZERO PUSH2 0x4DE JUMPI PUSH1 0x0 DUP1 REVERT JUMPDEST POP PUSH2 0x4F2 PUSH2 0x4ED CALLDATASIZE PUSH1 0x4 PUSH2 0x441A JUMP JUMPDEST PUSH2 0xD13 JUMP JUMPDEST PUSH1 0x40 MLOAD PUSH2 0x3E6 SWAP2 SWAP1 PUSH2 0x448A JUMP JUMPDEST CALLVALUE DUP1 ISZERO PUSH2 0x50B JUMPI PUSH1 0x0 DUP1 REVERT JUMPDEST POP PUSH2 0x481 PUSH2 0x51A CALLDATASIZE PUSH1 0x4 PUSH2 0x449D JUMP JUMPDEST PUSH2 0xF0F JUMP JUMPDEST CALLVALUE DUP1 ISZERO PUSH2 0x52B JUMPI PUSH1 0x0 DUP1 REVERT JUMPDEST POP PUSH2 0x481 PUSH2 0x53A CALLDATASIZE PUSH1 0x4 PUSH2 0x42F3 JUMP JUMPDEST PUSH2 0xF9A JUMP JUMPDEST CALLVALUE DUP1 ISZERO PUSH2 0x54B JUMPI PUSH1 0x0 DUP1 REVERT JUMPDEST POP PUSH2 0x481 PUSH2 0x55A CALLDATASIZE PUSH1 0x4 PUSH2 0x44DE JUMP JUMPDEST PUSH2 0x10DF JUMP JUMPDEST CALLVALUE DUP1 ISZERO PUSH2 0x56B JUMPI PUSH1 0x0 DUP1 REVERT JUMPDEST POP PUSH2 0x434 PUSH2 0x57A CALLDATASIZE PUSH1 0x4 PUSH2 0x42F3 JUMP JUMPDEST PUSH2 0x10F9 JUMP JUMPDEST CALLVALUE DUP1 ISZERO PUSH2 0x58B JUMPI PUSH1 0x0 DUP1 REVERT JUMPDEST POP PUSH2 0x4C4 PUSH2 0x59A CALLDATASIZE PUSH1 0x4 PUSH2 0x42F3 JUMP JUMPDEST PUSH1 0x15 PUSH1 0x20 MSTORE PUSH1 0x0 SWAP1 DUP2 MSTORE PUSH1 0x40 SWAP1 KECCAK256 SLOAD DUP2 JUMP JUMPDEST CALLVALUE DUP1 ISZERO PUSH2 0x5B8 JUMPI PUSH1 0x0 DUP1 REVERT JUMPDEST POP PUSH2 0x481 PUSH2 0x5C7 CALLDATASIZE PUSH1 0x4 PUSH2 0x449D JUMP JUMPDEST PUSH2 0x1146 JUMP JUMPDEST CALLVALUE DUP1 ISZERO PUSH2 0x5D8 JUMPI PUSH1 0x0 DUP1 REVERT JUMPDEST POP PUSH2 0x4C4 PUSH2 0x1161 JUMP JUMPDEST PUSH2 0x481 PUSH2 0x5EF CALLDATASIZE PUSH1 0x4 PUSH2 0x454F JUMP JUMPDEST PUSH2 0x11E7 JUMP JUMPDEST PUSH2 0x481 PUSH2 0x602 CALLDATASIZE PUSH1 0x4 PUSH2 0x466E JUMP JUMPDEST PUSH2 0x179D JUMP JUMPDEST CALLVALUE DUP1 ISZERO PUSH2 0x613 JUMPI PUSH1 0x0 DUP1 REVERT JUMPDEST POP PUSH2 0x627 PUSH2 0x622 CALLDATASIZE PUSH1 0x4 PUSH2 0x42F3 JUMP JUMPDEST PUSH2 0x17B8 JUMP JUMPDEST PUSH1 0x40 MLOAD PUSH2 0x3E6 SWAP7 SWAP6 SWAP5 SWAP4 SWAP3 SWAP2 SWAP1 PUSH2 0x46BD JUMP JUMPDEST CALLVALUE DUP1 ISZERO PUSH2 0x645 JUMPI PUSH1 0x0 DUP1 REVERT JUMPDEST POP PUSH2 0x4C4 PUSH2 0x182C JUMP JUMPDEST CALLVALUE DUP1 ISZERO PUSH2 0x65A JUMPI PUSH1 0x0 DUP1 REVERT JUMPDEST POP PUSH1 0x8 SLOAD PUSH1 0x9 SLOAD PUSH1 0xA SLOAD PUSH1 0xB SLOAD PUSH1 0xC SLOAD PUSH1 0xD SLOAD PUSH1 0xE SLOAD PUSH1 0xF SLOAD PUSH1 0x10 SLOAD PUSH2 0x68E SWAP9 SWAP8 SWAP7 SWAP6 SWAP5 SWAP4 SWAP3 SWAP2 SWAP1 PUSH1 0x1 PUSH1 0x1 PUSH1 0xA0 SHL SUB AND DUP10 JUMP JUMPDEST PUSH1 0x40 DUP1 MLOAD SWAP10 DUP11 MSTORE PUSH1 0x20 DUP11 ADD SWAP9 SWAP1 SWAP9 MSTORE SWAP7 DUP9 ADD SWAP6 SWAP1 SWAP6 MSTORE PUSH1 0x60 DUP8 ADD SWAP4 SWAP1 SWAP4 MSTORE PUSH1 0x80 DUP7 ADD SWAP2 SWAP1 SWAP2 MSTORE PUSH1 0xA0 DUP6 ADD MSTORE PUSH1 0xC0 DUP5 ADD MSTORE PUSH1 0xE0 DUP4 ADD MSTORE PUSH1 0x1 PUSH1 0x1 PUSH1 0xA0 SHL SUB AND PUSH2 0x100 DUP3 ADD MSTORE PUSH2 0x120 ADD PUSH2 0x3E6 JUMP JUMPDEST CALLVALUE DUP1 ISZERO PUSH2 0x6E7 JUMPI PUSH1 0x0 DUP1 REVERT JUMPDEST POP PUSH2 0x481 PUSH2 0x6F6 CALLDATASIZE PUSH1 0x4 PUSH2 0x4703 JUMP JUMPDEST PUSH2 0x1849 JUMP JUMPDEST CALLVALUE DUP1 ISZERO PUSH2 0x707 JUMPI PUSH1 0x0 DUP1 REVERT JUMPDEST POP PUSH2 0x4C4 PUSH1 0x18 SLOAD DUP2 JUMP JUMPDEST CALLVALUE DUP1 ISZERO PUSH2 0x71D JUMPI PUSH1 0x0 DUP1 REVERT JUMPDEST POP PUSH2 0x3D2 PUSH2 0x72C CALLDATASIZE PUSH1 0x4 PUSH2 0x42F3 JUMP JUMPDEST PUSH2 0x19E6 JUMP JUMPDEST CALLVALUE DUP1 ISZERO PUSH2 0x73D JUMPI PUSH1 0x0 DUP1 REVERT JUMPDEST POP PUSH2 0x481 PUSH2 0x74C CALLDATASIZE PUSH1 0x4 PUSH2 0x47C3 JUMP JUMPDEST PUSH2 0x19F1 JUMP JUMPDEST CALLVALUE DUP1 ISZERO PUSH2 0x75D JUMPI PUSH1 0x0 DUP1 REVERT JUMPDEST POP PUSH1 0x1A SLOAD PUSH2 0x3D2 SWAP1 PUSH1 0x1 PUSH1 0x1 PUSH1 0xA0 SHL SUB AND DUP2 JUMP JUMPDEST CALLVALUE DUP1 ISZERO PUSH2 0x77D JUMPI PUSH1 0x0 DUP1 REVERT JUMPDEST POP PUSH2 0x4C4 PUSH2 0x78C CALLDATASIZE PUSH1 0x4 PUSH2 0x47E0 JUMP JUMPDEST PUSH2 0x1A1B JUMP JUMPDEST CALLVALUE DUP1 ISZERO PUSH2 0x79D JUMPI PUSH1 0x0 DUP1 REVERT JUMPDEST POP PUSH2 0x481 PUSH2 0x7AC CALLDATASIZE PUSH1 0x4 PUSH2 0x47C3 JUMP JUMPDEST PUSH2 0x1A70 JUMP JUMPDEST CALLVALUE DUP1 ISZERO PUSH2 0x7BD JUMPI PUSH1 0x0 DUP1 REVERT JUMPDEST POP PUSH2 0x4C4 PUSH2 0x7CC CALLDATASIZE PUSH1 0x4 PUSH2 0x47C3 JUMP JUMPDEST PUSH2 0x1A9A JUMP JUMPDEST CALLVALUE DUP1 ISZERO PUSH2 0x7DD JUMPI PUSH1 0x0 DUP1 REVERT JUMPDEST POP PUSH2 0x481 PUSH2 0x1AF6 JUMP JUMPDEST CALLVALUE DUP1 ISZERO PUSH2 0x7F2 JUMPI PUSH1 0x0 DUP1 REVERT JUMPDEST POP PUSH1 0x1 SLOAD PUSH1 0x2 SLOAD PUSH1 0x3 SLOAD PUSH1 0x4 SLOAD PUSH1 0x5 SLOAD PUSH1 0x6 SLOAD PUSH1 0x7 SLOAD PUSH2 0x815 SWAP7 SWAP6 SWAP5 SWAP4 SWAP3 SWAP2 SWAP1 DUP8 JUMP JUMPDEST PUSH1 0x40 DUP1 MLOAD SWAP8 DUP9 MSTORE PUSH1 0x20 DUP9 ADD SWAP7 SWAP1 SWAP7 MSTORE SWAP5 DUP7 ADD SWAP4 SWAP1 SWAP4 MSTORE PUSH1 0x60 DUP6 ADD SWAP2 SWAP1 SWAP2 MSTORE PUSH1 0x80 DUP5 ADD MSTORE PUSH1 0xA0 DUP4 ADD MSTORE PUSH1 0xC0 DUP3 ADD MSTORE PUSH1 0xE0 ADD PUSH2 0x3E6 JUMP JUMPDEST CALLVALUE DUP1 ISZERO PUSH2 0x856 JUMPI PUSH1 0x0 DUP1 REVERT JUMPDEST POP PUSH2 0x86A PUSH2 0x865 CALLDATASIZE PUSH1 0x4 PUSH2 0x4802 JUMP JUMPDEST PUSH2 0x1B0A JUMP JUMPDEST PUSH1 0x40 MLOAD PUSH1 0xFF SWAP1 SWAP2 AND DUP2 MSTORE PUSH1 0x20 ADD PUSH2 0x3E6 JUMP JUMPDEST CALLVALUE DUP1 ISZERO PUSH2 0x888 JUMPI PUSH1 0x0 DUP1 REVERT JUMPDEST POP PUSH1 0x1B SLOAD PUSH2 0x3D2 SWAP1 PUSH1 0x1 PUSH1 0x1 PUSH1 0xA0 SHL SUB AND DUP2 JUMP JUMPDEST CALLVALUE DUP1 ISZERO PUSH2 0x8A8 JUMPI PUSH1 0x0 DUP1 REVERT JUMPDEST POP PUSH2 0x3D2 PUSH2 0x1BB2 JUMP JUMPDEST CALLVALUE DUP1 ISZERO PUSH2 0x8BD JUMPI PUSH1 0x0 DUP1 REVERT JUMPDEST POP PUSH2 0x4C4 PUSH2 0x8CC CALLDATASIZE PUSH1 0x4 PUSH2 0x47C3 JUMP JUMPDEST PUSH1 0x16 PUSH1 0x20 MSTORE PUSH1 0x0 SWAP1 DUP2 MSTORE PUSH1 0x40 SWAP1 KECCAK256 SLOAD DUP2 JUMP JUMPDEST CALLVALUE DUP1 ISZERO PUSH2 0x8EA JUMPI PUSH1 0x0 DUP1 REVERT JUMPDEST POP PUSH2 0x434 PUSH2 0x1BE0 JUMP JUMPDEST CALLVALUE DUP1 ISZERO PUSH2 0x8FF JUMPI PUSH1 0x0 DUP1 REVERT JUMPDEST POP PUSH2 0x4C4 PUSH2 0x90E CALLDATASIZE PUSH1 0x4 PUSH2 0x42F3 JUMP JUMPDEST PUSH2 0x1C1F JUMP JUMPDEST CALLVALUE DUP1 ISZERO PUSH2 0x91F JUMPI PUSH1 0x0 DUP1 REVERT JUMPDEST POP PUSH2 0x481 PUSH2 0x92E CALLDATASIZE PUSH1 0x4 PUSH2 0x4842 JUMP JUMPDEST PUSH2 0x1C6E JUMP JUMPDEST CALLVALUE DUP1 ISZERO PUSH2 0x93F JUMPI PUSH1 0x0 DUP1 REVERT JUMPDEST POP PUSH2 0x40F PUSH2 0x94E CALLDATASIZE PUSH1 0x4 PUSH2 0x4888 JUMP JUMPDEST PUSH2 0x1C79 JUMP JUMPDEST CALLVALUE DUP1 ISZERO PUSH2 0x95F JUMPI PUSH1 0x0 DUP1 REVERT JUMPDEST POP PUSH2 0x4C4 PUSH1 0x17 SLOAD DUP2 JUMP JUMPDEST CALLVALUE DUP1 ISZERO PUSH2 0x975 JUMPI PUSH1 0x0 DUP1 REVERT JUMPDEST POP PUSH2 0x481 PUSH2 0x984 CALLDATASIZE PUSH1 0x4 PUSH2 0x490D JUMP JUMPDEST PUSH2 0x1E6A JUMP JUMPDEST CALLVALUE DUP1 ISZERO PUSH2 0x995 JUMPI PUSH1 0x0 DUP1 REVERT JUMPDEST POP PUSH2 0x434 PUSH1 0x40 MLOAD DUP1 PUSH1 0x40 ADD PUSH1 0x40 MSTORE DUP1 PUSH1 0x5 DUP2 MSTORE PUSH1 0x20 ADD PUSH5 0x352E302E3 PUSH1 0xDC SHL DUP2 MSTORE POP DUP2 JUMP JUMPDEST CALLVALUE DUP1 ISZERO PUSH2 0x9C6 JUMPI PUSH1 0x0 DUP1 REVERT JUMPDEST POP PUSH2 0x481 PUSH2 0x9D5 CALLDATASIZE PUSH1 0x4 PUSH2 0x4928 JUMP JUMPDEST PUSH2 0x1ED6 JUMP JUMPDEST CALLVALUE DUP1 ISZERO PUSH2 0x9E6 JUMPI PUSH1 0x0 DUP1 REVERT JUMPDEST POP PUSH2 0x434 PUSH2 0x9F5 CALLDATASIZE PUSH1 0x4 PUSH2 0x42F3 JUMP JUMPDEST PUSH2 0x1EED JUMP JUMPDEST CALLVALUE DUP1 ISZERO PUSH2 0xA06 JUMPI PUSH1 0x0 DUP1 REVERT JUMPDEST POP PUSH2 0x481 PUSH2 0xA15 CALLDATASIZE PUSH1 0x4 PUSH2 0x47C3 JUMP JUMPDEST PUSH2 0x1FAF JUMP JUMPDEST CALLVALUE DUP1 ISZERO PUSH2 0xA26 JUMPI PUSH1 0x0 DUP1 REVERT JUMPDEST POP PUSH2 0x481 PUSH2 0xA35 CALLDATASIZE PUSH1 0x4 PUSH2 0x4993 JUMP JUMPDEST PUSH2 0x20FB JUMP JUMPDEST CALLVALUE DUP1 ISZERO PUSH2 0xA46 JUMPI PUSH1 0x0 DUP1 REVERT JUMPDEST POP PUSH2 0x434 PUSH2 0xA55 CALLDATASIZE PUSH1 0x4 PUSH2 0x42F3 JUMP JUMPDEST PUSH2 0x2278 JUMP JUMPDEST CALLVALUE DUP1 ISZERO PUSH2 0xA66 JUMPI PUSH1 0x0 DUP1 REVERT JUMPDEST POP PUSH1 0x1C SLOAD PUSH2 0x40F SWAP1 PUSH1 0x1 PUSH1 0xA0 SHL SWAP1 DIV PUSH1 0xFF AND DUP2 JUMP JUMPDEST PUSH2 0x481 PUSH2 0x22C9 JUMP JUMPDEST CALLVALUE DUP1 ISZERO PUSH2 0xA8F JUMPI PUSH1 0x0 DUP1 REVERT JUMPDEST POP PUSH2 0x481 PUSH2 0xA9E CALLDATASIZE PUSH1 0x4 PUSH2 0x47C3 JUMP JUMPDEST PUSH2 0x25B3 JUMP JUMPDEST CALLVALUE DUP1 ISZERO PUSH2 0xAAF JUMPI PUSH1 0x0 DUP1 REVERT JUMPDEST POP PUSH1 0x0 SLOAD PUSH2 0x3D2 SWAP1 PUSH1 0x1 PUSH1 0x1 PUSH1 0xA0 SHL SUB AND DUP2 JUMP JUMPDEST CALLVALUE DUP1 ISZERO PUSH2 0xACF JUMPI PUSH1 0x0 DUP1 REVERT JUMPDEST POP PUSH2 0x4C4 PUSH2 0x25DD JUMP JUMPDEST CALLVALUE DUP1 ISZERO PUSH2 0xAE4 JUMPI PUSH1 0x0 DUP1 REVERT JUMPDEST POP PUSH2 0x481 PUSH2 0xAF3 CALLDATASIZE PUSH1 0x4 PUSH2 0x49D6 JUMP JUMPDEST PUSH2 0x2723 JUMP JUMPDEST CALLVALUE DUP1 ISZERO PUSH2 0xB04 JUMPI PUSH1 0x0 DUP1 REVERT JUMPDEST POP PUSH2 0x4C4 PUSH2 0xB13 CALLDATASIZE PUSH1 0x4 PUSH2 0x441A JUMP JUMPDEST PUSH2 0x27E3 JUMP JUMPDEST CALLVALUE DUP1 ISZERO PUSH2 0xB24 JUMPI PUSH1 0x0 DUP1 REVERT JUMPDEST POP PUSH2 0x40F PUSH2 0xB33 CALLDATASIZE PUSH1 0x4 PUSH2 0x4A4A JUMP JUMPDEST PUSH2 0x284E JUMP JUMPDEST CALLVALUE DUP1 ISZERO PUSH2 0xB44 JUMPI PUSH1 0x0 DUP1 REVERT JUMPDEST POP PUSH2 0x481 PUSH2 0xB53 CALLDATASIZE PUSH1 0x4 PUSH2 0x441A JUMP JUMPDEST PUSH2 0x289B JUMP JUMPDEST CALLVALUE DUP1 ISZERO PUSH2 0xB64 JUMPI PUSH1 0x0 DUP1 REVERT JUMPDEST POP PUSH2 0x481 PUSH2 0xB73 CALLDATASIZE PUSH1 0x4 PUSH2 0x47C3 JUMP JUMPDEST PUSH2 0x2A26 JUMP JUMPDEST CALLVALUE DUP1 ISZERO PUSH2 0xB84 JUMPI PUSH1 0x0 DUP1 REVERT JUMPDEST POP PUSH2 0x481 PUSH2 0xB93 CALLDATASIZE PUSH1 0x4 PUSH2 0x47C3 JUMP JUMPDEST PUSH2 0x2B3D JUMP JUMPDEST CALLVALUE DUP1 ISZERO PUSH2 0xBA4 JUMPI PUSH1 0x0 DUP1 REVERT JUMPDEST POP PUSH2 0x4C4 PUSH1 0x12 SLOAD DUP2 JUMP JUMPDEST CALLVALUE DUP1 ISZERO PUSH2 0xBBA JUMPI PUSH1 0x0 DUP1 REVERT JUMPDEST POP PUSH2 0x4C4 PUSH1 0x2 DUP2 JUMP JUMPDEST CALLVALUE DUP1 ISZERO PUSH2 0xBCF JUMPI PUSH1 0x0 DUP1 REVERT JUMPDEST POP PUSH2 0x4C4 PUSH1 0x19 SLOAD DUP2 JUMP JUMPDEST CALLVALUE DUP1 ISZERO PUSH2 0xBE5 JUMPI PUSH1 0x0 DUP1 REVERT JUMPDEST POP PUSH2 0x481 PUSH2 0xBF4 CALLDATASIZE PUSH1 0x4 PUSH2 0x47C3 JUMP JUMPDEST PUSH2 0x2B7B JUMP JUMPDEST PUSH1 0x0 PUSH1 0x1 PUSH1 0x1 PUSH1 0xE0 SHL SUB NOT DUP3 AND PUSH4 0x80AC58CD PUSH1 0xE0 SHL EQ DUP1 PUSH2 0xC2A JUMPI POP PUSH1 0x1 PUSH1 0x1 PUSH1 0xE0 SHL SUB NOT DUP3 AND PUSH4 0x5B5E139F PUSH1 0xE0 SHL EQ JUMPDEST DUP1 PUSH2 0xC45 JUMPI POP PUSH4 0x1FFC9A7 PUSH1 0xE0 SHL PUSH1 0x1 PUSH1 0x1 PUSH1 0xE0 SHL SUB NOT DUP4 AND EQ JUMPDEST SWAP3 SWAP2 POP POP JUMP JUMPDEST PUSH1 0x0 DUP1 MLOAD PUSH1 0x20 PUSH2 0x5169 DUP4 CODECOPY DUP2 MLOAD SWAP2 MSTORE DUP1 SLOAD PUSH1 0x60 SWAP2 SWAP1 DUP2 SWAP1 PUSH2 0xC6B SWAP1 PUSH2 0x4A83 JUMP JUMPDEST DUP1 PUSH1 0x1F ADD PUSH1 0x20 DUP1 SWAP2 DIV MUL PUSH1 0x20 ADD PUSH1 0x40 MLOAD SWAP1 DUP2 ADD PUSH1 0x40 MSTORE DUP1 SWAP3 SWAP2 SWAP1 DUP2 DUP2 MSTORE PUSH1 0x20 ADD DUP3 DUP1 SLOAD PUSH2 0xC97 SWAP1 PUSH2 0x4A83 JUMP JUMPDEST DUP1 ISZERO PUSH2 0xCE4 JUMPI DUP1 PUSH1 0x1F LT PUSH2 0xCB9 JUMPI PUSH2 0x100 DUP1 DUP4 SLOAD DIV MUL DUP4 MSTORE SWAP2 PUSH1 0x20 ADD SWAP2 PUSH2 0xCE4 JUMP JUMPDEST DUP3 ADD SWAP2 SWAP1 PUSH1 0x0 MSTORE PUSH1 0x20 PUSH1 0x0 KECCAK256 SWAP1 JUMPDEST DUP2 SLOAD DUP2 MSTORE SWAP1 PUSH1 0x1 ADD SWAP1 PUSH1 0x20 ADD DUP1 DUP4 GT PUSH2 0xCC7 JUMPI DUP3 SWAP1 SUB PUSH1 0x1F AND DUP3 ADD SWAP2 JUMPDEST POP POP POP POP POP SWAP2 POP POP SWAP1 JUMP JUMPDEST PUSH1 0x0 PUSH2 0xCFA DUP3 PUSH2 0x2C4C JUMP JUMPDEST POP PUSH2 0xC45 DUP3 PUSH2 0x2C84 JUMP JUMPDEST PUSH2 0xD0F DUP3 DUP3 CALLER PUSH2 0x2CBE JUMP JUMPDEST POP POP JUMP JUMPDEST PUSH1 0x60 PUSH1 0x2 DUP3 MLOAD LT ISZERO DUP1 ISZERO PUSH2 0xD29 JUMPI POP PUSH1 0x9 DUP3 MLOAD GT ISZERO JUMPDEST PUSH2 0xD74 JUMPI PUSH1 0x40 MLOAD PUSH3 0x461BCD PUSH1 0xE5 SHL DUP2 MSTORE PUSH1 0x20 PUSH1 0x4 DUP3 ADD MSTORE PUSH1 0x17 PUSH1 0x24 DUP3 ADD MSTORE PUSH23 0x63616E206F6E6C792075736520322D392063656C6C7321 PUSH1 0x48 SHL PUSH1 0x44 DUP3 ADD MSTORE PUSH1 0x64 ADD JUMPDEST PUSH1 0x40 MLOAD DUP1 SWAP2 SUB SWAP1 REVERT JUMPDEST PUSH1 0x0 DUP3 MLOAD PUSH1 0x1 PUSH1 0x1 PUSH1 0x40 SHL SUB DUP2 GT ISZERO PUSH2 0xD8F JUMPI PUSH2 0xD8F PUSH2 0x434D JUMP JUMPDEST PUSH1 0x40 MLOAD SWAP1 DUP1 DUP3 MSTORE DUP1 PUSH1 0x20 MUL PUSH1 0x20 ADD DUP3 ADD PUSH1 0x40 MSTORE DUP1 ISZERO PUSH2 0xDB8 JUMPI DUP2 PUSH1 0x20 ADD PUSH1 0x20 DUP3 MUL DUP1 CALLDATASIZE DUP4 CALLDATACOPY ADD SWAP1 POP JUMPDEST POP SWAP1 POP DUP3 MLOAD PUSH1 0x1 PUSH1 0x1 PUSH1 0x40 SHL SUB DUP2 GT ISZERO PUSH2 0xDD4 JUMPI PUSH2 0xDD4 PUSH2 0x434D JUMP JUMPDEST PUSH1 0x40 MLOAD SWAP1 DUP1 DUP3 MSTORE DUP1 PUSH1 0x20 MUL PUSH1 0x20 ADD DUP3 ADD PUSH1 0x40 MSTORE DUP1 ISZERO PUSH2 0xDFD JUMPI DUP2 PUSH1 0x20 ADD PUSH1 0x20 DUP3 MUL DUP1 CALLDATASIZE DUP4 CALLDATACOPY ADD SWAP1 POP JUMPDEST POP SWAP2 POP PUSH1 0x0 JUMPDEST DUP4 MLOAD DUP2 LT ISZERO PUSH2 0xF08 JUMPI PUSH1 0x0 DUP5 DUP3 DUP2 MLOAD DUP2 LT PUSH2 0xE20 JUMPI PUSH2 0xE20 PUSH2 0x4ABD JUMP JUMPDEST PUSH1 0x20 SWAP1 DUP2 MUL SWAP2 SWAP1 SWAP2 ADD DUP2 ADD MLOAD PUSH1 0x0 DUP2 DUP2 MSTORE PUSH1 0x13 SWAP1 SWAP3 MSTORE PUSH1 0x40 DUP3 KECCAK256 PUSH1 0x1 DUP2 ADD SLOAD SWAP2 SWAP4 POP SWAP2 PUSH1 0x1 PUSH1 0x1 PUSH1 0x40 SHL SUB PUSH1 0x1 PUSH1 0xA0 SHL DUP4 DIV DUP2 AND SWAP3 PUSH2 0xE68 SWAP2 PUSH1 0x1 PUSH1 0x60 SHL SWAP1 SWAP2 DIV AND TIMESTAMP PUSH2 0x4AE9 JUMP JUMPDEST SWAP1 POP PUSH1 0x0 JUMPDEST DUP6 DUP2 LT ISZERO PUSH2 0xEAB JUMPI DUP5 DUP8 DUP3 DUP2 MLOAD DUP2 LT PUSH2 0xE88 JUMPI PUSH2 0xE88 PUSH2 0x4ABD JUMP JUMPDEST PUSH1 0x20 MUL PUSH1 0x20 ADD ADD MLOAD SUB PUSH2 0xEA3 JUMPI DUP3 PUSH2 0xE9F DUP2 PUSH2 0x4AFC JUMP JUMPDEST SWAP4 POP POP JUMPDEST PUSH1 0x1 ADD PUSH2 0xE6D JUMP JUMPDEST POP PUSH1 0x0 PUSH2 0xEB8 DUP4 DUP4 PUSH2 0x1A1B JUMP JUMPDEST SWAP1 POP DUP5 DUP8 DUP8 DUP2 MLOAD DUP2 LT PUSH2 0xECD JUMPI PUSH2 0xECD PUSH2 0x4ABD JUMP JUMPDEST PUSH1 0x20 MUL PUSH1 0x20 ADD ADD DUP2 DUP2 MSTORE POP POP DUP1 DUP9 DUP8 DUP2 MLOAD DUP2 LT PUSH2 0xEEC JUMPI PUSH2 0xEEC PUSH2 0x4ABD JUMP JUMPDEST PUSH1 0x20 SWAP1 DUP2 MUL SWAP2 SWAP1 SWAP2 ADD ADD MSTORE POP POP PUSH1 0x1 SWAP1 SWAP4 ADD SWAP3 POP PUSH2 0xE03 SWAP2 POP POP JUMP JUMPDEST POP POP SWAP2 SWAP1 POP JUMP JUMPDEST PUSH1 0x1 PUSH1 0x1 PUSH1 0xA0 SHL SUB DUP3 AND PUSH2 0xF39 JUMPI PUSH1 0x40 MLOAD PUSH4 0x32505749 PUSH1 0xE1 SHL DUP2 MSTORE PUSH1 0x0 PUSH1 0x4 DUP3 ADD MSTORE PUSH1 0x24 ADD PUSH2 0xD6B JUMP JUMPDEST PUSH1 0x0 PUSH2 0xF46 DUP4 DUP4 CALLER PUSH2 0x2CCB JUMP JUMPDEST SWAP1 POP DUP4 PUSH1 0x1 PUSH1 0x1 PUSH1 0xA0 SHL SUB AND DUP2 PUSH1 0x1 PUSH1 0x1 PUSH1 0xA0 SHL SUB AND EQ PUSH2 0xF94 JUMPI PUSH1 0x40 MLOAD PUSH4 0x64283D7B PUSH1 0xE0 SHL DUP2 MSTORE PUSH1 0x1 PUSH1 0x1 PUSH1 0xA0 SHL SUB DUP1 DUP7 AND PUSH1 0x4 DUP4 ADD MSTORE PUSH1 0x24 DUP3 ADD DUP5 SWAP1 MSTORE DUP3 AND PUSH1 0x44 DUP3 ADD MSTORE PUSH1 0x64 ADD PUSH2 0xD6B JUMP JUMPDEST POP POP POP POP JUMP JUMPDEST PUSH2 0xFA2 PUSH2 0x2DD5 JUMP JUMPDEST PUSH1 0x1C SLOAD PUSH1 0x1 PUSH1 0xA0 SHL SWAP1 DIV PUSH1 0xFF AND PUSH2 0xFCB JUMPI PUSH1 0x40 MLOAD PUSH3 0x461BCD PUSH1 0xE5 SHL DUP2 MSTORE PUSH1 0x4 ADD PUSH2 0xD6B SWAP1 PUSH2 0x4B15 JUMP JUMPDEST PUSH1 0x0 PUSH1 0x19 SLOAD PUSH1 0x18 SLOAD PUSH1 0x17 SLOAD PUSH2 0xFE0 SWAP2 SWAP1 PUSH2 0x4B3E JUMP JUMPDEST PUSH2 0xFEA SWAP2 SWAP1 PUSH2 0x4B3E JUMP JUMPDEST PUSH2 0xFF4 SWAP1 SELFBALANCE PUSH2 0x4AE9 JUMP JUMPDEST SWAP1 POP DUP1 DUP3 GT ISZERO PUSH2 0x103D JUMPI PUSH1 0x40 MLOAD PUSH3 0x461BCD PUSH1 0xE5 SHL DUP2 MSTORE PUSH1 0x20 PUSH1 0x4 DUP3 ADD MSTORE PUSH1 0x14 PUSH1 0x24 DUP3 ADD MSTORE PUSH20 0x496E73756666696369656E742062616C616E6365 PUSH1 0x60 SHL PUSH1 0x44 DUP3 ADD MSTORE PUSH1 0x64 ADD PUSH2 0xD6B JUMP JUMPDEST PUSH1 0x0 PUSH2 0x1047 PUSH2 0x1BB2 JUMP JUMPDEST SWAP1 POP PUSH1 0x0 DUP2 PUSH1 0x1 PUSH1 0x1 PUSH1 0xA0 SHL SUB AND DUP5 PUSH1 0x40 MLOAD JUMPDEST PUSH1 0x0 PUSH1 0x40 MLOAD DUP1 DUP4 SUB DUP2 DUP6 DUP8 GAS CALL SWAP3 POP POP POP RETURNDATASIZE DUP1 PUSH1 0x0 DUP2 EQ PUSH2 0x1097 JUMPI PUSH1 0x40 MLOAD SWAP2 POP PUSH1 0x1F NOT PUSH1 0x3F RETURNDATASIZE ADD AND DUP3 ADD PUSH1 0x40 MSTORE RETURNDATASIZE DUP3 MSTORE RETURNDATASIZE PUSH1 0x0 PUSH1 0x20 DUP5 ADD RETURNDATACOPY PUSH2 0x109C JUMP JUMPDEST PUSH1 0x60 SWAP2 POP JUMPDEST POP POP SWAP1 POP DUP1 PUSH2 0xF94 JUMPI PUSH1 0x40 MLOAD PUSH3 0x461BCD PUSH1 0xE5 SHL DUP2 MSTORE PUSH1 0x20 PUSH1 0x4 DUP3 ADD MSTORE PUSH1 0xF PUSH1 0x24 DUP3 ADD MSTORE PUSH15 0x195D1A081CD95B990819985A5B1959 PUSH1 0x8A SHL PUSH1 0x44 DUP3 ADD MSTORE PUSH1 0x64 ADD PUSH2 0xD6B JUMP JUMPDEST PUSH2 0x10E7 PUSH2 0x2DD5 JUMP JUMPDEST PUSH1 0x1D PUSH2 0x10F4 DUP3 DUP5 DUP4 PUSH2 0x4B99 JUMP JUMPDEST POP POP POP JUMP JUMPDEST PUSH1 0x60 PUSH1 0x0 PUSH2 0x1106 DUP4 PUSH2 0x2E07 JUMP JUMPDEST SWAP1 POP PUSH2 0x1112 PUSH1 0x3 PUSH2 0x3129 JUMP JUMPDEST PUSH2 0x111C PUSH1 0x3 PUSH2 0x3129 JUMP JUMPDEST DUP3 PUSH1 0x40 MLOAD PUSH1 0x20 ADD PUSH2 0x112F SWAP4 SWAP3 SWAP2 SWAP1 PUSH2 0x4C58 JUMP JUMPDEST PUSH1 0x40 MLOAD PUSH1 0x20 DUP2 DUP4 SUB SUB DUP2 MSTORE SWAP1 PUSH1 0x40 MSTORE SWAP2 POP POP SWAP2 SWAP1 POP JUMP JUMPDEST PUSH2 0x10F4 DUP4 DUP4 DUP4 PUSH1 0x40 MLOAD DUP1 PUSH1 0x20 ADD PUSH1 0x40 MSTORE DUP1 PUSH1 0x0 DUP2 MSTORE POP PUSH2 0x1ED6 JUMP JUMPDEST PUSH1 0x1 SLOAD PUSH1 0x0 SWAP1 DUP2 SWAP1 PUSH2 0x1173 SWAP1 TIMESTAMP PUSH2 0x4AE9 JUMP JUMPDEST SWAP1 POP PUSH2 0x11E1 PUSH2 0x11AB PUSH1 0x1 PUSH1 0x6 ADD SLOAD DUP4 PUSH2 0x118C SWAP2 SWAP1 PUSH2 0x4CE2 JUMP JUMPDEST PUSH2 0x1196 SWAP1 DUP5 PUSH2 0x4AE9 JUMP JUMPDEST PUSH3 0x15180 PUSH8 0xDE0B6B3A7640000 SWAP2 SWAP1 SWAP2 MUL DIV SWAP1 JUMP JUMPDEST PUSH1 0x4 SLOAD PUSH1 0x5 SLOAD PUSH1 0x3 SLOAD PUSH2 0x11DC SWAP1 PUSH2 0x11D4 SWAP1 PUSH2 0x11C7 SWAP1 PUSH1 0x1 PUSH2 0x4B3E JUMP JUMPDEST PUSH8 0xDE0B6B3A7640000 MUL SWAP1 JUMP JUMPDEST PUSH1 0x6 SLOAD PUSH2 0x31BB JUMP JUMPDEST PUSH2 0x31D0 JUMP JUMPDEST SWAP2 POP POP SWAP1 JUMP JUMPDEST PUSH1 0x2 DUP2 MLOAD LT ISZERO DUP1 ISZERO PUSH2 0x11FB JUMPI POP PUSH1 0x9 DUP2 MLOAD GT ISZERO JUMPDEST PUSH2 0x1241 JUMPI PUSH1 0x40 MLOAD PUSH3 0x461BCD PUSH1 0xE5 SHL DUP2 MSTORE PUSH1 0x20 PUSH1 0x4 DUP3 ADD MSTORE PUSH1 0x17 PUSH1 0x24 DUP3 ADD MSTORE PUSH23 0x63616E206F6E6C792075736520322D392063656C6C7321 PUSH1 0x48 SHL PUSH1 0x44 DUP3 ADD MSTORE PUSH1 0x64 ADD PUSH2 0xD6B JUMP JUMPDEST PUSH1 0x0 DUP1 DUP3 MLOAD PUSH1 0x1 PUSH1 0x1 PUSH1 0x40 SHL SUB DUP2 GT ISZERO PUSH2 0x125D JUMPI PUSH2 0x125D PUSH2 0x434D JUMP JUMPDEST PUSH1 0x40 MLOAD SWAP1 DUP1 DUP3 MSTORE DUP1 PUSH1 0x20 MUL PUSH1 0x20 ADD DUP3 ADD PUSH1 0x40 MSTORE DUP1 ISZERO PUSH2 0x1286 JUMPI DUP2 PUSH1 0x20 ADD PUSH1 0x20 DUP3 MUL DUP1 CALLDATASIZE DUP4 CALLDATACOPY ADD SWAP1 POP JUMPDEST POP SWAP1 POP PUSH1 0x0 DUP4 MLOAD PUSH1 0x1 PUSH1 0x1 PUSH1 0x40 SHL SUB DUP2 GT ISZERO PUSH2 0x12A4 JUMPI PUSH2 0x12A4 PUSH2 0x434D JUMP JUMPDEST PUSH1 0x40 MLOAD SWAP1 DUP1 DUP3 MSTORE DUP1 PUSH1 0x20 MUL PUSH1 0x20 ADD DUP3 ADD PUSH1 0x40 MSTORE DUP1 ISZERO PUSH2 0x12CD JUMPI DUP2 PUSH1 0x20 ADD PUSH1 0x20 DUP3 MUL DUP1 CALLDATASIZE DUP4 CALLDATACOPY ADD SWAP1 POP JUMPDEST POP SWAP1 POP PUSH1 0x0 DUP1 JUMPDEST DUP6 MLOAD DUP2 LT ISZERO PUSH2 0x1538 JUMPI PUSH1 0x0 DUP7 DUP3 DUP2 MLOAD DUP2 LT PUSH2 0x12F1 JUMPI PUSH2 0x12F1 PUSH2 0x4ABD JUMP JUMPDEST PUSH1 0x20 MUL PUSH1 0x20 ADD ADD MLOAD PUSH1 0x0 DUP2 MLOAD DUP2 LT PUSH2 0x130B JUMPI PUSH2 0x130B PUSH2 0x4ABD JUMP JUMPDEST PUSH1 0x20 SWAP1 DUP2 MUL SWAP2 SWAP1 SWAP2 ADD DUP2 ADD MLOAD PUSH1 0x0 DUP2 DUP2 MSTORE PUSH1 0x13 SWAP1 SWAP3 MSTORE PUSH1 0x40 SWAP1 SWAP2 KECCAK256 PUSH1 0x1 DUP2 ADD SLOAD SWAP2 SWAP3 POP SWAP1 PUSH1 0x1 PUSH1 0x60 SHL SWAP1 DIV PUSH1 0x1 PUSH1 0x1 PUSH1 0x40 SHL SUB AND PUSH2 0x137D JUMPI PUSH1 0x40 MLOAD PUSH3 0x461BCD PUSH1 0xE5 SHL DUP2 MSTORE PUSH1 0x20 PUSH1 0x4 DUP3 ADD MSTORE PUSH1 0xF PUSH1 0x24 DUP3 ADD MSTORE PUSH15 0x18D95B1B081B9BDD081B5A5B9D1959 PUSH1 0x8A SHL PUSH1 0x44 DUP3 ADD MSTORE PUSH1 0x64 ADD PUSH2 0xD6B JUMP JUMPDEST PUSH1 0x1 DUP2 ADD SLOAD PUSH1 0x0 SWAP1 PUSH2 0x139F SWAP1 PUSH1 0x1 PUSH1 0x60 SHL SWAP1 DIV PUSH1 0x1 PUSH1 0x1 PUSH1 0x40 SHL SUB AND TIMESTAMP PUSH2 0x4AE9 JUMP JUMPDEST PUSH1 0x1 DUP4 ADD SLOAD SWAP1 SWAP2 POP PUSH1 0x0 SWAP1 PUSH2 0x13C4 SWAP1 PUSH1 0x1 PUSH1 0xA0 SHL SWAP1 DIV PUSH1 0x1 PUSH1 0x1 PUSH1 0x40 SHL SUB AND DUP4 PUSH2 0x1A1B JUMP JUMPDEST PUSH1 0x0 DUP1 DUP1 MSTORE PUSH1 0x3 DUP6 ADD PUSH1 0x20 MSTORE PUSH1 0x40 SWAP1 KECCAK256 SLOAD SWAP1 SWAP2 POP DUP9 DUP7 DUP2 MLOAD DUP2 LT PUSH2 0x13EA JUMPI PUSH2 0x13EA PUSH2 0x4ABD JUMP JUMPDEST PUSH1 0x20 SWAP1 DUP2 MUL SWAP2 SWAP1 SWAP2 ADD ADD MSTORE PUSH1 0x1 DUP4 ADD SLOAD DUP8 MLOAD PUSH4 0xFFFFFFFF SWAP1 SWAP2 AND SWAP1 DUP9 SWAP1 DUP8 SWAP1 DUP2 LT PUSH2 0x1417 JUMPI PUSH2 0x1417 PUSH2 0x4ABD JUMP JUMPDEST PUSH4 0xFFFFFFFF SWAP1 SWAP3 AND PUSH1 0x20 SWAP3 DUP4 MUL SWAP2 SWAP1 SWAP2 ADD SWAP1 SWAP2 ADD MSTORE PUSH1 0x1 DUP4 DUP2 ADD DUP1 SLOAD PUSH1 0x14 SWAP1 PUSH2 0x1452 SWAP1 DUP5 SWAP1 PUSH1 0x1 PUSH1 0x1 PUSH1 0x40 SHL SUB PUSH1 0x1 PUSH1 0xA0 SHL SWAP1 SWAP2 DIV AND PUSH2 0x4CF6 JUMP JUMPDEST SWAP3 POP PUSH2 0x100 EXP DUP2 SLOAD DUP2 PUSH1 0x1 PUSH1 0x1 PUSH1 0x40 SHL SUB MUL NOT AND SWAP1 DUP4 PUSH1 0x1 PUSH1 0x1 PUSH1 0x40 SHL SUB AND MUL OR SWAP1 SSTORE POP PUSH1 0x0 PUSH1 0x64 DUP3 PUSH1 0x5 PUSH2 0x1487 SWAP2 SWAP1 PUSH2 0x4D1D JUMP JUMPDEST PUSH2 0x1491 SWAP2 SWAP1 PUSH2 0x4D34 JUMP JUMPDEST SWAP1 POP DUP1 PUSH1 0x15 PUSH1 0x0 DUP8 DUP2 MSTORE PUSH1 0x20 ADD SWAP1 DUP2 MSTORE PUSH1 0x20 ADD PUSH1 0x0 KECCAK256 PUSH1 0x0 DUP3 DUP3 SLOAD PUSH2 0x14B6 SWAP2 SWAP1 PUSH2 0x4B3E JUMP JUMPDEST SWAP3 POP POP DUP2 SWAP1 SSTORE POP DUP1 PUSH1 0x17 PUSH1 0x0 DUP3 DUP3 SLOAD PUSH2 0x14CF SWAP2 SWAP1 PUSH2 0x4B3E JUMP JUMPDEST SWAP1 SWAP2 SSTORE POP PUSH2 0x14DF SWAP1 POP DUP2 DUP9 PUSH2 0x4B3E JUMP JUMPDEST PUSH1 0x40 DUP1 MLOAD DUP8 DUP2 MSTORE PUSH1 0x20 DUP2 ADD DUP5 SWAP1 MSTORE SWAP2 SWAP9 POP PUSH32 0x738839BDA7D29C2427F1AD26DD7C7656F9279838D328A99782228CD2A7850F4B SWAP2 ADD PUSH1 0x40 MLOAD DUP1 SWAP2 SUB SWAP1 LOG1 PUSH2 0x1525 DUP3 DUP12 PUSH2 0x4B3E JUMP JUMPDEST SWAP10 POP POP PUSH1 0x1 SWAP1 SWAP5 ADD SWAP4 POP PUSH2 0x12D4 SWAP3 POP POP POP JUMP JUMPDEST POP PUSH1 0x0 PUSH2 0x1545 DUP3 DUP7 PUSH2 0x4AE9 JUMP JUMPDEST SWAP1 POP PUSH1 0x13 PUSH2 0x1554 DUP3 PUSH1 0xE PUSH2 0x4D1D JUMP JUMPDEST PUSH2 0x155E SWAP2 SWAP1 PUSH2 0x4D34 JUMP JUMPDEST PUSH1 0x18 PUSH1 0x0 DUP3 DUP3 SLOAD PUSH2 0x156F SWAP2 SWAP1 PUSH2 0x4B3E JUMP JUMPDEST SWAP1 SWAP2 SSTORE POP PUSH1 0x13 SWAP1 POP PUSH2 0x1582 DUP3 PUSH1 0xE PUSH2 0x4D1D JUMP JUMPDEST PUSH2 0x158C SWAP2 SWAP1 PUSH2 0x4D34 JUMP JUMPDEST PUSH2 0x1596 SWAP1 DUP3 PUSH2 0x4AE9 JUMP JUMPDEST PUSH1 0x19 PUSH1 0x0 DUP3 DUP3 SLOAD PUSH2 0x15A7 SWAP2 SWAP1 PUSH2 0x4B3E JUMP JUMPDEST SWAP1 SWAP2 SSTORE POP PUSH32 0x5F8BB74E03945494E71BD982BEF079E849D8FE7E68E7F11C7717BB06EB8C919 SWAP1 POP PUSH1 0x13 PUSH2 0x15DB DUP4 PUSH1 0xE PUSH2 0x4D1D JUMP JUMPDEST PUSH2 0x15E5 SWAP2 SWAP1 PUSH2 0x4D34 JUMP JUMPDEST PUSH1 0x40 MLOAD SWAP1 DUP2 MSTORE PUSH1 0x20 ADD PUSH1 0x40 MLOAD DUP1 SWAP2 SUB SWAP1 LOG1 PUSH32 0xBD3C961E1B7BE8D4B0018893119C5870D43607962CDD0983EFB2C77E5A7897E8 PUSH1 0x13 PUSH2 0x1624 DUP4 PUSH1 0xE PUSH2 0x4D1D JUMP JUMPDEST PUSH2 0x162E SWAP2 SWAP1 PUSH2 0x4D34 JUMP JUMPDEST PUSH2 0x1638 SWAP1 DUP4 PUSH2 0x4AE9 JUMP JUMPDEST PUSH1 0x40 MLOAD SWAP1 DUP2 MSTORE PUSH1 0x20 ADD PUSH1 0x40 MLOAD DUP1 SWAP2 SUB SWAP1 LOG1 DUP5 CALLVALUE LT ISZERO PUSH2 0x168E JUMPI PUSH1 0x40 MLOAD PUSH3 0x461BCD PUSH1 0xE5 SHL DUP2 MSTORE PUSH1 0x20 PUSH1 0x4 DUP3 ADD MSTORE PUSH1 0x12 PUSH1 0x24 DUP3 ADD MSTORE PUSH18 0x496E73756666696369656E742066756E6473 PUSH1 0x70 SHL PUSH1 0x44 DUP3 ADD MSTORE PUSH1 0x64 ADD PUSH2 0xD6B JUMP JUMPDEST PUSH1 0x0 SLOAD PUSH1 0x40 MLOAD PUSH4 0x9B8D51B3 PUSH1 0xE0 SHL DUP2 MSTORE PUSH1 0x1 PUSH1 0x1 PUSH1 0xA0 SHL SUB SWAP1 SWAP2 AND SWAP1 PUSH4 0x9B8D51B3 SWAP1 PUSH2 0x16C6 SWAP1 CALLER SWAP1 DUP10 SWAP1 DUP12 SWAP1 DUP11 SWAP1 DUP11 SWAP1 PUSH1 0x4 ADD PUSH2 0x4D7F JUMP JUMPDEST PUSH1 0x0 PUSH1 0x40 MLOAD DUP1 DUP4 SUB DUP2 PUSH1 0x0 DUP8 DUP1 EXTCODESIZE ISZERO DUP1 ISZERO PUSH2 0x16E0 JUMPI PUSH1 0x0 DUP1 REVERT JUMPDEST POP GAS CALL ISZERO DUP1 ISZERO PUSH2 0x16F4 JUMPI RETURNDATASIZE PUSH1 0x0 DUP1 RETURNDATACOPY RETURNDATASIZE PUSH1 0x0 REVERT JUMPDEST POP POP POP POP DUP5 CALLVALUE GT ISZERO PUSH2 0x1795 JUMPI PUSH1 0x0 CALLER PUSH2 0x170D DUP8 CALLVALUE PUSH2 0x4AE9 JUMP JUMPDEST PUSH1 0x40 MLOAD PUSH1 0x0 DUP2 DUP2 DUP2 DUP6 DUP8 GAS CALL SWAP3 POP POP POP RETURNDATASIZE DUP1 PUSH1 0x0 DUP2 EQ PUSH2 0x1749 JUMPI PUSH1 0x40 MLOAD SWAP2 POP PUSH1 0x1F NOT PUSH1 0x3F RETURNDATASIZE ADD AND DUP3 ADD PUSH1 0x40 MSTORE RETURNDATASIZE DUP3 MSTORE RETURNDATASIZE PUSH1 0x0 PUSH1 0x20 DUP5 ADD RETURNDATACOPY PUSH2 0x174E JUMP JUMPDEST PUSH1 0x60 SWAP2 POP JUMPDEST POP POP SWAP1 POP DUP1 PUSH2 0x1793 JUMPI PUSH1 0x40 MLOAD PUSH3 0x461BCD PUSH1 0xE5 SHL DUP2 MSTORE PUSH1 0x20 PUSH1 0x4 DUP3 ADD MSTORE PUSH1 0x11 PUSH1 0x24 DUP3 ADD MSTORE PUSH17 0x195D1A081C995D1D5C9B8819985A5B1959 PUSH1 0x7A SHL PUSH1 0x44 DUP3 ADD MSTORE PUSH1 0x64 ADD PUSH2 0xD6B JUMP JUMPDEST POP JUMPDEST POP POP POP POP POP POP JUMP JUMPDEST PUSH2 0x17A5 PUSH2 0x31FB JUMP JUMPDEST PUSH2 0x17AE DUP3 PUSH2 0x32A0 JUMP JUMPDEST PUSH2 0xD0F DUP3 DUP3 PUSH2 0x32A8 JUMP JUMPDEST PUSH1 0x0 DUP2 DUP2 MSTORE PUSH1 0x13 PUSH1 0x20 MSTORE PUSH1 0x40 DUP2 KECCAK256 PUSH1 0x1 DUP2 ADD SLOAD PUSH1 0x60 SWAP3 PUSH1 0x1 PUSH1 0x1 PUSH1 0x40 SHL SUB PUSH5 0x100000000 DUP4 DIV AND SWAP3 PUSH4 0xFFFFFFFF SWAP1 SWAP3 AND SWAP2 DUP2 SWAP1 DUP2 SWAP1 PUSH2 0x17F6 DUP9 PUSH2 0x1EED JUMP JUMPDEST PUSH1 0x1 DUP3 ADD SLOAD PUSH1 0x2 SWAP1 SWAP3 ADD SLOAD SWAP1 SWAP10 SWAP7 SWAP9 POP SWAP5 SWAP7 POP PUSH1 0x1 PUSH1 0x1 PUSH1 0x40 SHL SUB PUSH1 0x1 PUSH1 0x60 SHL DUP3 DIV DUP2 AND SWAP7 PUSH1 0x1 PUSH1 0xA0 SHL SWAP1 SWAP3 DIV AND SWAP5 SWAP4 POP SWAP2 POP POP JUMP JUMPDEST PUSH1 0x0 PUSH2 0x1836 PUSH2 0x3365 JUMP JUMPDEST POP PUSH1 0x0 DUP1 MLOAD PUSH1 0x20 PUSH2 0x5189 DUP4 CODECOPY DUP2 MLOAD SWAP2 MSTORE SWAP1 JUMP JUMPDEST PUSH32 0xF0C57E16840DF040F15088DC2F81FE391C3923BEC73E23A9662EFC9C229C6A00 DUP1 SLOAD PUSH1 0x1 PUSH1 0x40 SHL DUP2 DIV PUSH1 0xFF AND ISZERO SWAP1 PUSH1 0x1 PUSH1 0x1 PUSH1 0x40 SHL SUB AND PUSH1 0x0 DUP2 ISZERO DUP1 ISZERO PUSH2 0x188E JUMPI POP DUP3 JUMPDEST SWAP1 POP PUSH1 0x0 DUP3 PUSH1 0x1 PUSH1 0x1 PUSH1 0x40 SHL SUB AND PUSH1 0x1 EQ DUP1 ISZERO PUSH2 0x18AA JUMPI POP ADDRESS EXTCODESIZE ISZERO JUMPDEST SWAP1 POP DUP2 ISZERO DUP1 ISZERO PUSH2 0x18B8 JUMPI POP DUP1 ISZERO JUMPDEST ISZERO PUSH2 0x18D6 JUMPI PUSH1 0x40 MLOAD PUSH4 0xF92EE8A9 PUSH1 0xE0 SHL DUP2 MSTORE PUSH1 0x4 ADD PUSH1 0x40 MLOAD DUP1 SWAP2 SUB SWAP1 REVERT JUMPDEST DUP5 SLOAD PUSH8 0xFFFFFFFFFFFFFFFF NOT AND PUSH1 0x1 OR DUP6 SSTORE DUP4 ISZERO PUSH2 0x1900 JUMPI DUP5 SLOAD PUSH1 0xFF PUSH1 0x40 SHL NOT AND PUSH1 0x1 PUSH1 0x40 SHL OR DUP6 SSTORE JUMPDEST PUSH1 0x40 MLOAD DUP1 PUSH1 0x60 ADD PUSH1 0x40 MSTORE DUP1 PUSH1 0x2A DUP2 MSTORE PUSH1 0x20 ADD PUSH2 0x513F PUSH1 0x2A SWAP2 CODECOPY PUSH1 0x1D SWAP1 PUSH2 0x1926 SWAP1 DUP3 PUSH2 0x4E48 JUMP JUMPDEST POP PUSH1 0x0 DUP1 SLOAD PUSH1 0x1 PUSH1 0x1 PUSH1 0xA0 SHL SUB DUP1 DUP12 AND PUSH1 0x1 PUSH1 0x1 PUSH1 0xA0 SHL SUB NOT SWAP3 DUP4 AND OR SWAP1 SWAP3 SSTORE PUSH1 0x1A DUP1 SLOAD DUP14 DUP5 AND SWAP1 DUP4 AND OR SWAP1 SSTORE PUSH1 0x1B DUP1 SLOAD DUP13 DUP5 AND SWAP3 AND SWAP2 SWAP1 SWAP2 OR SWAP1 SSTORE PUSH1 0x1C DUP1 SLOAD PUSH1 0x1 PUSH1 0x1 PUSH1 0xA8 SHL SUB NOT AND SWAP2 DUP14 AND SWAP2 SWAP1 SWAP2 OR PUSH1 0x1 PUSH1 0xA0 SHL OR SWAP1 SSTORE PUSH2 0x1989 DUP8 DUP8 PUSH2 0x33AE JUMP JUMPDEST PUSH2 0x1992 DUP13 PUSH2 0x33C0 JUMP JUMPDEST DUP4 ISZERO PUSH2 0x19D8 JUMPI DUP5 SLOAD PUSH1 0xFF PUSH1 0x40 SHL NOT AND DUP6 SSTORE PUSH1 0x40 MLOAD PUSH1 0x1 DUP2 MSTORE PUSH32 0xC7F505B2F371AE2175EE4913F4499E1F2633A7B5936321EED1CDAEB6115181D2 SWAP1 PUSH1 0x20 ADD PUSH1 0x40 MLOAD DUP1 SWAP2 SUB SWAP1 LOG1 JUMPDEST POP POP POP POP POP POP POP POP POP POP POP POP JUMP JUMPDEST PUSH1 0x0 PUSH2 0xC45 DUP3 PUSH2 0x2C4C JUMP JUMPDEST PUSH2 0x19F9 PUSH2 0x2DD5 JUMP JUMPDEST PUSH1 0x1B DUP1 SLOAD PUSH1 0x1 PUSH1 0x1 PUSH1 0xA0 SHL SUB NOT AND PUSH1 0x1 PUSH1 0x1 PUSH1 0xA0 SHL SUB SWAP3 SWAP1 SWAP3 AND SWAP2 SWAP1 SWAP2 OR SWAP1 SSTORE JUMP JUMPDEST PUSH1 0x0 PUSH2 0x1A69 PUSH2 0x1A3E PUSH1 0x8 PUSH1 0x7 ADD SLOAD DUP5 PUSH2 0x1A34 SWAP2 SWAP1 PUSH2 0x4CE2 JUMP JUMPDEST PUSH2 0x1196 SWAP1 DUP6 PUSH2 0x4AE9 JUMP JUMPDEST PUSH1 0xA SLOAD PUSH1 0xB SLOAD PUSH2 0x11DC PUSH2 0x1A55 PUSH2 0x11C7 DUP10 PUSH1 0x1 PUSH2 0x4B3E JUMP JUMPDEST PUSH1 0x8 SLOAD PUSH1 0x9 SLOAD PUSH1 0xC SLOAD PUSH1 0xD SLOAD PUSH1 0xE SLOAD PUSH2 0x33D1 JUMP JUMPDEST SWAP4 SWAP3 POP POP POP JUMP JUMPDEST PUSH2 0x1A78 PUSH2 0x2DD5 JUMP JUMPDEST PUSH1 0x1C DUP1 SLOAD PUSH1 0x1 PUSH1 0x1 PUSH1 0xA0 SHL SUB NOT AND PUSH1 0x1 PUSH1 0x1 PUSH1 0xA0 SHL SUB SWAP3 SWAP1 SWAP3 AND SWAP2 SWAP1 SWAP2 OR SWAP1 SSTORE JUMP JUMPDEST PUSH1 0x0 PUSH1 0x0 DUP1 MLOAD PUSH1 0x20 PUSH2 0x5169 DUP4 CODECOPY DUP2 MLOAD SWAP2 MSTORE PUSH1 0x1 PUSH1 0x1 PUSH1 0xA0 SHL SUB DUP4 AND PUSH2 0x1AD5 JUMPI PUSH1 0x40 MLOAD PUSH4 0x22718AD9 PUSH1 0xE2 SHL DUP2 MSTORE PUSH1 0x0 PUSH1 0x4 DUP3 ADD MSTORE PUSH1 0x24 ADD PUSH2 0xD6B JUMP JUMPDEST PUSH1 0x1 PUSH1 0x1 PUSH1 0xA0 SHL SUB SWAP1 SWAP3 AND PUSH1 0x0 SWAP1 DUP2 MSTORE PUSH1 0x3 SWAP1 SWAP3 ADD PUSH1 0x20 MSTORE POP PUSH1 0x40 SWAP1 KECCAK256 SLOAD SWAP1 JUMP JUMPDEST PUSH2 0x1AFE PUSH2 0x2DD5 JUMP JUMPDEST PUSH2 0x1B08 PUSH1 0x0 PUSH2 0x3437 JUMP JUMPDEST JUMP JUMPDEST PUSH1 0x0 DUP1 DUP1 JUMPDEST PUSH1 0x9 DUP2 LT ISZERO PUSH2 0x1B6B JUMPI DUP1 PUSH1 0x4 EQ ISZERO DUP1 ISZERO PUSH2 0x1B50 JUMPI POP DUP4 DUP2 PUSH1 0x9 DUP2 LT PUSH2 0x1B36 JUMPI PUSH2 0x1B36 PUSH2 0x4ABD JUMP JUMPDEST PUSH1 0x20 MUL ADD PUSH1 0x20 DUP2 ADD SWAP1 PUSH2 0x1B49 SWAP2 SWAP1 PUSH2 0x4F07 JUMP JUMPDEST PUSH1 0xFF AND PUSH1 0x1 EQ JUMPDEST ISZERO PUSH2 0x1B63 JUMPI PUSH2 0x1B60 PUSH1 0x1 DUP4 PUSH2 0x4F22 JUMP JUMPDEST SWAP2 POP JUMPDEST PUSH1 0x1 ADD PUSH2 0x1B0F JUMP JUMPDEST POP DUP1 PUSH1 0xFF AND PUSH1 0x2 SUB PUSH2 0x1B87 JUMPI PUSH2 0x1A69 PUSH1 0xA0 DUP5 ADD PUSH1 0x80 DUP6 ADD PUSH2 0x4F07 JUMP JUMPDEST PUSH1 0x1 DUP2 PUSH1 0xFF AND GT ISZERO DUP1 PUSH2 0x1B9E JUMPI POP PUSH1 0x4 DUP2 PUSH1 0xFF AND LT ISZERO JUMPDEST PUSH2 0x1BA9 JUMPI PUSH1 0x1 PUSH2 0x1A69 JUMP JUMPDEST PUSH1 0x0 SWAP4 SWAP3 POP POP POP JUMP JUMPDEST PUSH32 0x9016D09D72D40FDAE2FD8CEAC6B6234C7706214FD39C1CD1E609A0528C199300 SLOAD PUSH1 0x1 PUSH1 0x1 PUSH1 0xA0 SHL SUB AND SWAP1 JUMP JUMPDEST PUSH32 0x80BB2B638CC20BC4D0A60D66940F3AB4A00C1D7B313497CA82FB0B4AB0079301 DUP1 SLOAD PUSH1 0x60 SWAP2 PUSH1 0x0 DUP1 MLOAD PUSH1 0x20 PUSH2 0x5169 DUP4 CODECOPY DUP2 MLOAD SWAP2 MSTORE SWAP2 PUSH2 0xC6B SWAP1 PUSH2 0x4A83 JUMP JUMPDEST PUSH1 0x0 DUP2 DUP2 MSTORE PUSH1 0x13 PUSH1 0x20 MSTORE PUSH1 0x40 DUP2 KECCAK256 PUSH1 0x1 ADD SLOAD PUSH5 0x100000000 SWAP1 DIV PUSH1 0x1 PUSH1 0x1 PUSH1 0x40 SHL SUB AND DUP2 PUSH2 0x12C PUSH1 0x2 PUSH2 0x1C52 DUP5 NUMBER PUSH2 0x4AE9 JUMP JUMPDEST PUSH2 0x1C5C SWAP2 SWAP1 PUSH2 0x4D1D JUMP JUMPDEST PUSH2 0x1C66 SWAP2 SWAP1 PUSH2 0x4D34 JUMP JUMPDEST SWAP5 SWAP4 POP POP POP POP JUMP JUMPDEST PUSH2 0xD0F CALLER DUP4 DUP4 PUSH2 0x34A8 JUMP JUMPDEST PUSH1 0x40 DUP1 MLOAD PUSH1 0xC0 DUP2 ADD DUP3 MSTORE PUSH1 0x0 PUSH1 0x60 DUP1 DUP4 ADD DUP3 DUP2 MSTORE PUSH1 0x80 DUP5 ADD DUP4 SWAP1 MSTORE PUSH1 0xA0 DUP5 ADD DUP4 SWAP1 MSTORE DUP4 MSTORE DUP4 MLOAD DUP1 DUP3 ADD DUP6 MSTORE DUP3 DUP2 MSTORE PUSH1 0x20 DUP2 DUP2 ADD DUP5 SWAP1 MSTORE DUP2 DUP7 ADD DUP5 SWAP1 MSTORE DUP1 DUP6 ADD SWAP2 SWAP1 SWAP2 MSTORE DUP5 MLOAD SWAP2 DUP3 ADD DUP6 MSTORE DUP3 DUP3 MSTORE DUP2 ADD DUP3 SWAP1 MSTORE DUP1 DUP5 ADD DUP3 SWAP1 MSTORE SWAP3 DUP3 ADD SWAP3 SWAP1 SWAP3 MSTORE DUP2 JUMPDEST PUSH1 0x9 DUP2 LT ISZERO PUSH2 0x1D50 JUMPI DUP4 DUP2 PUSH1 0x9 DUP2 LT PUSH2 0x1CF5 JUMPI PUSH2 0x1CF5 PUSH2 0x4ABD JUMP JUMPDEST PUSH1 0x20 MUL ADD MLOAD PUSH1 0xFF AND PUSH1 0x1 EQ DUP3 PUSH1 0x3 DUP4 PUSH2 0x1D0E SWAP2 SWAP1 PUSH2 0x4D34 JUMP JUMPDEST PUSH1 0x3 DUP2 LT PUSH2 0x1D1E JUMPI PUSH2 0x1D1E PUSH2 0x4ABD JUMP JUMPDEST PUSH1 0x20 MUL ADD MLOAD PUSH2 0x1D2E PUSH1 0x3 DUP5 PUSH2 0x4CE2 JUMP JUMPDEST PUSH1 0x3 DUP2 LT PUSH2 0x1D3E JUMPI PUSH2 0x1D3E PUSH2 0x4ABD JUMP JUMPDEST SWAP2 ISZERO ISZERO PUSH1 0x20 SWAP1 SWAP3 MUL ADD MSTORE PUSH1 0x1 ADD PUSH2 0x1CDA JUMP JUMPDEST POP PUSH1 0x1 DUP1 PUSH1 0x0 DUP1 JUMPDEST PUSH1 0x3 DUP2 PUSH1 0xFF AND LT ISZERO PUSH2 0x1DE8 JUMPI PUSH1 0x0 JUMPDEST PUSH1 0x3 DUP2 PUSH1 0xFF AND LT ISZERO PUSH2 0x1DDF JUMPI DUP5 PUSH1 0xFF AND DUP3 PUSH1 0xFF AND EQ DUP1 ISZERO PUSH2 0x1D8D JUMPI POP DUP4 PUSH1 0xFF AND DUP2 PUSH1 0xFF AND EQ JUMPDEST PUSH2 0x1DD7 JUMPI DUP6 DUP3 PUSH1 0xFF AND PUSH1 0x3 DUP2 LT PUSH2 0x1DA6 JUMPI PUSH2 0x1DA6 PUSH2 0x4ABD JUMP JUMPDEST PUSH1 0x20 MUL ADD MLOAD DUP2 PUSH1 0xFF AND PUSH1 0x3 DUP2 LT PUSH2 0x1DBF JUMPI PUSH2 0x1DBF PUSH2 0x4ABD JUMP JUMPDEST PUSH1 0x20 MUL ADD MLOAD ISZERO PUSH2 0x1DD7 JUMPI DUP3 PUSH2 0x1DD3 DUP2 PUSH2 0x4F3B JUMP JUMPDEST SWAP4 POP POP JUMPDEST PUSH1 0x1 ADD PUSH2 0x1D67 JUMP JUMPDEST POP PUSH1 0x1 ADD PUSH2 0x1D58 JUMP JUMPDEST POP DUP4 DUP4 PUSH1 0xFF AND PUSH1 0x3 DUP2 LT PUSH2 0x1DFE JUMPI PUSH2 0x1DFE PUSH2 0x4ABD JUMP JUMPDEST PUSH1 0x20 MUL ADD MLOAD DUP3 PUSH1 0xFF AND PUSH1 0x3 DUP2 LT PUSH2 0x1E17 JUMPI PUSH2 0x1E17 PUSH2 0x4ABD JUMP JUMPDEST PUSH1 0x20 MUL ADD MLOAD ISZERO PUSH2 0x1E53 JUMPI DUP1 PUSH1 0xFF AND PUSH1 0x2 EQ DUP1 PUSH2 0x1E36 JUMPI POP DUP1 PUSH1 0xFF AND PUSH1 0x3 EQ JUMPDEST ISZERO PUSH2 0x1E47 JUMPI POP PUSH1 0x1 SWAP6 SWAP5 POP POP POP POP POP JUMP JUMPDEST POP PUSH1 0x0 SWAP6 SWAP5 POP POP POP POP POP JUMP JUMPDEST DUP1 PUSH1 0xFF AND PUSH1 0x3 SUB PUSH2 0x1E47 JUMPI POP PUSH1 0x1 SWAP6 SWAP5 POP POP POP POP POP JUMP JUMPDEST PUSH1 0x1C SLOAD PUSH1 0x1 PUSH1 0x1 PUSH1 0xA0 SHL SUB AND CALLER EQ PUSH2 0x1EB8 JUMPI PUSH1 0x40 MLOAD PUSH3 0x461BCD PUSH1 0xE5 SHL DUP2 MSTORE PUSH1 0x20 PUSH1 0x4 DUP3 ADD MSTORE PUSH1 0x11 PUSH1 0x24 DUP3 ADD MSTORE PUSH17 0x1C195C9B5A5CDCDA5BDB8819195B9A5959 PUSH1 0x7A SHL PUSH1 0x44 DUP3 ADD MSTORE PUSH1 0x64 ADD PUSH2 0xD6B JUMP JUMPDEST PUSH1 0x1C DUP1 SLOAD SWAP2 ISZERO ISZERO PUSH1 0x1 PUSH1 0xA0 SHL MUL PUSH1 0xFF PUSH1 0xA0 SHL NOT SWAP1 SWAP3 AND SWAP2 SWAP1 SWAP2 OR SWAP1 SSTORE JUMP JUMPDEST PUSH2 0x1EE1 DUP5 DUP5 DUP5 PUSH2 0xF0F JUMP JUMPDEST PUSH2 0xF94 DUP5 DUP5 DUP5 DUP5 PUSH2 0x3559 JUMP JUMPDEST PUSH1 0x0 DUP2 DUP2 MSTORE PUSH1 0x13 PUSH1 0x20 MSTORE PUSH1 0x40 SWAP1 KECCAK256 PUSH1 0x60 SWAP1 DUP2 PUSH1 0x9 DUP1 JUMPDEST DUP1 ISZERO PUSH2 0x1FA5 JUMPI PUSH1 0x0 PUSH2 0x1F40 PUSH2 0x1F19 PUSH1 0x1 DUP5 PUSH2 0x4AE9 JUMP JUMPDEST PUSH1 0x8 DUP2 SWAP1 SHR PUSH1 0x0 SWAP1 DUP2 MSTORE PUSH1 0x3 DUP9 ADD PUSH1 0x20 MSTORE PUSH1 0x40 SWAP1 KECCAK256 SLOAD PUSH1 0x1 PUSH1 0xFF SWAP1 SWAP3 AND SWAP2 SWAP1 SWAP2 SHL AND ISZERO ISZERO SWAP1 JUMP JUMPDEST SWAP1 POP DUP1 ISZERO PUSH2 0x1F6F JUMPI DUP4 PUSH1 0x40 MLOAD PUSH1 0x20 ADD PUSH2 0x1F59 SWAP2 SWAP1 PUSH2 0x4F5A JUMP JUMPDEST PUSH1 0x40 MLOAD PUSH1 0x20 DUP2 DUP4 SUB SUB DUP2 MSTORE SWAP1 PUSH1 0x40 MSTORE SWAP4 POP PUSH2 0x1F92 JUMP JUMPDEST DUP4 PUSH1 0x40 MLOAD PUSH1 0x20 ADD PUSH2 0x1F80 SWAP2 SWAP1 PUSH2 0x4F7F JUMP JUMPDEST PUSH1 0x40 MLOAD PUSH1 0x20 DUP2 DUP4 SUB SUB DUP2 MSTORE SWAP1 PUSH1 0x40 MSTORE SWAP4 POP JUMPDEST POP DUP1 PUSH2 0x1F9D DUP2 PUSH2 0x4FA4 JUMP JUMPDEST SWAP2 POP POP PUSH2 0x1F03 JUMP JUMPDEST POP SWAP1 SWAP5 SWAP4 POP POP POP POP JUMP JUMPDEST PUSH1 0x1C SLOAD PUSH1 0x1 PUSH1 0xA0 SHL SWAP1 DIV PUSH1 0xFF AND PUSH2 0x1FD8 JUMPI PUSH1 0x40 MLOAD PUSH3 0x461BCD PUSH1 0xE5 SHL DUP2 MSTORE PUSH1 0x4 ADD PUSH2 0xD6B SWAP1 PUSH2 0x4B15 JUMP JUMPDEST PUSH1 0x1A SLOAD PUSH1 0x1 PUSH1 0x1 PUSH1 0xA0 SHL SUB AND CALLER EQ PUSH2 0x2020 JUMPI PUSH1 0x40 MLOAD PUSH3 0x461BCD PUSH1 0xE5 SHL DUP2 MSTORE PUSH1 0x20 PUSH1 0x4 DUP3 ADD MSTORE PUSH1 0xB PUSH1 0x24 DUP3 ADD MSTORE PUSH11 0x36BAB9BA103132903232BB PUSH1 0xA9 SHL PUSH1 0x44 DUP3 ADD MSTORE PUSH1 0x64 ADD PUSH2 0xD6B JUMP JUMPDEST PUSH1 0x18 SLOAD DUP1 PUSH2 0x205D JUMPI PUSH1 0x40 MLOAD PUSH3 0x461BCD PUSH1 0xE5 SHL DUP2 MSTORE PUSH1 0x20 PUSH1 0x4 DUP3 ADD MSTORE PUSH1 0xA PUSH1 0x24 DUP3 ADD MSTORE PUSH10 0x6E6F2064657620666565 PUSH1 0xB0 SHL PUSH1 0x44 DUP3 ADD MSTORE PUSH1 0x64 ADD PUSH2 0xD6B JUMP JUMPDEST PUSH1 0x0 PUSH1 0x18 DUP2 SWAP1 SSTORE POP PUSH1 0x0 DUP3 PUSH1 0x1 PUSH1 0x1 PUSH1 0xA0 SHL SUB AND DUP3 PUSH1 0x40 MLOAD JUMPDEST PUSH1 0x0 PUSH1 0x40 MLOAD DUP1 DUP4 SUB DUP2 DUP6 DUP8 GAS CALL SWAP3 POP POP POP RETURNDATASIZE DUP1 PUSH1 0x0 DUP2 EQ PUSH2 0x20B3 JUMPI PUSH1 0x40 MLOAD SWAP2 POP PUSH1 0x1F NOT PUSH1 0x3F RETURNDATASIZE ADD AND DUP3 ADD PUSH1 0x40 MSTORE RETURNDATASIZE DUP3 MSTORE RETURNDATASIZE PUSH1 0x0 PUSH1 0x20 DUP5 ADD RETURNDATACOPY PUSH2 0x20B8 JUMP JUMPDEST PUSH1 0x60 SWAP2 POP JUMPDEST POP POP SWAP1 POP DUP1 PUSH2 0x10F4 JUMPI PUSH1 0x40 MLOAD PUSH3 0x461BCD PUSH1 0xE5 SHL DUP2 MSTORE PUSH1 0x20 PUSH1 0x4 DUP3 ADD MSTORE PUSH1 0xF PUSH1 0x24 DUP3 ADD MSTORE PUSH15 0x195D1A081CD95B990819985A5B1959 PUSH1 0x8A SHL PUSH1 0x44 DUP3 ADD MSTORE PUSH1 0x64 ADD PUSH2 0xD6B JUMP JUMPDEST PUSH2 0x2103 PUSH2 0x2DD5 JUMP JUMPDEST PUSH1 0x2 SLOAD PUSH1 0x3 SLOAD EQ PUSH2 0x2148 JUMPI PUSH1 0x40 MLOAD PUSH3 0x461BCD PUSH1 0xE5 SHL DUP2 MSTORE PUSH1 0x20 PUSH1 0x4 DUP3 ADD MSTORE PUSH1 0xF PUSH1 0x24 DUP3 ADD MSTORE PUSH15 0x61756374696F6E206F6E676F696E67 PUSH1 0x88 SHL PUSH1 0x44 DUP3 ADD MSTORE PUSH1 0x64 ADD PUSH2 0xD6B JUMP JUMPDEST TIMESTAMP DUP4 GT PUSH2 0x218B JUMPI PUSH1 0x40 MLOAD PUSH3 0x461BCD PUSH1 0xE5 SHL DUP2 MSTORE PUSH1 0x20 PUSH1 0x4 DUP3 ADD MSTORE PUSH1 0x11 PUSH1 0x24 DUP3 ADD MSTORE PUSH17 0x696E76616C696420737461727454696D65 PUSH1 0x78 SHL PUSH1 0x44 DUP3 ADD MSTORE PUSH1 0x64 ADD PUSH2 0xD6B JUMP JUMPDEST PUSH1 0x0 PUSH2 0x21A7 PUSH2 0x21A2 DUP8 PUSH8 0xDE0B6B3A7640000 PUSH2 0x4FBB JUMP JUMPDEST PUSH2 0x367B JUMP JUMPDEST SWAP1 POP PUSH1 0x0 DUP2 SLT PUSH2 0x21F9 JUMPI PUSH1 0x40 MLOAD PUSH3 0x461BCD PUSH1 0xE5 SHL DUP2 MSTORE PUSH1 0x20 PUSH1 0x4 DUP3 ADD MSTORE PUSH1 0x1B PUSH1 0x24 DUP3 ADD MSTORE PUSH32 0x4E4F4E5F4E454741544956455F44454341595F434F4E5354414E540000000000 PUSH1 0x44 DUP3 ADD MSTORE PUSH1 0x64 ADD PUSH2 0xD6B JUMP JUMPDEST PUSH2 0x2205 PUSH2 0x1FF DUP5 PUSH2 0x4CE2 JUMP JUMPDEST ISZERO PUSH2 0x2252 JUMPI PUSH1 0x40 MLOAD PUSH3 0x461BCD PUSH1 0xE5 SHL DUP2 MSTORE PUSH1 0x20 PUSH1 0x4 DUP3 ADD MSTORE PUSH1 0x17 PUSH1 0x24 DUP3 ADD MSTORE PUSH32 0x696E76616C69642073656C6C61626C65206E756D626572000000000000000000 PUSH1 0x44 DUP3 ADD MSTORE PUSH1 0x64 ADD PUSH2 0xD6B JUMP JUMPDEST PUSH1 0x0 PUSH1 0x3 SSTORE PUSH1 0x1 SWAP4 SWAP1 SWAP4 SSTORE PUSH1 0x4 SWAP6 SWAP1 SWAP6 SSTORE PUSH1 0x5 SWAP2 SWAP1 SWAP2 SSTORE PUSH1 0x6 SWAP2 SWAP1 SWAP2 SSTORE PUSH1 0x2 SSTORE POP PUSH1 0x7 SSTORE JUMP JUMPDEST PUSH1 0x60 PUSH2 0x2283 DUP3 PUSH2 0x2C4C JUMP JUMPDEST POP PUSH1 0x0 PUSH2 0x228E PUSH2 0x38B1 JUMP JUMPDEST SWAP1 POP PUSH1 0x0 DUP2 MLOAD GT PUSH2 0x22AE JUMPI PUSH1 0x40 MLOAD DUP1 PUSH1 0x20 ADD PUSH1 0x40 MSTORE DUP1 PUSH1 0x0 DUP2 MSTORE POP PUSH2 0x1A69 JUMP JUMPDEST DUP1 PUSH2 0x22B8 DUP5 PUSH2 0x3129 JUMP JUMPDEST PUSH1 0x40 MLOAD PUSH1 0x20 ADD PUSH2 0x112F SWAP3 SWAP2 SWAP1 PUSH2 0x4FDB JUMP JUMPDEST PUSH1 0x2 SLOAD PUSH1 0x3 SLOAD LT PUSH2 0x230F JUMPI PUSH1 0x40 MLOAD PUSH3 0x461BCD PUSH1 0xE5 SHL DUP2 MSTORE PUSH1 0x20 PUSH1 0x4 DUP3 ADD MSTORE PUSH1 0x10 PUSH1 0x24 DUP3 ADD MSTORE PUSH16 0x185D58DD1A5BDB88199A5B9A5CDA1959 PUSH1 0x82 SHL PUSH1 0x44 DUP3 ADD MSTORE PUSH1 0x64 ADD PUSH2 0xD6B JUMP JUMPDEST PUSH1 0x1 SLOAD TIMESTAMP GT PUSH2 0x2354 JUMPI PUSH1 0x40 MLOAD PUSH3 0x461BCD PUSH1 0xE5 SHL DUP2 MSTORE PUSH1 0x20 PUSH1 0x4 DUP3 ADD MSTORE PUSH1 0x11 PUSH1 0x24 DUP3 ADD MSTORE PUSH17 0x185D58DD1A5BDB881B9BDD081CDD185C9D PUSH1 0x7A SHL PUSH1 0x44 DUP3 ADD MSTORE PUSH1 0x64 ADD PUSH2 0xD6B JUMP JUMPDEST PUSH1 0x0 PUSH2 0x235E PUSH2 0x1161 JUMP JUMPDEST SWAP1 POP DUP1 CALLVALUE LT ISZERO PUSH2 0x23A5 JUMPI PUSH1 0x40 MLOAD PUSH3 0x461BCD PUSH1 0xE5 SHL DUP2 MSTORE PUSH1 0x20 PUSH1 0x4 DUP3 ADD MSTORE PUSH1 0x12 PUSH1 0x24 DUP3 ADD MSTORE PUSH18 0x496E73756666696369656E742066756E6473 PUSH1 0x70 SHL PUSH1 0x44 DUP3 ADD MSTORE PUSH1 0x64 ADD PUSH2 0xD6B JUMP JUMPDEST PUSH1 0x14 SLOAD PUSH2 0x23B2 CALLER DUP3 PUSH2 0x3943 JUMP JUMPDEST PUSH1 0x3 DUP1 SLOAD SWAP1 PUSH1 0x0 PUSH2 0x23C2 DUP4 PUSH2 0x4AFC JUMP JUMPDEST SWAP1 SWAP2 SSTORE POP POP PUSH1 0x14 DUP1 SLOAD SWAP1 PUSH1 0x0 PUSH2 0x23D7 DUP4 PUSH2 0x4AFC JUMP JUMPDEST SWAP2 SWAP1 POP SSTORE POP PUSH1 0x0 PUSH2 0x23E6 PUSH2 0x25DD JUMP JUMPDEST PUSH1 0x0 DUP4 DUP2 MSTORE PUSH1 0x13 PUSH1 0x20 SWAP1 DUP2 MSTORE PUSH1 0x40 DUP1 DUP4 KECCAK256 DUP7 DUP2 SSTORE PUSH1 0x1 DUP2 ADD DUP1 SLOAD TIMESTAMP PUSH1 0x1 PUSH1 0x1 PUSH1 0x40 SHL SUB SWAP1 DUP2 AND PUSH1 0x1 PUSH1 0x60 SHL MUL PUSH8 0xFFFFFFFFFFFFFFFF PUSH1 0x60 SHL NOT NUMBER SWAP3 SWAP1 SWAP3 AND PUSH5 0x100000000 MUL SWAP2 SWAP1 SWAP2 AND PUSH5 0x100000000 PUSH1 0x1 PUSH1 0xA0 SHL SUB NOT SWAP1 SWAP3 AND SWAP2 SWAP1 SWAP2 OR OR SWAP1 SSTORE PUSH1 0x2 DUP2 ADD DUP9 SWAP1 SSTORE DUP4 DUP1 MSTORE PUSH1 0x3 DUP2 ADD SWAP1 SWAP3 MSTORE DUP3 KECCAK256 DUP1 SLOAD DUP5 OR SWAP1 SSTORE SWAP2 SWAP3 POP DUP1 JUMPDEST PUSH1 0x9 DUP2 LT ISZERO PUSH2 0x24A6 JUMPI PUSH1 0x8 DUP2 SWAP1 SHR PUSH1 0x0 SWAP1 DUP2 MSTORE PUSH1 0x3 DUP5 ADD PUSH1 0x20 MSTORE PUSH1 0x40 SWAP1 KECCAK256 SLOAD PUSH1 0x1 PUSH1 0xFF DUP4 AND SHL AND ISZERO PUSH2 0x249E JUMPI PUSH2 0x249B PUSH1 0x1 DUP4 PUSH2 0x500A JUMP JUMPDEST SWAP2 POP JUMPDEST PUSH1 0x1 ADD PUSH2 0x2464 JUMP JUMPDEST POP PUSH1 0x1 DUP3 ADD DUP1 SLOAD PUSH4 0xFFFFFFFF NOT AND PUSH4 0xFFFFFFFF DUP4 AND OR SWAP1 SSTORE PUSH1 0x18 DUP1 SLOAD DUP7 SWAP2 SWAP1 PUSH1 0x0 SWAP1 PUSH2 0x24D3 SWAP1 DUP5 SWAP1 PUSH2 0x4B3E JUMP JUMPDEST SWAP1 SWAP2 SSTORE POP POP PUSH1 0x40 DUP1 MLOAD DUP6 DUP2 MSTORE PUSH1 0x20 DUP2 ADD DUP8 SWAP1 MSTORE PUSH32 0x9F74EE5818C4770A14515D68C91CF4BBB689A4746304B42E83D03BD08AFEA52D SWAP2 ADD PUSH1 0x40 MLOAD DUP1 SWAP2 SUB SWAP1 LOG1 DUP5 CALLVALUE GT ISZERO PUSH2 0x25AC JUMPI PUSH1 0x0 CALLER PUSH2 0x2526 DUP8 CALLVALUE PUSH2 0x4AE9 JUMP JUMPDEST PUSH1 0x40 MLOAD PUSH1 0x0 DUP2 DUP2 DUP2 DUP6 DUP8 GAS CALL SWAP3 POP POP POP RETURNDATASIZE DUP1 PUSH1 0x0 DUP2 EQ PUSH2 0x2562 JUMPI PUSH1 0x40 MLOAD SWAP2 POP PUSH1 0x1F NOT PUSH1 0x3F RETURNDATASIZE ADD AND DUP3 ADD PUSH1 0x40 MSTORE RETURNDATASIZE DUP3 MSTORE RETURNDATASIZE PUSH1 0x0 PUSH1 0x20 DUP5 ADD RETURNDATACOPY PUSH2 0x2567 JUMP JUMPDEST PUSH1 0x60 SWAP2 POP JUMPDEST POP POP SWAP1 POP DUP1 PUSH2 0x1795 JUMPI PUSH1 0x40 MLOAD PUSH3 0x461BCD PUSH1 0xE5 SHL DUP2 MSTORE PUSH1 0x20 PUSH1 0x4 DUP3 ADD MSTORE PUSH1 0x11 PUSH1 0x24 DUP3 ADD MSTORE PUSH17 0x195D1A081C995D1D5C9B8819985A5B1959 PUSH1 0x7A SHL PUSH1 0x44 DUP3 ADD MSTORE PUSH1 0x64 ADD PUSH2 0xD6B JUMP JUMPDEST POP POP POP POP POP JUMP JUMPDEST PUSH2 0x25BB PUSH2 0x2DD5 JUMP JUMPDEST PUSH1 0x1A DUP1 SLOAD PUSH1 0x1 PUSH1 0x1 PUSH1 0xA0 SHL SUB NOT AND PUSH1 0x1 PUSH1 0x1 PUSH1 0xA0 SHL SUB SWAP3 SWAP1 SWAP3 AND SWAP2 SWAP1 SWAP2 OR SWAP1 SSTORE JUMP JUMPDEST PUSH1 0x0 DUP1 TIMESTAMP CALLER PUSH1 0x40 MLOAD PUSH1 0x20 ADD PUSH2 0x260E SWAP3 SWAP2 SWAP1 SWAP2 DUP3 MSTORE PUSH1 0x60 SHL PUSH12 0xFFFFFFFFFFFFFFFFFFFFFFFF NOT AND PUSH1 0x20 DUP3 ADD MSTORE PUSH1 0x34 ADD SWAP1 JUMP JUMPDEST PUSH1 0x40 MLOAD PUSH1 0x20 DUP2 DUP4 SUB SUB DUP2 MSTORE SWAP1 PUSH1 0x40 MSTORE DUP1 MLOAD SWAP1 PUSH1 0x20 ADD KECCAK256 PUSH1 0x0 SHR SWAP1 POP PUSH1 0x0 JUMPDEST PUSH2 0x1FF DUP2 LT ISZERO PUSH2 0x26AD JUMPI PUSH1 0x0 PUSH2 0x1FF PUSH2 0x2645 DUP4 DUP6 PUSH2 0x4B3E JUMP JUMPDEST PUSH2 0x264F SWAP2 SWAP1 PUSH2 0x4CE2 JUMP JUMPDEST PUSH1 0x8 DUP2 SWAP1 SHR PUSH1 0x0 SWAP1 DUP2 MSTORE PUSH1 0x11 PUSH1 0x20 MSTORE PUSH1 0x40 SWAP1 KECCAK256 SLOAD SWAP1 SWAP2 POP PUSH1 0x1 PUSH1 0xFF DUP4 AND SHL AND PUSH2 0x26A4 JUMPI PUSH1 0x8 DUP2 SWAP1 SHR PUSH1 0x0 SWAP1 DUP2 MSTORE PUSH1 0x11 PUSH1 0x20 MSTORE PUSH1 0x40 SWAP1 KECCAK256 DUP1 SLOAD PUSH1 0x1 PUSH1 0xFF DUP5 AND SHL OR SWAP1 SSTORE PUSH2 0x269C DUP2 PUSH1 0x1 PUSH2 0x4B3E JUMP JUMPDEST SWAP4 POP POP POP POP SWAP1 JUMP JUMPDEST POP PUSH1 0x1 ADD PUSH2 0x262C JUMP JUMPDEST POP PUSH1 0x11 PUSH1 0x20 MSTORE PUSH1 0x0 PUSH32 0x4AD3B33220DDDC71B994A52D72C06B10862965F7D926534C05C00FB7E819E7B7 DUP2 SWAP1 SSTORE PUSH1 0x1 DUP1 DUP3 MSTORE PUSH32 0x17BC176D2408558F6E4111FEEBC3CAB4E16B63E967BE91CDE721F4C8A488B552 DUP3 SWAP1 SSTORE PUSH1 0x12 DUP1 SLOAD SWAP2 SWAP3 SWAP1 SWAP2 PUSH2 0x2715 SWAP1 DUP5 SWAP1 PUSH2 0x4B3E JUMP JUMPDEST SWAP1 SWAP2 SSTORE POP PUSH2 0x11E1 SWAP1 POP PUSH2 0x25DD JUMP JUMPDEST PUSH2 0x272B PUSH2 0x2DD5 JUMP JUMPDEST PUSH1 0x0 PUSH2 0x2742 PUSH2 0x21A2 DUP9 PUSH8 0xDE0B6B3A7640000 PUSH2 0x4FBB JUMP JUMPDEST SWAP1 POP PUSH1 0x0 DUP2 SLT PUSH2 0x2794 JUMPI PUSH1 0x40 MLOAD PUSH3 0x461BCD PUSH1 0xE5 SHL DUP2 MSTORE PUSH1 0x20 PUSH1 0x4 DUP3 ADD MSTORE PUSH1 0x1B PUSH1 0x24 DUP3 ADD MSTORE PUSH32 0x4E4F4E5F4E454741544956455F44454341595F434F4E5354414E540000000000 PUSH1 0x44 DUP3 ADD MSTORE PUSH1 0x64 ADD PUSH2 0xD6B JUMP JUMPDEST PUSH1 0x8 SWAP10 SWAP1 SWAP10 SSTORE PUSH1 0x9 SWAP8 SWAP1 SWAP8 SSTORE PUSH1 0xA SWAP6 SWAP1 SWAP6 SSTORE PUSH1 0xB SWAP7 SWAP1 SWAP7 SSTORE PUSH1 0xC SWAP2 SWAP1 SWAP2 SSTORE PUSH1 0xD SSTORE POP PUSH1 0xE SWAP3 SWAP1 SWAP3 SSTORE PUSH1 0xF SWAP2 SWAP1 SWAP2 SSTORE PUSH1 0x10 DUP1 SLOAD PUSH1 0x1 PUSH1 0x1 PUSH1 0xA0 SHL SUB NOT AND PUSH1 0x1 PUSH1 0x1 PUSH1 0xA0 SHL SUB SWAP1 SWAP3 AND SWAP2 SWAP1 SWAP2 OR SWAP1 SSTORE JUMP JUMPDEST PUSH1 0x0 DUP1 PUSH2 0x27EF DUP4 PUSH2 0x39A8 JUMP JUMPDEST SWAP1 POP PUSH1 0x0 DUP1 JUMPDEST DUP3 MLOAD DUP2 LT ISZERO PUSH2 0x2846 JUMPI PUSH1 0x0 PUSH1 0x15 PUSH1 0x0 DUP6 DUP5 DUP2 MLOAD DUP2 LT PUSH2 0x2816 JUMPI PUSH2 0x2816 PUSH2 0x4ABD JUMP JUMPDEST PUSH1 0x20 MUL PUSH1 0x20 ADD ADD MLOAD DUP2 MSTORE PUSH1 0x20 ADD SWAP1 DUP2 MSTORE PUSH1 0x20 ADD PUSH1 0x0 KECCAK256 SLOAD SWAP1 POP DUP1 DUP4 PUSH2 0x283B SWAP2 SWAP1 PUSH2 0x4B3E JUMP JUMPDEST SWAP3 POP POP PUSH1 0x1 ADD PUSH2 0x27F5 JUMP JUMPDEST POP SWAP4 SWAP3 POP POP POP JUMP JUMPDEST PUSH1 0x1 PUSH1 0x1 PUSH1 0xA0 SHL SUB SWAP2 DUP3 AND PUSH1 0x0 SWAP1 DUP2 MSTORE PUSH32 0x80BB2B638CC20BC4D0A60D66940F3AB4A00C1D7B313497CA82FB0B4AB0079305 PUSH1 0x20 SWAP1 DUP2 MSTORE PUSH1 0x40 DUP1 DUP4 KECCAK256 SWAP4 SWAP1 SWAP5 AND DUP3 MSTORE SWAP2 SWAP1 SWAP2 MSTORE KECCAK256 SLOAD PUSH1 0xFF AND SWAP1 JUMP JUMPDEST PUSH1 0x1C SLOAD PUSH1 0x1 PUSH1 0xA0 SHL SWAP1 DIV PUSH1 0xFF AND PUSH2 0x28C4 JUMPI PUSH1 0x40 MLOAD PUSH3 0x461BCD PUSH1 0xE5 SHL DUP2 MSTORE PUSH1 0x4 ADD PUSH2 0xD6B SWAP1 PUSH2 0x4B15 JUMP JUMPDEST PUSH1 0x0 PUSH2 0x28CF DUP3 PUSH2 0x39A8 JUMP JUMPDEST SWAP1 POP PUSH1 0x0 DUP1 JUMPDEST DUP3 MLOAD DUP2 LT ISZERO PUSH2 0x29D2 JUMPI PUSH1 0x0 PUSH2 0x2902 DUP5 DUP4 DUP2 MLOAD DUP2 LT PUSH2 0x28F5 JUMPI PUSH2 0x28F5 PUSH2 0x4ABD JUMP JUMPDEST PUSH1 0x20 MUL PUSH1 0x20 ADD ADD MLOAD PUSH2 0x3B42 JUMP JUMPDEST SWAP1 POP CALLER PUSH1 0x1 PUSH1 0x1 PUSH1 0xA0 SHL SUB DUP3 AND EQ PUSH2 0x2938 JUMPI PUSH1 0x40 MLOAD PUSH4 0x18256A9B PUSH1 0xE0 SHL DUP2 MSTORE PUSH1 0x1 PUSH1 0x1 PUSH1 0xA0 SHL SUB DUP3 AND PUSH1 0x4 DUP3 ADD MSTORE PUSH1 0x24 ADD PUSH2 0xD6B JUMP JUMPDEST PUSH1 0x0 PUSH1 0x15 PUSH1 0x0 DUP7 DUP6 DUP2 MLOAD DUP2 LT PUSH2 0x2950 JUMPI PUSH2 0x2950 PUSH2 0x4ABD JUMP JUMPDEST PUSH1 0x20 MUL PUSH1 0x20 ADD ADD MLOAD DUP2 MSTORE PUSH1 0x20 ADD SWAP1 DUP2 MSTORE PUSH1 0x20 ADD PUSH1 0x0 KECCAK256 SLOAD SWAP1 POP PUSH1 0x0 DUP2 GT ISZERO PUSH2 0x29C8 JUMPI PUSH2 0x297C DUP2 DUP6 PUSH2 0x4B3E JUMP JUMPDEST SWAP4 POP PUSH1 0x0 PUSH1 0x15 PUSH1 0x0 DUP8 DUP7 DUP2 MLOAD DUP2 LT PUSH2 0x2996 JUMPI PUSH2 0x2996 PUSH2 0x4ABD JUMP JUMPDEST PUSH1 0x20 MUL PUSH1 0x20 ADD ADD MLOAD DUP2 MSTORE PUSH1 0x20 ADD SWAP1 DUP2 MSTORE PUSH1 0x20 ADD PUSH1 0x0 KECCAK256 DUP2 SWAP1 SSTORE POP DUP1 PUSH1 0x17 PUSH1 0x0 DUP3 DUP3 SLOAD PUSH2 0x29C2 SWAP2 SWAP1 PUSH2 0x4AE9 JUMP JUMPDEST SWAP1 SWAP2 SSTORE POP POP JUMPDEST POP POP PUSH1 0x1 ADD PUSH2 0x28D5 JUMP JUMPDEST POP PUSH1 0x0 DUP2 GT PUSH2 0x2A11 JUMPI PUSH1 0x40 MLOAD PUSH3 0x461BCD PUSH1 0xE5 SHL DUP2 MSTORE PUSH1 0x20 PUSH1 0x4 DUP3 ADD MSTORE PUSH1 0xB PUSH1 0x24 DUP3 ADD MSTORE PUSH11 0x6E6F2072656E7420666565 PUSH1 0xA8 SHL PUSH1 0x44 DUP3 ADD MSTORE PUSH1 0x64 ADD PUSH2 0xD6B JUMP JUMPDEST PUSH1 0x0 CALLER PUSH1 0x1 PUSH1 0x1 PUSH1 0xA0 SHL SUB AND DUP3 PUSH1 0x40 MLOAD PUSH2 0x105A JUMP JUMPDEST PUSH2 0x2A2E PUSH2 0x2DD5 JUMP JUMPDEST PUSH1 0x14 SLOAD PUSH2 0x2A3B DUP3 DUP3 PUSH2 0x3943 JUMP JUMPDEST PUSH1 0x14 DUP1 SLOAD SWAP1 PUSH1 0x0 PUSH2 0x2A4B DUP4 PUSH2 0x4AFC JUMP JUMPDEST SWAP2 SWAP1 POP SSTORE POP PUSH1 0x0 PUSH2 0x2A5A PUSH2 0x25DD JUMP JUMPDEST PUSH1 0x0 DUP4 DUP2 MSTORE PUSH1 0x13 PUSH1 0x20 SWAP1 DUP2 MSTORE PUSH1 0x40 DUP1 DUP4 KECCAK256 DUP7 DUP2 SSTORE PUSH1 0x1 DUP2 ADD DUP1 SLOAD TIMESTAMP PUSH1 0x1 PUSH1 0x1 PUSH1 0x40 SHL SUB SWAP1 DUP2 AND PUSH1 0x1 PUSH1 0x60 SHL MUL PUSH8 0xFFFFFFFFFFFFFFFF PUSH1 0x60 SHL NOT NUMBER SWAP3 SWAP1 SWAP3 AND PUSH5 0x100000000 MUL SWAP2 SWAP1 SWAP2 AND PUSH5 0x100000000 PUSH1 0x1 PUSH1 0xA0 SHL SUB NOT SWAP1 SWAP3 AND SWAP2 SWAP1 SWAP2 OR OR SWAP1 SSTORE PUSH1 0x2 DUP2 ADD DUP5 SWAP1 SSTORE DUP4 DUP1 MSTORE PUSH1 0x3 DUP2 ADD SWAP1 SWAP3 MSTORE DUP3 KECCAK256 DUP1 SLOAD DUP5 OR SWAP1 SSTORE SWAP2 SWAP3 POP DUP1 JUMPDEST PUSH1 0x9 DUP2 LT ISZERO PUSH2 0x2B1A JUMPI PUSH1 0x8 DUP2 SWAP1 SHR PUSH1 0x0 SWAP1 DUP2 MSTORE PUSH1 0x3 DUP5 ADD PUSH1 0x20 MSTORE PUSH1 0x40 SWAP1 KECCAK256 SLOAD PUSH1 0x1 PUSH1 0xFF DUP4 AND SHL AND ISZERO PUSH2 0x2B12 JUMPI PUSH2 0x2B0F PUSH1 0x1 DUP4 PUSH2 0x500A JUMP JUMPDEST SWAP2 POP JUMPDEST PUSH1 0x1 ADD PUSH2 0x2AD8 JUMP JUMPDEST POP PUSH1 0x1 SWAP2 SWAP1 SWAP2 ADD DUP1 SLOAD PUSH4 0xFFFFFFFF NOT AND PUSH4 0xFFFFFFFF SWAP1 SWAP3 AND SWAP2 SWAP1 SWAP2 OR SWAP1 SSTORE POP POP POP JUMP JUMPDEST PUSH2 0x2B45 PUSH2 0x2DD5 JUMP JUMPDEST PUSH1 0x1 PUSH1 0x1 PUSH1 0xA0 SHL SUB DUP2 AND PUSH2 0x2B6F JUMPI PUSH1 0x40 MLOAD PUSH4 0x1E4FBDF7 PUSH1 0xE0 SHL DUP2 MSTORE PUSH1 0x0 PUSH1 0x4 DUP3 ADD MSTORE PUSH1 0x24 ADD PUSH2 0xD6B JUMP JUMPDEST PUSH2 0x2B78 DUP2 PUSH2 0x3437 JUMP JUMPDEST POP JUMP JUMPDEST PUSH1 0x1C SLOAD PUSH1 0x1 PUSH1 0xA0 SHL SWAP1 DIV PUSH1 0xFF AND PUSH2 0x2BA4 JUMPI PUSH1 0x40 MLOAD PUSH3 0x461BCD PUSH1 0xE5 SHL DUP2 MSTORE PUSH1 0x4 ADD PUSH2 0xD6B SWAP1 PUSH2 0x4B15 JUMP JUMPDEST PUSH1 0x1B SLOAD PUSH1 0x1 PUSH1 0x1 PUSH1 0xA0 SHL SUB AND CALLER EQ PUSH2 0x2BF1 JUMPI PUSH1 0x40 MLOAD PUSH3 0x461BCD PUSH1 0xE5 SHL DUP2 MSTORE PUSH1 0x20 PUSH1 0x4 DUP3 ADD MSTORE PUSH1 0x10 PUSH1 0x24 DUP3 ADD MSTORE PUSH16 0x6D757374206265207472656173757279 PUSH1 0x80 SHL PUSH1 0x44 DUP3 ADD MSTORE PUSH1 0x64 ADD PUSH2 0xD6B JUMP JUMPDEST PUSH1 0x19 SLOAD DUP1 PUSH2 0x2C2F JUMPI PUSH1 0x40 MLOAD PUSH3 0x461BCD PUSH1 0xE5 SHL DUP2 MSTORE PUSH1 0x20 PUSH1 0x4 DUP3 ADD MSTORE PUSH1 0xB PUSH1 0x24 DUP3 ADD MSTORE PUSH11 0x6E6F20706F6F6C20666565 PUSH1 0xA8 SHL PUSH1 0x44 DUP3 ADD MSTORE PUSH1 0x64 ADD PUSH2 0xD6B JUMP JUMPDEST PUSH1 0x0 PUSH1 0x19 DUP2 SWAP1 SSTORE POP PUSH1 0x0 DUP3 PUSH1 0x1 PUSH1 0x1 PUSH1 0xA0 SHL SUB AND DUP3 PUSH1 0x40 MLOAD PUSH2 0x2076 JUMP JUMPDEST PUSH1 0x0 DUP1 PUSH2 0x2C58 DUP4 PUSH2 0x3B42 JUMP JUMPDEST SWAP1 POP PUSH1 0x1 PUSH1 0x1 PUSH1 0xA0 SHL SUB DUP2 AND PUSH2 0xC45 JUMPI PUSH1 0x40 MLOAD PUSH4 0x7E273289 PUSH1 0xE0 SHL DUP2 MSTORE PUSH1 0x4 DUP2 ADD DUP5 SWAP1 MSTORE PUSH1 0x24 ADD PUSH2 0xD6B JUMP JUMPDEST PUSH1 0x0 SWAP1 DUP2 MSTORE PUSH32 0x80BB2B638CC20BC4D0A60D66940F3AB4A00C1D7B313497CA82FB0B4AB0079304 PUSH1 0x20 MSTORE PUSH1 0x40 SWAP1 KECCAK256 SLOAD PUSH1 0x1 PUSH1 0x1 PUSH1 0xA0 SHL SUB AND SWAP1 JUMP JUMPDEST PUSH2 0x10F4 DUP4 DUP4 DUP4 PUSH1 0x1 PUSH2 0x3B7C JUMP JUMPDEST PUSH1 0x0 PUSH1 0x0 DUP1 MLOAD PUSH1 0x20 PUSH2 0x5169 DUP4 CODECOPY DUP2 MLOAD SWAP2 MSTORE DUP2 PUSH2 0x2CE6 DUP6 PUSH2 0x3B42 JUMP JUMPDEST SWAP1 POP PUSH1 0x1 PUSH1 0x1 PUSH1 0xA0 SHL SUB DUP5 AND ISZERO PUSH2 0x2D02 JUMPI PUSH2 0x2D02 DUP2 DUP6 DUP8 PUSH2 0x3C92 JUMP JUMPDEST PUSH1 0x1 PUSH1 0x1 PUSH1 0xA0 SHL SUB DUP2 AND ISZERO PUSH2 0x2D42 JUMPI PUSH2 0x2D1F PUSH1 0x0 DUP7 PUSH1 0x0 DUP1 PUSH2 0x3B7C JUMP JUMPDEST PUSH1 0x1 PUSH1 0x1 PUSH1 0xA0 SHL SUB DUP2 AND PUSH1 0x0 SWAP1 DUP2 MSTORE PUSH1 0x3 DUP4 ADD PUSH1 0x20 MSTORE PUSH1 0x40 SWAP1 KECCAK256 DUP1 SLOAD PUSH1 0x0 NOT ADD SWAP1 SSTORE JUMPDEST PUSH1 0x1 PUSH1 0x1 PUSH1 0xA0 SHL SUB DUP7 AND ISZERO PUSH2 0x2D73 JUMPI PUSH1 0x1 PUSH1 0x1 PUSH1 0xA0 SHL SUB DUP7 AND PUSH1 0x0 SWAP1 DUP2 MSTORE PUSH1 0x3 DUP4 ADD PUSH1 0x20 MSTORE PUSH1 0x40 SWAP1 KECCAK256 DUP1 SLOAD PUSH1 0x1 ADD SWAP1 SSTORE JUMPDEST PUSH1 0x0 DUP6 DUP2 MSTORE PUSH1 0x2 DUP4 ADD PUSH1 0x20 MSTORE PUSH1 0x40 DUP1 DUP3 KECCAK256 DUP1 SLOAD PUSH1 0x1 PUSH1 0x1 PUSH1 0xA0 SHL SUB NOT AND PUSH1 0x1 PUSH1 0x1 PUSH1 0xA0 SHL SUB DUP11 DUP2 AND SWAP2 DUP3 OR SWAP1 SWAP3 SSTORE SWAP2 MLOAD DUP9 SWAP4 SWAP2 DUP6 AND SWAP2 PUSH32 0xDDF252AD1BE2C89B69C2B068FC378DAA952BA7F163C4A11628F55A4DF523B3EF SWAP2 LOG4 SWAP6 SWAP5 POP POP POP POP POP JUMP JUMPDEST CALLER PUSH2 0x2DDE PUSH2 0x1BB2 JUMP JUMPDEST PUSH1 0x1 PUSH1 0x1 PUSH1 0xA0 SHL SUB AND EQ PUSH2 0x1B08 JUMPI PUSH1 0x40 MLOAD PUSH4 0x118CDAA7 PUSH1 0xE0 SHL DUP2 MSTORE CALLER PUSH1 0x4 DUP3 ADD MSTORE PUSH1 0x24 ADD PUSH2 0xD6B JUMP JUMPDEST PUSH1 0x0 DUP2 DUP2 MSTORE PUSH1 0x13 PUSH1 0x20 MSTORE PUSH1 0x40 DUP1 DUP3 KECCAK256 DUP2 MLOAD PUSH1 0x3 DUP1 DUP3 MSTORE PUSH1 0x80 DUP3 ADD SWAP1 SWAP4 MSTORE PUSH1 0x60 SWAP4 SWAP2 SWAP3 SWAP2 DUP3 SWAP2 DUP3 DUP2 PUSH1 0x20 ADD JUMPDEST PUSH1 0x60 DUP2 MSTORE PUSH1 0x20 ADD SWAP1 PUSH1 0x1 SWAP1 SUB SWAP1 DUP2 PUSH2 0x2E32 JUMPI SWAP1 POP POP SWAP1 POP PUSH1 0x0 JUMPDEST DUP3 DUP2 LT ISZERO PUSH2 0x2F75 JUMPI DUP4 PUSH1 0x1 PUSH1 0x1 PUSH1 0x40 SHL SUB DUP2 GT ISZERO PUSH2 0x2E6C JUMPI PUSH2 0x2E6C PUSH2 0x434D JUMP JUMPDEST PUSH1 0x40 MLOAD SWAP1 DUP1 DUP3 MSTORE DUP1 PUSH1 0x20 MUL PUSH1 0x20 ADD DUP3 ADD PUSH1 0x40 MSTORE DUP1 ISZERO PUSH2 0x2E95 JUMPI DUP2 PUSH1 0x20 ADD PUSH1 0x20 DUP3 MUL DUP1 CALLDATASIZE DUP4 CALLDATACOPY ADD SWAP1 POP JUMPDEST POP DUP3 DUP3 DUP2 MLOAD DUP2 LT PUSH2 0x2EA8 JUMPI PUSH2 0x2EA8 PUSH2 0x4ABD JUMP JUMPDEST PUSH1 0x20 MUL PUSH1 0x20 ADD ADD DUP2 SWAP1 MSTORE POP PUSH1 0x0 JUMPDEST DUP5 DUP2 LT ISZERO PUSH2 0x2F6C JUMPI PUSH2 0x2F1D PUSH1 0x1 DUP3 PUSH2 0x2ECE DUP9 DUP7 PUSH2 0x4D1D JUMP JUMPDEST PUSH2 0x2ED8 SWAP2 SWAP1 PUSH2 0x4B3E JUMP JUMPDEST PUSH2 0x2EE2 DUP8 DUP10 PUSH2 0x4D1D JUMP JUMPDEST PUSH2 0x2EEC SWAP2 SWAP1 PUSH2 0x4AE9 JUMP JUMPDEST PUSH2 0x2EF6 SWAP2 SWAP1 PUSH2 0x4AE9 JUMP JUMPDEST PUSH1 0x8 DUP2 SWAP1 SHR PUSH1 0x0 SWAP1 DUP2 MSTORE PUSH1 0x3 DUP10 ADD PUSH1 0x20 MSTORE PUSH1 0x40 SWAP1 KECCAK256 SLOAD PUSH1 0x1 PUSH1 0xFF SWAP1 SWAP3 AND SWAP2 SWAP1 SWAP2 SHL AND ISZERO ISZERO SWAP1 JUMP JUMPDEST PUSH2 0x2F28 JUMPI PUSH1 0x0 PUSH2 0x2F2B JUMP JUMPDEST PUSH1 0x1 JUMPDEST PUSH1 0xFF AND DUP4 DUP4 DUP2 MLOAD DUP2 LT PUSH2 0x2F40 JUMPI PUSH2 0x2F40 PUSH2 0x4ABD JUMP JUMPDEST PUSH1 0x20 MUL PUSH1 0x20 ADD ADD MLOAD DUP3 DUP2 MLOAD DUP2 LT PUSH2 0x2F59 JUMPI PUSH2 0x2F59 PUSH2 0x4ABD JUMP JUMPDEST PUSH1 0x20 SWAP1 DUP2 MUL SWAP2 SWAP1 SWAP2 ADD ADD MSTORE PUSH1 0x1 ADD PUSH2 0x2EB6 JUMP JUMPDEST POP PUSH1 0x1 ADD PUSH2 0x2E4C JUMP JUMPDEST POP PUSH1 0x40 DUP1 MLOAD PUSH1 0x20 DUP2 ADD SWAP1 SWAP2 MSTORE PUSH1 0x0 DUP1 DUP3 MSTORE JUMPDEST DUP4 DUP2 LT ISZERO PUSH2 0x311E JUMPI PUSH1 0x0 DUP4 DUP3 DUP2 MLOAD DUP2 LT PUSH2 0x2FA3 JUMPI PUSH2 0x2FA3 PUSH2 0x4ABD JUMP JUMPDEST PUSH1 0x20 MUL PUSH1 0x20 ADD ADD MLOAD PUSH1 0x0 DUP2 MLOAD DUP2 LT PUSH2 0x2FBD JUMPI PUSH2 0x2FBD PUSH2 0x4ABD JUMP JUMPDEST PUSH1 0x20 MUL PUSH1 0x20 ADD ADD MLOAD SWAP1 POP PUSH1 0x0 DUP1 JUMPDEST DUP8 DUP2 LT ISZERO PUSH2 0x30A3 JUMPI PUSH1 0x0 DUP7 DUP6 DUP2 MLOAD DUP2 LT PUSH2 0x2FE7 JUMPI PUSH2 0x2FE7 PUSH2 0x4ABD JUMP JUMPDEST PUSH1 0x20 MUL PUSH1 0x20 ADD ADD MLOAD DUP3 DUP2 MLOAD DUP2 LT PUSH2 0x3000 JUMPI PUSH2 0x3000 PUSH2 0x4ABD JUMP JUMPDEST PUSH1 0x20 MUL PUSH1 0x20 ADD ADD MLOAD SWAP1 POP DUP4 DUP2 SUB PUSH2 0x3023 JUMPI DUP3 PUSH2 0x301B DUP2 PUSH2 0x4AFC JUMP JUMPDEST SWAP4 POP POP PUSH2 0x309A JUMP JUMPDEST DUP6 PUSH2 0x302D DUP5 PUSH2 0x3129 JUMP JUMPDEST DUP6 PUSH1 0x1 EQ PUSH2 0x3054 JUMPI PUSH1 0x40 MLOAD DUP1 PUSH1 0x40 ADD PUSH1 0x40 MSTORE DUP1 PUSH1 0x1 DUP2 MSTORE PUSH1 0x20 ADD PUSH1 0x31 PUSH1 0xF9 SHL DUP2 MSTORE POP PUSH2 0x306F JUMP JUMPDEST PUSH1 0x40 MLOAD DUP1 PUSH1 0x40 ADD PUSH1 0x40 MSTORE DUP1 PUSH1 0x1 DUP2 MSTORE PUSH1 0x20 ADD PUSH1 0x6F PUSH1 0xF8 SHL DUP2 MSTORE POP JUMPDEST PUSH1 0x40 MLOAD PUSH1 0x20 ADD PUSH2 0x3081 SWAP4 SWAP3 SWAP2 SWAP1 PUSH2 0x5027 JUMP JUMPDEST PUSH1 0x40 MLOAD PUSH1 0x20 DUP2 DUP4 SUB SUB DUP2 MSTORE SWAP1 PUSH1 0x40 MSTORE SWAP6 POP DUP1 SWAP4 POP PUSH1 0x1 SWAP3 POP JUMPDEST POP PUSH1 0x1 ADD PUSH2 0x2FCB JUMP JUMPDEST POP DUP4 PUSH2 0x30AE DUP3 PUSH2 0x3129 JUMP JUMPDEST DUP4 PUSH1 0x1 EQ PUSH2 0x30D5 JUMPI PUSH1 0x40 MLOAD DUP1 PUSH1 0x40 ADD PUSH1 0x40 MSTORE DUP1 PUSH1 0x1 DUP2 MSTORE PUSH1 0x20 ADD PUSH1 0x31 PUSH1 0xF9 SHL DUP2 MSTORE POP PUSH2 0x30F0 JUMP JUMPDEST PUSH1 0x40 MLOAD DUP1 PUSH1 0x40 ADD PUSH1 0x40 MSTORE DUP1 PUSH1 0x1 DUP2 MSTORE PUSH1 0x20 ADD PUSH1 0x6F PUSH1 0xF8 SHL DUP2 MSTORE POP JUMPDEST PUSH1 0x40 MLOAD PUSH1 0x20 ADD PUSH2 0x3102 SWAP4 SWAP3 SWAP2 SWAP1 PUSH2 0x506A JUMP JUMPDEST PUSH1 0x40 DUP1 MLOAD DUP1 DUP4 SUB PUSH1 0x1F NOT ADD DUP2 MSTORE SWAP2 SWAP1 MSTORE SWAP4 POP POP POP PUSH1 0x1 ADD PUSH2 0x2F87 JUMP JUMPDEST POP SWAP7 SWAP6 POP POP POP POP POP POP JUMP JUMPDEST PUSH1 0x60 PUSH1 0x0 PUSH2 0x3136 DUP4 PUSH2 0x3CF6 JUMP JUMPDEST PUSH1 0x1 ADD SWAP1 POP PUSH1 0x0 DUP2 PUSH1 0x1 PUSH1 0x1 PUSH1 0x40 SHL SUB DUP2 GT ISZERO PUSH2 0x3155 JUMPI PUSH2 0x3155 PUSH2 0x434D JUMP JUMPDEST PUSH1 0x40 MLOAD SWAP1 DUP1 DUP3 MSTORE DUP1 PUSH1 0x1F ADD PUSH1 0x1F NOT AND PUSH1 0x20 ADD DUP3 ADD PUSH1 0x40 MSTORE DUP1 ISZERO PUSH2 0x317F JUMPI PUSH1 0x20 DUP3 ADD DUP2 DUP1 CALLDATASIZE DUP4 CALLDATACOPY ADD SWAP1 POP JUMPDEST POP SWAP1 POP DUP2 DUP2 ADD PUSH1 0x20 ADD JUMPDEST PUSH1 0x0 NOT ADD PUSH16 0x181899199A1A9B1B9C1CB0B131B232B3 PUSH1 0x81 SHL PUSH1 0xA DUP7 MOD BYTE DUP2 MSTORE8 PUSH1 0xA DUP6 DIV SWAP5 POP DUP5 PUSH2 0x3189 JUMPI POP SWAP4 SWAP3 POP POP POP JUMP JUMPDEST PUSH1 0x0 PUSH8 0xDE0B6B3A7640000 DUP4 MUL DUP3 SWAP1 SDIV PUSH2 0x1A69 JUMP JUMPDEST PUSH1 0x0 PUSH2 0x31F2 DUP5 PUSH2 0x31ED PUSH8 0xDE0B6B3A7640000 DUP6 DUP10 SUB DUP8 MUL SDIV PUSH2 0x3DCE JUMP JUMPDEST PUSH2 0x3F77 JUMP JUMPDEST SWAP6 SWAP5 POP POP POP POP POP JUMP JUMPDEST ADDRESS PUSH1 0x1 PUSH1 0x1 PUSH1 0xA0 SHL SUB PUSH32 0x0 AND EQ DUP1 PUSH2 0x3282 JUMPI POP PUSH32 0x0 PUSH1 0x1 PUSH1 0x1 PUSH1 0xA0 SHL SUB AND PUSH2 0x3276 PUSH1 0x0 DUP1 MLOAD PUSH1 0x20 PUSH2 0x5189 DUP4 CODECOPY DUP2 MLOAD SWAP2 MSTORE SLOAD PUSH1 0x1 PUSH1 0x1 PUSH1 0xA0 SHL SUB AND SWAP1 JUMP JUMPDEST PUSH1 0x1 PUSH1 0x1 PUSH1 0xA0 SHL SUB AND EQ ISZERO JUMPDEST ISZERO PUSH2 0x1B08 JUMPI PUSH1 0x40 MLOAD PUSH4 0x703E46DD PUSH1 0xE1 SHL DUP2 MSTORE PUSH1 0x4 ADD PUSH1 0x40 MLOAD DUP1 SWAP2 SUB SWAP1 REVERT JUMPDEST PUSH2 0x2B78 PUSH2 0x2DD5 JUMP JUMPDEST DUP2 PUSH1 0x1 PUSH1 0x1 PUSH1 0xA0 SHL SUB AND PUSH4 0x52D1902D PUSH1 0x40 MLOAD DUP2 PUSH4 0xFFFFFFFF AND PUSH1 0xE0 SHL DUP2 MSTORE PUSH1 0x4 ADD PUSH1 0x20 PUSH1 0x40 MLOAD DUP1 DUP4 SUB DUP2 DUP7 GAS STATICCALL SWAP3 POP POP POP DUP1 ISZERO PUSH2 0x3302 JUMPI POP PUSH1 0x40 DUP1 MLOAD PUSH1 0x1F RETURNDATASIZE SWAP1 DUP2 ADD PUSH1 0x1F NOT AND DUP3 ADD SWAP1 SWAP3 MSTORE PUSH2 0x32FF SWAP2 DUP2 ADD SWAP1 PUSH2 0x50B9 JUMP JUMPDEST PUSH1 0x1 JUMPDEST PUSH2 0x332A JUMPI PUSH1 0x40 MLOAD PUSH4 0x4C9C8CE3 PUSH1 0xE0 SHL DUP2 MSTORE PUSH1 0x1 PUSH1 0x1 PUSH1 0xA0 SHL SUB DUP4 AND PUSH1 0x4 DUP3 ADD MSTORE PUSH1 0x24 ADD PUSH2 0xD6B JUMP JUMPDEST PUSH1 0x0 DUP1 MLOAD PUSH1 0x20 PUSH2 0x5189 DUP4 CODECOPY DUP2 MLOAD SWAP2 MSTORE DUP2 EQ PUSH2 0x335B JUMPI PUSH1 0x40 MLOAD PUSH4 0x2A875269 PUSH1 0xE2 SHL DUP2 MSTORE PUSH1 0x4 DUP2 ADD DUP3 SWAP1 MSTORE PUSH1 0x24 ADD PUSH2 0xD6B JUMP JUMPDEST PUSH2 0x10F4 DUP4 DUP4 PUSH2 0x3FAA JUMP JUMPDEST ADDRESS PUSH1 0x1 PUSH1 0x1 PUSH1 0xA0 SHL SUB PUSH32 0x0 AND EQ PUSH2 0x1B08 JUMPI PUSH1 0x40 MLOAD PUSH4 0x703E46DD PUSH1 0xE1 SHL DUP2 MSTORE PUSH1 0x4 ADD PUSH1 0x40 MLOAD DUP1 SWAP2 SUB SWAP1 REVERT JUMPDEST PUSH2 0x33B6 PUSH2 0x4000 JUMP JUMPDEST PUSH2 0xD0F DUP3 DUP3 PUSH2 0x4049 JUMP JUMPDEST PUSH2 0x33C8 PUSH2 0x4000 JUMP JUMPDEST PUSH2 0x2B78 DUP2 PUSH2 0x407A JUMP JUMPDEST PUSH1 0x0 DUP6 DUP8 SLT ISZERO PUSH2 0x3419 JUMPI PUSH2 0x340F PUSH2 0x33FF PUSH8 0xDE0B6B3A7640000 DUP10 DUP8 ADD PUSH8 0x1BC16D674EC80000 DUP9 MUL SDIV SUB PUSH2 0x367B JUMP JUMPDEST PUSH8 0xDE0B6B3A7640000 MUL DUP5 SWAP1 SDIV SWAP1 JUMP JUMPDEST PUSH1 0x0 SUB SWAP1 POP PUSH2 0x342D JUMP JUMPDEST POP DUP5 DUP7 SUB PUSH8 0xDE0B6B3A7640000 MUL DUP2 SWAP1 SDIV DUP5 ADD JUMPDEST SWAP7 SWAP6 POP POP POP POP POP POP JUMP JUMPDEST PUSH32 0x9016D09D72D40FDAE2FD8CEAC6B6234C7706214FD39C1CD1E609A0528C199300 DUP1 SLOAD PUSH1 0x1 PUSH1 0x1 PUSH1 0xA0 SHL SUB NOT DUP2 AND PUSH1 0x1 PUSH1 0x1 PUSH1 0xA0 SHL SUB DUP5 DUP2 AND SWAP2 DUP3 OR DUP5 SSTORE PUSH1 0x40 MLOAD SWAP3 AND SWAP2 DUP3 SWAP1 PUSH32 0x8BE0079C531659141344CD1FD0A4F28419497F9722A3DAAFE3B4186F6B6457E0 SWAP1 PUSH1 0x0 SWAP1 LOG3 POP POP POP JUMP JUMPDEST PUSH1 0x0 DUP1 MLOAD PUSH1 0x20 PUSH2 0x5169 DUP4 CODECOPY DUP2 MLOAD SWAP2 MSTORE PUSH1 0x1 PUSH1 0x1 PUSH1 0xA0 SHL SUB DUP4 AND PUSH2 0x34E9 JUMPI PUSH1 0x40 MLOAD PUSH4 0xB611743 PUSH1 0xE3 SHL DUP2 MSTORE PUSH1 0x1 PUSH1 0x1 PUSH1 0xA0 SHL SUB DUP5 AND PUSH1 0x4 DUP3 ADD MSTORE PUSH1 0x24 ADD PUSH2 0xD6B JUMP JUMPDEST PUSH1 0x1 PUSH1 0x1 PUSH1 0xA0 SHL SUB DUP5 DUP2 AND PUSH1 0x0 DUP2 DUP2 MSTORE PUSH1 0x5 DUP5 ADD PUSH1 0x20 SWAP1 DUP2 MSTORE PUSH1 0x40 DUP1 DUP4 KECCAK256 SWAP5 DUP9 AND DUP1 DUP5 MSTORE SWAP5 DUP3 MSTORE SWAP2 DUP3 SWAP1 KECCAK256 DUP1 SLOAD PUSH1 0xFF NOT AND DUP8 ISZERO ISZERO SWAP1 DUP2 OR SWAP1 SWAP2 SSTORE SWAP2 MLOAD SWAP2 DUP3 MSTORE PUSH32 0x17307EAB39AB6107E8899845AD3D59BD9653F200F220920489CA2B5937696C31 SWAP2 ADD PUSH1 0x40 MLOAD DUP1 SWAP2 SUB SWAP1 LOG3 POP POP POP POP JUMP JUMPDEST PUSH1 0x1 PUSH1 0x1 PUSH1 0xA0 SHL SUB DUP4 AND EXTCODESIZE ISZERO PUSH2 0xF94 JUMPI PUSH1 0x40 MLOAD PUSH4 0xA85BD01 PUSH1 0xE1 SHL DUP2 MSTORE PUSH1 0x1 PUSH1 0x1 PUSH1 0xA0 SHL SUB DUP5 AND SWAP1 PUSH4 0x150B7A02 SWAP1 PUSH2 0x359B SWAP1 CALLER SWAP1 DUP9 SWAP1 DUP8 SWAP1 DUP8 SWAP1 PUSH1 0x4 ADD PUSH2 0x50D2 JUMP JUMPDEST PUSH1 0x20 PUSH1 0x40 MLOAD DUP1 DUP4 SUB DUP2 PUSH1 0x0 DUP8 GAS CALL SWAP3 POP POP POP DUP1 ISZERO PUSH2 0x35D6 JUMPI POP PUSH1 0x40 DUP1 MLOAD PUSH1 0x1F RETURNDATASIZE SWAP1 DUP2 ADD PUSH1 0x1F NOT AND DUP3 ADD SWAP1 SWAP3 MSTORE PUSH2 0x35D3 SWAP2 DUP2 ADD SWAP1 PUSH2 0x5105 JUMP JUMPDEST PUSH1 0x1 JUMPDEST PUSH2 0x363F JUMPI RETURNDATASIZE DUP1 DUP1 ISZERO PUSH2 0x3604 JUMPI PUSH1 0x40 MLOAD SWAP2 POP PUSH1 0x1F NOT PUSH1 0x3F RETURNDATASIZE ADD AND DUP3 ADD PUSH1 0x40 MSTORE RETURNDATASIZE DUP3 MSTORE RETURNDATASIZE PUSH1 0x0 PUSH1 0x20 DUP5 ADD RETURNDATACOPY PUSH2 0x3609 JUMP JUMPDEST PUSH1 0x60 SWAP2 POP JUMPDEST POP DUP1 MLOAD PUSH1 0x0 SUB PUSH2 0x3637 JUMPI PUSH1 0x40 MLOAD PUSH4 0x32505749 PUSH1 0xE1 SHL DUP2 MSTORE PUSH1 0x1 PUSH1 0x1 PUSH1 0xA0 SHL SUB DUP6 AND PUSH1 0x4 DUP3 ADD MSTORE PUSH1 0x24 ADD PUSH2 0xD6B JUMP JUMPDEST DUP1 MLOAD DUP2 PUSH1 0x20 ADD REVERT JUMPDEST PUSH1 0x1 PUSH1 0x1 PUSH1 0xE0 SHL SUB NOT DUP2 AND PUSH4 0xA85BD01 PUSH1 0xE1 SHL EQ PUSH2 0x25AC JUMPI PUSH1 0x40 MLOAD PUSH4 0x32505749 PUSH1 0xE1 SHL DUP2 MSTORE PUSH1 0x1 PUSH1 0x1 PUSH1 0xA0 SHL SUB DUP6 AND PUSH1 0x4 DUP3 ADD MSTORE PUSH1 0x24 ADD PUSH2 0xD6B JUMP JUMPDEST PUSH1 0x0 DUP1 DUP3 SGT PUSH2 0x36B8 JUMPI PUSH1 0x40 MLOAD PUSH3 0x461BCD PUSH1 0xE5 SHL DUP2 MSTORE PUSH1 0x20 PUSH1 0x4 DUP3 ADD MSTORE PUSH1 0x9 PUSH1 0x24 DUP3 ADD MSTORE PUSH9 0x155391115192539151 PUSH1 0xBA SHL PUSH1 0x44 DUP3 ADD MSTORE PUSH1 0x64 ADD PUSH2 0xD6B JUMP JUMPDEST POP PUSH1 0x60 PUSH16 0xFFFFFFFFFFFFFFFFFFFFFFFFFFFFFFFF DUP3 GT PUSH1 0x7 SHL DUP3 DUP2 SHR PUSH1 0x1 PUSH1 0x1 PUSH1 0x40 SHL SUB LT PUSH1 0x6 SHL OR DUP3 DUP2 SHR PUSH4 0xFFFFFFFF LT PUSH1 0x5 SHL OR DUP3 DUP2 SHR PUSH2 0xFFFF LT PUSH1 0x4 SHL OR DUP3 DUP2 SHR PUSH1 0xFF LT PUSH1 0x3 SWAP1 DUP2 SHL SWAP1 SWAP2 OR DUP4 DUP2 SHR PUSH1 0xF LT PUSH1 0x2 SHL OR DUP4 DUP2 SHR SWAP1 SWAP2 LT PUSH1 0x1 SWAP1 DUP2 SHL SWAP1 SWAP2 OR DUP4 DUP2 SHR SWAP1 SWAP2 LT OR PUSH1 0x9F DUP2 DUP2 SUB DUP4 ADD SWAP4 SWAP1 SWAP4 SHL SWAP1 SWAP3 SHR PUSH13 0x465772B2BBBB5F824B15207A30 DUP2 ADD DUP2 MUL DUP3 SAR PUSH14 0x388EAA27412D5ACA026815D636E ADD DUP2 MUL DUP3 SAR PUSH14 0xDF99AC502031BF953EFF472FDCC ADD DUP2 MUL DUP3 SAR PUSH14 0x13CDFFB29D51D99322BDFF5F2211 ADD DUP2 MUL DUP3 SAR PUSH14 0xA0F742023DEF783A307A986912E ADD DUP2 MUL DUP3 SAR PUSH14 0x1920D8043CA89B5239253284E42 ADD DUP2 MUL DUP3 SAR PUSH13 0xB7A86D7375468FAC667A0A527 ADD PUSH13 0x29508E458543D8AA4DF2ABEE78 DUP3 ADD DUP3 MUL DUP4 SAR PUSH14 0x139601A2EFABE717E604CBB4894 ADD DUP3 MUL DUP4 SAR PUSH14 0x2247F7A7B6594320649AA03ABA1 ADD DUP3 MUL DUP4 SAR PUSH13 0x8C3F38E95A6B1FF2AB1C3B3436 NOT ADD DUP3 MUL DUP4 SAR PUSH14 0x2384773BDF1AC5676FACCED6090 NOT ADD DUP3 MUL SWAP1 SWAP3 SAR PUSH13 0xB9A025D814B29C212B8B1A07CD NOT ADD MUL PUSH25 0xA09507084CC699BB0E71EA869FFFFFFFFFFFFFFFFFFFFFFFF NOT ADD SDIV PUSH18 0x1340DAA0D5F769DBA1915CEF59F0815A5506 MUL PUSH1 0x5F NOT SWAP2 SWAP1 SWAP2 ADD PUSH30 0x267A36C0C95B3975AB3EE5B203A7614A3F75373F047D803AE7B6687F2B3 MUL ADD PUSH30 0x57115E47018C7177EEBF7CD370A3356A1B7863008A5AE8028C72B8864284 ADD PUSH1 0xAE SAR SWAP1 JUMP JUMPDEST PUSH1 0x60 PUSH1 0x1D DUP1 SLOAD PUSH2 0x38C0 SWAP1 PUSH2 0x4A83 JUMP JUMPDEST DUP1 PUSH1 0x1F ADD PUSH1 0x20 DUP1 SWAP2 DIV MUL PUSH1 0x20 ADD PUSH1 0x40 MLOAD SWAP1 DUP2 ADD PUSH1 0x40 MSTORE DUP1 SWAP3 SWAP2 SWAP1 DUP2 DUP2 MSTORE PUSH1 0x20 ADD DUP3 DUP1 SLOAD PUSH2 0x38EC SWAP1 PUSH2 0x4A83 JUMP JUMPDEST DUP1 ISZERO PUSH2 0x3939 JUMPI DUP1 PUSH1 0x1F LT PUSH2 0x390E JUMPI PUSH2 0x100 DUP1 DUP4 SLOAD DIV MUL DUP4 MSTORE SWAP2 PUSH1 0x20 ADD SWAP2 PUSH2 0x3939 JUMP JUMPDEST DUP3 ADD SWAP2 SWAP1 PUSH1 0x0 MSTORE PUSH1 0x20 PUSH1 0x0 KECCAK256 SWAP1 JUMPDEST DUP2 SLOAD DUP2 MSTORE SWAP1 PUSH1 0x1 ADD SWAP1 PUSH1 0x20 ADD DUP1 DUP4 GT PUSH2 0x391C JUMPI DUP3 SWAP1 SUB PUSH1 0x1F AND DUP3 ADD SWAP2 JUMPDEST POP POP POP POP POP SWAP1 POP SWAP1 JUMP JUMPDEST PUSH1 0x1 PUSH1 0x1 PUSH1 0xA0 SHL SUB DUP3 AND PUSH2 0x396D JUMPI PUSH1 0x40 MLOAD PUSH4 0x32505749 PUSH1 0xE1 SHL DUP2 MSTORE PUSH1 0x0 PUSH1 0x4 DUP3 ADD MSTORE PUSH1 0x24 ADD PUSH2 0xD6B JUMP JUMPDEST PUSH1 0x0 PUSH2 0x397B DUP4 DUP4 PUSH1 0x0 PUSH2 0x2CCB JUMP JUMPDEST SWAP1 POP PUSH1 0x1 PUSH1 0x1 PUSH1 0xA0 SHL SUB DUP2 AND ISZERO PUSH2 0x10F4 JUMPI PUSH1 0x40 MLOAD PUSH4 0x39E35637 PUSH1 0xE1 SHL DUP2 MSTORE PUSH1 0x0 PUSH1 0x4 DUP3 ADD MSTORE PUSH1 0x24 ADD PUSH2 0xD6B JUMP JUMPDEST PUSH1 0x60 PUSH1 0x0 DUP3 MLOAD PUSH1 0x1 PUSH1 0x1 PUSH1 0x40 SHL SUB DUP2 GT ISZERO PUSH2 0x39C5 JUMPI PUSH2 0x39C5 PUSH2 0x434D JUMP JUMPDEST PUSH1 0x40 MLOAD SWAP1 DUP1 DUP3 MSTORE DUP1 PUSH1 0x20 MUL PUSH1 0x20 ADD DUP3 ADD PUSH1 0x40 MSTORE DUP1 ISZERO PUSH2 0x39EE JUMPI DUP2 PUSH1 0x20 ADD PUSH1 0x20 DUP3 MUL DUP1 CALLDATASIZE DUP4 CALLDATACOPY ADD SWAP1 POP JUMPDEST POP SWAP1 POP PUSH1 0x0 DUP1 JUMPDEST DUP5 MLOAD DUP2 LT ISZERO PUSH2 0x3AA8 JUMPI PUSH1 0x0 DUP1 JUMPDEST DUP4 DUP2 LT ISZERO PUSH2 0x3A54 JUMPI DUP5 DUP2 DUP2 MLOAD DUP2 LT PUSH2 0x3A1C JUMPI PUSH2 0x3A1C PUSH2 0x4ABD JUMP JUMPDEST PUSH1 0x20 MUL PUSH1 0x20 ADD ADD MLOAD DUP8 DUP5 DUP2 MLOAD DUP2 LT PUSH2 0x3A36 JUMPI PUSH2 0x3A36 PUSH2 0x4ABD JUMP JUMPDEST PUSH1 0x20 MUL PUSH1 0x20 ADD ADD MLOAD SUB PUSH2 0x3A4C JUMPI PUSH1 0x1 SWAP2 POP PUSH2 0x3A54 JUMP JUMPDEST PUSH1 0x1 ADD PUSH2 0x3A02 JUMP JUMPDEST POP DUP1 PUSH2 0x3A9F JUMPI DUP6 DUP3 DUP2 MLOAD DUP2 LT PUSH2 0x3A6C JUMPI PUSH2 0x3A6C PUSH2 0x4ABD JUMP JUMPDEST PUSH1 0x20 MUL PUSH1 0x20 ADD ADD MLOAD DUP5 DUP5 DUP2 MLOAD DUP2 LT PUSH2 0x3A86 JUMPI PUSH2 0x3A86 PUSH2 0x4ABD JUMP JUMPDEST PUSH1 0x20 SWAP1 DUP2 MUL SWAP2 SWAP1 SWAP2 ADD ADD MSTORE DUP3 PUSH2 0x3A9B DUP2 PUSH2 0x4AFC JUMP JUMPDEST SWAP4 POP POP JUMPDEST POP PUSH1 0x1 ADD PUSH2 0x39F5 JUMP JUMPDEST POP PUSH1 0x0 DUP2 PUSH1 0x1 PUSH1 0x1 PUSH1 0x40 SHL SUB DUP2 GT ISZERO PUSH2 0x3AC3 JUMPI PUSH2 0x3AC3 PUSH2 0x434D JUMP JUMPDEST PUSH1 0x40 MLOAD SWAP1 DUP1 DUP3 MSTORE DUP1 PUSH1 0x20 MUL PUSH1 0x20 ADD DUP3 ADD PUSH1 0x40 MSTORE DUP1 ISZERO PUSH2 0x3AEC JUMPI DUP2 PUSH1 0x20 ADD PUSH1 0x20 DUP3 MUL DUP1 CALLDATASIZE DUP4 CALLDATACOPY ADD SWAP1 POP JUMPDEST POP SWAP1 POP PUSH1 0x0 JUMPDEST DUP3 DUP2 LT ISZERO PUSH2 0x3B39 JUMPI DUP4 DUP2 DUP2 MLOAD DUP2 LT PUSH2 0x3B0C JUMPI PUSH2 0x3B0C PUSH2 0x4ABD JUMP JUMPDEST PUSH1 0x20 MUL PUSH1 0x20 ADD ADD MLOAD DUP3 DUP3 DUP2 MLOAD DUP2 LT PUSH2 0x3B26 JUMPI PUSH2 0x3B26 PUSH2 0x4ABD JUMP JUMPDEST PUSH1 0x20 SWAP1 DUP2 MUL SWAP2 SWAP1 SWAP2 ADD ADD MSTORE PUSH1 0x1 ADD PUSH2 0x3AF2 JUMP JUMPDEST POP SWAP5 SWAP4 POP POP POP POP JUMP JUMPDEST PUSH1 0x0 SWAP1 DUP2 MSTORE PUSH32 0x80BB2B638CC20BC4D0A60D66940F3AB4A00C1D7B313497CA82FB0B4AB0079302 PUSH1 0x20 MSTORE PUSH1 0x40 SWAP1 KECCAK256 SLOAD PUSH1 0x1 PUSH1 0x1 PUSH1 0xA0 SHL SUB AND SWAP1 JUMP JUMPDEST PUSH1 0x0 DUP1 MLOAD PUSH1 0x20 PUSH2 0x5169 DUP4 CODECOPY DUP2 MLOAD SWAP2 MSTORE DUP2 DUP1 PUSH2 0x3B9F JUMPI POP PUSH1 0x1 PUSH1 0x1 PUSH1 0xA0 SHL SUB DUP4 AND ISZERO ISZERO JUMPDEST ISZERO PUSH2 0x3C61 JUMPI PUSH1 0x0 PUSH2 0x3BAF DUP6 PUSH2 0x2C4C JUMP JUMPDEST SWAP1 POP PUSH1 0x1 PUSH1 0x1 PUSH1 0xA0 SHL SUB DUP5 AND ISZERO DUP1 ISZERO SWAP1 PUSH2 0x3BDB JUMPI POP DUP4 PUSH1 0x1 PUSH1 0x1 PUSH1 0xA0 SHL SUB AND DUP2 PUSH1 0x1 PUSH1 0x1 PUSH1 0xA0 SHL SUB AND EQ ISZERO JUMPDEST DUP1 ISZERO PUSH2 0x3BEE JUMPI POP PUSH2 0x3BEC DUP2 DUP6 PUSH2 0x284E JUMP JUMPDEST ISZERO JUMPDEST ISZERO PUSH2 0x3C17 JUMPI PUSH1 0x40 MLOAD PUSH4 0xA9FBF51F PUSH1 0xE0 SHL DUP2 MSTORE PUSH1 0x1 PUSH1 0x1 PUSH1 0xA0 SHL SUB DUP6 AND PUSH1 0x4 DUP3 ADD MSTORE PUSH1 0x24 ADD PUSH2 0xD6B JUMP JUMPDEST DUP3 ISZERO PUSH2 0x3C5F JUMPI DUP5 DUP7 PUSH1 0x1 PUSH1 0x1 PUSH1 0xA0 SHL SUB AND DUP3 PUSH1 0x1 PUSH1 0x1 PUSH1 0xA0 SHL SUB AND PUSH32 0x8C5BE1E5EBEC7D5BD14F71427D1E84F3DD0314C0F7B2291E5B200AC8C7C3B925 PUSH1 0x40 MLOAD PUSH1 0x40 MLOAD DUP1 SWAP2 SUB SWAP1 LOG4 JUMPDEST POP JUMPDEST PUSH1 0x0 SWAP4 DUP5 MSTORE PUSH1 0x4 ADD PUSH1 0x20 MSTORE POP POP PUSH1 0x40 SWAP1 KECCAK256 DUP1 SLOAD PUSH1 0x1 PUSH1 0x1 PUSH1 0xA0 SHL SUB NOT AND PUSH1 0x1 PUSH1 0x1 PUSH1 0xA0 SHL SUB SWAP3 SWAP1 SWAP3 AND SWAP2 SWAP1 SWAP2 OR SWAP1 SSTORE JUMP JUMPDEST PUSH2 0x3C9D DUP4 DUP4 DUP4 PUSH2 0x4082 JUMP JUMPDEST PUSH2 0x10F4 JUMPI PUSH1 0x1 PUSH1 0x1 PUSH1 0xA0 SHL SUB DUP4 AND PUSH2 0x3CCB JUMPI PUSH1 0x40 MLOAD PUSH4 0x7E273289 PUSH1 0xE0 SHL DUP2 MSTORE PUSH1 0x4 DUP2 ADD DUP3 SWAP1 MSTORE PUSH1 0x24 ADD PUSH2 0xD6B JUMP JUMPDEST PUSH1 0x40 MLOAD PUSH4 0x177E802F PUSH1 0xE0 SHL DUP2 MSTORE PUSH1 0x1 PUSH1 0x1 PUSH1 0xA0 SHL SUB DUP4 AND PUSH1 0x4 DUP3 ADD MSTORE PUSH1 0x24 DUP2 ADD DUP3 SWAP1 MSTORE PUSH1 0x44 ADD PUSH2 0xD6B JUMP JUMPDEST PUSH1 0x0 DUP1 PUSH19 0x184F03E93FF9F4DAA797ED6E38ED64BF6A1F01 PUSH1 0x40 SHL DUP4 LT PUSH2 0x3D35 JUMPI PUSH19 0x184F03E93FF9F4DAA797ED6E38ED64BF6A1F01 PUSH1 0x40 SHL DUP4 DIV SWAP3 POP PUSH1 0x40 ADD JUMPDEST PUSH14 0x4EE2D6D415B85ACEF8100000000 DUP4 LT PUSH2 0x3D61 JUMPI PUSH14 0x4EE2D6D415B85ACEF8100000000 DUP4 DIV SWAP3 POP PUSH1 0x20 ADD JUMPDEST PUSH7 0x2386F26FC10000 DUP4 LT PUSH2 0x3D7F JUMPI PUSH7 0x2386F26FC10000 DUP4 DIV SWAP3 POP PUSH1 0x10 ADD JUMPDEST PUSH4 0x5F5E100 DUP4 LT PUSH2 0x3D97 JUMPI PUSH4 0x5F5E100 DUP4 DIV SWAP3 POP PUSH1 0x8 ADD JUMPDEST PUSH2 0x2710 DUP4 LT PUSH2 0x3DAB JUMPI PUSH2 0x2710 DUP4 DIV SWAP3 POP PUSH1 0x4 ADD JUMPDEST PUSH1 0x64 DUP4 LT PUSH2 0x3DBD JUMPI PUSH1 0x64 DUP4 DIV SWAP3 POP PUSH1 0x2 ADD JUMPDEST PUSH1 0xA DUP4 LT PUSH2 0xC45 JUMPI PUSH1 0x1 ADD SWAP3 SWAP2 POP POP JUMP JUMPDEST PUSH1 0x0 PUSH9 0x248CE36A70CB26B3E NOT DUP3 SGT PUSH2 0x3DE9 JUMPI POP PUSH1 0x0 SWAP2 SWAP1 POP JUMP JUMPDEST PUSH9 0x755BF798B4A1BF1E5 DUP3 SLT PUSH2 0x3E30 JUMPI PUSH1 0x40 MLOAD PUSH3 0x461BCD PUSH1 0xE5 SHL DUP2 MSTORE PUSH1 0x20 PUSH1 0x4 DUP3 ADD MSTORE PUSH1 0xC PUSH1 0x24 DUP3 ADD MSTORE PUSH12 0x4558505F4F564552464C4F57 PUSH1 0xA0 SHL PUSH1 0x44 DUP3 ADD MSTORE PUSH1 0x64 ADD PUSH2 0xD6B JUMP JUMPDEST PUSH6 0x3782DACE9D9 PUSH1 0x4E DUP4 SWAP1 SHL SDIV SWAP2 POP PUSH1 0x0 PUSH1 0x60 PUSH12 0xB17217F7D1CF79ABC9E3B398 DUP5 DUP3 SHL SDIV PUSH1 0x1 PUSH1 0x5F SHL ADD SWAP1 SAR PUSH12 0xB17217F7D1CF79ABC9E3B398 DUP2 MUL SWAP1 SWAP4 SUB PUSH13 0x240C330E9FB2D9CBAF0FD5AAFB NOT DUP2 ADD DUP2 MUL PUSH1 0x60 SWAP1 DUP2 SAR PUSH14 0x277594991CFC85F6E2461837CD9 ADD DUP3 MUL DUP2 SAR PUSH14 0x1A521255E34F6A5061B25EF1C9C3 NOT ADD DUP3 MUL DUP2 SAR PUSH14 0xB1BBB201F443CF962F1A1D3DB4A5 ADD DUP3 MUL DUP2 SAR PUSH15 0x2C72388D9F74F51A9331FED693F14 NOT ADD DUP3 MUL DUP2 SAR PUSH15 0x5180BB14799AB47A8A8CB2A527D57 ADD PUSH14 0x2D16720577BD19BF614176FE9EA PUSH13 0x10FE68E7FD37D0007B713F7650 DUP5 ADD DUP5 MUL DUP4 SAR SWAP1 DUP2 ADD SWAP1 DUP5 ADD PUSH14 0x1D3967ED30FC4F89C02BAB57081 NOT ADD MUL SWAP1 SWAP2 SAR PUSH15 0x587F503BB6EA29D25FCB740196450 ADD SWAP1 SWAP2 MUL PUSH14 0x360D7AEEA093263ECC6E0ECB2917 PUSH1 0x62 SHL ADD SDIV PUSH21 0x29D9DC38563C32E5C2F6DC192EE70EF65F9978AF3 MUL PUSH1 0xC3 SWAP4 SWAP1 SWAP4 SUB SWAP3 SWAP1 SWAP3 SHR SWAP3 SWAP2 POP POP JUMP JUMPDEST DUP2 DUP2 MUL DUP3 ISZERO DUP4 DUP3 SDIV DUP4 EQ OR PUSH1 0x0 NOT DUP5 LT PUSH1 0x1 PUSH1 0xFF SHL DUP5 SGT OR AND PUSH2 0x3F99 JUMPI PUSH1 0x0 DUP1 REVERT JUMPDEST PUSH8 0xDE0B6B3A7640000 SWAP1 SDIV SWAP3 SWAP2 POP POP JUMP JUMPDEST PUSH2 0x3FB3 DUP3 PUSH2 0x40E7 JUMP JUMPDEST PUSH1 0x40 MLOAD PUSH1 0x1 PUSH1 0x1 PUSH1 0xA0 SHL SUB DUP4 AND SWAP1 PUSH32 0xBC7CD75A20EE27FD9ADEBAB32041F755214DBC6BFFA90CC0225B39DA2E5C2D3B SWAP1 PUSH1 0x0 SWAP1 LOG2 DUP1 MLOAD ISZERO PUSH2 0x3FF8 JUMPI PUSH2 0x10F4 DUP3 DUP3 PUSH2 0x414C JUMP JUMPDEST PUSH2 0xD0F PUSH2 0x41B9 JUMP JUMPDEST PUSH32 0xF0C57E16840DF040F15088DC2F81FE391C3923BEC73E23A9662EFC9C229C6A00 SLOAD PUSH1 0x1 PUSH1 0x40 SHL SWAP1 DIV PUSH1 0xFF AND PUSH2 0x1B08 JUMPI PUSH1 0x40 MLOAD PUSH4 0x1AFCD79F PUSH1 0xE3 SHL DUP2 MSTORE PUSH1 0x4 ADD PUSH1 0x40 MLOAD DUP1 SWAP2 SUB SWAP1 REVERT JUMPDEST PUSH2 0x4051 PUSH2 0x4000 JUMP JUMPDEST PUSH1 0x0 DUP1 MLOAD PUSH1 0x20 PUSH2 0x5169 DUP4 CODECOPY DUP2 MLOAD SWAP2 MSTORE DUP1 PUSH2 0x406B DUP5 DUP3 PUSH2 0x4E48 JUMP JUMPDEST POP PUSH1 0x1 DUP2 ADD PUSH2 0xF94 DUP4 DUP3 PUSH2 0x4E48 JUMP JUMPDEST PUSH2 0x2B45 PUSH2 0x4000 JUMP JUMPDEST PUSH1 0x0 PUSH1 0x1 PUSH1 0x1 PUSH1 0xA0 SHL SUB DUP4 AND ISZERO DUP1 ISZERO SWAP1 PUSH2 0x1C66 JUMPI POP DUP3 PUSH1 0x1 PUSH1 0x1 PUSH1 0xA0 SHL SUB AND DUP5 PUSH1 0x1 PUSH1 0x1 PUSH1 0xA0 SHL SUB AND EQ DUP1 PUSH2 0x40BC JUMPI POP PUSH2 0x40BC DUP5 DUP5 PUSH2 0x284E JUMP JUMPDEST DUP1 PUSH2 0x1C66 JUMPI POP DUP3 PUSH1 0x1 PUSH1 0x1 PUSH1 0xA0 SHL SUB AND PUSH2 0x40D5 DUP4 PUSH2 0x2C84 JUMP JUMPDEST PUSH1 0x1 PUSH1 0x1 PUSH1 0xA0 SHL SUB AND EQ SWAP5 SWAP4 POP POP POP POP JUMP JUMPDEST DUP1 PUSH1 0x1 PUSH1 0x1 PUSH1 0xA0 SHL SUB AND EXTCODESIZE PUSH1 0x0 SUB PUSH2 0x411D JUMPI PUSH1 0x40 MLOAD PUSH4 0x4C9C8CE3 PUSH1 0xE0 SHL DUP2 MSTORE PUSH1 0x1 PUSH1 0x1 PUSH1 0xA0 SHL SUB DUP3 AND PUSH1 0x4 DUP3 ADD MSTORE PUSH1 0x24 ADD PUSH2 0xD6B JUMP JUMPDEST PUSH1 0x0 DUP1 MLOAD PUSH1 0x20 PUSH2 0x5189 DUP4 CODECOPY DUP2 MLOAD SWAP2 MSTORE DUP1 SLOAD PUSH1 0x1 PUSH1 0x1 PUSH1 0xA0 SHL SUB NOT AND PUSH1 0x1 PUSH1 0x1 PUSH1 0xA0 SHL SUB SWAP3 SWAP1 SWAP3 AND SWAP2 SWAP1 SWAP2 OR SWAP1 SSTORE JUMP JUMPDEST PUSH1 0x60 PUSH1 0x0 DUP1 DUP5 PUSH1 0x1 PUSH1 0x1 PUSH1 0xA0 SHL SUB AND DUP5 PUSH1 0x40 MLOAD PUSH2 0x4169 SWAP2 SWAP1 PUSH2 0x5122 JUMP JUMPDEST PUSH1 0x0 PUSH1 0x40 MLOAD DUP1 DUP4 SUB DUP2 DUP6 GAS DELEGATECALL SWAP2 POP POP RETURNDATASIZE DUP1 PUSH1 0x0 DUP2 EQ PUSH2 0x41A4 JUMPI PUSH1 0x40 MLOAD SWAP2 POP PUSH1 0x1F NOT PUSH1 0x3F RETURNDATASIZE ADD AND DUP3 ADD PUSH1 0x40 MSTORE RETURNDATASIZE DUP3 MSTORE RETURNDATASIZE PUSH1 0x0 PUSH1 0x20 DUP5 ADD RETURNDATACOPY PUSH2 0x41A9 JUMP JUMPDEST PUSH1 0x60 SWAP2 POP JUMPDEST POP SWAP2 POP SWAP2 POP PUSH2 0x31F2 DUP6 DUP4 DUP4 PUSH2 0x41D8 JUMP JUMPDEST CALLVALUE ISZERO PUSH2 0x1B08 JUMPI PUSH1 0x40 MLOAD PUSH4 0xB398979F PUSH1 0xE0 SHL DUP2 MSTORE PUSH1 0x4 ADD PUSH1 0x40 MLOAD DUP1 SWAP2 SUB SWAP1 REVERT JUMPDEST PUSH1 0x60 DUP3 PUSH2 0x41ED JUMPI PUSH2 0x41E8 DUP3 PUSH2 0x4234 JUMP JUMPDEST PUSH2 0x1A69 JUMP JUMPDEST DUP2 MLOAD ISZERO DUP1 ISZERO PUSH2 0x4204 JUMPI POP PUSH1 0x1 PUSH1 0x1 PUSH1 0xA0 SHL SUB DUP5 AND EXTCODESIZE ISZERO JUMPDEST ISZERO PUSH2 0x422D JUMPI PUSH1 0x40 MLOAD PUSH4 0x9996B315 PUSH1 0xE0 SHL DUP2 MSTORE PUSH1 0x1 PUSH1 0x1 PUSH1 0xA0 SHL SUB DUP6 AND PUSH1 0x4 DUP3 ADD MSTORE PUSH1 0x24 ADD PUSH2 0xD6B JUMP JUMPDEST POP DUP1 PUSH2 0x1A69 JUMP JUMPDEST DUP1 MLOAD ISZERO PUSH2 0x4244 JUMPI DUP1 MLOAD DUP1 DUP3 PUSH1 0x20 ADD REVERT JUMPDEST PUSH1 0x40 MLOAD PUSH4 0xA12F521 PUSH1 0xE1 SHL DUP2 MSTORE PUSH1 0x4 ADD PUSH1 0x40 MLOAD DUP1 SWAP2 SUB SWAP1 REVERT JUMPDEST PUSH1 0x1 PUSH1 0x1 PUSH1 0xE0 SHL SUB NOT DUP2 AND DUP2 EQ PUSH2 0x2B78 JUMPI PUSH1 0x0 DUP1 REVERT JUMPDEST PUSH1 0x0 PUSH1 0x20 DUP3 DUP5 SUB SLT ISZERO PUSH2 0x4285 JUMPI PUSH1 0x0 DUP1 REVERT JUMPDEST DUP2 CALLDATALOAD PUSH2 0x1A69 DUP2 PUSH2 0x425D JUMP JUMPDEST PUSH1 0x0 JUMPDEST DUP4 DUP2 LT ISZERO PUSH2 0x42AB JUMPI DUP2 DUP2 ADD MLOAD DUP4 DUP3 ADD MSTORE PUSH1 0x20 ADD PUSH2 0x4293 JUMP JUMPDEST POP POP PUSH1 0x0 SWAP2 ADD MSTORE JUMP JUMPDEST PUSH1 0x0 DUP2 MLOAD DUP1 DUP5 MSTORE PUSH2 0x42CC DUP2 PUSH1 0x20 DUP7 ADD PUSH1 0x20 DUP7 ADD PUSH2 0x4290 JUMP JUMPDEST PUSH1 0x1F ADD PUSH1 0x1F NOT AND SWAP3 SWAP1 SWAP3 ADD PUSH1 0x20 ADD SWAP3 SWAP2 POP POP JUMP JUMPDEST PUSH1 0x20 DUP2 MSTORE PUSH1 0x0 PUSH2 0x1A69 PUSH1 0x20 DUP4 ADD DUP5 PUSH2 0x42B4 JUMP JUMPDEST PUSH1 0x0 PUSH1 0x20 DUP3 DUP5 SUB SLT ISZERO PUSH2 0x4305 JUMPI PUSH1 0x0 DUP1 REVERT JUMPDEST POP CALLDATALOAD SWAP2 SWAP1 POP JUMP JUMPDEST PUSH1 0x1 PUSH1 0x1 PUSH1 0xA0 SHL SUB DUP2 AND DUP2 EQ PUSH2 0x2B78 JUMPI PUSH1 0x0 DUP1 REVERT JUMPDEST PUSH1 0x0 DUP1 PUSH1 0x40 DUP4 DUP6 SUB SLT ISZERO PUSH2 0x4334 JUMPI PUSH1 0x0 DUP1 REVERT JUMPDEST DUP3 CALLDATALOAD PUSH2 0x433F DUP2 PUSH2 0x430C JUMP JUMPDEST SWAP5 PUSH1 0x20 SWAP4 SWAP1 SWAP4 ADD CALLDATALOAD SWAP4 POP POP POP JUMP JUMPDEST PUSH4 0x4E487B71 PUSH1 0xE0 SHL PUSH1 0x0 MSTORE PUSH1 0x41 PUSH1 0x4 MSTORE PUSH1 0x24 PUSH1 0x0 REVERT JUMPDEST PUSH1 0x40 MLOAD PUSH1 0x1F DUP3 ADD PUSH1 0x1F NOT AND DUP2 ADD PUSH1 0x1 PUSH1 0x1 PUSH1 0x40 SHL SUB DUP2 GT DUP3 DUP3 LT OR ISZERO PUSH2 0x438B JUMPI PUSH2 0x438B PUSH2 0x434D JUMP JUMPDEST PUSH1 0x40 MSTORE SWAP2 SWAP1 POP JUMP JUMPDEST PUSH1 0x0 PUSH1 0x1 PUSH1 0x1 PUSH1 0x40 SHL SUB DUP3 GT ISZERO PUSH2 0x43AC JUMPI PUSH2 0x43AC PUSH2 0x434D JUMP JUMPDEST POP PUSH1 0x5 SHL PUSH1 0x20 ADD SWAP1 JUMP JUMPDEST PUSH1 0x0 DUP3 PUSH1 0x1F DUP4 ADD SLT PUSH2 0x43C7 JUMPI PUSH1 0x0 DUP1 REVERT JUMPDEST DUP2 CALLDATALOAD PUSH1 0x20 PUSH2 0x43DC PUSH2 0x43D7 DUP4 PUSH2 0x4393 JUMP JUMPDEST PUSH2 0x4363 JUMP JUMPDEST DUP1 DUP4 DUP3 MSTORE PUSH1 0x20 DUP3 ADD SWAP2 POP PUSH1 0x20 DUP5 PUSH1 0x5 SHL DUP8 ADD ADD SWAP4 POP DUP7 DUP5 GT ISZERO PUSH2 0x43FE JUMPI PUSH1 0x0 DUP1 REVERT JUMPDEST PUSH1 0x20 DUP7 ADD JUMPDEST DUP5 DUP2 LT ISZERO PUSH2 0x311E JUMPI DUP1 CALLDATALOAD DUP4 MSTORE SWAP2 DUP4 ADD SWAP2 DUP4 ADD PUSH2 0x4403 JUMP JUMPDEST PUSH1 0x0 PUSH1 0x20 DUP3 DUP5 SUB SLT ISZERO PUSH2 0x442C JUMPI PUSH1 0x0 DUP1 REVERT JUMPDEST DUP2 CALLDATALOAD PUSH1 0x1 PUSH1 0x1 PUSH1 0x40 SHL SUB DUP2 GT ISZERO PUSH2 0x4442 JUMPI PUSH1 0x0 DUP1 REVERT JUMPDEST PUSH2 0x1C66 DUP5 DUP3 DUP6 ADD PUSH2 0x43B6 JUMP JUMPDEST PUSH1 0x0 DUP2 MLOAD DUP1 DUP5 MSTORE PUSH1 0x20 DUP1 DUP6 ADD SWAP5 POP PUSH1 0x20 DUP5 ADD PUSH1 0x0 JUMPDEST DUP4 DUP2 LT ISZERO PUSH2 0x447F JUMPI DUP2 MLOAD DUP8 MSTORE SWAP6 DUP3 ADD SWAP6 SWAP1 DUP3 ADD SWAP1 PUSH1 0x1 ADD PUSH2 0x4463 JUMP JUMPDEST POP SWAP5 SWAP6 SWAP5 POP POP POP POP POP JUMP JUMPDEST PUSH1 0x20 DUP2 MSTORE PUSH1 0x0 PUSH2 0x1A69 PUSH1 0x20 DUP4 ADD DUP5 PUSH2 0x444E JUMP JUMPDEST PUSH1 0x0 DUP1 PUSH1 0x0 PUSH1 0x60 DUP5 DUP7 SUB SLT ISZERO PUSH2 0x44B2 JUMPI PUSH1 0x0 DUP1 REVERT JUMPDEST DUP4 CALLDATALOAD PUSH2 0x44BD DUP2 PUSH2 0x430C JUMP JUMPDEST SWAP3 POP PUSH1 0x20 DUP5 ADD CALLDATALOAD PUSH2 0x44CD DUP2 PUSH2 0x430C JUMP JUMPDEST SWAP3 SWAP6 SWAP3 SWAP5 POP POP POP PUSH1 0x40 SWAP2 SWAP1 SWAP2 ADD CALLDATALOAD SWAP1 JUMP JUMPDEST PUSH1 0x0 DUP1 PUSH1 0x20 DUP4 DUP6 SUB SLT ISZERO PUSH2 0x44F1 JUMPI PUSH1 0x0 DUP1 REVERT JUMPDEST DUP3 CALLDATALOAD PUSH1 0x1 PUSH1 0x1 PUSH1 0x40 SHL SUB DUP1 DUP3 GT ISZERO PUSH2 0x4508 JUMPI PUSH1 0x0 DUP1 REVERT JUMPDEST DUP2 DUP6 ADD SWAP2 POP DUP6 PUSH1 0x1F DUP4 ADD SLT PUSH2 0x451C JUMPI PUSH1 0x0 DUP1 REVERT JUMPDEST DUP2 CALLDATALOAD DUP2 DUP2 GT ISZERO PUSH2 0x452B JUMPI PUSH1 0x0 DUP1 REVERT JUMPDEST DUP7 PUSH1 0x20 DUP3 DUP6 ADD ADD GT ISZERO PUSH2 0x453D JUMPI PUSH1 0x0 DUP1 REVERT JUMPDEST PUSH1 0x20 SWAP3 SWAP1 SWAP3 ADD SWAP7 SWAP2 SWAP6 POP SWAP1 SWAP4 POP POP POP POP JUMP JUMPDEST PUSH1 0x0 PUSH1 0x20 DUP1 DUP4 DUP6 SUB SLT ISZERO PUSH2 0x4562 JUMPI PUSH1 0x0 DUP1 REVERT JUMPDEST DUP3 CALLDATALOAD PUSH1 0x1 PUSH1 0x1 PUSH1 0x40 SHL SUB DUP1 DUP3 GT ISZERO PUSH2 0x4579 JUMPI PUSH1 0x0 DUP1 REVERT JUMPDEST DUP2 DUP6 ADD SWAP2 POP DUP6 PUSH1 0x1F DUP4 ADD SLT PUSH2 0x458D JUMPI PUSH1 0x0 DUP1 REVERT JUMPDEST DUP2 CALLDATALOAD PUSH2 0x459B PUSH2 0x43D7 DUP3 PUSH2 0x4393 JUMP JUMPDEST DUP2 DUP2 MSTORE PUSH1 0x5 SWAP2 SWAP1 SWAP2 SHL DUP4 ADD DUP5 ADD SWAP1 DUP5 DUP2 ADD SWAP1 DUP9 DUP4 GT ISZERO PUSH2 0x45BA JUMPI PUSH1 0x0 DUP1 REVERT JUMPDEST DUP6 DUP6 ADD JUMPDEST DUP4 DUP2 LT ISZERO PUSH2 0x45F2 JUMPI DUP1 CALLDATALOAD DUP6 DUP2 GT ISZERO PUSH2 0x45D6 JUMPI PUSH1 0x0 DUP1 DUP2 REVERT JUMPDEST PUSH2 0x45E4 DUP12 DUP10 DUP4 DUP11 ADD ADD PUSH2 0x43B6 JUMP JUMPDEST DUP5 MSTORE POP SWAP2 DUP7 ADD SWAP2 DUP7 ADD PUSH2 0x45BE JUMP JUMPDEST POP SWAP9 SWAP8 POP POP POP POP POP POP POP POP JUMP JUMPDEST PUSH1 0x0 DUP3 PUSH1 0x1F DUP4 ADD SLT PUSH2 0x4610 JUMPI PUSH1 0x0 DUP1 REVERT JUMPDEST DUP2 CALLDATALOAD PUSH1 0x1 PUSH1 0x1 PUSH1 0x40 SHL SUB DUP2 GT ISZERO PUSH2 0x4629 JUMPI PUSH2 0x4629 PUSH2 0x434D JUMP JUMPDEST PUSH2 0x463C PUSH1 0x1F DUP3 ADD PUSH1 0x1F NOT AND PUSH1 0x20 ADD PUSH2 0x4363 JUMP JUMPDEST DUP2 DUP2 MSTORE DUP5 PUSH1 0x20 DUP4 DUP7 ADD ADD GT ISZERO PUSH2 0x4651 JUMPI PUSH1 0x0 DUP1 REVERT JUMPDEST DUP2 PUSH1 0x20 DUP6 ADD PUSH1 0x20 DUP4 ADD CALLDATACOPY PUSH1 0x0 SWAP2 DUP2 ADD PUSH1 0x20 ADD SWAP2 SWAP1 SWAP2 MSTORE SWAP4 SWAP3 POP POP POP JUMP JUMPDEST PUSH1 0x0 DUP1 PUSH1 0x40 DUP4 DUP6 SUB SLT ISZERO PUSH2 0x4681 JUMPI PUSH1 0x0 DUP1 REVERT JUMPDEST DUP3 CALLDATALOAD PUSH2 0x468C DUP2 PUSH2 0x430C JUMP JUMPDEST SWAP2 POP PUSH1 0x20 DUP4 ADD CALLDATALOAD PUSH1 0x1 PUSH1 0x1 PUSH1 0x40 SHL SUB DUP2 GT ISZERO PUSH2 0x46A7 JUMPI PUSH1 0x0 DUP1 REVERT JUMPDEST PUSH2 0x46B3 DUP6 DUP3 DUP7 ADD PUSH2 0x45FF JUMP JUMPDEST SWAP2 POP POP SWAP3 POP SWAP3 SWAP1 POP JUMP JUMPDEST PUSH1 0xC0 DUP2 MSTORE PUSH1 0x0 PUSH2 0x46D0 PUSH1 0xC0 DUP4 ADD DUP10 PUSH2 0x42B4 JUMP JUMPDEST PUSH1 0x20 DUP4 ADD SWAP8 SWAP1 SWAP8 MSTORE POP PUSH1 0x40 DUP2 ADD SWAP5 SWAP1 SWAP5 MSTORE PUSH1 0x1 PUSH1 0x1 PUSH1 0x40 SHL SUB SWAP3 DUP4 AND PUSH1 0x60 DUP6 ADD MSTORE SWAP2 AND PUSH1 0x80 DUP4 ADD MSTORE PUSH1 0xA0 SWAP1 SWAP2 ADD MSTORE SWAP2 SWAP1 POP JUMP JUMPDEST PUSH1 0x0 DUP1 PUSH1 0x0 DUP1 PUSH1 0x0 DUP1 PUSH1 0x0 PUSH1 0xE0 DUP9 DUP11 SUB SLT ISZERO PUSH2 0x471E JUMPI PUSH1 0x0 DUP1 REVERT JUMPDEST DUP8 CALLDATALOAD PUSH2 0x4729 DUP2 PUSH2 0x430C JUMP JUMPDEST SWAP7 POP PUSH1 0x20 DUP9 ADD CALLDATALOAD PUSH2 0x4739 DUP2 PUSH2 0x430C JUMP JUMPDEST SWAP6 POP PUSH1 0x40 DUP9 ADD CALLDATALOAD PUSH2 0x4749 DUP2 PUSH2 0x430C JUMP JUMPDEST SWAP5 POP PUSH1 0x60 DUP9 ADD CALLDATALOAD PUSH2 0x4759 DUP2 PUSH2 0x430C JUMP JUMPDEST SWAP4 POP PUSH1 0x80 DUP9 ADD CALLDATALOAD PUSH2 0x4769 DUP2 PUSH2 0x430C JUMP JUMPDEST SWAP3 POP PUSH1 0xA0 DUP9 ADD CALLDATALOAD PUSH1 0x1 PUSH1 0x1 PUSH1 0x40 SHL SUB DUP1 DUP3 GT ISZERO PUSH2 0x4785 JUMPI PUSH1 0x0 DUP1 REVERT JUMPDEST PUSH2 0x4791 DUP12 DUP4 DUP13 ADD PUSH2 0x45FF JUMP JUMPDEST SWAP4 POP PUSH1 0xC0 DUP11 ADD CALLDATALOAD SWAP2 POP DUP1 DUP3 GT ISZERO PUSH2 0x47A7 JUMPI PUSH1 0x0 DUP1 REVERT JUMPDEST POP PUSH2 0x47B4 DUP11 DUP3 DUP12 ADD PUSH2 0x45FF JUMP JUMPDEST SWAP2 POP POP SWAP3 SWAP6 SWAP9 SWAP2 SWAP5 SWAP8 POP SWAP3 SWAP6 POP JUMP JUMPDEST PUSH1 0x0 PUSH1 0x20 DUP3 DUP5 SUB SLT ISZERO PUSH2 0x47D5 JUMPI PUSH1 0x0 DUP1 REVERT JUMPDEST DUP2 CALLDATALOAD PUSH2 0x1A69 DUP2 PUSH2 0x430C JUMP JUMPDEST PUSH1 0x0 DUP1 PUSH1 0x40 DUP4 DUP6 SUB SLT ISZERO PUSH2 0x47F3 JUMPI PUSH1 0x0 DUP1 REVERT JUMPDEST POP POP DUP1 CALLDATALOAD SWAP3 PUSH1 0x20 SWAP1 SWAP2 ADD CALLDATALOAD SWAP2 POP JUMP JUMPDEST PUSH1 0x0 PUSH2 0x120 DUP1 DUP4 DUP6 SUB SLT ISZERO PUSH2 0x4816 JUMPI PUSH1 0x0 DUP1 REVERT JUMPDEST DUP4 DUP2 DUP5 ADD GT ISZERO PUSH2 0x4825 JUMPI PUSH1 0x0 DUP1 REVERT JUMPDEST POP SWAP1 SWAP3 SWAP2 POP POP JUMP JUMPDEST DUP1 CALLDATALOAD DUP1 ISZERO ISZERO DUP2 EQ PUSH2 0x483D JUMPI PUSH1 0x0 DUP1 REVERT JUMPDEST SWAP2 SWAP1 POP JUMP JUMPDEST PUSH1 0x0 DUP1 PUSH1 0x40 DUP4 DUP6 SUB SLT ISZERO PUSH2 0x4855 JUMPI PUSH1 0x0 DUP1 REVERT JUMPDEST DUP3 CALLDATALOAD PUSH2 0x4860 DUP2 PUSH2 0x430C JUMP JUMPDEST SWAP2 POP PUSH2 0x486E PUSH1 0x20 DUP5 ADD PUSH2 0x482D JUMP JUMPDEST SWAP1 POP SWAP3 POP SWAP3 SWAP1 POP JUMP JUMPDEST DUP1 CALLDATALOAD PUSH1 0xFF DUP2 AND DUP2 EQ PUSH2 0x483D JUMPI PUSH1 0x0 DUP1 REVERT JUMPDEST PUSH1 0x0 PUSH2 0x120 DUP1 DUP4 DUP6 SUB SLT ISZERO PUSH2 0x489C JUMPI PUSH1 0x0 DUP1 REVERT JUMPDEST DUP4 PUSH1 0x1F DUP5 ADD SLT PUSH2 0x48AB JUMPI PUSH1 0x0 DUP1 REVERT JUMPDEST PUSH1 0x40 MLOAD DUP2 DUP2 ADD DUP2 DUP2 LT PUSH1 0x1 PUSH1 0x1 PUSH1 0x40 SHL SUB DUP3 GT OR ISZERO PUSH2 0x48CC JUMPI PUSH2 0x48CC PUSH2 0x434D JUMP JUMPDEST PUSH1 0x40 MSTORE SWAP1 DUP4 ADD SWAP1 DUP1 DUP6 DUP4 GT ISZERO PUSH2 0x48E1 JUMPI PUSH1 0x0 DUP1 REVERT JUMPDEST DUP5 JUMPDEST DUP4 DUP2 LT ISZERO PUSH2 0x4902 JUMPI PUSH2 0x48F4 DUP2 PUSH2 0x4877 JUMP JUMPDEST DUP3 MSTORE PUSH1 0x20 SWAP2 DUP3 ADD SWAP2 ADD PUSH2 0x48E3 JUMP JUMPDEST POP SWAP1 SWAP6 SWAP5 POP POP POP POP POP JUMP JUMPDEST PUSH1 0x0 PUSH1 0x20 DUP3 DUP5 SUB SLT ISZERO PUSH2 0x491F JUMPI PUSH1 0x0 DUP1 REVERT JUMPDEST PUSH2 0x1A69 DUP3 PUSH2 0x482D JUMP JUMPDEST PUSH1 0x0 DUP1 PUSH1 0x0 DUP1 PUSH1 0x80 DUP6 DUP8 SUB SLT ISZERO PUSH2 0x493E JUMPI PUSH1 0x0 DUP1 REVERT JUMPDEST DUP5 CALLDATALOAD PUSH2 0x4949 DUP2 PUSH2 0x430C JUMP JUMPDEST SWAP4 POP PUSH1 0x20 DUP6 ADD CALLDATALOAD PUSH2 0x4959 DUP2 PUSH2 0x430C JUMP JUMPDEST SWAP3 POP PUSH1 0x40 DUP6 ADD CALLDATALOAD SWAP2 POP PUSH1 0x60 DUP6 ADD CALLDATALOAD PUSH1 0x1 PUSH1 0x1 PUSH1 0x40 SHL SUB DUP2 GT ISZERO PUSH2 0x497B JUMPI PUSH1 0x0 DUP1 REVERT JUMPDEST PUSH2 0x4987 DUP8 DUP3 DUP9 ADD PUSH2 0x45FF JUMP JUMPDEST SWAP2 POP POP SWAP3 SWAP6 SWAP2 SWAP5 POP SWAP3 POP JUMP JUMPDEST PUSH1 0x0 DUP1 PUSH1 0x0 DUP1 PUSH1 0x0 DUP1 PUSH1 0xC0 DUP8 DUP10 SUB SLT ISZERO PUSH2 0x49AC JUMPI PUSH1 0x0 DUP1 REVERT JUMPDEST POP POP DUP5 CALLDATALOAD SWAP7 PUSH1 0x20 DUP7 ADD CALLDATALOAD SWAP7 POP PUSH1 0x40 DUP7 ADD CALLDATALOAD SWAP6 PUSH1 0x60 DUP2 ADD CALLDATALOAD SWAP6 POP PUSH1 0x80 DUP2 ADD CALLDATALOAD SWAP5 POP PUSH1 0xA0 ADD CALLDATALOAD SWAP3 POP SWAP1 POP JUMP JUMPDEST PUSH1 0x0 DUP1 PUSH1 0x0 DUP1 PUSH1 0x0 DUP1 PUSH1 0x0 DUP1 PUSH1 0x0 PUSH2 0x120 DUP11 DUP13 SUB SLT ISZERO PUSH2 0x49F5 JUMPI PUSH1 0x0 DUP1 REVERT JUMPDEST DUP10 CALLDATALOAD SWAP9 POP PUSH1 0x20 DUP11 ADD CALLDATALOAD SWAP8 POP PUSH1 0x40 DUP11 ADD CALLDATALOAD SWAP7 POP PUSH1 0x60 DUP11 ADD CALLDATALOAD SWAP6 POP PUSH1 0x80 DUP11 ADD CALLDATALOAD SWAP5 POP PUSH1 0xA0 DUP11 ADD CALLDATALOAD SWAP4 POP PUSH1 0xC0 DUP11 ADD CALLDATALOAD SWAP3 POP PUSH1 0xE0 DUP11 ADD CALLDATALOAD SWAP2 POP PUSH2 0x100 DUP11 ADD CALLDATALOAD PUSH2 0x4A39 DUP2 PUSH2 0x430C JUMP JUMPDEST DUP1 SWAP2 POP POP SWAP3 SWAP6 SWAP9 POP SWAP3 SWAP6 SWAP9 POP SWAP3 SWAP6 SWAP9 JUMP JUMPDEST PUSH1 0x0 DUP1 PUSH1 0x40 DUP4 DUP6 SUB SLT ISZERO PUSH2 0x4A5D JUMPI PUSH1 0x0 DUP1 REVERT JUMPDEST DUP3 CALLDATALOAD PUSH2 0x4A68 DUP2 PUSH2 0x430C JUMP JUMPDEST SWAP2 POP PUSH1 0x20 DUP4 ADD CALLDATALOAD PUSH2 0x4A78 DUP2 PUSH2 0x430C JUMP JUMPDEST DUP1 SWAP2 POP POP SWAP3 POP SWAP3 SWAP1 POP JUMP JUMPDEST PUSH1 0x1 DUP2 DUP2 SHR SWAP1 DUP3 AND DUP1 PUSH2 0x4A97 JUMPI PUSH1 0x7F DUP3 AND SWAP2 POP JUMPDEST PUSH1 0x20 DUP3 LT DUP2 SUB PUSH2 0x4AB7 JUMPI PUSH4 0x4E487B71 PUSH1 0xE0 SHL PUSH1 0x0 MSTORE PUSH1 0x22 PUSH1 0x4 MSTORE PUSH1 0x24 PUSH1 0x0 REVERT JUMPDEST POP SWAP2 SWAP1 POP JUMP JUMPDEST PUSH4 0x4E487B71 PUSH1 0xE0 SHL PUSH1 0x0 MSTORE PUSH1 0x32 PUSH1 0x4 MSTORE PUSH1 0x24 PUSH1 0x0 REVERT JUMPDEST PUSH4 0x4E487B71 PUSH1 0xE0 SHL PUSH1 0x0 MSTORE PUSH1 0x11 PUSH1 0x4 MSTORE PUSH1 0x24 PUSH1 0x0 REVERT JUMPDEST DUP2 DUP2 SUB DUP2 DUP2 GT ISZERO PUSH2 0xC45 JUMPI PUSH2 0xC45 PUSH2 0x4AD3 JUMP JUMPDEST PUSH1 0x0 PUSH1 0x1 DUP3 ADD PUSH2 0x4B0E JUMPI PUSH2 0x4B0E PUSH2 0x4AD3 JUMP JUMPDEST POP PUSH1 0x1 ADD SWAP1 JUMP JUMPDEST PUSH1 0x20 DUP1 DUP3 MSTORE PUSH1 0xF SWAP1 DUP3 ADD MSTORE PUSH15 0x1DDA5D1A191C985DC81C185D5CD959 PUSH1 0x8A SHL PUSH1 0x40 DUP3 ADD MSTORE PUSH1 0x60 ADD SWAP1 JUMP JUMPDEST DUP1 DUP3 ADD DUP1 DUP3 GT ISZERO PUSH2 0xC45 JUMPI PUSH2 0xC45 PUSH2 0x4AD3 JUMP JUMPDEST PUSH1 0x1F DUP3 GT ISZERO PUSH2 0x10F4 JUMPI PUSH1 0x0 DUP2 PUSH1 0x0 MSTORE PUSH1 0x20 PUSH1 0x0 KECCAK256 PUSH1 0x1F DUP6 ADD PUSH1 0x5 SHR DUP2 ADD PUSH1 0x20 DUP7 LT ISZERO PUSH2 0x4B7A JUMPI POP DUP1 JUMPDEST PUSH1 0x1F DUP6 ADD PUSH1 0x5 SHR DUP3 ADD SWAP2 POP JUMPDEST DUP2 DUP2 LT ISZERO PUSH2 0x1795 JUMPI DUP3 DUP2 SSTORE PUSH1 0x1 ADD PUSH2 0x4B86 JUMP JUMPDEST PUSH1 0x1 PUSH1 0x1 PUSH1 0x40 SHL SUB DUP4 GT ISZERO PUSH2 0x4BB0 JUMPI PUSH2 0x4BB0 PUSH2 0x434D JUMP JUMPDEST PUSH2 0x4BC4 DUP4 PUSH2 0x4BBE DUP4 SLOAD PUSH2 0x4A83 JUMP JUMPDEST DUP4 PUSH2 0x4B51 JUMP JUMPDEST PUSH1 0x0 PUSH1 0x1F DUP5 GT PUSH1 0x1 DUP2 EQ PUSH2 0x4BF8 JUMPI PUSH1 0x0 DUP6 ISZERO PUSH2 0x4BE0 JUMPI POP DUP4 DUP3 ADD CALLDATALOAD JUMPDEST PUSH1 0x0 NOT PUSH1 0x3 DUP8 SWAP1 SHL SHR NOT AND PUSH1 0x1 DUP7 SWAP1 SHL OR DUP4 SSTORE PUSH2 0x25AC JUMP JUMPDEST PUSH1 0x0 DUP4 DUP2 MSTORE PUSH1 0x20 SWAP1 KECCAK256 PUSH1 0x1F NOT DUP7 AND SWAP1 DUP4 JUMPDEST DUP3 DUP2 LT ISZERO PUSH2 0x4C29 JUMPI DUP7 DUP6 ADD CALLDATALOAD DUP3 SSTORE PUSH1 0x20 SWAP5 DUP6 ADD SWAP5 PUSH1 0x1 SWAP1 SWAP3 ADD SWAP2 ADD PUSH2 0x4C09 JUMP JUMPDEST POP DUP7 DUP3 LT ISZERO PUSH2 0x4C46 JUMPI PUSH1 0x0 NOT PUSH1 0xF8 DUP9 PUSH1 0x3 SHL AND SHR NOT DUP5 DUP8 ADD CALLDATALOAD AND DUP2 SSTORE JUMPDEST POP POP PUSH1 0x1 DUP6 PUSH1 0x1 SHL ADD DUP4 SSTORE POP POP POP POP POP JUMP JUMPDEST PUSH4 0x3C101E9 PUSH1 0xE5 SHL DUP2 MSTORE PUSH1 0x0 DUP5 MLOAD PUSH2 0x4C77 DUP2 PUSH1 0x4 DUP6 ADD PUSH1 0x20 DUP10 ADD PUSH2 0x4290 JUMP JUMPDEST PUSH6 0x16103C901E9 PUSH1 0xD5 SHL PUSH1 0x4 SWAP2 DUP5 ADD SWAP2 DUP3 ADD MSTORE DUP5 MLOAD PUSH2 0x4C9D DUP2 PUSH1 0xA DUP5 ADD PUSH1 0x20 DUP10 ADD PUSH2 0x4290 JUMP JUMPDEST PUSH1 0x5 PUSH1 0xF9 SHL PUSH1 0xA SWAP3 SWAP1 SWAP2 ADD SWAP2 DUP3 ADD MSTORE DUP4 MLOAD PUSH2 0x4CBF DUP2 PUSH1 0xB DUP5 ADD PUSH1 0x20 DUP9 ADD PUSH2 0x4290 JUMP JUMPDEST ADD PUSH1 0xB ADD SWAP6 SWAP5 POP POP POP POP POP JUMP JUMPDEST PUSH4 0x4E487B71 PUSH1 0xE0 SHL PUSH1 0x0 MSTORE PUSH1 0x12 PUSH1 0x4 MSTORE PUSH1 0x24 PUSH1 0x0 REVERT JUMPDEST PUSH1 0x0 DUP3 PUSH2 0x4CF1 JUMPI PUSH2 0x4CF1 PUSH2 0x4CCC JUMP JUMPDEST POP MOD SWAP1 JUMP JUMPDEST PUSH1 0x1 PUSH1 0x1 PUSH1 0x40 SHL SUB DUP2 DUP2 AND DUP4 DUP3 AND ADD SWAP1 DUP1 DUP3 GT ISZERO PUSH2 0x4D16 JUMPI PUSH2 0x4D16 PUSH2 0x4AD3 JUMP JUMPDEST POP SWAP3 SWAP2 POP POP JUMP JUMPDEST DUP1 DUP3 MUL DUP2 ISZERO DUP3 DUP3 DIV DUP5 EQ OR PUSH2 0xC45 JUMPI PUSH2 0xC45 PUSH2 0x4AD3 JUMP JUMPDEST PUSH1 0x0 DUP3 PUSH2 0x4D43 JUMPI PUSH2 0x4D43 PUSH2 0x4CCC JUMP JUMPDEST POP DIV SWAP1 JUMP JUMPDEST PUSH1 0x0 DUP2 MLOAD DUP1 DUP5 MSTORE PUSH1 0x20 DUP1 DUP6 ADD SWAP5 POP PUSH1 0x20 DUP5 ADD PUSH1 0x0 JUMPDEST DUP4 DUP2 LT ISZERO PUSH2 0x447F JUMPI DUP2 MLOAD PUSH4 0xFFFFFFFF AND DUP8 MSTORE SWAP6 DUP3 ADD SWAP6 SWAP1 DUP3 ADD SWAP1 PUSH1 0x1 ADD PUSH2 0x4D5D JUMP JUMPDEST PUSH1 0x0 PUSH1 0xA0 DUP3 ADD PUSH1 0x1 DUP1 PUSH1 0xA0 SHL SUB DUP9 AND DUP4 MSTORE PUSH1 0x20 DUP8 DUP2 DUP6 ADD MSTORE PUSH1 0xA0 PUSH1 0x40 DUP6 ADD MSTORE DUP2 DUP8 MLOAD DUP1 DUP5 MSTORE PUSH1 0xC0 DUP7 ADD SWAP2 POP PUSH1 0xC0 DUP2 PUSH1 0x5 SHL DUP8 ADD ADD SWAP4 POP DUP3 DUP10 ADD PUSH1 0x0 DUP1 JUMPDEST DUP4 DUP2 LT ISZERO PUSH2 0x4E10 JUMPI DUP9 DUP8 SUB PUSH1 0xBF NOT ADD DUP6 MSTORE DUP3 MLOAD DUP1 MLOAD DUP1 DUP10 MSTORE SWAP1 DUP8 ADD SWAP1 DUP8 DUP10 ADD SWAP1 DUP5 JUMPDEST DUP2 DUP2 LT ISZERO PUSH2 0x4DFA JUMPI DUP4 MLOAD DUP4 MSTORE SWAP3 DUP10 ADD SWAP3 SWAP2 DUP10 ADD SWAP2 PUSH1 0x1 ADD PUSH2 0x4DDE JUMP JUMPDEST POP SWAP1 SWAP9 POP POP POP SWAP4 DUP6 ADD SWAP4 SWAP2 DUP6 ADD SWAP2 PUSH1 0x1 ADD PUSH2 0x4DBC JUMP JUMPDEST POP POP POP POP POP POP DUP3 DUP2 SUB PUSH1 0x60 DUP5 ADD MSTORE PUSH2 0x4E28 DUP2 DUP7 PUSH2 0x444E JUMP JUMPDEST SWAP1 POP DUP3 DUP2 SUB PUSH1 0x80 DUP5 ADD MSTORE PUSH2 0x4E3C DUP2 DUP6 PUSH2 0x4D48 JUMP JUMPDEST SWAP9 SWAP8 POP POP POP POP POP POP POP POP JUMP JUMPDEST DUP2 MLOAD PUSH1 0x1 PUSH1 0x1 PUSH1 0x40 SHL SUB DUP2 GT ISZERO PUSH2 0x4E61 JUMPI PUSH2 0x4E61 PUSH2 0x434D JUMP JUMPDEST PUSH2 0x4E75 DUP2 PUSH2 0x4E6F DUP5 SLOAD PUSH2 0x4A83 JUMP JUMPDEST DUP5 PUSH2 0x4B51 JUMP JUMPDEST PUSH1 0x20 DUP1 PUSH1 0x1F DUP4 GT PUSH1 0x1 DUP2 EQ PUSH2 0x4EAA JUMPI PUSH1 0x0 DUP5 ISZERO PUSH2 0x4E92 JUMPI POP DUP6 DUP4 ADD MLOAD JUMPDEST PUSH1 0x0 NOT PUSH1 0x3 DUP7 SWAP1 SHL SHR NOT AND PUSH1 0x1 DUP6 SWAP1 SHL OR DUP6 SSTORE PUSH2 0x1795 JUMP JUMPDEST PUSH1 0x0 DUP6 DUP2 MSTORE PUSH1 0x20 DUP2 KECCAK256 PUSH1 0x1F NOT DUP7 AND SWAP2 JUMPDEST DUP3 DUP2 LT ISZERO PUSH2 0x4ED9 JUMPI DUP9 DUP7 ADD MLOAD DUP3 SSTORE SWAP5 DUP5 ADD SWAP5 PUSH1 0x1 SWAP1 SWAP2 ADD SWAP1 DUP5 ADD PUSH2 0x4EBA JUMP JUMPDEST POP DUP6 DUP3 LT ISZERO PUSH2 0x4EF7 JUMPI DUP8 DUP6 ADD MLOAD PUSH1 0x0 NOT PUSH1 0x3 DUP9 SWAP1 SHL PUSH1 0xF8 AND SHR NOT AND DUP2 SSTORE JUMPDEST POP POP POP POP POP PUSH1 0x1 SWAP1 DUP2 SHL ADD SWAP1 SSTORE POP JUMP JUMPDEST PUSH1 0x0 PUSH1 0x20 DUP3 DUP5 SUB SLT ISZERO PUSH2 0x4F19 JUMPI PUSH1 0x0 DUP1 REVERT JUMPDEST PUSH2 0x1A69 DUP3 PUSH2 0x4877 JUMP JUMPDEST PUSH1 0xFF DUP2 DUP2 AND DUP4 DUP3 AND ADD SWAP1 DUP2 GT ISZERO PUSH2 0xC45 JUMPI PUSH2 0xC45 PUSH2 0x4AD3 JUMP JUMPDEST PUSH1 0x0 PUSH1 0xFF DUP3 AND PUSH1 0xFF DUP2 SUB PUSH2 0x4F51 JUMPI PUSH2 0x4F51 PUSH2 0x4AD3 JUMP JUMPDEST PUSH1 0x1 ADD SWAP3 SWAP2 POP POP JUMP JUMPDEST PUSH1 0x0 DUP3 MLOAD PUSH2 0x4F6C DUP2 DUP5 PUSH1 0x20 DUP8 ADD PUSH2 0x4290 JUMP JUMPDEST PUSH1 0x31 PUSH1 0xF8 SHL SWAP3 ADD SWAP2 DUP3 MSTORE POP PUSH1 0x1 ADD SWAP2 SWAP1 POP JUMP JUMPDEST PUSH1 0x0 DUP3 MLOAD PUSH2 0x4F91 DUP2 DUP5 PUSH1 0x20 DUP8 ADD PUSH2 0x4290 JUMP JUMPDEST PUSH1 0x3 PUSH1 0xFC SHL SWAP3 ADD SWAP2 DUP3 MSTORE POP PUSH1 0x1 ADD SWAP2 SWAP1 POP JUMP JUMPDEST PUSH1 0x0 DUP2 PUSH2 0x4FB3 JUMPI PUSH2 0x4FB3 PUSH2 0x4AD3 JUMP JUMPDEST POP PUSH1 0x0 NOT ADD SWAP1 JUMP JUMPDEST DUP2 DUP2 SUB PUSH1 0x0 DUP4 SLT DUP1 ISZERO DUP4 DUP4 SGT AND DUP4 DUP4 SLT DUP3 AND OR ISZERO PUSH2 0x4D16 JUMPI PUSH2 0x4D16 PUSH2 0x4AD3 JUMP JUMPDEST PUSH1 0x0 DUP4 MLOAD PUSH2 0x4FED DUP2 DUP5 PUSH1 0x20 DUP9 ADD PUSH2 0x4290 JUMP JUMPDEST DUP4 MLOAD SWAP1 DUP4 ADD SWAP1 PUSH2 0x5001 DUP2 DUP4 PUSH1 0x20 DUP9 ADD PUSH2 0x4290 JUMP JUMPDEST ADD SWAP5 SWAP4 POP POP POP POP JUMP JUMPDEST PUSH4 0xFFFFFFFF DUP2 DUP2 AND DUP4 DUP3 AND ADD SWAP1 DUP1 DUP3 GT ISZERO PUSH2 0x4D16 JUMPI PUSH2 0x4D16 PUSH2 0x4AD3 JUMP JUMPDEST PUSH1 0x0 DUP5 MLOAD PUSH2 0x5039 DUP2 DUP5 PUSH1 0x20 DUP10 ADD PUSH2 0x4290 JUMP JUMPDEST DUP5 MLOAD SWAP1 DUP4 ADD SWAP1 PUSH2 0x504D DUP2 DUP4 PUSH1 0x20 DUP10 ADD PUSH2 0x4290 JUMP JUMPDEST DUP5 MLOAD SWAP2 ADD SWAP1 PUSH2 0x5060 DUP2 DUP4 PUSH1 0x20 DUP9 ADD PUSH2 0x4290 JUMP JUMPDEST ADD SWAP6 SWAP5 POP POP POP POP POP JUMP JUMPDEST PUSH1 0x0 DUP5 MLOAD PUSH2 0x507C DUP2 DUP5 PUSH1 0x20 DUP10 ADD PUSH2 0x4290 JUMP JUMPDEST DUP5 MLOAD SWAP1 DUP4 ADD SWAP1 PUSH2 0x5090 DUP2 DUP4 PUSH1 0x20 DUP10 ADD PUSH2 0x4290 JUMP JUMPDEST DUP5 MLOAD SWAP2 ADD SWAP1 PUSH2 0x50A3 DUP2 DUP4 PUSH1 0x20 DUP9 ADD PUSH2 0x4290 JUMP JUMPDEST PUSH1 0x9 PUSH1 0xFA SHL SWAP2 ADD SWAP1 DUP2 MSTORE PUSH1 0x1 ADD SWAP6 SWAP5 POP POP POP POP POP JUMP JUMPDEST PUSH1 0x0 PUSH1 0x20 DUP3 DUP5 SUB SLT ISZERO PUSH2 0x50CB JUMPI PUSH1 0x0 DUP1 REVERT JUMPDEST POP MLOAD SWAP2 SWAP1 POP JUMP JUMPDEST PUSH1 0x1 PUSH1 0x1 PUSH1 0xA0 SHL SUB DUP6 DUP2 AND DUP3 MSTORE DUP5 AND PUSH1 0x20 DUP3 ADD MSTORE PUSH1 0x40 DUP2 ADD DUP4 SWAP1 MSTORE PUSH1 0x80 PUSH1 0x60 DUP3 ADD DUP2 SWAP1 MSTORE PUSH1 0x0 SWAP1 PUSH2 0x342D SWAP1 DUP4 ADD DUP5 PUSH2 0x42B4 JUMP JUMPDEST PUSH1 0x0 PUSH1 0x20 DUP3 DUP5 SUB SLT ISZERO PUSH2 0x5117 JUMPI PUSH1 0x0 DUP1 REVERT JUMPDEST DUP2 MLOAD PUSH2 0x1A69 DUP2 PUSH2 0x425D JUMP JUMPDEST PUSH1 0x0 DUP3 MLOAD PUSH2 0x5134 DUP2 DUP5 PUSH1 0x20 DUP8 ADD PUSH2 0x4290 JUMP JUMPDEST SWAP2 SWAP1 SWAP2 ADD SWAP3 SWAP2 POP POP JUMP INVALID PUSH9 0x747470733A2F2F6661 PUSH4 0x746F7279 PUSH2 0x7069 0x2E PUSH4 0x656C6C75 PUSH13 0x612E6C6966652F63656C6C546F PUSH12 0x656E2F80BB2B638CC20BC4D0 0xA6 0xD PUSH7 0x940F3AB4A00C1D PUSH28 0x313497CA82FB0B4AB0079300360894A13BA1A3210667C828492DB98D 0xCA RETURNDATACOPY KECCAK256 PUSH23 0xCC3735A920A3CA505D382BBCA264697066735822122040 0x5C INVALID 0x2F 0x2B 0xC1 0xC1 PUSH0 CALLCODE 0xD3 LOG4 LOG0 PUSH7 0x3BBF1421E7CE89 EXTCODESIZE ISZERO STATICCALL 0xE4 PUSH17 0x6892DB6BCB2D5864736F6C634300081700 CALLER "
		},
		"gasEstimates": {
			"creation": {
				"codeDepositCost": "4191600",
				"executionCost": "infinite",
				"totalCost": "infinite"
			},
			"external": {
				"BLOCK_TIME()": "283",
				"EVOLUTION_TIME()": "317",
				"UPGRADE_INTERFACE_VERSION()": "infinite",
				"_admin()": "2396",
				"_cellMintedNum()": "2430",
				"_currentCellAuction()": "15187",
				"_current_round_number()": "2361",
				"_devAddress()": "2438",
				"_devFeeCollected()": "2429",
				"_life()": "2393",
				"_lifeCreationConfig()": "19431",
				"_poolFeeCollected()": "2405",
				"_rentFeeCollected(uint256)": "2528",
				"_totalRentFee()": "2385",
				"_treasuryAddress()": "2417",
				"_withdrawable()": "2417",
				"addNewAuction(int256,int256,int256,uint256,uint256,uint256)": "145425",
				"approve(address,uint256)": "infinite",
				"balanceOf(address)": "infinite",
				"changeBaseURL(string)": "infinite",
				"createLife(uint256[][])": "infinite",
				"getApproved(uint256)": "infinite",
				"getCellGene(uint256)": "infinite",
				"getCellRentPrice(uint256,uint256)": "infinite",
				"getCurrentVRGDAPrice()": "infinite",
				"getEvolutionaryAlgebra(uint256)": "infinite",
				"getGenesSequence(uint256)": "infinite",
				"getLifePrice(uint256[])": "infinite",
				"getRLESting(uint256)": "infinite",
				"getRandomNumber()": "infinite",
				"getWithdrawRentFee(uint256[])": "infinite",
				"initialize(address,address,address,address,address,string,string)": "infinite",
				"isApprovedForAll(address,address)": "infinite",
				"isCenterCellAlive(uint8[9])": "infinite",
				"lifeBaseRules(uint8[9])": "infinite",
				"mintCell(address)": "infinite",
				"mintFromAuction()": "infinite",
				"name()": "infinite",
				"owner()": "2448",
				"ownerOf(uint256)": "infinite",
				"proxiableUUID()": "infinite",
				"renounceOwnership()": "infinite",
				"safeTransferFrom(address,address,uint256)": "infinite",
				"safeTransferFrom(address,address,uint256,bytes)": "infinite",
				"setAdmin(address)": "26841",
				"setApprovalForAll(address,bool)": "infinite",
				"setDevAddress(address)": "26908",
				"setLifeCreationConfig(int256,int256,int256,int256,int256,int256,int256,uint256,address)": "204738",
				"setTreasuryAddress(address)": "26864",
				"setWithdrawStatus(bool)": "26807",
				"supportsInterface(bytes4)": "613",
				"symbol()": "infinite",
				"tokenURI(uint256)": "infinite",
				"transferFrom(address,address,uint256)": "infinite",
				"transferOwnership(address)": "infinite",
				"upgradeToAndCall(address,bytes)": "infinite",
				"userEnergy(address)": "2581",
				"withdraw(uint256)": "infinite",
				"withdrawDevFee(address)": "infinite",
				"withdrawPoolFee(address)": "infinite",
				"withdrawRentFee(uint256[])": "infinite"
			},
			"internal": {
				"_authorizeUpgrade(address)": "infinite",
				"_baseURI()": "infinite",
				"decodeGenes(uint256)": "infinite",
				"removeDuplicates(uint256[] memory)": "infinite"
			}
		},
		"methodIdentifiers": {
			"BLOCK_TIME()": "f9301910",
			"EVOLUTION_TIME()": "1ae52519",
			"UPGRADE_INTERFACE_VERSION()": "ad3cb1cc",
			"_admin()": "01bc45c9",
			"_cellMintedNum()": "1d4cf063",
			"_currentCellAuction()": "743bd935",
			"_current_round_number()": "f6eed83d",
			"_devAddress()": "6af65929",
			"_devFeeCollected()": "5c01491f",
			"_life()": "d28cb317",
			"_lifeCreationConfig()": "55b6303a",
			"_poolFeeCollected()": "fb141924",
			"_rentFeeCollected(uint256)": "3d504a70",
			"_totalRentFee()": "aaaf1a54",
			"_treasuryAddress()": "8743da6d",
			"_withdrawable()": "c88eb8e9",
			"addNewAuction(int256,int256,int256,uint256,uint256,uint256)": "bfe9e147",
			"approve(address,uint256)": "095ea7b3",
			"balanceOf(address)": "70a08231",
			"changeBaseURL(string)": "2fe24d36",
			"createLife(uint256[][])": "48cb18d0",
			"getApproved(uint256)": "081812fc",
			"getCellGene(uint256)": "52786334",
			"getCellRentPrice(uint256,uint256)": "6e342b31",
			"getCurrentVRGDAPrice()": "4718121a",
			"getEvolutionaryAlgebra(uint256)": "9e2591dd",
			"getGenesSequence(uint256)": "b9ac62f5",
			"getLifePrice(uint256[])": "200b2caf",
			"getRLESting(uint256)": "3c3a8746",
			"getRandomNumber()": "dbdff2c1",
			"getWithdrawRentFee(uint256[])": "de6d90d1",
			"initialize(address,address,address,address,address,string,string)": "571f0910",
			"isApprovedForAll(address,address)": "e985e9c5",
			"isCenterCellAlive(uint8[9])": "a3d62e9c",
			"lifeBaseRules(uint8[9])": "7c772596",
			"mintCell(address)": "f1372e26",
			"mintFromAuction()": "ca9e6768",
			"name()": "06fdde03",
			"owner()": "8da5cb5b",
			"ownerOf(uint256)": "6352211e",
			"proxiableUUID()": "52d1902d",
			"renounceOwnership()": "715018a6",
			"safeTransferFrom(address,address,uint256)": "42842e0e",
			"safeTransferFrom(address,address,uint256,bytes)": "b88d4fde",
			"setAdmin(address)": "704b6c02",
			"setApprovalForAll(address,bool)": "a22cb465",
			"setDevAddress(address)": "d0d41fe1",
			"setLifeCreationConfig(int256,int256,int256,int256,int256,int256,int256,uint256,address)": "dc2369dd",
			"setTreasuryAddress(address)": "6605bfda",
			"setWithdrawStatus(bool)": "aabd6904",
			"supportsInterface(bytes4)": "01ffc9a7",
			"symbol()": "95d89b41",
			"tokenURI(uint256)": "c87b56dd",
			"transferFrom(address,address,uint256)": "23b872dd",
			"transferOwnership(address)": "f2fde38b",
			"upgradeToAndCall(address,bytes)": "4f1ef286",
			"userEnergy(address)": "8f62b56e",
			"withdraw(uint256)": "2e1a7d4d",
			"withdrawDevFee(address)": "bdd42c35",
			"withdrawPoolFee(address)": "fbe0c7a5",
			"withdrawRentFee(uint256[])": "ecc34956"
		}
	},
	"abi": [
		{
			"inputs": [
				{
					"internalType": "int256",
					"name": "targetPrice_",
					"type": "int256"
				},
				{
					"internalType": "int256",
					"name": "priceDecayPercent_",
					"type": "int256"
				},
				{
					"internalType": "int256",
					"name": "perTimeUnit_",
					"type": "int256"
				},
				{
					"internalType": "uint256",
					"name": "startTime_",
					"type": "uint256"
				},
				{
					"internalType": "uint256",
					"name": "maxSellable_",
					"type": "uint256"
				},
				{
					"internalType": "uint256",
					"name": "updateInterval_",
					"type": "uint256"
				}
			],
			"name": "addNewAuction",
			"outputs": [],
			"stateMutability": "nonpayable",
			"type": "function"
		},
		{
			"inputs": [],
			"stateMutability": "nonpayable",
			"type": "constructor"
		},
		{
			"inputs": [
				{
					"internalType": "address",
					"name": "target",
					"type": "address"
				}
			],
			"name": "AddressEmptyCode",
			"type": "error"
		},
		{
			"inputs": [
				{
					"internalType": "address",
					"name": "implementation",
					"type": "address"
				}
			],
			"name": "ERC1967InvalidImplementation",
			"type": "error"
		},
		{
			"inputs": [],
			"name": "ERC1967NonPayable",
			"type": "error"
		},
		{
			"inputs": [
				{
					"internalType": "address",
					"name": "sender",
					"type": "address"
				},
				{
					"internalType": "uint256",
					"name": "tokenId",
					"type": "uint256"
				},
				{
					"internalType": "address",
					"name": "owner",
					"type": "address"
				}
			],
			"name": "ERC721IncorrectOwner",
			"type": "error"
		},
		{
			"inputs": [
				{
					"internalType": "address",
					"name": "operator",
					"type": "address"
				},
				{
					"internalType": "uint256",
					"name": "tokenId",
					"type": "uint256"
				}
			],
			"name": "ERC721InsufficientApproval",
			"type": "error"
		},
		{
			"inputs": [
				{
					"internalType": "address",
					"name": "approver",
					"type": "address"
				}
			],
			"name": "ERC721InvalidApprover",
			"type": "error"
		},
		{
			"inputs": [
				{
					"internalType": "address",
					"name": "operator",
					"type": "address"
				}
			],
			"name": "ERC721InvalidOperator",
			"type": "error"
		},
		{
			"inputs": [
				{
					"internalType": "address",
					"name": "owner",
					"type": "address"
				}
			],
			"name": "ERC721InvalidOwner",
			"type": "error"
		},
		{
			"inputs": [
				{
					"internalType": "address",
					"name": "receiver",
					"type": "address"
				}
			],
			"name": "ERC721InvalidReceiver",
			"type": "error"
		},
		{
			"inputs": [
				{
					"internalType": "address",
					"name": "sender",
					"type": "address"
				}
			],
			"name": "ERC721InvalidSender",
			"type": "error"
		},
		{
			"inputs": [
				{
					"internalType": "uint256",
					"name": "tokenId",
					"type": "uint256"
				}
			],
			"name": "ERC721NonexistentToken",
			"type": "error"
		},
		{
			"inputs": [],
			"name": "FailedInnerCall",
			"type": "error"
		},
		{
			"inputs": [],
			"name": "InvalidInitialization",
			"type": "error"
		},
		{
			"inputs": [
				{
					"internalType": "address",
					"name": "account",
					"type": "address"
				}
			],
			"name": "MustBeNftOwner",
			"type": "error"
		},
		{
			"inputs": [],
			"name": "NotInitializing",
			"type": "error"
		},
		{
			"inputs": [
				{
					"internalType": "address",
					"name": "owner",
					"type": "address"
				}
			],
			"name": "OwnableInvalidOwner",
			"type": "error"
		},
		{
			"inputs": [
				{
					"internalType": "address",
					"name": "account",
					"type": "address"
				}
			],
			"name": "OwnableUnauthorizedAccount",
			"type": "error"
		},
		{
			"inputs": [],
			"name": "UUPSUnauthorizedCallContext",
			"type": "error"
		},
		{
			"inputs": [
				{
					"internalType": "bytes32",
					"name": "slot",
					"type": "bytes32"
				}
			],
			"name": "UUPSUnsupportedProxiableUUID",
			"type": "error"
		},
		{
			"anonymous": false,
			"inputs": [
				{
					"indexed": true,
					"internalType": "address",
					"name": "owner",
					"type": "address"
				},
				{
					"indexed": true,
					"internalType": "address",
					"name": "approved",
					"type": "address"
				},
				{
					"indexed": true,
					"internalType": "uint256",
					"name": "tokenId",
					"type": "uint256"
				}
			],
			"name": "Approval",
			"type": "event"
		},
		{
			"anonymous": false,
			"inputs": [
				{
					"indexed": true,
					"internalType": "address",
					"name": "owner",
					"type": "address"
				},
				{
					"indexed": true,
					"internalType": "address",
					"name": "operator",
					"type": "address"
				},
				{
					"indexed": false,
					"internalType": "bool",
					"name": "approved",
					"type": "bool"
				}
			],
			"name": "ApprovalForAll",
			"type": "event"
		},
		{
			"inputs": [
				{
					"internalType": "address",
					"name": "to",
					"type": "address"
				},
				{
					"internalType": "uint256",
					"name": "tokenId",
					"type": "uint256"
				}
			],
			"name": "approve",
			"outputs": [],
			"stateMutability": "nonpayable",
			"type": "function"
		},
		{
			"anonymous": false,
			"inputs": [
				{
					"indexed": false,
					"internalType": "uint256",
					"name": "tokenId",
					"type": "uint256"
				},
				{
					"indexed": false,
					"internalType": "uint256",
					"name": "amount",
					"type": "uint256"
				}
			],
			"name": "AuctionPriceReceived",
			"type": "event"
		},
		{
			"inputs": [
				{
					"internalType": "string",
					"name": "newBaseURL",
					"type": "string"
				}
			],
			"name": "changeBaseURL",
			"outputs": [],
			"stateMutability": "nonpayable",
			"type": "function"
		},
		{
			"inputs": [
				{
					"internalType": "uint256[][]",
					"name": "cellsPositions_",
					"type": "uint256[][]"
				}
			],
			"name": "createLife",
			"outputs": [],
			"stateMutability": "payable",
			"type": "function"
		},
		{
			"inputs": [],
			"name": "getRandomNumber",
			"outputs": [
				{
					"internalType": "uint256",
					"name": "",
					"type": "uint256"
				}
			],
			"stateMutability": "nonpayable",
			"type": "function"
		},
		{
			"inputs": [
				{
					"internalType": "address",
					"name": "owner_",
					"type": "address"
				},
				{
					"internalType": "address",
					"name": "admin_",
					"type": "address"
				},
				{
					"internalType": "address",
					"name": "devAddress_",
					"type": "address"
				},
				{
					"internalType": "address",
					"name": "treasuryAddress_",
					"type": "address"
				},
				{
					"internalType": "contract Life",
					"name": "life_",
					"type": "address"
				},
				{
					"internalType": "string",
					"name": "name_",
					"type": "string"
				},
				{
					"internalType": "string",
					"name": "symbol_",
					"type": "string"
				}
			],
			"name": "initialize",
			"outputs": [],
			"stateMutability": "nonpayable",
			"type": "function"
		},
		{
			"anonymous": false,
			"inputs": [
				{
					"indexed": false,
					"internalType": "uint64",
					"name": "version",
					"type": "uint64"
				}
			],
			"name": "Initialized",
			"type": "event"
		},
		{
			"inputs": [
				{
					"internalType": "address",
					"name": "to",
					"type": "address"
				}
			],
			"name": "mintCell",
			"outputs": [],
			"stateMutability": "nonpayable",
			"type": "function"
		},
		{
			"anonymous": false,
			"inputs": [
				{
					"indexed": false,
					"internalType": "uint256",
					"name": "amount",
					"type": "uint256"
				}
			],
			"name": "MintFeeForDevReceived",
			"type": "event"
		},
		{
			"anonymous": false,
			"inputs": [
				{
					"indexed": false,
					"internalType": "uint256",
					"name": "amount",
					"type": "uint256"
				}
			],
			"name": "MintFeeForPoolReceived",
			"type": "event"
		},
		{
			"anonymous": false,
			"inputs": [
				{
					"indexed": false,
					"internalType": "uint256",
					"name": "tokenId",
					"type": "uint256"
				},
				{
					"indexed": false,
					"internalType": "uint256",
					"name": "amount",
					"type": "uint256"
				}
			],
			"name": "MintFeeReceived",
			"type": "event"
		},
		{
			"inputs": [],
			"name": "mintFromAuction",
			"outputs": [],
			"stateMutability": "payable",
			"type": "function"
		},
		{
			"anonymous": false,
			"inputs": [
				{
					"indexed": true,
					"internalType": "address",
					"name": "previousOwner",
					"type": "address"
				},
				{
					"indexed": true,
					"internalType": "address",
					"name": "newOwner",
					"type": "address"
				}
			],
			"name": "OwnershipTransferred",
			"type": "event"
		},
		{
			"inputs": [],
			"name": "renounceOwnership",
			"outputs": [],
			"stateMutability": "nonpayable",
			"type": "function"
		},
		{
			"inputs": [
				{
					"internalType": "address",
					"name": "from",
					"type": "address"
				},
				{
					"internalType": "address",
					"name": "to",
					"type": "address"
				},
				{
					"internalType": "uint256",
					"name": "tokenId",
					"type": "uint256"
				}
			],
			"name": "safeTransferFrom",
			"outputs": [],
			"stateMutability": "nonpayable",
			"type": "function"
		},
		{
			"inputs": [
				{
					"internalType": "address",
					"name": "from",
					"type": "address"
				},
				{
					"internalType": "address",
					"name": "to",
					"type": "address"
				},
				{
					"internalType": "uint256",
					"name": "tokenId",
					"type": "uint256"
				},
				{
					"internalType": "bytes",
					"name": "data",
					"type": "bytes"
				}
			],
			"name": "safeTransferFrom",
			"outputs": [],
			"stateMutability": "nonpayable",
			"type": "function"
		},
		{
			"inputs": [
				{
					"internalType": "address",
					"name": "admin_",
					"type": "address"
				}
			],
			"name": "setAdmin",
			"outputs": [],
			"stateMutability": "nonpayable",
			"type": "function"
		},
		{
			"inputs": [
				{
					"internalType": "address",
					"name": "operator",
					"type": "address"
				},
				{
					"internalType": "bool",
					"name": "approved",
					"type": "bool"
				}
			],
			"name": "setApprovalForAll",
			"outputs": [],
			"stateMutability": "nonpayable",
			"type": "function"
		},
		{
			"inputs": [
				{
					"internalType": "address",
					"name": "devAddress_",
					"type": "address"
				}
			],
			"name": "setDevAddress",
			"outputs": [],
			"stateMutability": "nonpayable",
			"type": "function"
		},
		{
			"inputs": [
				{
					"internalType": "int256",
					"name": "soldBySwitch_",
					"type": "int256"
				},
				{
					"internalType": "int256",
					"name": "switchTime_",
					"type": "int256"
				},
				{
					"internalType": "int256",
					"name": "cellTargetRentPrice_",
					"type": "int256"
				},
				{
					"internalType": "int256",
					"name": "priceDecayPercent_",
					"type": "int256"
				},
				{
					"internalType": "int256",
					"name": "logisticLimit_",
					"type": "int256"
				},
				{
					"internalType": "int256",
					"name": "timeScale_",
					"type": "int256"
				},
				{
					"internalType": "int256",
					"name": "perTimeUnit_",
					"type": "int256"
				},
				{
					"internalType": "uint256",
					"name": "updateInterval_",
					"type": "uint256"
				},
				{
					"internalType": "address",
					"name": "payToken_",
					"type": "address"
				}
			],
			"name": "setLifeCreationConfig",
			"outputs": [],
			"stateMutability": "nonpayable",
			"type": "function"
		},
		{
			"inputs": [
				{
					"internalType": "address",
					"name": "treasuryAddress_",
					"type": "address"
				}
			],
			"name": "setTreasuryAddress",
			"outputs": [],
			"stateMutability": "nonpayable",
			"type": "function"
		},
		{
			"inputs": [
				{
					"internalType": "bool",
					"name": "withdrawable_",
					"type": "bool"
				}
			],
			"name": "setWithdrawStatus",
			"outputs": [],
			"stateMutability": "nonpayable",
			"type": "function"
		},
		{
			"anonymous": false,
			"inputs": [
				{
					"indexed": true,
					"internalType": "address",
					"name": "from",
					"type": "address"
				},
				{
					"indexed": true,
					"internalType": "address",
					"name": "to",
					"type": "address"
				},
				{
					"indexed": true,
					"internalType": "uint256",
					"name": "tokenId",
					"type": "uint256"
				}
			],
			"name": "Transfer",
			"type": "event"
		},
		{
			"inputs": [
				{
					"internalType": "address",
					"name": "from",
					"type": "address"
				},
				{
					"internalType": "address",
					"name": "to",
					"type": "address"
				},
				{
					"internalType": "uint256",
					"name": "tokenId",
					"type": "uint256"
				}
			],
			"name": "transferFrom",
			"outputs": [],
			"stateMutability": "nonpayable",
			"type": "function"
		},
		{
			"inputs": [
				{
					"internalType": "address",
					"name": "newOwner",
					"type": "address"
				}
			],
			"name": "transferOwnership",
			"outputs": [],
			"stateMutability": "nonpayable",
			"type": "function"
		},
		{
			"anonymous": false,
			"inputs": [
				{
					"indexed": true,
					"internalType": "address",
					"name": "implementation",
					"type": "address"
				}
			],
			"name": "Upgraded",
			"type": "event"
		},
		{
			"inputs": [
				{
					"internalType": "address",
					"name": "newImplementation",
					"type": "address"
				},
				{
					"internalType": "bytes",
					"name": "data",
					"type": "bytes"
				}
			],
			"name": "upgradeToAndCall",
			"outputs": [],
			"stateMutability": "payable",
			"type": "function"
		},
		{
			"inputs": [
				{
					"internalType": "uint256",
					"name": "amount",
					"type": "uint256"
				}
			],
			"name": "withdraw",
			"outputs": [],
			"stateMutability": "nonpayable",
			"type": "function"
		},
		{
			"inputs": [
				{
					"internalType": "address",
					"name": "withdrawTo",
					"type": "address"
				}
			],
			"name": "withdrawDevFee",
			"outputs": [],
			"stateMutability": "nonpayable",
			"type": "function"
		},
		{
			"inputs": [
				{
					"internalType": "address",
					"name": "withdrawTo",
					"type": "address"
				}
			],
			"name": "withdrawPoolFee",
			"outputs": [],
			"stateMutability": "nonpayable",
			"type": "function"
		},
		{
			"inputs": [
				{
					"internalType": "uint256[]",
					"name": "tokenIds",
					"type": "uint256[]"
				}
			],
			"name": "withdrawRentFee",
			"outputs": [],
			"stateMutability": "nonpayable",
			"type": "function"
		},
		{
			"stateMutability": "payable",
			"type": "receive"
		},
		{
			"inputs": [],
			"name": "_admin",
			"outputs": [
				{
					"internalType": "address",
					"name": "",
					"type": "address"
				}
			],
			"stateMutability": "view",
			"type": "function"
		},
		{
			"inputs": [],
			"name": "_cellMintedNum",
			"outputs": [
				{
					"internalType": "uint256",
					"name": "",
					"type": "uint256"
				}
			],
			"stateMutability": "view",
			"type": "function"
		},
		{
			"inputs": [],
			"name": "_current_round_number",
			"outputs": [
				{
					"internalType": "uint256",
					"name": "",
					"type": "uint256"
				}
			],
			"stateMutability": "view",
			"type": "function"
		},
		{
			"inputs": [],
			"name": "_currentCellAuction",
			"outputs": [
				{
					"internalType": "uint256",
					"name": "startTime",
					"type": "uint256"
				},
				{
					"internalType": "uint256",
					"name": "maxSellable",
					"type": "uint256"
				},
				{
					"internalType": "uint256",
					"name": "sold",
					"type": "uint256"
				},
				{
					"internalType": "int256",
					"name": "targetPrice",
					"type": "int256"
				},
				{
					"internalType": "int256",
					"name": "decayConstant",
					"type": "int256"
				},
				{
					"internalType": "int256",
					"name": "perTimeUnit",
					"type": "int256"
				},
				{
					"internalType": "uint256",
					"name": "updateInterval",
					"type": "uint256"
				}
			],
			"stateMutability": "view",
			"type": "function"
		},
		{
			"inputs": [],
			"name": "_devAddress",
			"outputs": [
				{
					"internalType": "address",
					"name": "",
					"type": "address"
				}
			],
			"stateMutability": "view",
			"type": "function"
		},
		{
			"inputs": [],
			"name": "_devFeeCollected",
			"outputs": [
				{
					"internalType": "uint256",
					"name": "",
					"type": "uint256"
				}
			],
			"stateMutability": "view",
			"type": "function"
		},
		{
			"inputs": [],
			"name": "_life",
			"outputs": [
				{
					"internalType": "contract Life",
					"name": "",
					"type": "address"
				}
			],
			"stateMutability": "view",
			"type": "function"
		},
		{
			"inputs": [],
			"name": "_lifeCreationConfig",
			"outputs": [
				{
					"internalType": "int256",
					"name": "soldBySwitch",
					"type": "int256"
				},
				{
					"internalType": "int256",
					"name": "switchTime",
					"type": "int256"
				},
				{
					"internalType": "int256",
					"name": "cellTargetRentPrice",
					"type": "int256"
				},
				{
					"internalType": "int256",
					"name": "decayConstant",
					"type": "int256"
				},
				{
					"internalType": "int256",
					"name": "logisticLimit",
					"type": "int256"
				},
				{
					"internalType": "int256",
					"name": "timeScale",
					"type": "int256"
				},
				{
					"internalType": "int256",
					"name": "perTimeUnit",
					"type": "int256"
				},
				{
					"internalType": "uint256",
					"name": "updateInterval",
					"type": "uint256"
				},
				{
					"internalType": "address",
					"name": "payToken",
					"type": "address"
				}
			],
			"stateMutability": "view",
			"type": "function"
		},
		{
			"inputs": [],
			"name": "_poolFeeCollected",
			"outputs": [
				{
					"internalType": "uint256",
					"name": "",
					"type": "uint256"
				}
			],
			"stateMutability": "view",
			"type": "function"
		},
		{
			"inputs": [
				{
					"internalType": "uint256",
					"name": "",
					"type": "uint256"
				}
			],
			"name": "_rentFeeCollected",
			"outputs": [
				{
					"internalType": "uint256",
					"name": "",
					"type": "uint256"
				}
			],
			"stateMutability": "view",
			"type": "function"
		},
		{
			"inputs": [],
			"name": "_totalRentFee",
			"outputs": [
				{
					"internalType": "uint256",
					"name": "",
					"type": "uint256"
				}
			],
			"stateMutability": "view",
			"type": "function"
		},
		{
			"inputs": [],
			"name": "_treasuryAddress",
			"outputs": [
				{
					"internalType": "address",
					"name": "",
					"type": "address"
				}
			],
			"stateMutability": "view",
			"type": "function"
		},
		{
			"inputs": [],
			"name": "_withdrawable",
			"outputs": [
				{
					"internalType": "bool",
					"name": "",
					"type": "bool"
				}
			],
			"stateMutability": "view",
			"type": "function"
		},
		{
			"inputs": [
				{
					"internalType": "address",
					"name": "owner",
					"type": "address"
				}
			],
			"name": "balanceOf",
			"outputs": [
				{
					"internalType": "uint256",
					"name": "",
					"type": "uint256"
				}
			],
			"stateMutability": "view",
			"type": "function"
		},
		{
			"inputs": [],
			"name": "BLOCK_TIME",
			"outputs": [
				{
					"internalType": "uint256",
					"name": "",
					"type": "uint256"
				}
			],
			"stateMutability": "view",
			"type": "function"
		},
		{
			"inputs": [],
			"name": "EVOLUTION_TIME",
			"outputs": [
				{
					"internalType": "uint32",
					"name": "",
					"type": "uint32"
				}
			],
			"stateMutability": "view",
			"type": "function"
		},
		{
			"inputs": [
				{
					"internalType": "uint256",
					"name": "tokenId",
					"type": "uint256"
				}
			],
			"name": "getApproved",
			"outputs": [
				{
					"internalType": "address",
					"name": "",
					"type": "address"
				}
			],
			"stateMutability": "view",
			"type": "function"
		},
		{
			"inputs": [
				{
					"internalType": "uint256",
					"name": "tokenID",
					"type": "uint256"
				}
			],
			"name": "getCellGene",
			"outputs": [
				{
					"internalType": "string",
					"name": "genes",
					"type": "string"
				},
				{
					"internalType": "uint256",
					"name": "bornBlock",
					"type": "uint256"
				},
				{
					"internalType": "uint256",
					"name": "livingCellTotal",
					"type": "uint256"
				},
				{
					"internalType": "uint64",
					"name": "bornTime",
					"type": "uint64"
				},
				{
					"internalType": "uint64",
					"name": "rentedCount",
					"type": "uint64"
				},
				{
					"internalType": "uint256",
					"name": "bornPrice",
					"type": "uint256"
				}
			],
			"stateMutability": "view",
			"type": "function"
		},
		{
			"inputs": [
				{
					"internalType": "uint256",
					"name": "rentedCount",
					"type": "uint256"
				},
				{
					"internalType": "uint256",
					"name": "absoluteTimeSinceStart",
					"type": "uint256"
				}
			],
			"name": "getCellRentPrice",
			"outputs": [
				{
					"internalType": "uint256",
					"name": "",
					"type": "uint256"
				}
			],
			"stateMutability": "view",
			"type": "function"
		},
		{
			"inputs": [],
			"name": "getCurrentVRGDAPrice",
			"outputs": [
				{
					"internalType": "uint256",
					"name": "",
					"type": "uint256"
				}
			],
			"stateMutability": "view",
			"type": "function"
		},
		{
			"inputs": [
				{
					"internalType": "uint256",
					"name": "tokenId",
					"type": "uint256"
				}
			],
			"name": "getEvolutionaryAlgebra",
			"outputs": [
				{
					"internalType": "uint256",
					"name": "",
					"type": "uint256"
				}
			],
			"stateMutability": "view",
			"type": "function"
		},
		{
			"inputs": [
				{
					"internalType": "uint256",
					"name": "tokenID",
					"type": "uint256"
				}
			],
			"name": "getGenesSequence",
			"outputs": [
				{
					"internalType": "string",
					"name": "genes",
					"type": "string"
				}
			],
			"stateMutability": "view",
			"type": "function"
		},
		{
			"inputs": [
				{
					"internalType": "uint256[]",
					"name": "cells_",
					"type": "uint256[]"
				}
			],
			"name": "getLifePrice",
			"outputs": [
				{
					"internalType": "uint256[]",
					"name": "cellsPrice",
					"type": "uint256[]"
				}
			],
			"stateMutability": "view",
			"type": "function"
		},
		{
			"inputs": [
				{
					"internalType": "uint256",
					"name": "tokenId",
					"type": "uint256"
				}
			],
			"name": "getRLESting",
			"outputs": [
				{
					"internalType": "string",
					"name": "rleSting",
					"type": "string"
				}
			],
			"stateMutability": "view",
			"type": "function"
		},
		{
			"inputs": [
				{
					"internalType": "uint256[]",
					"name": "tokenIds",
					"type": "uint256[]"
				}
			],
			"name": "getWithdrawRentFee",
			"outputs": [
				{
					"internalType": "uint256",
					"name": "",
					"type": "uint256"
				}
			],
			"stateMutability": "view",
			"type": "function"
		},
		{
			"inputs": [
				{
					"internalType": "address",
					"name": "owner",
					"type": "address"
				},
				{
					"internalType": "address",
					"name": "operator",
					"type": "address"
				}
			],
			"name": "isApprovedForAll",
			"outputs": [
				{
					"internalType": "bool",
					"name": "",
					"type": "bool"
				}
			],
			"stateMutability": "view",
			"type": "function"
		},
		{
			"inputs": [
				{
					"internalType": "uint8[9]",
					"name": "cells",
					"type": "uint8[9]"
				}
			],
			"name": "isCenterCellAlive",
			"outputs": [
				{
					"internalType": "bool",
					"name": "",
					"type": "bool"
				}
			],
			"stateMutability": "pure",
			"type": "function"
		},
		{
			"inputs": [
				{
					"internalType": "uint8[9]",
					"name": "cellGenes",
					"type": "uint8[9]"
				}
			],
			"name": "lifeBaseRules",
			"outputs": [
				{
					"internalType": "uint8",
					"name": "",
					"type": "uint8"
				}
			],
			"stateMutability": "pure",
			"type": "function"
		},
		{
			"inputs": [],
			"name": "name",
			"outputs": [
				{
					"internalType": "string",
					"name": "",
					"type": "string"
				}
			],
			"stateMutability": "view",
			"type": "function"
		},
		{
			"inputs": [],
			"name": "owner",
			"outputs": [
				{
					"internalType": "address",
					"name": "",
					"type": "address"
				}
			],
			"stateMutability": "view",
			"type": "function"
		},
		{
			"inputs": [
				{
					"internalType": "uint256",
					"name": "tokenId",
					"type": "uint256"
				}
			],
			"name": "ownerOf",
			"outputs": [
				{
					"internalType": "address",
					"name": "",
					"type": "address"
				}
			],
			"stateMutability": "view",
			"type": "function"
		},
		{
			"inputs": [],
			"name": "proxiableUUID",
			"outputs": [
				{
					"internalType": "bytes32",
					"name": "",
					"type": "bytes32"
				}
			],
			"stateMutability": "view",
			"type": "function"
		},
		{
			"inputs": [
				{
					"internalType": "bytes4",
					"name": "interfaceId",
					"type": "bytes4"
				}
			],
			"name": "supportsInterface",
			"outputs": [
				{
					"internalType": "bool",
					"name": "",
					"type": "bool"
				}
			],
			"stateMutability": "view",
			"type": "function"
		},
		{
			"inputs": [],
			"name": "symbol",
			"outputs": [
				{
					"internalType": "string",
					"name": "",
					"type": "string"
				}
			],
			"stateMutability": "view",
			"type": "function"
		},
		{
			"inputs": [
				{
					"internalType": "uint256",
					"name": "tokenId",
					"type": "uint256"
				}
			],
			"name": "tokenURI",
			"outputs": [
				{
					"internalType": "string",
					"name": "",
					"type": "string"
				}
			],
			"stateMutability": "view",
			"type": "function"
		},
		{
			"inputs": [],
			"name": "UPGRADE_INTERFACE_VERSION",
			"outputs": [
				{
					"internalType": "string",
					"name": "",
					"type": "string"
				}
			],
			"stateMutability": "view",
			"type": "function"
		},
		{
			"inputs": [
				{
					"internalType": "address",
					"name": "",
					"type": "address"
				}
			],
			"name": "userEnergy",
			"outputs": [
				{
					"internalType": "uint256",
					"name": "",
					"type": "uint256"
				}
			],
			"stateMutability": "view",
			"type": "function"
		}
	]
}