{
	"data": {
		"bytecode": {
			"linkReferences": {},
			"object": "60a0604052306080523480156200001557600080fd5b506200002062000026565b620000da565b7ff0c57e16840df040f15088dc2f81fe391c3923bec73e23a9662efc9c229c6a00805468010000000000000000900460ff1615620000775760405163f92ee8a960e01b815260040160405180910390fd5b80546001600160401b0390811614620000d75780546001600160401b0319166001600160401b0390811782556040519081527fc7f505b2f371ae2175ee4913f4499e1f2633a7b5936321eed1cdaeb6115181d29060200160405180910390a15b50565b608051613882620001046000396000818161204a0152818161207301526121b401526138826000f3fe6080604052600436106102285760003560e01c80638da5cb5b11610123578063b77de0c6116100ab578063c87b56dd1161006f578063c87b56dd146106bd578063cb71e0c0146106dd578063e985e9c5146106fd578063f2fde38b1461071d578063f93019101461073d57600080fd5b8063b77de0c614610610578063b88d4fde1461063d578063b9ac62f51461065d578063bb6ba5871461067d578063c4417aa21461069d57600080fd5b80639e2591dd116100f25780639e2591dd14610569578063a22cb46514610589578063a3d62e9c146105a9578063a895327b146105c9578063ad3cb1cc146105df57600080fd5b80638da5cb5b146104d7578063906571471461051457806395d89b41146105345780639b8d51b31461054957600080fd5b80632fe24d36116101b157806352d1902d1161017557806352d1902d1461042d5780636352211e1461045057806370a0823114610470578063715018a6146104905780637c772596146104a557600080fd5b80632fe24d361461039a5780633c3a8746146103ba57806342842e0e146103da5780634db85780146103fa5780634f1ef2861461041a57600080fd5b8063081812fc116101f8578063081812fc146102e4578063091d530e1461031c578063095ea7b31461032f5780631ae525191461034f57806323b872dd1461037a57600080fd5b8062f714ce1461023457806301f4fd231461025657806301ffc9a71461029257806306fdde03146102c257600080fd5b3661022f57005b600080fd5b34801561024057600080fd5b5061025461024f366004612a7a565b610752565b005b34801561026257600080fd5b50610276610271366004612aa6565b6108fa565b6040516102899796959493929190612b0f565b60405180910390f35b34801561029e57600080fd5b506102b26102ad366004612baa565b6109c6565b6040519015158152602001610289565b3480156102ce57600080fd5b506102d7610a18565b6040516102899190612bc7565b3480156102f057600080fd5b506103046102ff366004612aa6565b610abc565b6040516001600160a01b039091168152602001610289565b61025461032a366004612c9f565b610ad1565b34801561033b57600080fd5b5061025461034a366004612ce3565b610c6b565b34801561035b57600080fd5b5061036561012c81565b60405163ffffffff9091168152602001610289565b34801561038657600080fd5b50610254610395366004612d0d565b610c7a565b3480156103a657600080fd5b506102546103b5366004612d49565b610d05565b3480156103c657600080fd5b506102d76103d5366004612aa6565b610d1a565b3480156103e657600080fd5b506102546103f5366004612d0d565b610d67565b34801561040657600080fd5b50610254610415366004612dba565b610d82565b610254610428366004612e44565b610dac565b34801561043957600080fd5b50610442610dc7565b604051908152602001610289565b34801561045c57600080fd5b5061030461046b366004612aa6565b610de4565b34801561047c57600080fd5b5061044261048b366004612dba565b610def565b34801561049c57600080fd5b50610254610e4b565b3480156104b157600080fd5b506104c56104c0366004612e91565b610e5f565b60405160ff9091168152602001610289565b3480156104e357600080fd5b507f9016d09d72d40fdae2fd8ceac6b6234c7706214fd39c1cd1e609a0528c199300546001600160a01b0316610304565b34801561052057600080fd5b5061025461052f366004612ebc565b610f0e565b34801561054057600080fd5b506102d761104f565b34801561055557600080fd5b50610254610564366004612f7a565b61108e565b34801561057557600080fd5b50610442610584366004612aa6565b6115c3565b34801561059557600080fd5b506102546105a436600461303b565b611612565b3480156105b557600080fd5b506102b26105c4366004613083565b61161d565b3480156105d557600080fd5b5061044260015481565b3480156105eb57600080fd5b506102d7604051806040016040528060058152602001640352e302e360dc1b81525081565b34801561061c57600080fd5b5061044261062b366004612aa6565b60036020526000908152604090205481565b34801561064957600080fd5b50610254610658366004613108565b61180e565b34801561066957600080fd5b506102d7610678366004612aa6565b611825565b34801561068957600080fd5b50600054610304906001600160a01b031681565b3480156106a957600080fd5b506102546106b836600461316f565b6118e7565b3480156106c957600080fd5b506102d76106d8366004612aa6565b611990565b3480156106e957600080fd5b50600454610304906001600160a01b031681565b34801561070957600080fd5b506102b26107183660046131c8565b6119e1565b34801561072957600080fd5b50610254610738366004612dba565b611a2e565b34801561074957600080fd5b50610442600381565b61075a611a6c565b60008054906101000a90046001600160a01b03166001600160a01b031663c88eb8e96040518163ffffffff1660e01b8152600401602060405180830381865afa1580156107ab573d6000803e3d6000fd5b505050506040513d601f19601f820116820180604052508101906107cf91906131f2565b6108125760405162461bcd60e51b815260206004820152600f60248201526e1dda5d1a191c985dc81c185d5cd959608a1b60448201526064015b60405180910390fd5b478211156108595760405162461bcd60e51b8152602060048201526014602482015273496e73756666696369656e742062616c616e636560601b6044820152606401610809565b6000816001600160a01b03168360405160006040518083038185875af1925050503d80600081146108a6576040519150601f19603f3d011682016040523d82523d6000602084013e6108ab565b606091505b50509050806108f55760405162461bcd60e51b81526020600482015260166024820152753330b4b632b2103a37903932ba3ab9371022ba3432b960511b6044820152606401610809565b505050565b600081815260026020526040812060018101546060926001600160401b036401000000008304169263ffffffff9092169181908190869061093a89611825565b6001820154600283015460048401805460408051602080840282018101909252828152959d506001600160401b03600160601b860481169b50600160a01b9095049094169850919650918301828280156109b357602002820191906000526020600020905b81548152602001906001019080831161099f575b5050505050915050919395979092949650565b60006001600160e01b031982166380ac58cd60e01b14806109f757506001600160e01b03198216635b5e139f60e01b145b80610a1257506301ffc9a760e01b6001600160e01b03198316145b92915050565b6000805160206137e38339815191528054606091908190610a389061320f565b80601f0160208091040260200160405190810160405280929190818152602001828054610a649061320f565b8015610ab15780601f10610a8657610100808354040283529160200191610ab1565b820191906000526020600020905b815481529060010190602001808311610a9457829003601f168201915b505050505091505090565b6000610ac782611ac7565b50610a1282611aff565b60008181526003602052604090205480610b005760405162dd6ea960e21b815260048101839052602401610809565b600042815b8551811015610c3f576000610b32878381518110610b2557610b25613249565b6020026020010151611b39565b9050336001600160a01b03821614610b68576040516318256a9b60e01b81526001600160a01b0382166004820152602401610809565b610b728585613275565b9350610b7e8684613275565b60026000898581518110610b9457610b94613249565b6020026020010151815260200190815260200160002060010160146101000a8154816001600160401b0302191690836001600160401b031602179055507f65b1e0d6d94328d0b4d855f4f27e6bed1f470b13b2f89a86c1314723350af902878381518110610c0457610c04613249565b60200260200101518488604051610c2e939291909283526020830191909152604082015260600190565b60405180910390a150600101610b05565b5081341015610c645760405163620668f160e01b815260048101839052602401610809565b5050505050565b610c76828233611b73565b5050565b6001600160a01b038216610ca457604051633250574960e11b815260006004820152602401610809565b6000610cb1838333611b80565b9050836001600160a01b0316816001600160a01b031614610cff576040516364283d7b60e01b81526001600160a01b0380861660048301526024820184905282166044820152606401610809565b50505050565b610d0d611a6c565b60056108f58284836132d8565b60606000610d2783611c8a565b9050610d336009611fad565b610d3d6009611fad565b82604051602001610d5093929190613397565b604051602081830303815290604052915050919050565b6108f58383836040518060200160405280600081525061180e565b610d8a611a6c565b600080546001600160a01b0319166001600160a01b0392909216919091179055565b610db461203f565b610dbd826120e4565b610c7682826120ec565b6000610dd16121a9565b5060008051602061382d83398151915290565b6000610a1282611ac7565b60006000805160206137e38339815191526001600160a01b038316610e2a576040516322718ad960e21b815260006004820152602401610809565b6001600160a01b039092166000908152600390920160205250604090205490565b610e53611a6c565b610e5d60006121f2565b565b600080805b6009811015610ec05780600414158015610ea55750838160098110610e8b57610e8b613249565b602002016020810190610e9e919061340b565b60ff166001145b15610eb857610eb5600183613426565b91505b600101610e64565b508060ff16600203610ee357610edc60a084016080850161340b565b9392505050565b60018160ff16111580610efa575060048160ff1610155b610f05576001610edc565b60009392505050565b7ff0c57e16840df040f15088dc2f81fe391c3923bec73e23a9662efc9c229c6a008054600160401b810460ff1615906001600160401b0316600081158015610f535750825b90506000826001600160401b03166001148015610f6f5750303b155b905081158015610f7d575080155b15610f9b5760405163f92ee8a960e01b815260040160405180910390fd5b845467ffffffffffffffff191660011785558315610fc557845460ff60401b1916600160401b1785555b6040518060600160405280602a8152602001613803602a9139600590610feb908261343f565b50610ff68787612263565b610fff88612275565b831561104557845460ff60401b19168555604051600181527fc7f505b2f371ae2175ee4913f4499e1f2633a7b5936321eed1cdaeb6115181d29060200160405180910390a15b5050505050505050565b7f80bb2b638cc20bc4d0a60d66940f3ab4a00c1d7b313497ca82fb0b4ab007930180546060916000805160206137e383398151915291610a389061320f565b6000546001600160a01b031633146110e85760405162461bcd60e51b815260206004820152601b60248201527f53656e646572206973206e6f742063656c6c20636f6e747261637400000000006044820152606401610809565b60005b858110156112bb57600a87878381811061110757611107613249565b905060200281019061111991906134fe565b600181811061112a5761112a613249565b905060200201351080156111795750600087878381811061114d5761114d613249565b905060200281019061115f91906134fe565b600181811061117057611170613249565b90506020020135115b6111b65760405162461bcd60e51b815260206004820152600e60248201526d3837b9b4ba34b7b71032b93937b960911b6044820152606401610809565b60006111c3826001613275565b90505b868110156112b2578787828181106111e0576111e0613249565b90506020028101906111f291906134fe565b600181811061120357611203613249565b9050602002013588888481811061121c5761121c613249565b905060200281019061122e91906134fe565b600181811061123f5761123f613249565b90506020020135036112aa5760405162461bcd60e51b815260206004820152602e60248201527f54776f204e4654732063616e6e6f7420626520706c6163656420696e2074686560448201526d1039b0b6b2903837b9b4ba34b7b760911b6064820152608401610809565b6001016111c6565b506001016110eb565b5060018054600091826112cd83613547565b9091555060008181526002602081905260408220838155600181018054426001600160401b03908116600160601b0267ffffffffffffffff60601b194392909216640100000000029190911673ffffffffffffffffffffffffffffffff0000000019909216919091171790559081018b9055919250805b888110156115615760008a8a8381811061136057611360613249565b905060200281019061137291906134fe565b600081811061138357611383613249565b60048701805460018101825560009182526020808320930294909401359190930181905592508c90508b848181106113bd576113bd613249565b90506020028101906113cf91906134fe565b60018181106113e0576113e0613249565b905060200201359050600060036001836113fa9190613560565b6114049190613589565b61140f90600361359d565b905060006003611420600185613560565b61142a91906135b4565b61143590600361359d565b9050600080600061146f8f8f8a81811061145157611451613249565b90506020020135600781811692600383901c82169260061c90911690565b919450925090506000600361148586600961359d565b61148f9088613275565b61149a906051613560565b6114a49190613560565b600080805260038d0160205260409020805484831b17905590506114ec60006114ce600984613560565b600091825260038e01602052604090912080549186901b9091179055565b61151a60006114fc601284613560565b600091825260038e01602052604090912080549187901b9091179055565b8d8d8a81811061152c5761152c613249565b905060200201602081019061154191906135c8565b61154b908b6135ee565b9950506001909701965061134495505050505050565b5060018201805463ffffffff191663ffffffff83161790556115838b84612286565b6040518381527ff994dc8958bde118a9709516c43d92a97983863e9c77de1912a2e5bf78d6b7719060200160405180910390a15050505050505050505050565b60008181526002602052604081206001015464010000000090046001600160401b03168161012c60036115f68443613560565b611600919061359d565b61160a91906135b4565b949350505050565b610c763383836122eb565b6040805160c081018252600060608083018281526080840183905260a0840183905283528351808201855282815260208181018490528186018490528085019190915284519182018552828252810182905280840182905292820192909252815b60098110156116f45783816009811061169957611699613249565b602002015160ff16600114826003836116b291906135b4565b600381106116c2576116c2613249565b60200201516116d2600384613589565b600381106116e2576116e2613249565b9115156020909202015260010161167e565b506001806000805b60038160ff16101561178c5760005b60038160ff161015611783578460ff168260ff1614801561173157508360ff168160ff16145b61177b57858260ff166003811061174a5761174a613249565b60200201518160ff166003811061176357611763613249565b60200201511561177b578261177781613612565b9350505b60010161170b565b506001016116fc565b50838360ff16600381106117a2576117a2613249565b60200201518260ff16600381106117bb576117bb613249565b6020020151156117f7578060ff16600214806117da57508060ff166003145b156117eb5750600195945050505050565b50600095945050505050565b8060ff166003036117eb5750600195945050505050565b611819848484610c7a565b610cff8484848461239c565b6000818152600260205260409020606090816051805b80156118dd576000611878611851600184613560565b600881901c6000908152600388016020526040902054600160ff9092169190911b16151590565b905080156118a757836040516020016118919190613631565b60405160208183030381529060405293506118ca565b836040516020016118b89190613656565b60405160208183030381529060405293505b50806118d58161367b565b91505061183b565b5090949350505050565b6118ef611a6c565b80518251146119315760405162461bcd60e51b815260206004820152600e60248201526d696e76616c696420706172616d7360901b6044820152606401610809565b60005b82518110156108f55781818151811061194f5761194f613249565b60200260200101516003600085848151811061196d5761196d613249565b602090810291909101810151825281019190915260400160002055600101611934565b606061199b82611ac7565b5060006119a66124be565b905060008151116119c65760405180602001604052806000815250610edc565b806119d084611fad565b604051602001610d50929190613692565b6001600160a01b0391821660009081527f80bb2b638cc20bc4d0a60d66940f3ab4a00c1d7b313497ca82fb0b4ab00793056020908152604080832093909416825291909152205460ff1690565b611a36611a6c565b6001600160a01b038116611a6057604051631e4fbdf760e01b815260006004820152602401610809565b611a69816121f2565b50565b33611a9e7f9016d09d72d40fdae2fd8ceac6b6234c7706214fd39c1cd1e609a0528c199300546001600160a01b031690565b6001600160a01b031614610e5d5760405163118cdaa760e01b8152336004820152602401610809565b600080611ad383611b39565b90506001600160a01b038116610a1257604051637e27328960e01b815260048101849052602401610809565b60009081527f80bb2b638cc20bc4d0a60d66940f3ab4a00c1d7b313497ca82fb0b4ab007930460205260409020546001600160a01b031690565b60009081527f80bb2b638cc20bc4d0a60d66940f3ab4a00c1d7b313497ca82fb0b4ab007930260205260409020546001600160a01b031690565b6108f58383836001612550565b60006000805160206137e383398151915281611b9b85611b39565b90506001600160a01b03841615611bb757611bb7818587612666565b6001600160a01b03811615611bf757611bd4600086600080612550565b6001600160a01b0381166000908152600383016020526040902080546000190190555b6001600160a01b03861615611c28576001600160a01b03861660009081526003830160205260409020805460010190555b600085815260028301602052604080822080546001600160a01b0319166001600160a01b038a811691821790925591518893918516917fddf252ad1be2c89b69c2b068fc378daa952ba7f163c4a11628f55a4df523b3ef91a495945050505050565b600081815260026020526040808220815160098082526101408201909352606093919291829182816020015b6060815260200190600190039081611cb657905050905060005b82811015611df957836001600160401b03811115611cf057611cf0612bda565b604051908082528060200260200182016040528015611d19578160200160208202803683370190505b50828281518110611d2c57611d2c613249565b602002602001018190525060005b84811015611df057611da1600182611d52888661359d565b611d5c9190613275565b611d66878961359d565b611d709190613560565b611d7a9190613560565b600881901c6000908152600389016020526040902054600160ff9092169190911b16151590565b611dac576000611daf565b60015b60ff16838381518110611dc457611dc4613249565b60200260200101518281518110611ddd57611ddd613249565b6020908102919091010152600101611d3a565b50600101611cd0565b50604080516020810190915260008082525b83811015611fa2576000838281518110611e2757611e27613249565b6020026020010151600081518110611e4157611e41613249565b602002602001015190506000805b87811015611f27576000868581518110611e6b57611e6b613249565b60200260200101518281518110611e8457611e84613249565b60200260200101519050838103611ea75782611e9f81613547565b935050611f1e565b85611eb184611fad565b85600114611ed857604051806040016040528060018152602001603160f91b815250611ef3565b604051806040016040528060018152602001606f60f81b8152505b604051602001611f05939291906136c1565b6040516020818303038152906040529550809350600192505b50600101611e4f565b5083611f3282611fad565b83600114611f5957604051806040016040528060018152602001603160f91b815250611f74565b604051806040016040528060018152602001606f60f81b8152505b604051602001611f8693929190613704565b60408051808303601f1901815291905293505050600101611e0b565b509695505050505050565b60606000611fba836126ca565b60010190506000816001600160401b03811115611fd957611fd9612bda565b6040519080825280601f01601f191660200182016040528015612003576020820181803683370190505b5090508181016020015b600019016f181899199a1a9b1b9c1cb0b131b232b360811b600a86061a8153600a850494508461200d57509392505050565b306001600160a01b037f00000000000000000000000000000000000000000000000000000000000000001614806120c657507f00000000000000000000000000000000000000000000000000000000000000006001600160a01b03166120ba60008051602061382d833981519152546001600160a01b031690565b6001600160a01b031614155b15610e5d5760405163703e46dd60e11b815260040160405180910390fd5b611a69611a6c565b816001600160a01b03166352d1902d6040518163ffffffff1660e01b8152600401602060405180830381865afa925050508015612146575060408051601f3d908101601f1916820190925261214391810190613753565b60015b61216e57604051634c9c8ce360e01b81526001600160a01b0383166004820152602401610809565b60008051602061382d833981519152811461219f57604051632a87526960e21b815260048101829052602401610809565b6108f583836127a2565b306001600160a01b037f00000000000000000000000000000000000000000000000000000000000000001614610e5d5760405163703e46dd60e11b815260040160405180910390fd5b7f9016d09d72d40fdae2fd8ceac6b6234c7706214fd39c1cd1e609a0528c19930080546001600160a01b031981166001600160a01b03848116918217845560405192169182907f8be0079c531659141344cd1fd0a4f28419497f9722a3daafe3b4186f6b6457e090600090a3505050565b61226b6127f8565b610c768282612841565b61227d6127f8565b611a6981612872565b6001600160a01b0382166122b057604051633250574960e11b815260006004820152602401610809565b60006122be83836000611b80565b90506001600160a01b038116156108f5576040516339e3563760e11b815260006004820152602401610809565b6000805160206137e38339815191526001600160a01b03831661232c57604051630b61174360e31b81526001600160a01b0384166004820152602401610809565b6001600160a01b038481166000818152600584016020908152604080832094881680845294825291829020805460ff191687151590811790915591519182527f17307eab39ab6107e8899845ad3d59bd9653f200f220920489ca2b5937696c31910160405180910390a350505050565b6001600160a01b0383163b15610cff57604051630a85bd0160e11b81526001600160a01b0384169063150b7a02906123de90339088908790879060040161376c565b6020604051808303816000875af1925050508015612419575060408051601f3d908101601f19168201909252612416918101906137a9565b60015b612482573d808015612447576040519150601f19603f3d011682016040523d82523d6000602084013e61244c565b606091505b50805160000361247a57604051633250574960e11b81526001600160a01b0385166004820152602401610809565b805181602001fd5b6001600160e01b03198116630a85bd0160e11b14610c6457604051633250574960e11b81526001600160a01b0385166004820152602401610809565b6060600580546124cd9061320f565b80601f01602080910402602001604051908101604052809291908181526020018280546124f99061320f565b80156125465780601f1061251b57610100808354040283529160200191612546565b820191906000526020600020905b81548152906001019060200180831161252957829003601f168201915b5050505050905090565b6000805160206137e3833981519152818061257357506001600160a01b03831615155b1561263557600061258385611ac7565b90506001600160a01b038416158015906125af5750836001600160a01b0316816001600160a01b031614155b80156125c257506125c081856119e1565b155b156125eb5760405163a9fbf51f60e01b81526001600160a01b0385166004820152602401610809565b82156126335784866001600160a01b0316826001600160a01b03167f8c5be1e5ebec7d5bd14f71427d1e84f3dd0314c0f7b2291e5b200ac8c7c3b92560405160405180910390a45b505b600093845260040160205250506040902080546001600160a01b0319166001600160a01b0392909216919091179055565b61267183838361287a565b6108f5576001600160a01b03831661269f57604051637e27328960e01b815260048101829052602401610809565b60405163177e802f60e01b81526001600160a01b038316600482015260248101829052604401610809565b60008072184f03e93ff9f4daa797ed6e38ed64bf6a1f0160401b83106127095772184f03e93ff9f4daa797ed6e38ed64bf6a1f0160401b830492506040015b6d04ee2d6d415b85acef81000000008310612735576d04ee2d6d415b85acef8100000000830492506020015b662386f26fc10000831061275357662386f26fc10000830492506010015b6305f5e100831061276b576305f5e100830492506008015b612710831061277f57612710830492506004015b60648310612791576064830492506002015b600a8310610a125760010192915050565b6127ab826128df565b6040516001600160a01b038316907fbc7cd75a20ee27fd9adebab32041f755214dbc6bffa90cc0225b39da2e5c2d3b90600090a28051156127f0576108f58282612944565b610c766129ba565b7ff0c57e16840df040f15088dc2f81fe391c3923bec73e23a9662efc9c229c6a0054600160401b900460ff16610e5d57604051631afcd79f60e31b815260040160405180910390fd5b6128496127f8565b6000805160206137e383398151915280612863848261343f565b5060018101610cff838261343f565b611a366127f8565b60006001600160a01b0383161580159061160a5750826001600160a01b0316846001600160a01b031614806128b457506128b484846119e1565b8061160a5750826001600160a01b03166128cd83611aff565b6001600160a01b031614949350505050565b806001600160a01b03163b60000361291557604051634c9c8ce360e01b81526001600160a01b0382166004820152602401610809565b60008051602061382d83398151915280546001600160a01b0319166001600160a01b0392909216919091179055565b6060600080846001600160a01b03168460405161296191906137c6565b600060405180830381855af49150503d806000811461299c576040519150601f19603f3d011682016040523d82523d6000602084013e6129a1565b606091505b50915091506129b18583836129d9565b95945050505050565b3415610e5d5760405163b398979f60e01b815260040160405180910390fd5b6060826129ee576129e982612a35565b610edc565b8151158015612a0557506001600160a01b0384163b155b15612a2e57604051639996b31560e01b81526001600160a01b0385166004820152602401610809565b5080610edc565b805115612a455780518082602001fd5b604051630a12f52160e11b815260040160405180910390fd5b80356001600160a01b0381168114612a7557600080fd5b919050565b60008060408385031215612a8d57600080fd5b82359150612a9d60208401612a5e565b90509250929050565b600060208284031215612ab857600080fd5b5035919050565b60005b83811015612ada578181015183820152602001612ac2565b50506000910152565b60008151808452612afb816020860160208601612abf565b601f01601f19169290920160200192915050565b60e081526000612b2260e083018a612ae3565b60208381018a9052604084018990526001600160401b0388811660608601528716608085015260a0840186905283820360c085015284518083528582019282019060005b81811015612b8257845183529383019391830191600101612b66565b50909c9b505050505050505050505050565b6001600160e01b031981168114611a6957600080fd5b600060208284031215612bbc57600080fd5b8135610edc81612b94565b602081526000610edc6020830184612ae3565b634e487b7160e01b600052604160045260246000fd5b604051601f8201601f191681016001600160401b0381118282101715612c1857612c18612bda565b604052919050565b600082601f830112612c3157600080fd5b813560206001600160401b03821115612c4c57612c4c612bda565b8160051b612c5b828201612bf0565b9283528481018201928281019087851115612c7557600080fd5b83870192505b84831015612c9457823582529183019190830190612c7b565b979650505050505050565b60008060408385031215612cb257600080fd5b82356001600160401b03811115612cc857600080fd5b612cd485828601612c20565b95602094909401359450505050565b60008060408385031215612cf657600080fd5b612cff83612a5e565b946020939093013593505050565b600080600060608486031215612d2257600080fd5b612d2b84612a5e565b9250612d3960208501612a5e565b9150604084013590509250925092565b60008060208385031215612d5c57600080fd5b82356001600160401b0380821115612d7357600080fd5b818501915085601f830112612d8757600080fd5b813581811115612d9657600080fd5b866020828501011115612da857600080fd5b60209290920196919550909350505050565b600060208284031215612dcc57600080fd5b610edc82612a5e565b600082601f830112612de657600080fd5b81356001600160401b03811115612dff57612dff612bda565b612e12601f8201601f1916602001612bf0565b818152846020838601011115612e2757600080fd5b816020850160208301376000918101602001919091529392505050565b60008060408385031215612e5757600080fd5b612e6083612a5e565b915060208301356001600160401b03811115612e7b57600080fd5b612e8785828601612dd5565b9150509250929050565b6000610120808385031215612ea557600080fd5b838184011115612eb457600080fd5b509092915050565b600080600060608486031215612ed157600080fd5b612eda84612a5e565b925060208401356001600160401b0380821115612ef657600080fd5b612f0287838801612dd5565b93506040860135915080821115612f1857600080fd5b50612f2586828701612dd5565b9150509250925092565b60008083601f840112612f4157600080fd5b5081356001600160401b03811115612f5857600080fd5b6020830191508360208260051b8501011115612f7357600080fd5b9250929050565b60008060008060008060008060a0898b031215612f9657600080fd5b612f9f89612a5e565b97506020890135965060408901356001600160401b0380821115612fc257600080fd5b612fce8c838d01612f2f565b909850965060608b0135915080821115612fe757600080fd5b612ff38c838d01612f2f565b909650945060808b013591508082111561300c57600080fd5b506130198b828c01612f2f565b999c989b5096995094979396929594505050565b8015158114611a6957600080fd5b6000806040838503121561304e57600080fd5b61305783612a5e565b915060208301356130678161302d565b809150509250929050565b803560ff81168114612a7557600080fd5b600061012080838503121561309757600080fd5b83601f8401126130a657600080fd5b6040518181018181106001600160401b03821117156130c7576130c7612bda565b6040529083019080858311156130dc57600080fd5b845b838110156130fd576130ef81613072565b8252602091820191016130de565b509095945050505050565b6000806000806080858703121561311e57600080fd5b61312785612a5e565b935061313560208601612a5e565b92506040850135915060608501356001600160401b0381111561315757600080fd5b61316387828801612dd5565b91505092959194509250565b6000806040838503121561318257600080fd5b82356001600160401b038082111561319957600080fd5b6131a586838701612c20565b935060208501359150808211156131bb57600080fd5b50612e8785828601612c20565b600080604083850312156131db57600080fd5b6131e483612a5e565b9150612a9d60208401612a5e565b60006020828403121561320457600080fd5b8151610edc8161302d565b600181811c9082168061322357607f821691505b60208210810361324357634e487b7160e01b600052602260045260246000fd5b50919050565b634e487b7160e01b600052603260045260246000fd5b634e487b7160e01b600052601160045260246000fd5b80820180821115610a1257610a1261325f565b601f8211156108f5576000816000526020600020601f850160051c810160208610156132b15750805b601f850160051c820191505b818110156132d0578281556001016132bd565b505050505050565b6001600160401b038311156132ef576132ef612bda565b613303836132fd835461320f565b83613288565b6000601f841160018114613337576000851561331f5750838201355b600019600387901b1c1916600186901b178355610c64565b600083815260209020601f19861690835b828110156133685786850135825560209485019460019092019101613348565b50868210156133855760001960f88860031b161c19848701351681555b505060018560011b0183555050505050565b6303c101e960e51b8152600084516133b6816004850160208901612abf565b65016103c901e960d51b60049184019182015284516133dc81600a840160208901612abf565b600560f91b600a929091019182015283516133fe81600b840160208801612abf565b01600b0195945050505050565b60006020828403121561341d57600080fd5b610edc82613072565b60ff8181168382160190811115610a1257610a1261325f565b81516001600160401b0381111561345857613458612bda565b61346c81613466845461320f565b84613288565b602080601f8311600181146134a157600084156134895750858301515b600019600386901b1c1916600185901b1785556132d0565b600085815260208120601f198616915b828110156134d0578886015182559484019460019091019084016134b1565b50858210156134ee5787850151600019600388901b60f8161c191681555b5050505050600190811b01905550565b6000808335601e1984360301811261351557600080fd5b8301803591506001600160401b0382111561352f57600080fd5b6020019150600581901b3603821315612f7357600080fd5b6000600182016135595761355961325f565b5060010190565b81810381811115610a1257610a1261325f565b634e487b7160e01b600052601260045260246000fd5b60008261359857613598613573565b500690565b8082028115828204841417610a1257610a1261325f565b6000826135c3576135c3613573565b500490565b6000602082840312156135da57600080fd5b813563ffffffff81168114610edc57600080fd5b63ffffffff81811683821601908082111561360b5761360b61325f565b5092915050565b600060ff821660ff81036136285761362861325f565b60010192915050565b60008251613643818460208701612abf565b603160f81b920191825250600101919050565b60008251613668818460208701612abf565b600360fc1b920191825250600101919050565b60008161368a5761368a61325f565b506000190190565b600083516136a4818460208801612abf565b8351908301906136b8818360208801612abf565b01949350505050565b600084516136d3818460208901612abf565b8451908301906136e7818360208901612abf565b84519101906136fa818360208801612abf565b0195945050505050565b60008451613716818460208901612abf565b84519083019061372a818360208901612abf565b845191019061373d818360208801612abf565b600960fa1b910190815260010195945050505050565b60006020828403121561376557600080fd5b5051919050565b6001600160a01b038581168252841660208201526040810183905260806060820181905260009061379f90830184612ae3565b9695505050505050565b6000602082840312156137bb57600080fd5b8151610edc81612b94565b600082516137d8818460208701612abf565b919091019291505056fe80bb2b638cc20bc4d0a60d66940f3ab4a00c1d7b313497ca82fb0b4ab007930068747470733a2f2f666163746f72796170692e63656c6c756c612e6c6966652f6c696665546f6b656e2f360894a13ba1a3210667c828492db98dca3e2076cc3735a920a3ca505d382bbca26469706673582212203216f8091190ecf99a02fbf710454ac3ec1b85e0d6e98554671001fc42ea4dcb64736f6c63430008170033",
			"opcodes": "PUSH1 0xA0 PUSH1 0x40 MSTORE ADDRESS PUSH1 0x80 MSTORE CALLVALUE DUP1 ISZERO PUSH3 0x15 JUMPI PUSH1 0x0 DUP1 REVERT JUMPDEST POP PUSH3 0x20 PUSH3 0x26 JUMP JUMPDEST PUSH3 0xDA JUMP JUMPDEST PUSH32 0xF0C57E16840DF040F15088DC2F81FE391C3923BEC73E23A9662EFC9C229C6A00 DUP1 SLOAD PUSH9 0x10000000000000000 SWAP1 DIV PUSH1 0xFF AND ISZERO PUSH3 0x77 JUMPI PUSH1 0x40 MLOAD PUSH4 0xF92EE8A9 PUSH1 0xE0 SHL DUP2 MSTORE PUSH1 0x4 ADD PUSH1 0x40 MLOAD DUP1 SWAP2 SUB SWAP1 REVERT JUMPDEST DUP1 SLOAD PUSH1 0x1 PUSH1 0x1 PUSH1 0x40 SHL SUB SWAP1 DUP2 AND EQ PUSH3 0xD7 JUMPI DUP1 SLOAD PUSH1 0x1 PUSH1 0x1 PUSH1 0x40 SHL SUB NOT AND PUSH1 0x1 PUSH1 0x1 PUSH1 0x40 SHL SUB SWAP1 DUP2 OR DUP3 SSTORE PUSH1 0x40 MLOAD SWAP1 DUP2 MSTORE PUSH32 0xC7F505B2F371AE2175EE4913F4499E1F2633A7B5936321EED1CDAEB6115181D2 SWAP1 PUSH1 0x20 ADD PUSH1 0x40 MLOAD DUP1 SWAP2 SUB SWAP1 LOG1 JUMPDEST POP JUMP JUMPDEST PUSH1 0x80 MLOAD PUSH2 0x3882 PUSH3 0x104 PUSH1 0x0 CODECOPY PUSH1 0x0 DUP2 DUP2 PUSH2 0x204A ADD MSTORE DUP2 DUP2 PUSH2 0x2073 ADD MSTORE PUSH2 0x21B4 ADD MSTORE PUSH2 0x3882 PUSH1 0x0 RETURN INVALID PUSH1 0x80 PUSH1 0x40 MSTORE PUSH1 0x4 CALLDATASIZE LT PUSH2 0x228 JUMPI PUSH1 0x0 CALLDATALOAD PUSH1 0xE0 SHR DUP1 PUSH4 0x8DA5CB5B GT PUSH2 0x123 JUMPI DUP1 PUSH4 0xB77DE0C6 GT PUSH2 0xAB JUMPI DUP1 PUSH4 0xC87B56DD GT PUSH2 0x6F JUMPI DUP1 PUSH4 0xC87B56DD EQ PUSH2 0x6BD JUMPI DUP1 PUSH4 0xCB71E0C0 EQ PUSH2 0x6DD JUMPI DUP1 PUSH4 0xE985E9C5 EQ PUSH2 0x6FD JUMPI DUP1 PUSH4 0xF2FDE38B EQ PUSH2 0x71D JUMPI DUP1 PUSH4 0xF9301910 EQ PUSH2 0x73D JUMPI PUSH1 0x0 DUP1 REVERT JUMPDEST DUP1 PUSH4 0xB77DE0C6 EQ PUSH2 0x610 JUMPI DUP1 PUSH4 0xB88D4FDE EQ PUSH2 0x63D JUMPI DUP1 PUSH4 0xB9AC62F5 EQ PUSH2 0x65D JUMPI DUP1 PUSH4 0xBB6BA587 EQ PUSH2 0x67D JUMPI DUP1 PUSH4 0xC4417AA2 EQ PUSH2 0x69D JUMPI PUSH1 0x0 DUP1 REVERT JUMPDEST DUP1 PUSH4 0x9E2591DD GT PUSH2 0xF2 JUMPI DUP1 PUSH4 0x9E2591DD EQ PUSH2 0x569 JUMPI DUP1 PUSH4 0xA22CB465 EQ PUSH2 0x589 JUMPI DUP1 PUSH4 0xA3D62E9C EQ PUSH2 0x5A9 JUMPI DUP1 PUSH4 0xA895327B EQ PUSH2 0x5C9 JUMPI DUP1 PUSH4 0xAD3CB1CC EQ PUSH2 0x5DF JUMPI PUSH1 0x0 DUP1 REVERT JUMPDEST DUP1 PUSH4 0x8DA5CB5B EQ PUSH2 0x4D7 JUMPI DUP1 PUSH4 0x90657147 EQ PUSH2 0x514 JUMPI DUP1 PUSH4 0x95D89B41 EQ PUSH2 0x534 JUMPI DUP1 PUSH4 0x9B8D51B3 EQ PUSH2 0x549 JUMPI PUSH1 0x0 DUP1 REVERT JUMPDEST DUP1 PUSH4 0x2FE24D36 GT PUSH2 0x1B1 JUMPI DUP1 PUSH4 0x52D1902D GT PUSH2 0x175 JUMPI DUP1 PUSH4 0x52D1902D EQ PUSH2 0x42D JUMPI DUP1 PUSH4 0x6352211E EQ PUSH2 0x450 JUMPI DUP1 PUSH4 0x70A08231 EQ PUSH2 0x470 JUMPI DUP1 PUSH4 0x715018A6 EQ PUSH2 0x490 JUMPI DUP1 PUSH4 0x7C772596 EQ PUSH2 0x4A5 JUMPI PUSH1 0x0 DUP1 REVERT JUMPDEST DUP1 PUSH4 0x2FE24D36 EQ PUSH2 0x39A JUMPI DUP1 PUSH4 0x3C3A8746 EQ PUSH2 0x3BA JUMPI DUP1 PUSH4 0x42842E0E EQ PUSH2 0x3DA JUMPI DUP1 PUSH4 0x4DB85780 EQ PUSH2 0x3FA JUMPI DUP1 PUSH4 0x4F1EF286 EQ PUSH2 0x41A JUMPI PUSH1 0x0 DUP1 REVERT JUMPDEST DUP1 PUSH4 0x81812FC GT PUSH2 0x1F8 JUMPI DUP1 PUSH4 0x81812FC EQ PUSH2 0x2E4 JUMPI DUP1 PUSH4 0x91D530E EQ PUSH2 0x31C JUMPI DUP1 PUSH4 0x95EA7B3 EQ PUSH2 0x32F JUMPI DUP1 PUSH4 0x1AE52519 EQ PUSH2 0x34F JUMPI DUP1 PUSH4 0x23B872DD EQ PUSH2 0x37A JUMPI PUSH1 0x0 DUP1 REVERT JUMPDEST DUP1 PUSH3 0xF714CE EQ PUSH2 0x234 JUMPI DUP1 PUSH4 0x1F4FD23 EQ PUSH2 0x256 JUMPI DUP1 PUSH4 0x1FFC9A7 EQ PUSH2 0x292 JUMPI DUP1 PUSH4 0x6FDDE03 EQ PUSH2 0x2C2 JUMPI PUSH1 0x0 DUP1 REVERT JUMPDEST CALLDATASIZE PUSH2 0x22F JUMPI STOP JUMPDEST PUSH1 0x0 DUP1 REVERT JUMPDEST CALLVALUE DUP1 ISZERO PUSH2 0x240 JUMPI PUSH1 0x0 DUP1 REVERT JUMPDEST POP PUSH2 0x254 PUSH2 0x24F CALLDATASIZE PUSH1 0x4 PUSH2 0x2A7A JUMP JUMPDEST PUSH2 0x752 JUMP JUMPDEST STOP JUMPDEST CALLVALUE DUP1 ISZERO PUSH2 0x262 JUMPI PUSH1 0x0 DUP1 REVERT JUMPDEST POP PUSH2 0x276 PUSH2 0x271 CALLDATASIZE PUSH1 0x4 PUSH2 0x2AA6 JUMP JUMPDEST PUSH2 0x8FA JUMP JUMPDEST PUSH1 0x40 MLOAD PUSH2 0x289 SWAP8 SWAP7 SWAP6 SWAP5 SWAP4 SWAP3 SWAP2 SWAP1 PUSH2 0x2B0F JUMP JUMPDEST PUSH1 0x40 MLOAD DUP1 SWAP2 SUB SWAP1 RETURN JUMPDEST CALLVALUE DUP1 ISZERO PUSH2 0x29E JUMPI PUSH1 0x0 DUP1 REVERT JUMPDEST POP PUSH2 0x2B2 PUSH2 0x2AD CALLDATASIZE PUSH1 0x4 PUSH2 0x2BAA JUMP JUMPDEST PUSH2 0x9C6 JUMP JUMPDEST PUSH1 0x40 MLOAD SWAP1 ISZERO ISZERO DUP2 MSTORE PUSH1 0x20 ADD PUSH2 0x289 JUMP JUMPDEST CALLVALUE DUP1 ISZERO PUSH2 0x2CE JUMPI PUSH1 0x0 DUP1 REVERT JUMPDEST POP PUSH2 0x2D7 PUSH2 0xA18 JUMP JUMPDEST PUSH1 0x40 MLOAD PUSH2 0x289 SWAP2 SWAP1 PUSH2 0x2BC7 JUMP JUMPDEST CALLVALUE DUP1 ISZERO PUSH2 0x2F0 JUMPI PUSH1 0x0 DUP1 REVERT JUMPDEST POP PUSH2 0x304 PUSH2 0x2FF CALLDATASIZE PUSH1 0x4 PUSH2 0x2AA6 JUMP JUMPDEST PUSH2 0xABC JUMP JUMPDEST PUSH1 0x40 MLOAD PUSH1 0x1 PUSH1 0x1 PUSH1 0xA0 SHL SUB SWAP1 SWAP2 AND DUP2 MSTORE PUSH1 0x20 ADD PUSH2 0x289 JUMP JUMPDEST PUSH2 0x254 PUSH2 0x32A CALLDATASIZE PUSH1 0x4 PUSH2 0x2C9F JUMP JUMPDEST PUSH2 0xAD1 JUMP JUMPDEST CALLVALUE DUP1 ISZERO PUSH2 0x33B JUMPI PUSH1 0x0 DUP1 REVERT JUMPDEST POP PUSH2 0x254 PUSH2 0x34A CALLDATASIZE PUSH1 0x4 PUSH2 0x2CE3 JUMP JUMPDEST PUSH2 0xC6B JUMP JUMPDEST CALLVALUE DUP1 ISZERO PUSH2 0x35B JUMPI PUSH1 0x0 DUP1 REVERT JUMPDEST POP PUSH2 0x365 PUSH2 0x12C DUP2 JUMP JUMPDEST PUSH1 0x40 MLOAD PUSH4 0xFFFFFFFF SWAP1 SWAP2 AND DUP2 MSTORE PUSH1 0x20 ADD PUSH2 0x289 JUMP JUMPDEST CALLVALUE DUP1 ISZERO PUSH2 0x386 JUMPI PUSH1 0x0 DUP1 REVERT JUMPDEST POP PUSH2 0x254 PUSH2 0x395 CALLDATASIZE PUSH1 0x4 PUSH2 0x2D0D JUMP JUMPDEST PUSH2 0xC7A JUMP JUMPDEST CALLVALUE DUP1 ISZERO PUSH2 0x3A6 JUMPI PUSH1 0x0 DUP1 REVERT JUMPDEST POP PUSH2 0x254 PUSH2 0x3B5 CALLDATASIZE PUSH1 0x4 PUSH2 0x2D49 JUMP JUMPDEST PUSH2 0xD05 JUMP JUMPDEST CALLVALUE DUP1 ISZERO PUSH2 0x3C6 JUMPI PUSH1 0x0 DUP1 REVERT JUMPDEST POP PUSH2 0x2D7 PUSH2 0x3D5 CALLDATASIZE PUSH1 0x4 PUSH2 0x2AA6 JUMP JUMPDEST PUSH2 0xD1A JUMP JUMPDEST CALLVALUE DUP1 ISZERO PUSH2 0x3E6 JUMPI PUSH1 0x0 DUP1 REVERT JUMPDEST POP PUSH2 0x254 PUSH2 0x3F5 CALLDATASIZE PUSH1 0x4 PUSH2 0x2D0D JUMP JUMPDEST PUSH2 0xD67 JUMP JUMPDEST CALLVALUE DUP1 ISZERO PUSH2 0x406 JUMPI PUSH1 0x0 DUP1 REVERT JUMPDEST POP PUSH2 0x254 PUSH2 0x415 CALLDATASIZE PUSH1 0x4 PUSH2 0x2DBA JUMP JUMPDEST PUSH2 0xD82 JUMP JUMPDEST PUSH2 0x254 PUSH2 0x428 CALLDATASIZE PUSH1 0x4 PUSH2 0x2E44 JUMP JUMPDEST PUSH2 0xDAC JUMP JUMPDEST CALLVALUE DUP1 ISZERO PUSH2 0x439 JUMPI PUSH1 0x0 DUP1 REVERT JUMPDEST POP PUSH2 0x442 PUSH2 0xDC7 JUMP JUMPDEST PUSH1 0x40 MLOAD SWAP1 DUP2 MSTORE PUSH1 0x20 ADD PUSH2 0x289 JUMP JUMPDEST CALLVALUE DUP1 ISZERO PUSH2 0x45C JUMPI PUSH1 0x0 DUP1 REVERT JUMPDEST POP PUSH2 0x304 PUSH2 0x46B CALLDATASIZE PUSH1 0x4 PUSH2 0x2AA6 JUMP JUMPDEST PUSH2 0xDE4 JUMP JUMPDEST CALLVALUE DUP1 ISZERO PUSH2 0x47C JUMPI PUSH1 0x0 DUP1 REVERT JUMPDEST POP PUSH2 0x442 PUSH2 0x48B CALLDATASIZE PUSH1 0x4 PUSH2 0x2DBA JUMP JUMPDEST PUSH2 0xDEF JUMP JUMPDEST CALLVALUE DUP1 ISZERO PUSH2 0x49C JUMPI PUSH1 0x0 DUP1 REVERT JUMPDEST POP PUSH2 0x254 PUSH2 0xE4B JUMP JUMPDEST CALLVALUE DUP1 ISZERO PUSH2 0x4B1 JUMPI PUSH1 0x0 DUP1 REVERT JUMPDEST POP PUSH2 0x4C5 PUSH2 0x4C0 CALLDATASIZE PUSH1 0x4 PUSH2 0x2E91 JUMP JUMPDEST PUSH2 0xE5F JUMP JUMPDEST PUSH1 0x40 MLOAD PUSH1 0xFF SWAP1 SWAP2 AND DUP2 MSTORE PUSH1 0x20 ADD PUSH2 0x289 JUMP JUMPDEST CALLVALUE DUP1 ISZERO PUSH2 0x4E3 JUMPI PUSH1 0x0 DUP1 REVERT JUMPDEST POP PUSH32 0x9016D09D72D40FDAE2FD8CEAC6B6234C7706214FD39C1CD1E609A0528C199300 SLOAD PUSH1 0x1 PUSH1 0x1 PUSH1 0xA0 SHL SUB AND PUSH2 0x304 JUMP JUMPDEST CALLVALUE DUP1 ISZERO PUSH2 0x520 JUMPI PUSH1 0x0 DUP1 REVERT JUMPDEST POP PUSH2 0x254 PUSH2 0x52F CALLDATASIZE PUSH1 0x4 PUSH2 0x2EBC JUMP JUMPDEST PUSH2 0xF0E JUMP JUMPDEST CALLVALUE DUP1 ISZERO PUSH2 0x540 JUMPI PUSH1 0x0 DUP1 REVERT JUMPDEST POP PUSH2 0x2D7 PUSH2 0x104F JUMP JUMPDEST CALLVALUE DUP1 ISZERO PUSH2 0x555 JUMPI PUSH1 0x0 DUP1 REVERT JUMPDEST POP PUSH2 0x254 PUSH2 0x564 CALLDATASIZE PUSH1 0x4 PUSH2 0x2F7A JUMP JUMPDEST PUSH2 0x108E JUMP JUMPDEST CALLVALUE DUP1 ISZERO PUSH2 0x575 JUMPI PUSH1 0x0 DUP1 REVERT JUMPDEST POP PUSH2 0x442 PUSH2 0x584 CALLDATASIZE PUSH1 0x4 PUSH2 0x2AA6 JUMP JUMPDEST PUSH2 0x15C3 JUMP JUMPDEST CALLVALUE DUP1 ISZERO PUSH2 0x595 JUMPI PUSH1 0x0 DUP1 REVERT JUMPDEST POP PUSH2 0x254 PUSH2 0x5A4 CALLDATASIZE PUSH1 0x4 PUSH2 0x303B JUMP JUMPDEST PUSH2 0x1612 JUMP JUMPDEST CALLVALUE DUP1 ISZERO PUSH2 0x5B5 JUMPI PUSH1 0x0 DUP1 REVERT JUMPDEST POP PUSH2 0x2B2 PUSH2 0x5C4 CALLDATASIZE PUSH1 0x4 PUSH2 0x3083 JUMP JUMPDEST PUSH2 0x161D JUMP JUMPDEST CALLVALUE DUP1 ISZERO PUSH2 0x5D5 JUMPI PUSH1 0x0 DUP1 REVERT JUMPDEST POP PUSH2 0x442 PUSH1 0x1 SLOAD DUP2 JUMP JUMPDEST CALLVALUE DUP1 ISZERO PUSH2 0x5EB JUMPI PUSH1 0x0 DUP1 REVERT JUMPDEST POP PUSH2 0x2D7 PUSH1 0x40 MLOAD DUP1 PUSH1 0x40 ADD PUSH1 0x40 MSTORE DUP1 PUSH1 0x5 DUP2 MSTORE PUSH1 0x20 ADD PUSH5 0x352E302E3 PUSH1 0xDC SHL DUP2 MSTORE POP DUP2 JUMP JUMPDEST CALLVALUE DUP1 ISZERO PUSH2 0x61C JUMPI PUSH1 0x0 DUP1 REVERT JUMPDEST POP PUSH2 0x442 PUSH2 0x62B CALLDATASIZE PUSH1 0x4 PUSH2 0x2AA6 JUMP JUMPDEST PUSH1 0x3 PUSH1 0x20 MSTORE PUSH1 0x0 SWAP1 DUP2 MSTORE PUSH1 0x40 SWAP1 KECCAK256 SLOAD DUP2 JUMP JUMPDEST CALLVALUE DUP1 ISZERO PUSH2 0x649 JUMPI PUSH1 0x0 DUP1 REVERT JUMPDEST POP PUSH2 0x254 PUSH2 0x658 CALLDATASIZE PUSH1 0x4 PUSH2 0x3108 JUMP JUMPDEST PUSH2 0x180E JUMP JUMPDEST CALLVALUE DUP1 ISZERO PUSH2 0x669 JUMPI PUSH1 0x0 DUP1 REVERT JUMPDEST POP PUSH2 0x2D7 PUSH2 0x678 CALLDATASIZE PUSH1 0x4 PUSH2 0x2AA6 JUMP JUMPDEST PUSH2 0x1825 JUMP JUMPDEST CALLVALUE DUP1 ISZERO PUSH2 0x689 JUMPI PUSH1 0x0 DUP1 REVERT JUMPDEST POP PUSH1 0x0 SLOAD PUSH2 0x304 SWAP1 PUSH1 0x1 PUSH1 0x1 PUSH1 0xA0 SHL SUB AND DUP2 JUMP JUMPDEST CALLVALUE DUP1 ISZERO PUSH2 0x6A9 JUMPI PUSH1 0x0 DUP1 REVERT JUMPDEST POP PUSH2 0x254 PUSH2 0x6B8 CALLDATASIZE PUSH1 0x4 PUSH2 0x316F JUMP JUMPDEST PUSH2 0x18E7 JUMP JUMPDEST CALLVALUE DUP1 ISZERO PUSH2 0x6C9 JUMPI PUSH1 0x0 DUP1 REVERT JUMPDEST POP PUSH2 0x2D7 PUSH2 0x6D8 CALLDATASIZE PUSH1 0x4 PUSH2 0x2AA6 JUMP JUMPDEST PUSH2 0x1990 JUMP JUMPDEST CALLVALUE DUP1 ISZERO PUSH2 0x6E9 JUMPI PUSH1 0x0 DUP1 REVERT JUMPDEST POP PUSH1 0x4 SLOAD PUSH2 0x304 SWAP1 PUSH1 0x1 PUSH1 0x1 PUSH1 0xA0 SHL SUB AND DUP2 JUMP JUMPDEST CALLVALUE DUP1 ISZERO PUSH2 0x709 JUMPI PUSH1 0x0 DUP1 REVERT JUMPDEST POP PUSH2 0x2B2 PUSH2 0x718 CALLDATASIZE PUSH1 0x4 PUSH2 0x31C8 JUMP JUMPDEST PUSH2 0x19E1 JUMP JUMPDEST CALLVALUE DUP1 ISZERO PUSH2 0x729 JUMPI PUSH1 0x0 DUP1 REVERT JUMPDEST POP PUSH2 0x254 PUSH2 0x738 CALLDATASIZE PUSH1 0x4 PUSH2 0x2DBA JUMP JUMPDEST PUSH2 0x1A2E JUMP JUMPDEST CALLVALUE DUP1 ISZERO PUSH2 0x749 JUMPI PUSH1 0x0 DUP1 REVERT JUMPDEST POP PUSH2 0x442 PUSH1 0x3 DUP2 JUMP JUMPDEST PUSH2 0x75A PUSH2 0x1A6C JUMP JUMPDEST PUSH1 0x0 DUP1 SLOAD SWAP1 PUSH2 0x100 EXP SWAP1 DIV PUSH1 0x1 PUSH1 0x1 PUSH1 0xA0 SHL SUB AND PUSH1 0x1 PUSH1 0x1 PUSH1 0xA0 SHL SUB AND PUSH4 0xC88EB8E9 PUSH1 0x40 MLOAD DUP2 PUSH4 0xFFFFFFFF AND PUSH1 0xE0 SHL DUP2 MSTORE PUSH1 0x4 ADD PUSH1 0x20 PUSH1 0x40 MLOAD DUP1 DUP4 SUB DUP2 DUP7 GAS STATICCALL ISZERO DUP1 ISZERO PUSH2 0x7AB JUMPI RETURNDATASIZE PUSH1 0x0 DUP1 RETURNDATACOPY RETURNDATASIZE PUSH1 0x0 REVERT JUMPDEST POP POP POP POP PUSH1 0x40 MLOAD RETURNDATASIZE PUSH1 0x1F NOT PUSH1 0x1F DUP3 ADD AND DUP3 ADD DUP1 PUSH1 0x40 MSTORE POP DUP2 ADD SWAP1 PUSH2 0x7CF SWAP2 SWAP1 PUSH2 0x31F2 JUMP JUMPDEST PUSH2 0x812 JUMPI PUSH1 0x40 MLOAD PUSH3 0x461BCD PUSH1 0xE5 SHL DUP2 MSTORE PUSH1 0x20 PUSH1 0x4 DUP3 ADD MSTORE PUSH1 0xF PUSH1 0x24 DUP3 ADD MSTORE PUSH15 0x1DDA5D1A191C985DC81C185D5CD959 PUSH1 0x8A SHL PUSH1 0x44 DUP3 ADD MSTORE PUSH1 0x64 ADD JUMPDEST PUSH1 0x40 MLOAD DUP1 SWAP2 SUB SWAP1 REVERT JUMPDEST SELFBALANCE DUP3 GT ISZERO PUSH2 0x859 JUMPI PUSH1 0x40 MLOAD PUSH3 0x461BCD PUSH1 0xE5 SHL DUP2 MSTORE PUSH1 0x20 PUSH1 0x4 DUP3 ADD MSTORE PUSH1 0x14 PUSH1 0x24 DUP3 ADD MSTORE PUSH20 0x496E73756666696369656E742062616C616E6365 PUSH1 0x60 SHL PUSH1 0x44 DUP3 ADD MSTORE PUSH1 0x64 ADD PUSH2 0x809 JUMP JUMPDEST PUSH1 0x0 DUP2 PUSH1 0x1 PUSH1 0x1 PUSH1 0xA0 SHL SUB AND DUP4 PUSH1 0x40 MLOAD PUSH1 0x0 PUSH1 0x40 MLOAD DUP1 DUP4 SUB DUP2 DUP6 DUP8 GAS CALL SWAP3 POP POP POP RETURNDATASIZE DUP1 PUSH1 0x0 DUP2 EQ PUSH2 0x8A6 JUMPI PUSH1 0x40 MLOAD SWAP2 POP PUSH1 0x1F NOT PUSH1 0x3F RETURNDATASIZE ADD AND DUP3 ADD PUSH1 0x40 MSTORE RETURNDATASIZE DUP3 MSTORE RETURNDATASIZE PUSH1 0x0 PUSH1 0x20 DUP5 ADD RETURNDATACOPY PUSH2 0x8AB JUMP JUMPDEST PUSH1 0x60 SWAP2 POP JUMPDEST POP POP SWAP1 POP DUP1 PUSH2 0x8F5 JUMPI PUSH1 0x40 MLOAD PUSH3 0x461BCD PUSH1 0xE5 SHL DUP2 MSTORE PUSH1 0x20 PUSH1 0x4 DUP3 ADD MSTORE PUSH1 0x16 PUSH1 0x24 DUP3 ADD MSTORE PUSH22 0x3330B4B632B2103A37903932BA3AB9371022BA3432B9 PUSH1 0x51 SHL PUSH1 0x44 DUP3 ADD MSTORE PUSH1 0x64 ADD PUSH2 0x809 JUMP JUMPDEST POP POP POP JUMP JUMPDEST PUSH1 0x0 DUP2 DUP2 MSTORE PUSH1 0x2 PUSH1 0x20 MSTORE PUSH1 0x40 DUP2 KECCAK256 PUSH1 0x1 DUP2 ADD SLOAD PUSH1 0x60 SWAP3 PUSH1 0x1 PUSH1 0x1 PUSH1 0x40 SHL SUB PUSH5 0x100000000 DUP4 DIV AND SWAP3 PUSH4 0xFFFFFFFF SWAP1 SWAP3 AND SWAP2 DUP2 SWAP1 DUP2 SWAP1 DUP7 SWAP1 PUSH2 0x93A DUP10 PUSH2 0x1825 JUMP JUMPDEST PUSH1 0x1 DUP3 ADD SLOAD PUSH1 0x2 DUP4 ADD SLOAD PUSH1 0x4 DUP5 ADD DUP1 SLOAD PUSH1 0x40 DUP1 MLOAD PUSH1 0x20 DUP1 DUP5 MUL DUP3 ADD DUP2 ADD SWAP1 SWAP3 MSTORE DUP3 DUP2 MSTORE SWAP6 SWAP14 POP PUSH1 0x1 PUSH1 0x1 PUSH1 0x40 SHL SUB PUSH1 0x1 PUSH1 0x60 SHL DUP7 DIV DUP2 AND SWAP12 POP PUSH1 0x1 PUSH1 0xA0 SHL SWAP1 SWAP6 DIV SWAP1 SWAP5 AND SWAP9 POP SWAP2 SWAP7 POP SWAP2 DUP4 ADD DUP3 DUP3 DUP1 ISZERO PUSH2 0x9B3 JUMPI PUSH1 0x20 MUL DUP3 ADD SWAP2 SWAP1 PUSH1 0x0 MSTORE PUSH1 0x20 PUSH1 0x0 KECCAK256 SWAP1 JUMPDEST DUP2 SLOAD DUP2 MSTORE PUSH1 0x20 ADD SWAP1 PUSH1 0x1 ADD SWAP1 DUP1 DUP4 GT PUSH2 0x99F JUMPI JUMPDEST POP POP POP POP POP SWAP2 POP POP SWAP2 SWAP4 SWAP6 SWAP8 SWAP1 SWAP3 SWAP5 SWAP7 POP JUMP JUMPDEST PUSH1 0x0 PUSH1 0x1 PUSH1 0x1 PUSH1 0xE0 SHL SUB NOT DUP3 AND PUSH4 0x80AC58CD PUSH1 0xE0 SHL EQ DUP1 PUSH2 0x9F7 JUMPI POP PUSH1 0x1 PUSH1 0x1 PUSH1 0xE0 SHL SUB NOT DUP3 AND PUSH4 0x5B5E139F PUSH1 0xE0 SHL EQ JUMPDEST DUP1 PUSH2 0xA12 JUMPI POP PUSH4 0x1FFC9A7 PUSH1 0xE0 SHL PUSH1 0x1 PUSH1 0x1 PUSH1 0xE0 SHL SUB NOT DUP4 AND EQ JUMPDEST SWAP3 SWAP2 POP POP JUMP JUMPDEST PUSH1 0x0 DUP1 MLOAD PUSH1 0x20 PUSH2 0x37E3 DUP4 CODECOPY DUP2 MLOAD SWAP2 MSTORE DUP1 SLOAD PUSH1 0x60 SWAP2 SWAP1 DUP2 SWAP1 PUSH2 0xA38 SWAP1 PUSH2 0x320F JUMP JUMPDEST DUP1 PUSH1 0x1F ADD PUSH1 0x20 DUP1 SWAP2 DIV MUL PUSH1 0x20 ADD PUSH1 0x40 MLOAD SWAP1 DUP2 ADD PUSH1 0x40 MSTORE DUP1 SWAP3 SWAP2 SWAP1 DUP2 DUP2 MSTORE PUSH1 0x20 ADD DUP3 DUP1 SLOAD PUSH2 0xA64 SWAP1 PUSH2 0x320F JUMP JUMPDEST DUP1 ISZERO PUSH2 0xAB1 JUMPI DUP1 PUSH1 0x1F LT PUSH2 0xA86 JUMPI PUSH2 0x100 DUP1 DUP4 SLOAD DIV MUL DUP4 MSTORE SWAP2 PUSH1 0x20 ADD SWAP2 PUSH2 0xAB1 JUMP JUMPDEST DUP3 ADD SWAP2 SWAP1 PUSH1 0x0 MSTORE PUSH1 0x20 PUSH1 0x0 KECCAK256 SWAP1 JUMPDEST DUP2 SLOAD DUP2 MSTORE SWAP1 PUSH1 0x1 ADD SWAP1 PUSH1 0x20 ADD DUP1 DUP4 GT PUSH2 0xA94 JUMPI DUP3 SWAP1 SUB PUSH1 0x1F AND DUP3 ADD SWAP2 JUMPDEST POP POP POP POP POP SWAP2 POP POP SWAP1 JUMP JUMPDEST PUSH1 0x0 PUSH2 0xAC7 DUP3 PUSH2 0x1AC7 JUMP JUMPDEST POP PUSH2 0xA12 DUP3 PUSH2 0x1AFF JUMP JUMPDEST PUSH1 0x0 DUP2 DUP2 MSTORE PUSH1 0x3 PUSH1 0x20 MSTORE PUSH1 0x40 SWAP1 KECCAK256 SLOAD DUP1 PUSH2 0xB00 JUMPI PUSH1 0x40 MLOAD PUSH3 0xDD6EA9 PUSH1 0xE2 SHL DUP2 MSTORE PUSH1 0x4 DUP2 ADD DUP4 SWAP1 MSTORE PUSH1 0x24 ADD PUSH2 0x809 JUMP JUMPDEST PUSH1 0x0 TIMESTAMP DUP2 JUMPDEST DUP6 MLOAD DUP2 LT ISZERO PUSH2 0xC3F JUMPI PUSH1 0x0 PUSH2 0xB32 DUP8 DUP4 DUP2 MLOAD DUP2 LT PUSH2 0xB25 JUMPI PUSH2 0xB25 PUSH2 0x3249 JUMP JUMPDEST PUSH1 0x20 MUL PUSH1 0x20 ADD ADD MLOAD PUSH2 0x1B39 JUMP JUMPDEST SWAP1 POP CALLER PUSH1 0x1 PUSH1 0x1 PUSH1 0xA0 SHL SUB DUP3 AND EQ PUSH2 0xB68 JUMPI PUSH1 0x40 MLOAD PUSH4 0x18256A9B PUSH1 0xE0 SHL DUP2 MSTORE PUSH1 0x1 PUSH1 0x1 PUSH1 0xA0 SHL SUB DUP3 AND PUSH1 0x4 DUP3 ADD MSTORE PUSH1 0x24 ADD PUSH2 0x809 JUMP JUMPDEST PUSH2 0xB72 DUP6 DUP6 PUSH2 0x3275 JUMP JUMPDEST SWAP4 POP PUSH2 0xB7E DUP7 DUP5 PUSH2 0x3275 JUMP JUMPDEST PUSH1 0x2 PUSH1 0x0 DUP10 DUP6 DUP2 MLOAD DUP2 LT PUSH2 0xB94 JUMPI PUSH2 0xB94 PUSH2 0x3249 JUMP JUMPDEST PUSH1 0x20 MUL PUSH1 0x20 ADD ADD MLOAD DUP2 MSTORE PUSH1 0x20 ADD SWAP1 DUP2 MSTORE PUSH1 0x20 ADD PUSH1 0x0 KECCAK256 PUSH1 0x1 ADD PUSH1 0x14 PUSH2 0x100 EXP DUP2 SLOAD DUP2 PUSH1 0x1 PUSH1 0x1 PUSH1 0x40 SHL SUB MUL NOT AND SWAP1 DUP4 PUSH1 0x1 PUSH1 0x1 PUSH1 0x40 SHL SUB AND MUL OR SWAP1 SSTORE POP PUSH32 0x65B1E0D6D94328D0B4D855F4F27E6BED1F470B13B2F89A86C1314723350AF902 DUP8 DUP4 DUP2 MLOAD DUP2 LT PUSH2 0xC04 JUMPI PUSH2 0xC04 PUSH2 0x3249 JUMP JUMPDEST PUSH1 0x20 MUL PUSH1 0x20 ADD ADD MLOAD DUP5 DUP9 PUSH1 0x40 MLOAD PUSH2 0xC2E SWAP4 SWAP3 SWAP2 SWAP1 SWAP3 DUP4 MSTORE PUSH1 0x20 DUP4 ADD SWAP2 SWAP1 SWAP2 MSTORE PUSH1 0x40 DUP3 ADD MSTORE PUSH1 0x60 ADD SWAP1 JUMP JUMPDEST PUSH1 0x40 MLOAD DUP1 SWAP2 SUB SWAP1 LOG1 POP PUSH1 0x1 ADD PUSH2 0xB05 JUMP JUMPDEST POP DUP2 CALLVALUE LT ISZERO PUSH2 0xC64 JUMPI PUSH1 0x40 MLOAD PUSH4 0x620668F1 PUSH1 0xE0 SHL DUP2 MSTORE PUSH1 0x4 DUP2 ADD DUP4 SWAP1 MSTORE PUSH1 0x24 ADD PUSH2 0x809 JUMP JUMPDEST POP POP POP POP POP JUMP JUMPDEST PUSH2 0xC76 DUP3 DUP3 CALLER PUSH2 0x1B73 JUMP JUMPDEST POP POP JUMP JUMPDEST PUSH1 0x1 PUSH1 0x1 PUSH1 0xA0 SHL SUB DUP3 AND PUSH2 0xCA4 JUMPI PUSH1 0x40 MLOAD PUSH4 0x32505749 PUSH1 0xE1 SHL DUP2 MSTORE PUSH1 0x0 PUSH1 0x4 DUP3 ADD MSTORE PUSH1 0x24 ADD PUSH2 0x809 JUMP JUMPDEST PUSH1 0x0 PUSH2 0xCB1 DUP4 DUP4 CALLER PUSH2 0x1B80 JUMP JUMPDEST SWAP1 POP DUP4 PUSH1 0x1 PUSH1 0x1 PUSH1 0xA0 SHL SUB AND DUP2 PUSH1 0x1 PUSH1 0x1 PUSH1 0xA0 SHL SUB AND EQ PUSH2 0xCFF JUMPI PUSH1 0x40 MLOAD PUSH4 0x64283D7B PUSH1 0xE0 SHL DUP2 MSTORE PUSH1 0x1 PUSH1 0x1 PUSH1 0xA0 SHL SUB DUP1 DUP7 AND PUSH1 0x4 DUP4 ADD MSTORE PUSH1 0x24 DUP3 ADD DUP5 SWAP1 MSTORE DUP3 AND PUSH1 0x44 DUP3 ADD MSTORE PUSH1 0x64 ADD PUSH2 0x809 JUMP JUMPDEST POP POP POP POP JUMP JUMPDEST PUSH2 0xD0D PUSH2 0x1A6C JUMP JUMPDEST PUSH1 0x5 PUSH2 0x8F5 DUP3 DUP5 DUP4 PUSH2 0x32D8 JUMP JUMPDEST PUSH1 0x60 PUSH1 0x0 PUSH2 0xD27 DUP4 PUSH2 0x1C8A JUMP JUMPDEST SWAP1 POP PUSH2 0xD33 PUSH1 0x9 PUSH2 0x1FAD JUMP JUMPDEST PUSH2 0xD3D PUSH1 0x9 PUSH2 0x1FAD JUMP JUMPDEST DUP3 PUSH1 0x40 MLOAD PUSH1 0x20 ADD PUSH2 0xD50 SWAP4 SWAP3 SWAP2 SWAP1 PUSH2 0x3397 JUMP JUMPDEST PUSH1 0x40 MLOAD PUSH1 0x20 DUP2 DUP4 SUB SUB DUP2 MSTORE SWAP1 PUSH1 0x40 MSTORE SWAP2 POP POP SWAP2 SWAP1 POP JUMP JUMPDEST PUSH2 0x8F5 DUP4 DUP4 DUP4 PUSH1 0x40 MLOAD DUP1 PUSH1 0x20 ADD PUSH1 0x40 MSTORE DUP1 PUSH1 0x0 DUP2 MSTORE POP PUSH2 0x180E JUMP JUMPDEST PUSH2 0xD8A PUSH2 0x1A6C JUMP JUMPDEST PUSH1 0x0 DUP1 SLOAD PUSH1 0x1 PUSH1 0x1 PUSH1 0xA0 SHL SUB NOT AND PUSH1 0x1 PUSH1 0x1 PUSH1 0xA0 SHL SUB SWAP3 SWAP1 SWAP3 AND SWAP2 SWAP1 SWAP2 OR SWAP1 SSTORE JUMP JUMPDEST PUSH2 0xDB4 PUSH2 0x203F JUMP JUMPDEST PUSH2 0xDBD DUP3 PUSH2 0x20E4 JUMP JUMPDEST PUSH2 0xC76 DUP3 DUP3 PUSH2 0x20EC JUMP JUMPDEST PUSH1 0x0 PUSH2 0xDD1 PUSH2 0x21A9 JUMP JUMPDEST POP PUSH1 0x0 DUP1 MLOAD PUSH1 0x20 PUSH2 0x382D DUP4 CODECOPY DUP2 MLOAD SWAP2 MSTORE SWAP1 JUMP JUMPDEST PUSH1 0x0 PUSH2 0xA12 DUP3 PUSH2 0x1AC7 JUMP JUMPDEST PUSH1 0x0 PUSH1 0x0 DUP1 MLOAD PUSH1 0x20 PUSH2 0x37E3 DUP4 CODECOPY DUP2 MLOAD SWAP2 MSTORE PUSH1 0x1 PUSH1 0x1 PUSH1 0xA0 SHL SUB DUP4 AND PUSH2 0xE2A JUMPI PUSH1 0x40 MLOAD PUSH4 0x22718AD9 PUSH1 0xE2 SHL DUP2 MSTORE PUSH1 0x0 PUSH1 0x4 DUP3 ADD MSTORE PUSH1 0x24 ADD PUSH2 0x809 JUMP JUMPDEST PUSH1 0x1 PUSH1 0x1 PUSH1 0xA0 SHL SUB SWAP1 SWAP3 AND PUSH1 0x0 SWAP1 DUP2 MSTORE PUSH1 0x3 SWAP1 SWAP3 ADD PUSH1 0x20 MSTORE POP PUSH1 0x40 SWAP1 KECCAK256 SLOAD SWAP1 JUMP JUMPDEST PUSH2 0xE53 PUSH2 0x1A6C JUMP JUMPDEST PUSH2 0xE5D PUSH1 0x0 PUSH2 0x21F2 JUMP JUMPDEST JUMP JUMPDEST PUSH1 0x0 DUP1 DUP1 JUMPDEST PUSH1 0x9 DUP2 LT ISZERO PUSH2 0xEC0 JUMPI DUP1 PUSH1 0x4 EQ ISZERO DUP1 ISZERO PUSH2 0xEA5 JUMPI POP DUP4 DUP2 PUSH1 0x9 DUP2 LT PUSH2 0xE8B JUMPI PUSH2 0xE8B PUSH2 0x3249 JUMP JUMPDEST PUSH1 0x20 MUL ADD PUSH1 0x20 DUP2 ADD SWAP1 PUSH2 0xE9E SWAP2 SWAP1 PUSH2 0x340B JUMP JUMPDEST PUSH1 0xFF AND PUSH1 0x1 EQ JUMPDEST ISZERO PUSH2 0xEB8 JUMPI PUSH2 0xEB5 PUSH1 0x1 DUP4 PUSH2 0x3426 JUMP JUMPDEST SWAP2 POP JUMPDEST PUSH1 0x1 ADD PUSH2 0xE64 JUMP JUMPDEST POP DUP1 PUSH1 0xFF AND PUSH1 0x2 SUB PUSH2 0xEE3 JUMPI PUSH2 0xEDC PUSH1 0xA0 DUP5 ADD PUSH1 0x80 DUP6 ADD PUSH2 0x340B JUMP JUMPDEST SWAP4 SWAP3 POP POP POP JUMP JUMPDEST PUSH1 0x1 DUP2 PUSH1 0xFF AND GT ISZERO DUP1 PUSH2 0xEFA JUMPI POP PUSH1 0x4 DUP2 PUSH1 0xFF AND LT ISZERO JUMPDEST PUSH2 0xF05 JUMPI PUSH1 0x1 PUSH2 0xEDC JUMP JUMPDEST PUSH1 0x0 SWAP4 SWAP3 POP POP POP JUMP JUMPDEST PUSH32 0xF0C57E16840DF040F15088DC2F81FE391C3923BEC73E23A9662EFC9C229C6A00 DUP1 SLOAD PUSH1 0x1 PUSH1 0x40 SHL DUP2 DIV PUSH1 0xFF AND ISZERO SWAP1 PUSH1 0x1 PUSH1 0x1 PUSH1 0x40 SHL SUB AND PUSH1 0x0 DUP2 ISZERO DUP1 ISZERO PUSH2 0xF53 JUMPI POP DUP3 JUMPDEST SWAP1 POP PUSH1 0x0 DUP3 PUSH1 0x1 PUSH1 0x1 PUSH1 0x40 SHL SUB AND PUSH1 0x1 EQ DUP1 ISZERO PUSH2 0xF6F JUMPI POP ADDRESS EXTCODESIZE ISZERO JUMPDEST SWAP1 POP DUP2 ISZERO DUP1 ISZERO PUSH2 0xF7D JUMPI POP DUP1 ISZERO JUMPDEST ISZERO PUSH2 0xF9B JUMPI PUSH1 0x40 MLOAD PUSH4 0xF92EE8A9 PUSH1 0xE0 SHL DUP2 MSTORE PUSH1 0x4 ADD PUSH1 0x40 MLOAD DUP1 SWAP2 SUB SWAP1 REVERT JUMPDEST DUP5 SLOAD PUSH8 0xFFFFFFFFFFFFFFFF NOT AND PUSH1 0x1 OR DUP6 SSTORE DUP4 ISZERO PUSH2 0xFC5 JUMPI DUP5 SLOAD PUSH1 0xFF PUSH1 0x40 SHL NOT AND PUSH1 0x1 PUSH1 0x40 SHL OR DUP6 SSTORE JUMPDEST PUSH1 0x40 MLOAD DUP1 PUSH1 0x60 ADD PUSH1 0x40 MSTORE DUP1 PUSH1 0x2A DUP2 MSTORE PUSH1 0x20 ADD PUSH2 0x3803 PUSH1 0x2A SWAP2 CODECOPY PUSH1 0x5 SWAP1 PUSH2 0xFEB SWAP1 DUP3 PUSH2 0x343F JUMP JUMPDEST POP PUSH2 0xFF6 DUP8 DUP8 PUSH2 0x2263 JUMP JUMPDEST PUSH2 0xFFF DUP9 PUSH2 0x2275 JUMP JUMPDEST DUP4 ISZERO PUSH2 0x1045 JUMPI DUP5 SLOAD PUSH1 0xFF PUSH1 0x40 SHL NOT AND DUP6 SSTORE PUSH1 0x40 MLOAD PUSH1 0x1 DUP2 MSTORE PUSH32 0xC7F505B2F371AE2175EE4913F4499E1F2633A7B5936321EED1CDAEB6115181D2 SWAP1 PUSH1 0x20 ADD PUSH1 0x40 MLOAD DUP1 SWAP2 SUB SWAP1 LOG1 JUMPDEST POP POP POP POP POP POP POP POP JUMP JUMPDEST PUSH32 0x80BB2B638CC20BC4D0A60D66940F3AB4A00C1D7B313497CA82FB0B4AB0079301 DUP1 SLOAD PUSH1 0x60 SWAP2 PUSH1 0x0 DUP1 MLOAD PUSH1 0x20 PUSH2 0x37E3 DUP4 CODECOPY DUP2 MLOAD SWAP2 MSTORE SWAP2 PUSH2 0xA38 SWAP1 PUSH2 0x320F JUMP JUMPDEST PUSH1 0x0 SLOAD PUSH1 0x1 PUSH1 0x1 PUSH1 0xA0 SHL SUB AND CALLER EQ PUSH2 0x10E8 JUMPI PUSH1 0x40 MLOAD PUSH3 0x461BCD PUSH1 0xE5 SHL DUP2 MSTORE PUSH1 0x20 PUSH1 0x4 DUP3 ADD MSTORE PUSH1 0x1B PUSH1 0x24 DUP3 ADD MSTORE PUSH32 0x53656E646572206973206E6F742063656C6C20636F6E74726163740000000000 PUSH1 0x44 DUP3 ADD MSTORE PUSH1 0x64 ADD PUSH2 0x809 JUMP JUMPDEST PUSH1 0x0 JUMPDEST DUP6 DUP2 LT ISZERO PUSH2 0x12BB JUMPI PUSH1 0xA DUP8 DUP8 DUP4 DUP2 DUP2 LT PUSH2 0x1107 JUMPI PUSH2 0x1107 PUSH2 0x3249 JUMP JUMPDEST SWAP1 POP PUSH1 0x20 MUL DUP2 ADD SWAP1 PUSH2 0x1119 SWAP2 SWAP1 PUSH2 0x34FE JUMP JUMPDEST PUSH1 0x1 DUP2 DUP2 LT PUSH2 0x112A JUMPI PUSH2 0x112A PUSH2 0x3249 JUMP JUMPDEST SWAP1 POP PUSH1 0x20 MUL ADD CALLDATALOAD LT DUP1 ISZERO PUSH2 0x1179 JUMPI POP PUSH1 0x0 DUP8 DUP8 DUP4 DUP2 DUP2 LT PUSH2 0x114D JUMPI PUSH2 0x114D PUSH2 0x3249 JUMP JUMPDEST SWAP1 POP PUSH1 0x20 MUL DUP2 ADD SWAP1 PUSH2 0x115F SWAP2 SWAP1 PUSH2 0x34FE JUMP JUMPDEST PUSH1 0x1 DUP2 DUP2 LT PUSH2 0x1170 JUMPI PUSH2 0x1170 PUSH2 0x3249 JUMP JUMPDEST SWAP1 POP PUSH1 0x20 MUL ADD CALLDATALOAD GT JUMPDEST PUSH2 0x11B6 JUMPI PUSH1 0x40 MLOAD PUSH3 0x461BCD PUSH1 0xE5 SHL DUP2 MSTORE PUSH1 0x20 PUSH1 0x4 DUP3 ADD MSTORE PUSH1 0xE PUSH1 0x24 DUP3 ADD MSTORE PUSH14 0x3837B9B4BA34B7B71032B93937B9 PUSH1 0x91 SHL PUSH1 0x44 DUP3 ADD MSTORE PUSH1 0x64 ADD PUSH2 0x809 JUMP JUMPDEST PUSH1 0x0 PUSH2 0x11C3 DUP3 PUSH1 0x1 PUSH2 0x3275 JUMP JUMPDEST SWAP1 POP JUMPDEST DUP7 DUP2 LT ISZERO PUSH2 0x12B2 JUMPI DUP8 DUP8 DUP3 DUP2 DUP2 LT PUSH2 0x11E0 JUMPI PUSH2 0x11E0 PUSH2 0x3249 JUMP JUMPDEST SWAP1 POP PUSH1 0x20 MUL DUP2 ADD SWAP1 PUSH2 0x11F2 SWAP2 SWAP1 PUSH2 0x34FE JUMP JUMPDEST PUSH1 0x1 DUP2 DUP2 LT PUSH2 0x1203 JUMPI PUSH2 0x1203 PUSH2 0x3249 JUMP JUMPDEST SWAP1 POP PUSH1 0x20 MUL ADD CALLDATALOAD DUP9 DUP9 DUP5 DUP2 DUP2 LT PUSH2 0x121C JUMPI PUSH2 0x121C PUSH2 0x3249 JUMP JUMPDEST SWAP1 POP PUSH1 0x20 MUL DUP2 ADD SWAP1 PUSH2 0x122E SWAP2 SWAP1 PUSH2 0x34FE JUMP JUMPDEST PUSH1 0x1 DUP2 DUP2 LT PUSH2 0x123F JUMPI PUSH2 0x123F PUSH2 0x3249 JUMP JUMPDEST SWAP1 POP PUSH1 0x20 MUL ADD CALLDATALOAD SUB PUSH2 0x12AA JUMPI PUSH1 0x40 MLOAD PUSH3 0x461BCD PUSH1 0xE5 SHL DUP2 MSTORE PUSH1 0x20 PUSH1 0x4 DUP3 ADD MSTORE PUSH1 0x2E PUSH1 0x24 DUP3 ADD MSTORE PUSH32 0x54776F204E4654732063616E6E6F7420626520706C6163656420696E20746865 PUSH1 0x44 DUP3 ADD MSTORE PUSH14 0x1039B0B6B2903837B9B4BA34B7B7 PUSH1 0x91 SHL PUSH1 0x64 DUP3 ADD MSTORE PUSH1 0x84 ADD PUSH2 0x809 JUMP JUMPDEST PUSH1 0x1 ADD PUSH2 0x11C6 JUMP JUMPDEST POP PUSH1 0x1 ADD PUSH2 0x10EB JUMP JUMPDEST POP PUSH1 0x1 DUP1 SLOAD PUSH1 0x0 SWAP2 DUP3 PUSH2 0x12CD DUP4 PUSH2 0x3547 JUMP JUMPDEST SWAP1 SWAP2 SSTORE POP PUSH1 0x0 DUP2 DUP2 MSTORE PUSH1 0x2 PUSH1 0x20 DUP2 SWAP1 MSTORE PUSH1 0x40 DUP3 KECCAK256 DUP4 DUP2 SSTORE PUSH1 0x1 DUP2 ADD DUP1 SLOAD TIMESTAMP PUSH1 0x1 PUSH1 0x1 PUSH1 0x40 SHL SUB SWAP1 DUP2 AND PUSH1 0x1 PUSH1 0x60 SHL MUL PUSH8 0xFFFFFFFFFFFFFFFF PUSH1 0x60 SHL NOT NUMBER SWAP3 SWAP1 SWAP3 AND PUSH5 0x100000000 MUL SWAP2 SWAP1 SWAP2 AND PUSH20 0xFFFFFFFFFFFFFFFFFFFFFFFFFFFFFFFF00000000 NOT SWAP1 SWAP3 AND SWAP2 SWAP1 SWAP2 OR OR SWAP1 SSTORE SWAP1 DUP2 ADD DUP12 SWAP1 SSTORE SWAP2 SWAP3 POP DUP1 JUMPDEST DUP9 DUP2 LT ISZERO PUSH2 0x1561 JUMPI PUSH1 0x0 DUP11 DUP11 DUP4 DUP2 DUP2 LT PUSH2 0x1360 JUMPI PUSH2 0x1360 PUSH2 0x3249 JUMP JUMPDEST SWAP1 POP PUSH1 0x20 MUL DUP2 ADD SWAP1 PUSH2 0x1372 SWAP2 SWAP1 PUSH2 0x34FE JUMP JUMPDEST PUSH1 0x0 DUP2 DUP2 LT PUSH2 0x1383 JUMPI PUSH2 0x1383 PUSH2 0x3249 JUMP JUMPDEST PUSH1 0x4 DUP8 ADD DUP1 SLOAD PUSH1 0x1 DUP2 ADD DUP3 SSTORE PUSH1 0x0 SWAP2 DUP3 MSTORE PUSH1 0x20 DUP1 DUP4 KECCAK256 SWAP4 MUL SWAP5 SWAP1 SWAP5 ADD CALLDATALOAD SWAP2 SWAP1 SWAP4 ADD DUP2 SWAP1 SSTORE SWAP3 POP DUP13 SWAP1 POP DUP12 DUP5 DUP2 DUP2 LT PUSH2 0x13BD JUMPI PUSH2 0x13BD PUSH2 0x3249 JUMP JUMPDEST SWAP1 POP PUSH1 0x20 MUL DUP2 ADD SWAP1 PUSH2 0x13CF SWAP2 SWAP1 PUSH2 0x34FE JUMP JUMPDEST PUSH1 0x1 DUP2 DUP2 LT PUSH2 0x13E0 JUMPI PUSH2 0x13E0 PUSH2 0x3249 JUMP JUMPDEST SWAP1 POP PUSH1 0x20 MUL ADD CALLDATALOAD SWAP1 POP PUSH1 0x0 PUSH1 0x3 PUSH1 0x1 DUP4 PUSH2 0x13FA SWAP2 SWAP1 PUSH2 0x3560 JUMP JUMPDEST PUSH2 0x1404 SWAP2 SWAP1 PUSH2 0x3589 JUMP JUMPDEST PUSH2 0x140F SWAP1 PUSH1 0x3 PUSH2 0x359D JUMP JUMPDEST SWAP1 POP PUSH1 0x0 PUSH1 0x3 PUSH2 0x1420 PUSH1 0x1 DUP6 PUSH2 0x3560 JUMP JUMPDEST PUSH2 0x142A SWAP2 SWAP1 PUSH2 0x35B4 JUMP JUMPDEST PUSH2 0x1435 SWAP1 PUSH1 0x3 PUSH2 0x359D JUMP JUMPDEST SWAP1 POP PUSH1 0x0 DUP1 PUSH1 0x0 PUSH2 0x146F DUP16 DUP16 DUP11 DUP2 DUP2 LT PUSH2 0x1451 JUMPI PUSH2 0x1451 PUSH2 0x3249 JUMP JUMPDEST SWAP1 POP PUSH1 0x20 MUL ADD CALLDATALOAD PUSH1 0x7 DUP2 DUP2 AND SWAP3 PUSH1 0x3 DUP4 SWAP1 SHR DUP3 AND SWAP3 PUSH1 0x6 SHR SWAP1 SWAP2 AND SWAP1 JUMP JUMPDEST SWAP2 SWAP5 POP SWAP3 POP SWAP1 POP PUSH1 0x0 PUSH1 0x3 PUSH2 0x1485 DUP7 PUSH1 0x9 PUSH2 0x359D JUMP JUMPDEST PUSH2 0x148F SWAP1 DUP9 PUSH2 0x3275 JUMP JUMPDEST PUSH2 0x149A SWAP1 PUSH1 0x51 PUSH2 0x3560 JUMP JUMPDEST PUSH2 0x14A4 SWAP2 SWAP1 PUSH2 0x3560 JUMP JUMPDEST PUSH1 0x0 DUP1 DUP1 MSTORE PUSH1 0x3 DUP14 ADD PUSH1 0x20 MSTORE PUSH1 0x40 SWAP1 KECCAK256 DUP1 SLOAD DUP5 DUP4 SHL OR SWAP1 SSTORE SWAP1 POP PUSH2 0x14EC PUSH1 0x0 PUSH2 0x14CE PUSH1 0x9 DUP5 PUSH2 0x3560 JUMP JUMPDEST PUSH1 0x0 SWAP2 DUP3 MSTORE PUSH1 0x3 DUP15 ADD PUSH1 0x20 MSTORE PUSH1 0x40 SWAP1 SWAP2 KECCAK256 DUP1 SLOAD SWAP2 DUP7 SWAP1 SHL SWAP1 SWAP2 OR SWAP1 SSTORE JUMP JUMPDEST PUSH2 0x151A PUSH1 0x0 PUSH2 0x14FC PUSH1 0x12 DUP5 PUSH2 0x3560 JUMP JUMPDEST PUSH1 0x0 SWAP2 DUP3 MSTORE PUSH1 0x3 DUP15 ADD PUSH1 0x20 MSTORE PUSH1 0x40 SWAP1 SWAP2 KECCAK256 DUP1 SLOAD SWAP2 DUP8 SWAP1 SHL SWAP1 SWAP2 OR SWAP1 SSTORE JUMP JUMPDEST DUP14 DUP14 DUP11 DUP2 DUP2 LT PUSH2 0x152C JUMPI PUSH2 0x152C PUSH2 0x3249 JUMP JUMPDEST SWAP1 POP PUSH1 0x20 MUL ADD PUSH1 0x20 DUP2 ADD SWAP1 PUSH2 0x1541 SWAP2 SWAP1 PUSH2 0x35C8 JUMP JUMPDEST PUSH2 0x154B SWAP1 DUP12 PUSH2 0x35EE JUMP JUMPDEST SWAP10 POP POP PUSH1 0x1 SWAP1 SWAP8 ADD SWAP7 POP PUSH2 0x1344 SWAP6 POP POP POP POP POP POP JUMP JUMPDEST POP PUSH1 0x1 DUP3 ADD DUP1 SLOAD PUSH4 0xFFFFFFFF NOT AND PUSH4 0xFFFFFFFF DUP4 AND OR SWAP1 SSTORE PUSH2 0x1583 DUP12 DUP5 PUSH2 0x2286 JUMP JUMPDEST PUSH1 0x40 MLOAD DUP4 DUP2 MSTORE PUSH32 0xF994DC8958BDE118A9709516C43D92A97983863E9C77DE1912A2E5BF78D6B771 SWAP1 PUSH1 0x20 ADD PUSH1 0x40 MLOAD DUP1 SWAP2 SUB SWAP1 LOG1 POP POP POP POP POP POP POP POP POP POP POP JUMP JUMPDEST PUSH1 0x0 DUP2 DUP2 MSTORE PUSH1 0x2 PUSH1 0x20 MSTORE PUSH1 0x40 DUP2 KECCAK256 PUSH1 0x1 ADD SLOAD PUSH5 0x100000000 SWAP1 DIV PUSH1 0x1 PUSH1 0x1 PUSH1 0x40 SHL SUB AND DUP2 PUSH2 0x12C PUSH1 0x3 PUSH2 0x15F6 DUP5 NUMBER PUSH2 0x3560 JUMP JUMPDEST PUSH2 0x1600 SWAP2 SWAP1 PUSH2 0x359D JUMP JUMPDEST PUSH2 0x160A SWAP2 SWAP1 PUSH2 0x35B4 JUMP JUMPDEST SWAP5 SWAP4 POP POP POP POP JUMP JUMPDEST PUSH2 0xC76 CALLER DUP4 DUP4 PUSH2 0x22EB JUMP JUMPDEST PUSH1 0x40 DUP1 MLOAD PUSH1 0xC0 DUP2 ADD DUP3 MSTORE PUSH1 0x0 PUSH1 0x60 DUP1 DUP4 ADD DUP3 DUP2 MSTORE PUSH1 0x80 DUP5 ADD DUP4 SWAP1 MSTORE PUSH1 0xA0 DUP5 ADD DUP4 SWAP1 MSTORE DUP4 MSTORE DUP4 MLOAD DUP1 DUP3 ADD DUP6 MSTORE DUP3 DUP2 MSTORE PUSH1 0x20 DUP2 DUP2 ADD DUP5 SWAP1 MSTORE DUP2 DUP7 ADD DUP5 SWAP1 MSTORE DUP1 DUP6 ADD SWAP2 SWAP1 SWAP2 MSTORE DUP5 MLOAD SWAP2 DUP3 ADD DUP6 MSTORE DUP3 DUP3 MSTORE DUP2 ADD DUP3 SWAP1 MSTORE DUP1 DUP5 ADD DUP3 SWAP1 MSTORE SWAP3 DUP3 ADD SWAP3 SWAP1 SWAP3 MSTORE DUP2 JUMPDEST PUSH1 0x9 DUP2 LT ISZERO PUSH2 0x16F4 JUMPI DUP4 DUP2 PUSH1 0x9 DUP2 LT PUSH2 0x1699 JUMPI PUSH2 0x1699 PUSH2 0x3249 JUMP JUMPDEST PUSH1 0x20 MUL ADD MLOAD PUSH1 0xFF AND PUSH1 0x1 EQ DUP3 PUSH1 0x3 DUP4 PUSH2 0x16B2 SWAP2 SWAP1 PUSH2 0x35B4 JUMP JUMPDEST PUSH1 0x3 DUP2 LT PUSH2 0x16C2 JUMPI PUSH2 0x16C2 PUSH2 0x3249 JUMP JUMPDEST PUSH1 0x20 MUL ADD MLOAD PUSH2 0x16D2 PUSH1 0x3 DUP5 PUSH2 0x3589 JUMP JUMPDEST PUSH1 0x3 DUP2 LT PUSH2 0x16E2 JUMPI PUSH2 0x16E2 PUSH2 0x3249 JUMP JUMPDEST SWAP2 ISZERO ISZERO PUSH1 0x20 SWAP1 SWAP3 MUL ADD MSTORE PUSH1 0x1 ADD PUSH2 0x167E JUMP JUMPDEST POP PUSH1 0x1 DUP1 PUSH1 0x0 DUP1 JUMPDEST PUSH1 0x3 DUP2 PUSH1 0xFF AND LT ISZERO PUSH2 0x178C JUMPI PUSH1 0x0 JUMPDEST PUSH1 0x3 DUP2 PUSH1 0xFF AND LT ISZERO PUSH2 0x1783 JUMPI DUP5 PUSH1 0xFF AND DUP3 PUSH1 0xFF AND EQ DUP1 ISZERO PUSH2 0x1731 JUMPI POP DUP4 PUSH1 0xFF AND DUP2 PUSH1 0xFF AND EQ JUMPDEST PUSH2 0x177B JUMPI DUP6 DUP3 PUSH1 0xFF AND PUSH1 0x3 DUP2 LT PUSH2 0x174A JUMPI PUSH2 0x174A PUSH2 0x3249 JUMP JUMPDEST PUSH1 0x20 MUL ADD MLOAD DUP2 PUSH1 0xFF AND PUSH1 0x3 DUP2 LT PUSH2 0x1763 JUMPI PUSH2 0x1763 PUSH2 0x3249 JUMP JUMPDEST PUSH1 0x20 MUL ADD MLOAD ISZERO PUSH2 0x177B JUMPI DUP3 PUSH2 0x1777 DUP2 PUSH2 0x3612 JUMP JUMPDEST SWAP4 POP POP JUMPDEST PUSH1 0x1 ADD PUSH2 0x170B JUMP JUMPDEST POP PUSH1 0x1 ADD PUSH2 0x16FC JUMP JUMPDEST POP DUP4 DUP4 PUSH1 0xFF AND PUSH1 0x3 DUP2 LT PUSH2 0x17A2 JUMPI PUSH2 0x17A2 PUSH2 0x3249 JUMP JUMPDEST PUSH1 0x20 MUL ADD MLOAD DUP3 PUSH1 0xFF AND PUSH1 0x3 DUP2 LT PUSH2 0x17BB JUMPI PUSH2 0x17BB PUSH2 0x3249 JUMP JUMPDEST PUSH1 0x20 MUL ADD MLOAD ISZERO PUSH2 0x17F7 JUMPI DUP1 PUSH1 0xFF AND PUSH1 0x2 EQ DUP1 PUSH2 0x17DA JUMPI POP DUP1 PUSH1 0xFF AND PUSH1 0x3 EQ JUMPDEST ISZERO PUSH2 0x17EB JUMPI POP PUSH1 0x1 SWAP6 SWAP5 POP POP POP POP POP JUMP JUMPDEST POP PUSH1 0x0 SWAP6 SWAP5 POP POP POP POP POP JUMP JUMPDEST DUP1 PUSH1 0xFF AND PUSH1 0x3 SUB PUSH2 0x17EB JUMPI POP PUSH1 0x1 SWAP6 SWAP5 POP POP POP POP POP JUMP JUMPDEST PUSH2 0x1819 DUP5 DUP5 DUP5 PUSH2 0xC7A JUMP JUMPDEST PUSH2 0xCFF DUP5 DUP5 DUP5 DUP5 PUSH2 0x239C JUMP JUMPDEST PUSH1 0x0 DUP2 DUP2 MSTORE PUSH1 0x2 PUSH1 0x20 MSTORE PUSH1 0x40 SWAP1 KECCAK256 PUSH1 0x60 SWAP1 DUP2 PUSH1 0x51 DUP1 JUMPDEST DUP1 ISZERO PUSH2 0x18DD JUMPI PUSH1 0x0 PUSH2 0x1878 PUSH2 0x1851 PUSH1 0x1 DUP5 PUSH2 0x3560 JUMP JUMPDEST PUSH1 0x8 DUP2 SWAP1 SHR PUSH1 0x0 SWAP1 DUP2 MSTORE PUSH1 0x3 DUP9 ADD PUSH1 0x20 MSTORE PUSH1 0x40 SWAP1 KECCAK256 SLOAD PUSH1 0x1 PUSH1 0xFF SWAP1 SWAP3 AND SWAP2 SWAP1 SWAP2 SHL AND ISZERO ISZERO SWAP1 JUMP JUMPDEST SWAP1 POP DUP1 ISZERO PUSH2 0x18A7 JUMPI DUP4 PUSH1 0x40 MLOAD PUSH1 0x20 ADD PUSH2 0x1891 SWAP2 SWAP1 PUSH2 0x3631 JUMP JUMPDEST PUSH1 0x40 MLOAD PUSH1 0x20 DUP2 DUP4 SUB SUB DUP2 MSTORE SWAP1 PUSH1 0x40 MSTORE SWAP4 POP PUSH2 0x18CA JUMP JUMPDEST DUP4 PUSH1 0x40 MLOAD PUSH1 0x20 ADD PUSH2 0x18B8 SWAP2 SWAP1 PUSH2 0x3656 JUMP JUMPDEST PUSH1 0x40 MLOAD PUSH1 0x20 DUP2 DUP4 SUB SUB DUP2 MSTORE SWAP1 PUSH1 0x40 MSTORE SWAP4 POP JUMPDEST POP DUP1 PUSH2 0x18D5 DUP2 PUSH2 0x367B JUMP JUMPDEST SWAP2 POP POP PUSH2 0x183B JUMP JUMPDEST POP SWAP1 SWAP5 SWAP4 POP POP POP POP JUMP JUMPDEST PUSH2 0x18EF PUSH2 0x1A6C JUMP JUMPDEST DUP1 MLOAD DUP3 MLOAD EQ PUSH2 0x1931 JUMPI PUSH1 0x40 MLOAD PUSH3 0x461BCD PUSH1 0xE5 SHL DUP2 MSTORE PUSH1 0x20 PUSH1 0x4 DUP3 ADD MSTORE PUSH1 0xE PUSH1 0x24 DUP3 ADD MSTORE PUSH14 0x696E76616C696420706172616D73 PUSH1 0x90 SHL PUSH1 0x44 DUP3 ADD MSTORE PUSH1 0x64 ADD PUSH2 0x809 JUMP JUMPDEST PUSH1 0x0 JUMPDEST DUP3 MLOAD DUP2 LT ISZERO PUSH2 0x8F5 JUMPI DUP2 DUP2 DUP2 MLOAD DUP2 LT PUSH2 0x194F JUMPI PUSH2 0x194F PUSH2 0x3249 JUMP JUMPDEST PUSH1 0x20 MUL PUSH1 0x20 ADD ADD MLOAD PUSH1 0x3 PUSH1 0x0 DUP6 DUP5 DUP2 MLOAD DUP2 LT PUSH2 0x196D JUMPI PUSH2 0x196D PUSH2 0x3249 JUMP JUMPDEST PUSH1 0x20 SWAP1 DUP2 MUL SWAP2 SWAP1 SWAP2 ADD DUP2 ADD MLOAD DUP3 MSTORE DUP2 ADD SWAP2 SWAP1 SWAP2 MSTORE PUSH1 0x40 ADD PUSH1 0x0 KECCAK256 SSTORE PUSH1 0x1 ADD PUSH2 0x1934 JUMP JUMPDEST PUSH1 0x60 PUSH2 0x199B DUP3 PUSH2 0x1AC7 JUMP JUMPDEST POP PUSH1 0x0 PUSH2 0x19A6 PUSH2 0x24BE JUMP JUMPDEST SWAP1 POP PUSH1 0x0 DUP2 MLOAD GT PUSH2 0x19C6 JUMPI PUSH1 0x40 MLOAD DUP1 PUSH1 0x20 ADD PUSH1 0x40 MSTORE DUP1 PUSH1 0x0 DUP2 MSTORE POP PUSH2 0xEDC JUMP JUMPDEST DUP1 PUSH2 0x19D0 DUP5 PUSH2 0x1FAD JUMP JUMPDEST PUSH1 0x40 MLOAD PUSH1 0x20 ADD PUSH2 0xD50 SWAP3 SWAP2 SWAP1 PUSH2 0x3692 JUMP JUMPDEST PUSH1 0x1 PUSH1 0x1 PUSH1 0xA0 SHL SUB SWAP2 DUP3 AND PUSH1 0x0 SWAP1 DUP2 MSTORE PUSH32 0x80BB2B638CC20BC4D0A60D66940F3AB4A00C1D7B313497CA82FB0B4AB0079305 PUSH1 0x20 SWAP1 DUP2 MSTORE PUSH1 0x40 DUP1 DUP4 KECCAK256 SWAP4 SWAP1 SWAP5 AND DUP3 MSTORE SWAP2 SWAP1 SWAP2 MSTORE KECCAK256 SLOAD PUSH1 0xFF AND SWAP1 JUMP JUMPDEST PUSH2 0x1A36 PUSH2 0x1A6C JUMP JUMPDEST PUSH1 0x1 PUSH1 0x1 PUSH1 0xA0 SHL SUB DUP2 AND PUSH2 0x1A60 JUMPI PUSH1 0x40 MLOAD PUSH4 0x1E4FBDF7 PUSH1 0xE0 SHL DUP2 MSTORE PUSH1 0x0 PUSH1 0x4 DUP3 ADD MSTORE PUSH1 0x24 ADD PUSH2 0x809 JUMP JUMPDEST PUSH2 0x1A69 DUP2 PUSH2 0x21F2 JUMP JUMPDEST POP JUMP JUMPDEST CALLER PUSH2 0x1A9E PUSH32 0x9016D09D72D40FDAE2FD8CEAC6B6234C7706214FD39C1CD1E609A0528C199300 SLOAD PUSH1 0x1 PUSH1 0x1 PUSH1 0xA0 SHL SUB AND SWAP1 JUMP JUMPDEST PUSH1 0x1 PUSH1 0x1 PUSH1 0xA0 SHL SUB AND EQ PUSH2 0xE5D JUMPI PUSH1 0x40 MLOAD PUSH4 0x118CDAA7 PUSH1 0xE0 SHL DUP2 MSTORE CALLER PUSH1 0x4 DUP3 ADD MSTORE PUSH1 0x24 ADD PUSH2 0x809 JUMP JUMPDEST PUSH1 0x0 DUP1 PUSH2 0x1AD3 DUP4 PUSH2 0x1B39 JUMP JUMPDEST SWAP1 POP PUSH1 0x1 PUSH1 0x1 PUSH1 0xA0 SHL SUB DUP2 AND PUSH2 0xA12 JUMPI PUSH1 0x40 MLOAD PUSH4 0x7E273289 PUSH1 0xE0 SHL DUP2 MSTORE PUSH1 0x4 DUP2 ADD DUP5 SWAP1 MSTORE PUSH1 0x24 ADD PUSH2 0x809 JUMP JUMPDEST PUSH1 0x0 SWAP1 DUP2 MSTORE PUSH32 0x80BB2B638CC20BC4D0A60D66940F3AB4A00C1D7B313497CA82FB0B4AB0079304 PUSH1 0x20 MSTORE PUSH1 0x40 SWAP1 KECCAK256 SLOAD PUSH1 0x1 PUSH1 0x1 PUSH1 0xA0 SHL SUB AND SWAP1 JUMP JUMPDEST PUSH1 0x0 SWAP1 DUP2 MSTORE PUSH32 0x80BB2B638CC20BC4D0A60D66940F3AB4A00C1D7B313497CA82FB0B4AB0079302 PUSH1 0x20 MSTORE PUSH1 0x40 SWAP1 KECCAK256 SLOAD PUSH1 0x1 PUSH1 0x1 PUSH1 0xA0 SHL SUB AND SWAP1 JUMP JUMPDEST PUSH2 0x8F5 DUP4 DUP4 DUP4 PUSH1 0x1 PUSH2 0x2550 JUMP JUMPDEST PUSH1 0x0 PUSH1 0x0 DUP1 MLOAD PUSH1 0x20 PUSH2 0x37E3 DUP4 CODECOPY DUP2 MLOAD SWAP2 MSTORE DUP2 PUSH2 0x1B9B DUP6 PUSH2 0x1B39 JUMP JUMPDEST SWAP1 POP PUSH1 0x1 PUSH1 0x1 PUSH1 0xA0 SHL SUB DUP5 AND ISZERO PUSH2 0x1BB7 JUMPI PUSH2 0x1BB7 DUP2 DUP6 DUP8 PUSH2 0x2666 JUMP JUMPDEST PUSH1 0x1 PUSH1 0x1 PUSH1 0xA0 SHL SUB DUP2 AND ISZERO PUSH2 0x1BF7 JUMPI PUSH2 0x1BD4 PUSH1 0x0 DUP7 PUSH1 0x0 DUP1 PUSH2 0x2550 JUMP JUMPDEST PUSH1 0x1 PUSH1 0x1 PUSH1 0xA0 SHL SUB DUP2 AND PUSH1 0x0 SWAP1 DUP2 MSTORE PUSH1 0x3 DUP4 ADD PUSH1 0x20 MSTORE PUSH1 0x40 SWAP1 KECCAK256 DUP1 SLOAD PUSH1 0x0 NOT ADD SWAP1 SSTORE JUMPDEST PUSH1 0x1 PUSH1 0x1 PUSH1 0xA0 SHL SUB DUP7 AND ISZERO PUSH2 0x1C28 JUMPI PUSH1 0x1 PUSH1 0x1 PUSH1 0xA0 SHL SUB DUP7 AND PUSH1 0x0 SWAP1 DUP2 MSTORE PUSH1 0x3 DUP4 ADD PUSH1 0x20 MSTORE PUSH1 0x40 SWAP1 KECCAK256 DUP1 SLOAD PUSH1 0x1 ADD SWAP1 SSTORE JUMPDEST PUSH1 0x0 DUP6 DUP2 MSTORE PUSH1 0x2 DUP4 ADD PUSH1 0x20 MSTORE PUSH1 0x40 DUP1 DUP3 KECCAK256 DUP1 SLOAD PUSH1 0x1 PUSH1 0x1 PUSH1 0xA0 SHL SUB NOT AND PUSH1 0x1 PUSH1 0x1 PUSH1 0xA0 SHL SUB DUP11 DUP2 AND SWAP2 DUP3 OR SWAP1 SWAP3 SSTORE SWAP2 MLOAD DUP9 SWAP4 SWAP2 DUP6 AND SWAP2 PUSH32 0xDDF252AD1BE2C89B69C2B068FC378DAA952BA7F163C4A11628F55A4DF523B3EF SWAP2 LOG4 SWAP6 SWAP5 POP POP POP POP POP JUMP JUMPDEST PUSH1 0x0 DUP2 DUP2 MSTORE PUSH1 0x2 PUSH1 0x20 MSTORE PUSH1 0x40 DUP1 DUP3 KECCAK256 DUP2 MLOAD PUSH1 0x9 DUP1 DUP3 MSTORE PUSH2 0x140 DUP3 ADD SWAP1 SWAP4 MSTORE PUSH1 0x60 SWAP4 SWAP2 SWAP3 SWAP2 DUP3 SWAP2 DUP3 DUP2 PUSH1 0x20 ADD JUMPDEST PUSH1 0x60 DUP2 MSTORE PUSH1 0x20 ADD SWAP1 PUSH1 0x1 SWAP1 SUB SWAP1 DUP2 PUSH2 0x1CB6 JUMPI SWAP1 POP POP SWAP1 POP PUSH1 0x0 JUMPDEST DUP3 DUP2 LT ISZERO PUSH2 0x1DF9 JUMPI DUP4 PUSH1 0x1 PUSH1 0x1 PUSH1 0x40 SHL SUB DUP2 GT ISZERO PUSH2 0x1CF0 JUMPI PUSH2 0x1CF0 PUSH2 0x2BDA JUMP JUMPDEST PUSH1 0x40 MLOAD SWAP1 DUP1 DUP3 MSTORE DUP1 PUSH1 0x20 MUL PUSH1 0x20 ADD DUP3 ADD PUSH1 0x40 MSTORE DUP1 ISZERO PUSH2 0x1D19 JUMPI DUP2 PUSH1 0x20 ADD PUSH1 0x20 DUP3 MUL DUP1 CALLDATASIZE DUP4 CALLDATACOPY ADD SWAP1 POP JUMPDEST POP DUP3 DUP3 DUP2 MLOAD DUP2 LT PUSH2 0x1D2C JUMPI PUSH2 0x1D2C PUSH2 0x3249 JUMP JUMPDEST PUSH1 0x20 MUL PUSH1 0x20 ADD ADD DUP2 SWAP1 MSTORE POP PUSH1 0x0 JUMPDEST DUP5 DUP2 LT ISZERO PUSH2 0x1DF0 JUMPI PUSH2 0x1DA1 PUSH1 0x1 DUP3 PUSH2 0x1D52 DUP9 DUP7 PUSH2 0x359D JUMP JUMPDEST PUSH2 0x1D5C SWAP2 SWAP1 PUSH2 0x3275 JUMP JUMPDEST PUSH2 0x1D66 DUP8 DUP10 PUSH2 0x359D JUMP JUMPDEST PUSH2 0x1D70 SWAP2 SWAP1 PUSH2 0x3560 JUMP JUMPDEST PUSH2 0x1D7A SWAP2 SWAP1 PUSH2 0x3560 JUMP JUMPDEST PUSH1 0x8 DUP2 SWAP1 SHR PUSH1 0x0 SWAP1 DUP2 MSTORE PUSH1 0x3 DUP10 ADD PUSH1 0x20 MSTORE PUSH1 0x40 SWAP1 KECCAK256 SLOAD PUSH1 0x1 PUSH1 0xFF SWAP1 SWAP3 AND SWAP2 SWAP1 SWAP2 SHL AND ISZERO ISZERO SWAP1 JUMP JUMPDEST PUSH2 0x1DAC JUMPI PUSH1 0x0 PUSH2 0x1DAF JUMP JUMPDEST PUSH1 0x1 JUMPDEST PUSH1 0xFF AND DUP4 DUP4 DUP2 MLOAD DUP2 LT PUSH2 0x1DC4 JUMPI PUSH2 0x1DC4 PUSH2 0x3249 JUMP JUMPDEST PUSH1 0x20 MUL PUSH1 0x20 ADD ADD MLOAD DUP3 DUP2 MLOAD DUP2 LT PUSH2 0x1DDD JUMPI PUSH2 0x1DDD PUSH2 0x3249 JUMP JUMPDEST PUSH1 0x20 SWAP1 DUP2 MUL SWAP2 SWAP1 SWAP2 ADD ADD MSTORE PUSH1 0x1 ADD PUSH2 0x1D3A JUMP JUMPDEST POP PUSH1 0x1 ADD PUSH2 0x1CD0 JUMP JUMPDEST POP PUSH1 0x40 DUP1 MLOAD PUSH1 0x20 DUP2 ADD SWAP1 SWAP2 MSTORE PUSH1 0x0 DUP1 DUP3 MSTORE JUMPDEST DUP4 DUP2 LT ISZERO PUSH2 0x1FA2 JUMPI PUSH1 0x0 DUP4 DUP3 DUP2 MLOAD DUP2 LT PUSH2 0x1E27 JUMPI PUSH2 0x1E27 PUSH2 0x3249 JUMP JUMPDEST PUSH1 0x20 MUL PUSH1 0x20 ADD ADD MLOAD PUSH1 0x0 DUP2 MLOAD DUP2 LT PUSH2 0x1E41 JUMPI PUSH2 0x1E41 PUSH2 0x3249 JUMP JUMPDEST PUSH1 0x20 MUL PUSH1 0x20 ADD ADD MLOAD SWAP1 POP PUSH1 0x0 DUP1 JUMPDEST DUP8 DUP2 LT ISZERO PUSH2 0x1F27 JUMPI PUSH1 0x0 DUP7 DUP6 DUP2 MLOAD DUP2 LT PUSH2 0x1E6B JUMPI PUSH2 0x1E6B PUSH2 0x3249 JUMP JUMPDEST PUSH1 0x20 MUL PUSH1 0x20 ADD ADD MLOAD DUP3 DUP2 MLOAD DUP2 LT PUSH2 0x1E84 JUMPI PUSH2 0x1E84 PUSH2 0x3249 JUMP JUMPDEST PUSH1 0x20 MUL PUSH1 0x20 ADD ADD MLOAD SWAP1 POP DUP4 DUP2 SUB PUSH2 0x1EA7 JUMPI DUP3 PUSH2 0x1E9F DUP2 PUSH2 0x3547 JUMP JUMPDEST SWAP4 POP POP PUSH2 0x1F1E JUMP JUMPDEST DUP6 PUSH2 0x1EB1 DUP5 PUSH2 0x1FAD JUMP JUMPDEST DUP6 PUSH1 0x1 EQ PUSH2 0x1ED8 JUMPI PUSH1 0x40 MLOAD DUP1 PUSH1 0x40 ADD PUSH1 0x40 MSTORE DUP1 PUSH1 0x1 DUP2 MSTORE PUSH1 0x20 ADD PUSH1 0x31 PUSH1 0xF9 SHL DUP2 MSTORE POP PUSH2 0x1EF3 JUMP JUMPDEST PUSH1 0x40 MLOAD DUP1 PUSH1 0x40 ADD PUSH1 0x40 MSTORE DUP1 PUSH1 0x1 DUP2 MSTORE PUSH1 0x20 ADD PUSH1 0x6F PUSH1 0xF8 SHL DUP2 MSTORE POP JUMPDEST PUSH1 0x40 MLOAD PUSH1 0x20 ADD PUSH2 0x1F05 SWAP4 SWAP3 SWAP2 SWAP1 PUSH2 0x36C1 JUMP JUMPDEST PUSH1 0x40 MLOAD PUSH1 0x20 DUP2 DUP4 SUB SUB DUP2 MSTORE SWAP1 PUSH1 0x40 MSTORE SWAP6 POP DUP1 SWAP4 POP PUSH1 0x1 SWAP3 POP JUMPDEST POP PUSH1 0x1 ADD PUSH2 0x1E4F JUMP JUMPDEST POP DUP4 PUSH2 0x1F32 DUP3 PUSH2 0x1FAD JUMP JUMPDEST DUP4 PUSH1 0x1 EQ PUSH2 0x1F59 JUMPI PUSH1 0x40 MLOAD DUP1 PUSH1 0x40 ADD PUSH1 0x40 MSTORE DUP1 PUSH1 0x1 DUP2 MSTORE PUSH1 0x20 ADD PUSH1 0x31 PUSH1 0xF9 SHL DUP2 MSTORE POP PUSH2 0x1F74 JUMP JUMPDEST PUSH1 0x40 MLOAD DUP1 PUSH1 0x40 ADD PUSH1 0x40 MSTORE DUP1 PUSH1 0x1 DUP2 MSTORE PUSH1 0x20 ADD PUSH1 0x6F PUSH1 0xF8 SHL DUP2 MSTORE POP JUMPDEST PUSH1 0x40 MLOAD PUSH1 0x20 ADD PUSH2 0x1F86 SWAP4 SWAP3 SWAP2 SWAP1 PUSH2 0x3704 JUMP JUMPDEST PUSH1 0x40 DUP1 MLOAD DUP1 DUP4 SUB PUSH1 0x1F NOT ADD DUP2 MSTORE SWAP2 SWAP1 MSTORE SWAP4 POP POP POP PUSH1 0x1 ADD PUSH2 0x1E0B JUMP JUMPDEST POP SWAP7 SWAP6 POP POP POP POP POP POP JUMP JUMPDEST PUSH1 0x60 PUSH1 0x0 PUSH2 0x1FBA DUP4 PUSH2 0x26CA JUMP JUMPDEST PUSH1 0x1 ADD SWAP1 POP PUSH1 0x0 DUP2 PUSH1 0x1 PUSH1 0x1 PUSH1 0x40 SHL SUB DUP2 GT ISZERO PUSH2 0x1FD9 JUMPI PUSH2 0x1FD9 PUSH2 0x2BDA JUMP JUMPDEST PUSH1 0x40 MLOAD SWAP1 DUP1 DUP3 MSTORE DUP1 PUSH1 0x1F ADD PUSH1 0x1F NOT AND PUSH1 0x20 ADD DUP3 ADD PUSH1 0x40 MSTORE DUP1 ISZERO PUSH2 0x2003 JUMPI PUSH1 0x20 DUP3 ADD DUP2 DUP1 CALLDATASIZE DUP4 CALLDATACOPY ADD SWAP1 POP JUMPDEST POP SWAP1 POP DUP2 DUP2 ADD PUSH1 0x20 ADD JUMPDEST PUSH1 0x0 NOT ADD PUSH16 0x181899199A1A9B1B9C1CB0B131B232B3 PUSH1 0x81 SHL PUSH1 0xA DUP7 MOD BYTE DUP2 MSTORE8 PUSH1 0xA DUP6 DIV SWAP5 POP DUP5 PUSH2 0x200D JUMPI POP SWAP4 SWAP3 POP POP POP JUMP JUMPDEST ADDRESS PUSH1 0x1 PUSH1 0x1 PUSH1 0xA0 SHL SUB PUSH32 0x0 AND EQ DUP1 PUSH2 0x20C6 JUMPI POP PUSH32 0x0 PUSH1 0x1 PUSH1 0x1 PUSH1 0xA0 SHL SUB AND PUSH2 0x20BA PUSH1 0x0 DUP1 MLOAD PUSH1 0x20 PUSH2 0x382D DUP4 CODECOPY DUP2 MLOAD SWAP2 MSTORE SLOAD PUSH1 0x1 PUSH1 0x1 PUSH1 0xA0 SHL SUB AND SWAP1 JUMP JUMPDEST PUSH1 0x1 PUSH1 0x1 PUSH1 0xA0 SHL SUB AND EQ ISZERO JUMPDEST ISZERO PUSH2 0xE5D JUMPI PUSH1 0x40 MLOAD PUSH4 0x703E46DD PUSH1 0xE1 SHL DUP2 MSTORE PUSH1 0x4 ADD PUSH1 0x40 MLOAD DUP1 SWAP2 SUB SWAP1 REVERT JUMPDEST PUSH2 0x1A69 PUSH2 0x1A6C JUMP JUMPDEST DUP2 PUSH1 0x1 PUSH1 0x1 PUSH1 0xA0 SHL SUB AND PUSH4 0x52D1902D PUSH1 0x40 MLOAD DUP2 PUSH4 0xFFFFFFFF AND PUSH1 0xE0 SHL DUP2 MSTORE PUSH1 0x4 ADD PUSH1 0x20 PUSH1 0x40 MLOAD DUP1 DUP4 SUB DUP2 DUP7 GAS STATICCALL SWAP3 POP POP POP DUP1 ISZERO PUSH2 0x2146 JUMPI POP PUSH1 0x40 DUP1 MLOAD PUSH1 0x1F RETURNDATASIZE SWAP1 DUP2 ADD PUSH1 0x1F NOT AND DUP3 ADD SWAP1 SWAP3 MSTORE PUSH2 0x2143 SWAP2 DUP2 ADD SWAP1 PUSH2 0x3753 JUMP JUMPDEST PUSH1 0x1 JUMPDEST PUSH2 0x216E JUMPI PUSH1 0x40 MLOAD PUSH4 0x4C9C8CE3 PUSH1 0xE0 SHL DUP2 MSTORE PUSH1 0x1 PUSH1 0x1 PUSH1 0xA0 SHL SUB DUP4 AND PUSH1 0x4 DUP3 ADD MSTORE PUSH1 0x24 ADD PUSH2 0x809 JUMP JUMPDEST PUSH1 0x0 DUP1 MLOAD PUSH1 0x20 PUSH2 0x382D DUP4 CODECOPY DUP2 MLOAD SWAP2 MSTORE DUP2 EQ PUSH2 0x219F JUMPI PUSH1 0x40 MLOAD PUSH4 0x2A875269 PUSH1 0xE2 SHL DUP2 MSTORE PUSH1 0x4 DUP2 ADD DUP3 SWAP1 MSTORE PUSH1 0x24 ADD PUSH2 0x809 JUMP JUMPDEST PUSH2 0x8F5 DUP4 DUP4 PUSH2 0x27A2 JUMP JUMPDEST ADDRESS PUSH1 0x1 PUSH1 0x1 PUSH1 0xA0 SHL SUB PUSH32 0x0 AND EQ PUSH2 0xE5D JUMPI PUSH1 0x40 MLOAD PUSH4 0x703E46DD PUSH1 0xE1 SHL DUP2 MSTORE PUSH1 0x4 ADD PUSH1 0x40 MLOAD DUP1 SWAP2 SUB SWAP1 REVERT JUMPDEST PUSH32 0x9016D09D72D40FDAE2FD8CEAC6B6234C7706214FD39C1CD1E609A0528C199300 DUP1 SLOAD PUSH1 0x1 PUSH1 0x1 PUSH1 0xA0 SHL SUB NOT DUP2 AND PUSH1 0x1 PUSH1 0x1 PUSH1 0xA0 SHL SUB DUP5 DUP2 AND SWAP2 DUP3 OR DUP5 SSTORE PUSH1 0x40 MLOAD SWAP3 AND SWAP2 DUP3 SWAP1 PUSH32 0x8BE0079C531659141344CD1FD0A4F28419497F9722A3DAAFE3B4186F6B6457E0 SWAP1 PUSH1 0x0 SWAP1 LOG3 POP POP POP JUMP JUMPDEST PUSH2 0x226B PUSH2 0x27F8 JUMP JUMPDEST PUSH2 0xC76 DUP3 DUP3 PUSH2 0x2841 JUMP JUMPDEST PUSH2 0x227D PUSH2 0x27F8 JUMP JUMPDEST PUSH2 0x1A69 DUP2 PUSH2 0x2872 JUMP JUMPDEST PUSH1 0x1 PUSH1 0x1 PUSH1 0xA0 SHL SUB DUP3 AND PUSH2 0x22B0 JUMPI PUSH1 0x40 MLOAD PUSH4 0x32505749 PUSH1 0xE1 SHL DUP2 MSTORE PUSH1 0x0 PUSH1 0x4 DUP3 ADD MSTORE PUSH1 0x24 ADD PUSH2 0x809 JUMP JUMPDEST PUSH1 0x0 PUSH2 0x22BE DUP4 DUP4 PUSH1 0x0 PUSH2 0x1B80 JUMP JUMPDEST SWAP1 POP PUSH1 0x1 PUSH1 0x1 PUSH1 0xA0 SHL SUB DUP2 AND ISZERO PUSH2 0x8F5 JUMPI PUSH1 0x40 MLOAD PUSH4 0x39E35637 PUSH1 0xE1 SHL DUP2 MSTORE PUSH1 0x0 PUSH1 0x4 DUP3 ADD MSTORE PUSH1 0x24 ADD PUSH2 0x809 JUMP JUMPDEST PUSH1 0x0 DUP1 MLOAD PUSH1 0x20 PUSH2 0x37E3 DUP4 CODECOPY DUP2 MLOAD SWAP2 MSTORE PUSH1 0x1 PUSH1 0x1 PUSH1 0xA0 SHL SUB DUP4 AND PUSH2 0x232C JUMPI PUSH1 0x40 MLOAD PUSH4 0xB611743 PUSH1 0xE3 SHL DUP2 MSTORE PUSH1 0x1 PUSH1 0x1 PUSH1 0xA0 SHL SUB DUP5 AND PUSH1 0x4 DUP3 ADD MSTORE PUSH1 0x24 ADD PUSH2 0x809 JUMP JUMPDEST PUSH1 0x1 PUSH1 0x1 PUSH1 0xA0 SHL SUB DUP5 DUP2 AND PUSH1 0x0 DUP2 DUP2 MSTORE PUSH1 0x5 DUP5 ADD PUSH1 0x20 SWAP1 DUP2 MSTORE PUSH1 0x40 DUP1 DUP4 KECCAK256 SWAP5 DUP9 AND DUP1 DUP5 MSTORE SWAP5 DUP3 MSTORE SWAP2 DUP3 SWAP1 KECCAK256 DUP1 SLOAD PUSH1 0xFF NOT AND DUP8 ISZERO ISZERO SWAP1 DUP2 OR SWAP1 SWAP2 SSTORE SWAP2 MLOAD SWAP2 DUP3 MSTORE PUSH32 0x17307EAB39AB6107E8899845AD3D59BD9653F200F220920489CA2B5937696C31 SWAP2 ADD PUSH1 0x40 MLOAD DUP1 SWAP2 SUB SWAP1 LOG3 POP POP POP POP JUMP JUMPDEST PUSH1 0x1 PUSH1 0x1 PUSH1 0xA0 SHL SUB DUP4 AND EXTCODESIZE ISZERO PUSH2 0xCFF JUMPI PUSH1 0x40 MLOAD PUSH4 0xA85BD01 PUSH1 0xE1 SHL DUP2 MSTORE PUSH1 0x1 PUSH1 0x1 PUSH1 0xA0 SHL SUB DUP5 AND SWAP1 PUSH4 0x150B7A02 SWAP1 PUSH2 0x23DE SWAP1 CALLER SWAP1 DUP9 SWAP1 DUP8 SWAP1 DUP8 SWAP1 PUSH1 0x4 ADD PUSH2 0x376C JUMP JUMPDEST PUSH1 0x20 PUSH1 0x40 MLOAD DUP1 DUP4 SUB DUP2 PUSH1 0x0 DUP8 GAS CALL SWAP3 POP POP POP DUP1 ISZERO PUSH2 0x2419 JUMPI POP PUSH1 0x40 DUP1 MLOAD PUSH1 0x1F RETURNDATASIZE SWAP1 DUP2 ADD PUSH1 0x1F NOT AND DUP3 ADD SWAP1 SWAP3 MSTORE PUSH2 0x2416 SWAP2 DUP2 ADD SWAP1 PUSH2 0x37A9 JUMP JUMPDEST PUSH1 0x1 JUMPDEST PUSH2 0x2482 JUMPI RETURNDATASIZE DUP1 DUP1 ISZERO PUSH2 0x2447 JUMPI PUSH1 0x40 MLOAD SWAP2 POP PUSH1 0x1F NOT PUSH1 0x3F RETURNDATASIZE ADD AND DUP3 ADD PUSH1 0x40 MSTORE RETURNDATASIZE DUP3 MSTORE RETURNDATASIZE PUSH1 0x0 PUSH1 0x20 DUP5 ADD RETURNDATACOPY PUSH2 0x244C JUMP JUMPDEST PUSH1 0x60 SWAP2 POP JUMPDEST POP DUP1 MLOAD PUSH1 0x0 SUB PUSH2 0x247A JUMPI PUSH1 0x40 MLOAD PUSH4 0x32505749 PUSH1 0xE1 SHL DUP2 MSTORE PUSH1 0x1 PUSH1 0x1 PUSH1 0xA0 SHL SUB DUP6 AND PUSH1 0x4 DUP3 ADD MSTORE PUSH1 0x24 ADD PUSH2 0x809 JUMP JUMPDEST DUP1 MLOAD DUP2 PUSH1 0x20 ADD REVERT JUMPDEST PUSH1 0x1 PUSH1 0x1 PUSH1 0xE0 SHL SUB NOT DUP2 AND PUSH4 0xA85BD01 PUSH1 0xE1 SHL EQ PUSH2 0xC64 JUMPI PUSH1 0x40 MLOAD PUSH4 0x32505749 PUSH1 0xE1 SHL DUP2 MSTORE PUSH1 0x1 PUSH1 0x1 PUSH1 0xA0 SHL SUB DUP6 AND PUSH1 0x4 DUP3 ADD MSTORE PUSH1 0x24 ADD PUSH2 0x809 JUMP JUMPDEST PUSH1 0x60 PUSH1 0x5 DUP1 SLOAD PUSH2 0x24CD SWAP1 PUSH2 0x320F JUMP JUMPDEST DUP1 PUSH1 0x1F ADD PUSH1 0x20 DUP1 SWAP2 DIV MUL PUSH1 0x20 ADD PUSH1 0x40 MLOAD SWAP1 DUP2 ADD PUSH1 0x40 MSTORE DUP1 SWAP3 SWAP2 SWAP1 DUP2 DUP2 MSTORE PUSH1 0x20 ADD DUP3 DUP1 SLOAD PUSH2 0x24F9 SWAP1 PUSH2 0x320F JUMP JUMPDEST DUP1 ISZERO PUSH2 0x2546 JUMPI DUP1 PUSH1 0x1F LT PUSH2 0x251B JUMPI PUSH2 0x100 DUP1 DUP4 SLOAD DIV MUL DUP4 MSTORE SWAP2 PUSH1 0x20 ADD SWAP2 PUSH2 0x2546 JUMP JUMPDEST DUP3 ADD SWAP2 SWAP1 PUSH1 0x0 MSTORE PUSH1 0x20 PUSH1 0x0 KECCAK256 SWAP1 JUMPDEST DUP2 SLOAD DUP2 MSTORE SWAP1 PUSH1 0x1 ADD SWAP1 PUSH1 0x20 ADD DUP1 DUP4 GT PUSH2 0x2529 JUMPI DUP3 SWAP1 SUB PUSH1 0x1F AND DUP3 ADD SWAP2 JUMPDEST POP POP POP POP POP SWAP1 POP SWAP1 JUMP JUMPDEST PUSH1 0x0 DUP1 MLOAD PUSH1 0x20 PUSH2 0x37E3 DUP4 CODECOPY DUP2 MLOAD SWAP2 MSTORE DUP2 DUP1 PUSH2 0x2573 JUMPI POP PUSH1 0x1 PUSH1 0x1 PUSH1 0xA0 SHL SUB DUP4 AND ISZERO ISZERO JUMPDEST ISZERO PUSH2 0x2635 JUMPI PUSH1 0x0 PUSH2 0x2583 DUP6 PUSH2 0x1AC7 JUMP JUMPDEST SWAP1 POP PUSH1 0x1 PUSH1 0x1 PUSH1 0xA0 SHL SUB DUP5 AND ISZERO DUP1 ISZERO SWAP1 PUSH2 0x25AF JUMPI POP DUP4 PUSH1 0x1 PUSH1 0x1 PUSH1 0xA0 SHL SUB AND DUP2 PUSH1 0x1 PUSH1 0x1 PUSH1 0xA0 SHL SUB AND EQ ISZERO JUMPDEST DUP1 ISZERO PUSH2 0x25C2 JUMPI POP PUSH2 0x25C0 DUP2 DUP6 PUSH2 0x19E1 JUMP JUMPDEST ISZERO JUMPDEST ISZERO PUSH2 0x25EB JUMPI PUSH1 0x40 MLOAD PUSH4 0xA9FBF51F PUSH1 0xE0 SHL DUP2 MSTORE PUSH1 0x1 PUSH1 0x1 PUSH1 0xA0 SHL SUB DUP6 AND PUSH1 0x4 DUP3 ADD MSTORE PUSH1 0x24 ADD PUSH2 0x809 JUMP JUMPDEST DUP3 ISZERO PUSH2 0x2633 JUMPI DUP5 DUP7 PUSH1 0x1 PUSH1 0x1 PUSH1 0xA0 SHL SUB AND DUP3 PUSH1 0x1 PUSH1 0x1 PUSH1 0xA0 SHL SUB AND PUSH32 0x8C5BE1E5EBEC7D5BD14F71427D1E84F3DD0314C0F7B2291E5B200AC8C7C3B925 PUSH1 0x40 MLOAD PUSH1 0x40 MLOAD DUP1 SWAP2 SUB SWAP1 LOG4 JUMPDEST POP JUMPDEST PUSH1 0x0 SWAP4 DUP5 MSTORE PUSH1 0x4 ADD PUSH1 0x20 MSTORE POP POP PUSH1 0x40 SWAP1 KECCAK256 DUP1 SLOAD PUSH1 0x1 PUSH1 0x1 PUSH1 0xA0 SHL SUB NOT AND PUSH1 0x1 PUSH1 0x1 PUSH1 0xA0 SHL SUB SWAP3 SWAP1 SWAP3 AND SWAP2 SWAP1 SWAP2 OR SWAP1 SSTORE JUMP JUMPDEST PUSH2 0x2671 DUP4 DUP4 DUP4 PUSH2 0x287A JUMP JUMPDEST PUSH2 0x8F5 JUMPI PUSH1 0x1 PUSH1 0x1 PUSH1 0xA0 SHL SUB DUP4 AND PUSH2 0x269F JUMPI PUSH1 0x40 MLOAD PUSH4 0x7E273289 PUSH1 0xE0 SHL DUP2 MSTORE PUSH1 0x4 DUP2 ADD DUP3 SWAP1 MSTORE PUSH1 0x24 ADD PUSH2 0x809 JUMP JUMPDEST PUSH1 0x40 MLOAD PUSH4 0x177E802F PUSH1 0xE0 SHL DUP2 MSTORE PUSH1 0x1 PUSH1 0x1 PUSH1 0xA0 SHL SUB DUP4 AND PUSH1 0x4 DUP3 ADD MSTORE PUSH1 0x24 DUP2 ADD DUP3 SWAP1 MSTORE PUSH1 0x44 ADD PUSH2 0x809 JUMP JUMPDEST PUSH1 0x0 DUP1 PUSH19 0x184F03E93FF9F4DAA797ED6E38ED64BF6A1F01 PUSH1 0x40 SHL DUP4 LT PUSH2 0x2709 JUMPI PUSH19 0x184F03E93FF9F4DAA797ED6E38ED64BF6A1F01 PUSH1 0x40 SHL DUP4 DIV SWAP3 POP PUSH1 0x40 ADD JUMPDEST PUSH14 0x4EE2D6D415B85ACEF8100000000 DUP4 LT PUSH2 0x2735 JUMPI PUSH14 0x4EE2D6D415B85ACEF8100000000 DUP4 DIV SWAP3 POP PUSH1 0x20 ADD JUMPDEST PUSH7 0x2386F26FC10000 DUP4 LT PUSH2 0x2753 JUMPI PUSH7 0x2386F26FC10000 DUP4 DIV SWAP3 POP PUSH1 0x10 ADD JUMPDEST PUSH4 0x5F5E100 DUP4 LT PUSH2 0x276B JUMPI PUSH4 0x5F5E100 DUP4 DIV SWAP3 POP PUSH1 0x8 ADD JUMPDEST PUSH2 0x2710 DUP4 LT PUSH2 0x277F JUMPI PUSH2 0x2710 DUP4 DIV SWAP3 POP PUSH1 0x4 ADD JUMPDEST PUSH1 0x64 DUP4 LT PUSH2 0x2791 JUMPI PUSH1 0x64 DUP4 DIV SWAP3 POP PUSH1 0x2 ADD JUMPDEST PUSH1 0xA DUP4 LT PUSH2 0xA12 JUMPI PUSH1 0x1 ADD SWAP3 SWAP2 POP POP JUMP JUMPDEST PUSH2 0x27AB DUP3 PUSH2 0x28DF JUMP JUMPDEST PUSH1 0x40 MLOAD PUSH1 0x1 PUSH1 0x1 PUSH1 0xA0 SHL SUB DUP4 AND SWAP1 PUSH32 0xBC7CD75A20EE27FD9ADEBAB32041F755214DBC6BFFA90CC0225B39DA2E5C2D3B SWAP1 PUSH1 0x0 SWAP1 LOG2 DUP1 MLOAD ISZERO PUSH2 0x27F0 JUMPI PUSH2 0x8F5 DUP3 DUP3 PUSH2 0x2944 JUMP JUMPDEST PUSH2 0xC76 PUSH2 0x29BA JUMP JUMPDEST PUSH32 0xF0C57E16840DF040F15088DC2F81FE391C3923BEC73E23A9662EFC9C229C6A00 SLOAD PUSH1 0x1 PUSH1 0x40 SHL SWAP1 DIV PUSH1 0xFF AND PUSH2 0xE5D JUMPI PUSH1 0x40 MLOAD PUSH4 0x1AFCD79F PUSH1 0xE3 SHL DUP2 MSTORE PUSH1 0x4 ADD PUSH1 0x40 MLOAD DUP1 SWAP2 SUB SWAP1 REVERT JUMPDEST PUSH2 0x2849 PUSH2 0x27F8 JUMP JUMPDEST PUSH1 0x0 DUP1 MLOAD PUSH1 0x20 PUSH2 0x37E3 DUP4 CODECOPY DUP2 MLOAD SWAP2 MSTORE DUP1 PUSH2 0x2863 DUP5 DUP3 PUSH2 0x343F JUMP JUMPDEST POP PUSH1 0x1 DUP2 ADD PUSH2 0xCFF DUP4 DUP3 PUSH2 0x343F JUMP JUMPDEST PUSH2 0x1A36 PUSH2 0x27F8 JUMP JUMPDEST PUSH1 0x0 PUSH1 0x1 PUSH1 0x1 PUSH1 0xA0 SHL SUB DUP4 AND ISZERO DUP1 ISZERO SWAP1 PUSH2 0x160A JUMPI POP DUP3 PUSH1 0x1 PUSH1 0x1 PUSH1 0xA0 SHL SUB AND DUP5 PUSH1 0x1 PUSH1 0x1 PUSH1 0xA0 SHL SUB AND EQ DUP1 PUSH2 0x28B4 JUMPI POP PUSH2 0x28B4 DUP5 DUP5 PUSH2 0x19E1 JUMP JUMPDEST DUP1 PUSH2 0x160A JUMPI POP DUP3 PUSH1 0x1 PUSH1 0x1 PUSH1 0xA0 SHL SUB AND PUSH2 0x28CD DUP4 PUSH2 0x1AFF JUMP JUMPDEST PUSH1 0x1 PUSH1 0x1 PUSH1 0xA0 SHL SUB AND EQ SWAP5 SWAP4 POP POP POP POP JUMP JUMPDEST DUP1 PUSH1 0x1 PUSH1 0x1 PUSH1 0xA0 SHL SUB AND EXTCODESIZE PUSH1 0x0 SUB PUSH2 0x2915 JUMPI PUSH1 0x40 MLOAD PUSH4 0x4C9C8CE3 PUSH1 0xE0 SHL DUP2 MSTORE PUSH1 0x1 PUSH1 0x1 PUSH1 0xA0 SHL SUB DUP3 AND PUSH1 0x4 DUP3 ADD MSTORE PUSH1 0x24 ADD PUSH2 0x809 JUMP JUMPDEST PUSH1 0x0 DUP1 MLOAD PUSH1 0x20 PUSH2 0x382D DUP4 CODECOPY DUP2 MLOAD SWAP2 MSTORE DUP1 SLOAD PUSH1 0x1 PUSH1 0x1 PUSH1 0xA0 SHL SUB NOT AND PUSH1 0x1 PUSH1 0x1 PUSH1 0xA0 SHL SUB SWAP3 SWAP1 SWAP3 AND SWAP2 SWAP1 SWAP2 OR SWAP1 SSTORE JUMP JUMPDEST PUSH1 0x60 PUSH1 0x0 DUP1 DUP5 PUSH1 0x1 PUSH1 0x1 PUSH1 0xA0 SHL SUB AND DUP5 PUSH1 0x40 MLOAD PUSH2 0x2961 SWAP2 SWAP1 PUSH2 0x37C6 JUMP JUMPDEST PUSH1 0x0 PUSH1 0x40 MLOAD DUP1 DUP4 SUB DUP2 DUP6 GAS DELEGATECALL SWAP2 POP POP RETURNDATASIZE DUP1 PUSH1 0x0 DUP2 EQ PUSH2 0x299C JUMPI PUSH1 0x40 MLOAD SWAP2 POP PUSH1 0x1F NOT PUSH1 0x3F RETURNDATASIZE ADD AND DUP3 ADD PUSH1 0x40 MSTORE RETURNDATASIZE DUP3 MSTORE RETURNDATASIZE PUSH1 0x0 PUSH1 0x20 DUP5 ADD RETURNDATACOPY PUSH2 0x29A1 JUMP JUMPDEST PUSH1 0x60 SWAP2 POP JUMPDEST POP SWAP2 POP SWAP2 POP PUSH2 0x29B1 DUP6 DUP4 DUP4 PUSH2 0x29D9 JUMP JUMPDEST SWAP6 SWAP5 POP POP POP POP POP JUMP JUMPDEST CALLVALUE ISZERO PUSH2 0xE5D JUMPI PUSH1 0x40 MLOAD PUSH4 0xB398979F PUSH1 0xE0 SHL DUP2 MSTORE PUSH1 0x4 ADD PUSH1 0x40 MLOAD DUP1 SWAP2 SUB SWAP1 REVERT JUMPDEST PUSH1 0x60 DUP3 PUSH2 0x29EE JUMPI PUSH2 0x29E9 DUP3 PUSH2 0x2A35 JUMP JUMPDEST PUSH2 0xEDC JUMP JUMPDEST DUP2 MLOAD ISZERO DUP1 ISZERO PUSH2 0x2A05 JUMPI POP PUSH1 0x1 PUSH1 0x1 PUSH1 0xA0 SHL SUB DUP5 AND EXTCODESIZE ISZERO JUMPDEST ISZERO PUSH2 0x2A2E JUMPI PUSH1 0x40 MLOAD PUSH4 0x9996B315 PUSH1 0xE0 SHL DUP2 MSTORE PUSH1 0x1 PUSH1 0x1 PUSH1 0xA0 SHL SUB DUP6 AND PUSH1 0x4 DUP3 ADD MSTORE PUSH1 0x24 ADD PUSH2 0x809 JUMP JUMPDEST POP DUP1 PUSH2 0xEDC JUMP JUMPDEST DUP1 MLOAD ISZERO PUSH2 0x2A45 JUMPI DUP1 MLOAD DUP1 DUP3 PUSH1 0x20 ADD REVERT JUMPDEST PUSH1 0x40 MLOAD PUSH4 0xA12F521 PUSH1 0xE1 SHL DUP2 MSTORE PUSH1 0x4 ADD PUSH1 0x40 MLOAD DUP1 SWAP2 SUB SWAP1 REVERT JUMPDEST DUP1 CALLDATALOAD PUSH1 0x1 PUSH1 0x1 PUSH1 0xA0 SHL SUB DUP2 AND DUP2 EQ PUSH2 0x2A75 JUMPI PUSH1 0x0 DUP1 REVERT JUMPDEST SWAP2 SWAP1 POP JUMP JUMPDEST PUSH1 0x0 DUP1 PUSH1 0x40 DUP4 DUP6 SUB SLT ISZERO PUSH2 0x2A8D JUMPI PUSH1 0x0 DUP1 REVERT JUMPDEST DUP3 CALLDATALOAD SWAP2 POP PUSH2 0x2A9D PUSH1 0x20 DUP5 ADD PUSH2 0x2A5E JUMP JUMPDEST SWAP1 POP SWAP3 POP SWAP3 SWAP1 POP JUMP JUMPDEST PUSH1 0x0 PUSH1 0x20 DUP3 DUP5 SUB SLT ISZERO PUSH2 0x2AB8 JUMPI PUSH1 0x0 DUP1 REVERT JUMPDEST POP CALLDATALOAD SWAP2 SWAP1 POP JUMP JUMPDEST PUSH1 0x0 JUMPDEST DUP4 DUP2 LT ISZERO PUSH2 0x2ADA JUMPI DUP2 DUP2 ADD MLOAD DUP4 DUP3 ADD MSTORE PUSH1 0x20 ADD PUSH2 0x2AC2 JUMP JUMPDEST POP POP PUSH1 0x0 SWAP2 ADD MSTORE JUMP JUMPDEST PUSH1 0x0 DUP2 MLOAD DUP1 DUP5 MSTORE PUSH2 0x2AFB DUP2 PUSH1 0x20 DUP7 ADD PUSH1 0x20 DUP7 ADD PUSH2 0x2ABF JUMP JUMPDEST PUSH1 0x1F ADD PUSH1 0x1F NOT AND SWAP3 SWAP1 SWAP3 ADD PUSH1 0x20 ADD SWAP3 SWAP2 POP POP JUMP JUMPDEST PUSH1 0xE0 DUP2 MSTORE PUSH1 0x0 PUSH2 0x2B22 PUSH1 0xE0 DUP4 ADD DUP11 PUSH2 0x2AE3 JUMP JUMPDEST PUSH1 0x20 DUP4 DUP2 ADD DUP11 SWAP1 MSTORE PUSH1 0x40 DUP5 ADD DUP10 SWAP1 MSTORE PUSH1 0x1 PUSH1 0x1 PUSH1 0x40 SHL SUB DUP9 DUP2 AND PUSH1 0x60 DUP7 ADD MSTORE DUP8 AND PUSH1 0x80 DUP6 ADD MSTORE PUSH1 0xA0 DUP5 ADD DUP7 SWAP1 MSTORE DUP4 DUP3 SUB PUSH1 0xC0 DUP6 ADD MSTORE DUP5 MLOAD DUP1 DUP4 MSTORE DUP6 DUP3 ADD SWAP3 DUP3 ADD SWAP1 PUSH1 0x0 JUMPDEST DUP2 DUP2 LT ISZERO PUSH2 0x2B82 JUMPI DUP5 MLOAD DUP4 MSTORE SWAP4 DUP4 ADD SWAP4 SWAP2 DUP4 ADD SWAP2 PUSH1 0x1 ADD PUSH2 0x2B66 JUMP JUMPDEST POP SWAP1 SWAP13 SWAP12 POP POP POP POP POP POP POP POP POP POP POP POP JUMP JUMPDEST PUSH1 0x1 PUSH1 0x1 PUSH1 0xE0 SHL SUB NOT DUP2 AND DUP2 EQ PUSH2 0x1A69 JUMPI PUSH1 0x0 DUP1 REVERT JUMPDEST PUSH1 0x0 PUSH1 0x20 DUP3 DUP5 SUB SLT ISZERO PUSH2 0x2BBC JUMPI PUSH1 0x0 DUP1 REVERT JUMPDEST DUP2 CALLDATALOAD PUSH2 0xEDC DUP2 PUSH2 0x2B94 JUMP JUMPDEST PUSH1 0x20 DUP2 MSTORE PUSH1 0x0 PUSH2 0xEDC PUSH1 0x20 DUP4 ADD DUP5 PUSH2 0x2AE3 JUMP JUMPDEST PUSH4 0x4E487B71 PUSH1 0xE0 SHL PUSH1 0x0 MSTORE PUSH1 0x41 PUSH1 0x4 MSTORE PUSH1 0x24 PUSH1 0x0 REVERT JUMPDEST PUSH1 0x40 MLOAD PUSH1 0x1F DUP3 ADD PUSH1 0x1F NOT AND DUP2 ADD PUSH1 0x1 PUSH1 0x1 PUSH1 0x40 SHL SUB DUP2 GT DUP3 DUP3 LT OR ISZERO PUSH2 0x2C18 JUMPI PUSH2 0x2C18 PUSH2 0x2BDA JUMP JUMPDEST PUSH1 0x40 MSTORE SWAP2 SWAP1 POP JUMP JUMPDEST PUSH1 0x0 DUP3 PUSH1 0x1F DUP4 ADD SLT PUSH2 0x2C31 JUMPI PUSH1 0x0 DUP1 REVERT JUMPDEST DUP2 CALLDATALOAD PUSH1 0x20 PUSH1 0x1 PUSH1 0x1 PUSH1 0x40 SHL SUB DUP3 GT ISZERO PUSH2 0x2C4C JUMPI PUSH2 0x2C4C PUSH2 0x2BDA JUMP JUMPDEST DUP2 PUSH1 0x5 SHL PUSH2 0x2C5B DUP3 DUP3 ADD PUSH2 0x2BF0 JUMP JUMPDEST SWAP3 DUP4 MSTORE DUP5 DUP2 ADD DUP3 ADD SWAP3 DUP3 DUP2 ADD SWAP1 DUP8 DUP6 GT ISZERO PUSH2 0x2C75 JUMPI PUSH1 0x0 DUP1 REVERT JUMPDEST DUP4 DUP8 ADD SWAP3 POP JUMPDEST DUP5 DUP4 LT ISZERO PUSH2 0x2C94 JUMPI DUP3 CALLDATALOAD DUP3 MSTORE SWAP2 DUP4 ADD SWAP2 SWAP1 DUP4 ADD SWAP1 PUSH2 0x2C7B JUMP JUMPDEST SWAP8 SWAP7 POP POP POP POP POP POP POP JUMP JUMPDEST PUSH1 0x0 DUP1 PUSH1 0x40 DUP4 DUP6 SUB SLT ISZERO PUSH2 0x2CB2 JUMPI PUSH1 0x0 DUP1 REVERT JUMPDEST DUP3 CALLDATALOAD PUSH1 0x1 PUSH1 0x1 PUSH1 0x40 SHL SUB DUP2 GT ISZERO PUSH2 0x2CC8 JUMPI PUSH1 0x0 DUP1 REVERT JUMPDEST PUSH2 0x2CD4 DUP6 DUP3 DUP7 ADD PUSH2 0x2C20 JUMP JUMPDEST SWAP6 PUSH1 0x20 SWAP5 SWAP1 SWAP5 ADD CALLDATALOAD SWAP5 POP POP POP POP JUMP JUMPDEST PUSH1 0x0 DUP1 PUSH1 0x40 DUP4 DUP6 SUB SLT ISZERO PUSH2 0x2CF6 JUMPI PUSH1 0x0 DUP1 REVERT JUMPDEST PUSH2 0x2CFF DUP4 PUSH2 0x2A5E JUMP JUMPDEST SWAP5 PUSH1 0x20 SWAP4 SWAP1 SWAP4 ADD CALLDATALOAD SWAP4 POP POP POP JUMP JUMPDEST PUSH1 0x0 DUP1 PUSH1 0x0 PUSH1 0x60 DUP5 DUP7 SUB SLT ISZERO PUSH2 0x2D22 JUMPI PUSH1 0x0 DUP1 REVERT JUMPDEST PUSH2 0x2D2B DUP5 PUSH2 0x2A5E JUMP JUMPDEST SWAP3 POP PUSH2 0x2D39 PUSH1 0x20 DUP6 ADD PUSH2 0x2A5E JUMP JUMPDEST SWAP2 POP PUSH1 0x40 DUP5 ADD CALLDATALOAD SWAP1 POP SWAP3 POP SWAP3 POP SWAP3 JUMP JUMPDEST PUSH1 0x0 DUP1 PUSH1 0x20 DUP4 DUP6 SUB SLT ISZERO PUSH2 0x2D5C JUMPI PUSH1 0x0 DUP1 REVERT JUMPDEST DUP3 CALLDATALOAD PUSH1 0x1 PUSH1 0x1 PUSH1 0x40 SHL SUB DUP1 DUP3 GT ISZERO PUSH2 0x2D73 JUMPI PUSH1 0x0 DUP1 REVERT JUMPDEST DUP2 DUP6 ADD SWAP2 POP DUP6 PUSH1 0x1F DUP4 ADD SLT PUSH2 0x2D87 JUMPI PUSH1 0x0 DUP1 REVERT JUMPDEST DUP2 CALLDATALOAD DUP2 DUP2 GT ISZERO PUSH2 0x2D96 JUMPI PUSH1 0x0 DUP1 REVERT JUMPDEST DUP7 PUSH1 0x20 DUP3 DUP6 ADD ADD GT ISZERO PUSH2 0x2DA8 JUMPI PUSH1 0x0 DUP1 REVERT JUMPDEST PUSH1 0x20 SWAP3 SWAP1 SWAP3 ADD SWAP7 SWAP2 SWAP6 POP SWAP1 SWAP4 POP POP POP POP JUMP JUMPDEST PUSH1 0x0 PUSH1 0x20 DUP3 DUP5 SUB SLT ISZERO PUSH2 0x2DCC JUMPI PUSH1 0x0 DUP1 REVERT JUMPDEST PUSH2 0xEDC DUP3 PUSH2 0x2A5E JUMP JUMPDEST PUSH1 0x0 DUP3 PUSH1 0x1F DUP4 ADD SLT PUSH2 0x2DE6 JUMPI PUSH1 0x0 DUP1 REVERT JUMPDEST DUP2 CALLDATALOAD PUSH1 0x1 PUSH1 0x1 PUSH1 0x40 SHL SUB DUP2 GT ISZERO PUSH2 0x2DFF JUMPI PUSH2 0x2DFF PUSH2 0x2BDA JUMP JUMPDEST PUSH2 0x2E12 PUSH1 0x1F DUP3 ADD PUSH1 0x1F NOT AND PUSH1 0x20 ADD PUSH2 0x2BF0 JUMP JUMPDEST DUP2 DUP2 MSTORE DUP5 PUSH1 0x20 DUP4 DUP7 ADD ADD GT ISZERO PUSH2 0x2E27 JUMPI PUSH1 0x0 DUP1 REVERT JUMPDEST DUP2 PUSH1 0x20 DUP6 ADD PUSH1 0x20 DUP4 ADD CALLDATACOPY PUSH1 0x0 SWAP2 DUP2 ADD PUSH1 0x20 ADD SWAP2 SWAP1 SWAP2 MSTORE SWAP4 SWAP3 POP POP POP JUMP JUMPDEST PUSH1 0x0 DUP1 PUSH1 0x40 DUP4 DUP6 SUB SLT ISZERO PUSH2 0x2E57 JUMPI PUSH1 0x0 DUP1 REVERT JUMPDEST PUSH2 0x2E60 DUP4 PUSH2 0x2A5E JUMP JUMPDEST SWAP2 POP PUSH1 0x20 DUP4 ADD CALLDATALOAD PUSH1 0x1 PUSH1 0x1 PUSH1 0x40 SHL SUB DUP2 GT ISZERO PUSH2 0x2E7B JUMPI PUSH1 0x0 DUP1 REVERT JUMPDEST PUSH2 0x2E87 DUP6 DUP3 DUP7 ADD PUSH2 0x2DD5 JUMP JUMPDEST SWAP2 POP POP SWAP3 POP SWAP3 SWAP1 POP JUMP JUMPDEST PUSH1 0x0 PUSH2 0x120 DUP1 DUP4 DUP6 SUB SLT ISZERO PUSH2 0x2EA5 JUMPI PUSH1 0x0 DUP1 REVERT JUMPDEST DUP4 DUP2 DUP5 ADD GT ISZERO PUSH2 0x2EB4 JUMPI PUSH1 0x0 DUP1 REVERT JUMPDEST POP SWAP1 SWAP3 SWAP2 POP POP JUMP JUMPDEST PUSH1 0x0 DUP1 PUSH1 0x0 PUSH1 0x60 DUP5 DUP7 SUB SLT ISZERO PUSH2 0x2ED1 JUMPI PUSH1 0x0 DUP1 REVERT JUMPDEST PUSH2 0x2EDA DUP5 PUSH2 0x2A5E JUMP JUMPDEST SWAP3 POP PUSH1 0x20 DUP5 ADD CALLDATALOAD PUSH1 0x1 PUSH1 0x1 PUSH1 0x40 SHL SUB DUP1 DUP3 GT ISZERO PUSH2 0x2EF6 JUMPI PUSH1 0x0 DUP1 REVERT JUMPDEST PUSH2 0x2F02 DUP8 DUP4 DUP9 ADD PUSH2 0x2DD5 JUMP JUMPDEST SWAP4 POP PUSH1 0x40 DUP7 ADD CALLDATALOAD SWAP2 POP DUP1 DUP3 GT ISZERO PUSH2 0x2F18 JUMPI PUSH1 0x0 DUP1 REVERT JUMPDEST POP PUSH2 0x2F25 DUP7 DUP3 DUP8 ADD PUSH2 0x2DD5 JUMP JUMPDEST SWAP2 POP POP SWAP3 POP SWAP3 POP SWAP3 JUMP JUMPDEST PUSH1 0x0 DUP1 DUP4 PUSH1 0x1F DUP5 ADD SLT PUSH2 0x2F41 JUMPI PUSH1 0x0 DUP1 REVERT JUMPDEST POP DUP2 CALLDATALOAD PUSH1 0x1 PUSH1 0x1 PUSH1 0x40 SHL SUB DUP2 GT ISZERO PUSH2 0x2F58 JUMPI PUSH1 0x0 DUP1 REVERT JUMPDEST PUSH1 0x20 DUP4 ADD SWAP2 POP DUP4 PUSH1 0x20 DUP3 PUSH1 0x5 SHL DUP6 ADD ADD GT ISZERO PUSH2 0x2F73 JUMPI PUSH1 0x0 DUP1 REVERT JUMPDEST SWAP3 POP SWAP3 SWAP1 POP JUMP JUMPDEST PUSH1 0x0 DUP1 PUSH1 0x0 DUP1 PUSH1 0x0 DUP1 PUSH1 0x0 DUP1 PUSH1 0xA0 DUP10 DUP12 SUB SLT ISZERO PUSH2 0x2F96 JUMPI PUSH1 0x0 DUP1 REVERT JUMPDEST PUSH2 0x2F9F DUP10 PUSH2 0x2A5E JUMP JUMPDEST SWAP8 POP PUSH1 0x20 DUP10 ADD CALLDATALOAD SWAP7 POP PUSH1 0x40 DUP10 ADD CALLDATALOAD PUSH1 0x1 PUSH1 0x1 PUSH1 0x40 SHL SUB DUP1 DUP3 GT ISZERO PUSH2 0x2FC2 JUMPI PUSH1 0x0 DUP1 REVERT JUMPDEST PUSH2 0x2FCE DUP13 DUP4 DUP14 ADD PUSH2 0x2F2F JUMP JUMPDEST SWAP1 SWAP9 POP SWAP7 POP PUSH1 0x60 DUP12 ADD CALLDATALOAD SWAP2 POP DUP1 DUP3 GT ISZERO PUSH2 0x2FE7 JUMPI PUSH1 0x0 DUP1 REVERT JUMPDEST PUSH2 0x2FF3 DUP13 DUP4 DUP14 ADD PUSH2 0x2F2F JUMP JUMPDEST SWAP1 SWAP7 POP SWAP5 POP PUSH1 0x80 DUP12 ADD CALLDATALOAD SWAP2 POP DUP1 DUP3 GT ISZERO PUSH2 0x300C JUMPI PUSH1 0x0 DUP1 REVERT JUMPDEST POP PUSH2 0x3019 DUP12 DUP3 DUP13 ADD PUSH2 0x2F2F JUMP JUMPDEST SWAP10 SWAP13 SWAP9 SWAP12 POP SWAP7 SWAP10 POP SWAP5 SWAP8 SWAP4 SWAP7 SWAP3 SWAP6 SWAP5 POP POP POP JUMP JUMPDEST DUP1 ISZERO ISZERO DUP2 EQ PUSH2 0x1A69 JUMPI PUSH1 0x0 DUP1 REVERT JUMPDEST PUSH1 0x0 DUP1 PUSH1 0x40 DUP4 DUP6 SUB SLT ISZERO PUSH2 0x304E JUMPI PUSH1 0x0 DUP1 REVERT JUMPDEST PUSH2 0x3057 DUP4 PUSH2 0x2A5E JUMP JUMPDEST SWAP2 POP PUSH1 0x20 DUP4 ADD CALLDATALOAD PUSH2 0x3067 DUP2 PUSH2 0x302D JUMP JUMPDEST DUP1 SWAP2 POP POP SWAP3 POP SWAP3 SWAP1 POP JUMP JUMPDEST DUP1 CALLDATALOAD PUSH1 0xFF DUP2 AND DUP2 EQ PUSH2 0x2A75 JUMPI PUSH1 0x0 DUP1 REVERT JUMPDEST PUSH1 0x0 PUSH2 0x120 DUP1 DUP4 DUP6 SUB SLT ISZERO PUSH2 0x3097 JUMPI PUSH1 0x0 DUP1 REVERT JUMPDEST DUP4 PUSH1 0x1F DUP5 ADD SLT PUSH2 0x30A6 JUMPI PUSH1 0x0 DUP1 REVERT JUMPDEST PUSH1 0x40 MLOAD DUP2 DUP2 ADD DUP2 DUP2 LT PUSH1 0x1 PUSH1 0x1 PUSH1 0x40 SHL SUB DUP3 GT OR ISZERO PUSH2 0x30C7 JUMPI PUSH2 0x30C7 PUSH2 0x2BDA JUMP JUMPDEST PUSH1 0x40 MSTORE SWAP1 DUP4 ADD SWAP1 DUP1 DUP6 DUP4 GT ISZERO PUSH2 0x30DC JUMPI PUSH1 0x0 DUP1 REVERT JUMPDEST DUP5 JUMPDEST DUP4 DUP2 LT ISZERO PUSH2 0x30FD JUMPI PUSH2 0x30EF DUP2 PUSH2 0x3072 JUMP JUMPDEST DUP3 MSTORE PUSH1 0x20 SWAP2 DUP3 ADD SWAP2 ADD PUSH2 0x30DE JUMP JUMPDEST POP SWAP1 SWAP6 SWAP5 POP POP POP POP POP JUMP JUMPDEST PUSH1 0x0 DUP1 PUSH1 0x0 DUP1 PUSH1 0x80 DUP6 DUP8 SUB SLT ISZERO PUSH2 0x311E JUMPI PUSH1 0x0 DUP1 REVERT JUMPDEST PUSH2 0x3127 DUP6 PUSH2 0x2A5E JUMP JUMPDEST SWAP4 POP PUSH2 0x3135 PUSH1 0x20 DUP7 ADD PUSH2 0x2A5E JUMP JUMPDEST SWAP3 POP PUSH1 0x40 DUP6 ADD CALLDATALOAD SWAP2 POP PUSH1 0x60 DUP6 ADD CALLDATALOAD PUSH1 0x1 PUSH1 0x1 PUSH1 0x40 SHL SUB DUP2 GT ISZERO PUSH2 0x3157 JUMPI PUSH1 0x0 DUP1 REVERT JUMPDEST PUSH2 0x3163 DUP8 DUP3 DUP9 ADD PUSH2 0x2DD5 JUMP JUMPDEST SWAP2 POP POP SWAP3 SWAP6 SWAP2 SWAP5 POP SWAP3 POP JUMP JUMPDEST PUSH1 0x0 DUP1 PUSH1 0x40 DUP4 DUP6 SUB SLT ISZERO PUSH2 0x3182 JUMPI PUSH1 0x0 DUP1 REVERT JUMPDEST DUP3 CALLDATALOAD PUSH1 0x1 PUSH1 0x1 PUSH1 0x40 SHL SUB DUP1 DUP3 GT ISZERO PUSH2 0x3199 JUMPI PUSH1 0x0 DUP1 REVERT JUMPDEST PUSH2 0x31A5 DUP7 DUP4 DUP8 ADD PUSH2 0x2C20 JUMP JUMPDEST SWAP4 POP PUSH1 0x20 DUP6 ADD CALLDATALOAD SWAP2 POP DUP1 DUP3 GT ISZERO PUSH2 0x31BB JUMPI PUSH1 0x0 DUP1 REVERT JUMPDEST POP PUSH2 0x2E87 DUP6 DUP3 DUP7 ADD PUSH2 0x2C20 JUMP JUMPDEST PUSH1 0x0 DUP1 PUSH1 0x40 DUP4 DUP6 SUB SLT ISZERO PUSH2 0x31DB JUMPI PUSH1 0x0 DUP1 REVERT JUMPDEST PUSH2 0x31E4 DUP4 PUSH2 0x2A5E JUMP JUMPDEST SWAP2 POP PUSH2 0x2A9D PUSH1 0x20 DUP5 ADD PUSH2 0x2A5E JUMP JUMPDEST PUSH1 0x0 PUSH1 0x20 DUP3 DUP5 SUB SLT ISZERO PUSH2 0x3204 JUMPI PUSH1 0x0 DUP1 REVERT JUMPDEST DUP2 MLOAD PUSH2 0xEDC DUP2 PUSH2 0x302D JUMP JUMPDEST PUSH1 0x1 DUP2 DUP2 SHR SWAP1 DUP3 AND DUP1 PUSH2 0x3223 JUMPI PUSH1 0x7F DUP3 AND SWAP2 POP JUMPDEST PUSH1 0x20 DUP3 LT DUP2 SUB PUSH2 0x3243 JUMPI PUSH4 0x4E487B71 PUSH1 0xE0 SHL PUSH1 0x0 MSTORE PUSH1 0x22 PUSH1 0x4 MSTORE PUSH1 0x24 PUSH1 0x0 REVERT JUMPDEST POP SWAP2 SWAP1 POP JUMP JUMPDEST PUSH4 0x4E487B71 PUSH1 0xE0 SHL PUSH1 0x0 MSTORE PUSH1 0x32 PUSH1 0x4 MSTORE PUSH1 0x24 PUSH1 0x0 REVERT JUMPDEST PUSH4 0x4E487B71 PUSH1 0xE0 SHL PUSH1 0x0 MSTORE PUSH1 0x11 PUSH1 0x4 MSTORE PUSH1 0x24 PUSH1 0x0 REVERT JUMPDEST DUP1 DUP3 ADD DUP1 DUP3 GT ISZERO PUSH2 0xA12 JUMPI PUSH2 0xA12 PUSH2 0x325F JUMP JUMPDEST PUSH1 0x1F DUP3 GT ISZERO PUSH2 0x8F5 JUMPI PUSH1 0x0 DUP2 PUSH1 0x0 MSTORE PUSH1 0x20 PUSH1 0x0 KECCAK256 PUSH1 0x1F DUP6 ADD PUSH1 0x5 SHR DUP2 ADD PUSH1 0x20 DUP7 LT ISZERO PUSH2 0x32B1 JUMPI POP DUP1 JUMPDEST PUSH1 0x1F DUP6 ADD PUSH1 0x5 SHR DUP3 ADD SWAP2 POP JUMPDEST DUP2 DUP2 LT ISZERO PUSH2 0x32D0 JUMPI DUP3 DUP2 SSTORE PUSH1 0x1 ADD PUSH2 0x32BD JUMP JUMPDEST POP POP POP POP POP POP JUMP JUMPDEST PUSH1 0x1 PUSH1 0x1 PUSH1 0x40 SHL SUB DUP4 GT ISZERO PUSH2 0x32EF JUMPI PUSH2 0x32EF PUSH2 0x2BDA JUMP JUMPDEST PUSH2 0x3303 DUP4 PUSH2 0x32FD DUP4 SLOAD PUSH2 0x320F JUMP JUMPDEST DUP4 PUSH2 0x3288 JUMP JUMPDEST PUSH1 0x0 PUSH1 0x1F DUP5 GT PUSH1 0x1 DUP2 EQ PUSH2 0x3337 JUMPI PUSH1 0x0 DUP6 ISZERO PUSH2 0x331F JUMPI POP DUP4 DUP3 ADD CALLDATALOAD JUMPDEST PUSH1 0x0 NOT PUSH1 0x3 DUP8 SWAP1 SHL SHR NOT AND PUSH1 0x1 DUP7 SWAP1 SHL OR DUP4 SSTORE PUSH2 0xC64 JUMP JUMPDEST PUSH1 0x0 DUP4 DUP2 MSTORE PUSH1 0x20 SWAP1 KECCAK256 PUSH1 0x1F NOT DUP7 AND SWAP1 DUP4 JUMPDEST DUP3 DUP2 LT ISZERO PUSH2 0x3368 JUMPI DUP7 DUP6 ADD CALLDATALOAD DUP3 SSTORE PUSH1 0x20 SWAP5 DUP6 ADD SWAP5 PUSH1 0x1 SWAP1 SWAP3 ADD SWAP2 ADD PUSH2 0x3348 JUMP JUMPDEST POP DUP7 DUP3 LT ISZERO PUSH2 0x3385 JUMPI PUSH1 0x0 NOT PUSH1 0xF8 DUP9 PUSH1 0x3 SHL AND SHR NOT DUP5 DUP8 ADD CALLDATALOAD AND DUP2 SSTORE JUMPDEST POP POP PUSH1 0x1 DUP6 PUSH1 0x1 SHL ADD DUP4 SSTORE POP POP POP POP POP JUMP JUMPDEST PUSH4 0x3C101E9 PUSH1 0xE5 SHL DUP2 MSTORE PUSH1 0x0 DUP5 MLOAD PUSH2 0x33B6 DUP2 PUSH1 0x4 DUP6 ADD PUSH1 0x20 DUP10 ADD PUSH2 0x2ABF JUMP JUMPDEST PUSH6 0x16103C901E9 PUSH1 0xD5 SHL PUSH1 0x4 SWAP2 DUP5 ADD SWAP2 DUP3 ADD MSTORE DUP5 MLOAD PUSH2 0x33DC DUP2 PUSH1 0xA DUP5 ADD PUSH1 0x20 DUP10 ADD PUSH2 0x2ABF JUMP JUMPDEST PUSH1 0x5 PUSH1 0xF9 SHL PUSH1 0xA SWAP3 SWAP1 SWAP2 ADD SWAP2 DUP3 ADD MSTORE DUP4 MLOAD PUSH2 0x33FE DUP2 PUSH1 0xB DUP5 ADD PUSH1 0x20 DUP9 ADD PUSH2 0x2ABF JUMP JUMPDEST ADD PUSH1 0xB ADD SWAP6 SWAP5 POP POP POP POP POP JUMP JUMPDEST PUSH1 0x0 PUSH1 0x20 DUP3 DUP5 SUB SLT ISZERO PUSH2 0x341D JUMPI PUSH1 0x0 DUP1 REVERT JUMPDEST PUSH2 0xEDC DUP3 PUSH2 0x3072 JUMP JUMPDEST PUSH1 0xFF DUP2 DUP2 AND DUP4 DUP3 AND ADD SWAP1 DUP2 GT ISZERO PUSH2 0xA12 JUMPI PUSH2 0xA12 PUSH2 0x325F JUMP JUMPDEST DUP2 MLOAD PUSH1 0x1 PUSH1 0x1 PUSH1 0x40 SHL SUB DUP2 GT ISZERO PUSH2 0x3458 JUMPI PUSH2 0x3458 PUSH2 0x2BDA JUMP JUMPDEST PUSH2 0x346C DUP2 PUSH2 0x3466 DUP5 SLOAD PUSH2 0x320F JUMP JUMPDEST DUP5 PUSH2 0x3288 JUMP JUMPDEST PUSH1 0x20 DUP1 PUSH1 0x1F DUP4 GT PUSH1 0x1 DUP2 EQ PUSH2 0x34A1 JUMPI PUSH1 0x0 DUP5 ISZERO PUSH2 0x3489 JUMPI POP DUP6 DUP4 ADD MLOAD JUMPDEST PUSH1 0x0 NOT PUSH1 0x3 DUP7 SWAP1 SHL SHR NOT AND PUSH1 0x1 DUP6 SWAP1 SHL OR DUP6 SSTORE PUSH2 0x32D0 JUMP JUMPDEST PUSH1 0x0 DUP6 DUP2 MSTORE PUSH1 0x20 DUP2 KECCAK256 PUSH1 0x1F NOT DUP7 AND SWAP2 JUMPDEST DUP3 DUP2 LT ISZERO PUSH2 0x34D0 JUMPI DUP9 DUP7 ADD MLOAD DUP3 SSTORE SWAP5 DUP5 ADD SWAP5 PUSH1 0x1 SWAP1 SWAP2 ADD SWAP1 DUP5 ADD PUSH2 0x34B1 JUMP JUMPDEST POP DUP6 DUP3 LT ISZERO PUSH2 0x34EE JUMPI DUP8 DUP6 ADD MLOAD PUSH1 0x0 NOT PUSH1 0x3 DUP9 SWAP1 SHL PUSH1 0xF8 AND SHR NOT AND DUP2 SSTORE JUMPDEST POP POP POP POP POP PUSH1 0x1 SWAP1 DUP2 SHL ADD SWAP1 SSTORE POP JUMP JUMPDEST PUSH1 0x0 DUP1 DUP4 CALLDATALOAD PUSH1 0x1E NOT DUP5 CALLDATASIZE SUB ADD DUP2 SLT PUSH2 0x3515 JUMPI PUSH1 0x0 DUP1 REVERT JUMPDEST DUP4 ADD DUP1 CALLDATALOAD SWAP2 POP PUSH1 0x1 PUSH1 0x1 PUSH1 0x40 SHL SUB DUP3 GT ISZERO PUSH2 0x352F JUMPI PUSH1 0x0 DUP1 REVERT JUMPDEST PUSH1 0x20 ADD SWAP2 POP PUSH1 0x5 DUP2 SWAP1 SHL CALLDATASIZE SUB DUP3 SGT ISZERO PUSH2 0x2F73 JUMPI PUSH1 0x0 DUP1 REVERT JUMPDEST PUSH1 0x0 PUSH1 0x1 DUP3 ADD PUSH2 0x3559 JUMPI PUSH2 0x3559 PUSH2 0x325F JUMP JUMPDEST POP PUSH1 0x1 ADD SWAP1 JUMP JUMPDEST DUP2 DUP2 SUB DUP2 DUP2 GT ISZERO PUSH2 0xA12 JUMPI PUSH2 0xA12 PUSH2 0x325F JUMP JUMPDEST PUSH4 0x4E487B71 PUSH1 0xE0 SHL PUSH1 0x0 MSTORE PUSH1 0x12 PUSH1 0x4 MSTORE PUSH1 0x24 PUSH1 0x0 REVERT JUMPDEST PUSH1 0x0 DUP3 PUSH2 0x3598 JUMPI PUSH2 0x3598 PUSH2 0x3573 JUMP JUMPDEST POP MOD SWAP1 JUMP JUMPDEST DUP1 DUP3 MUL DUP2 ISZERO DUP3 DUP3 DIV DUP5 EQ OR PUSH2 0xA12 JUMPI PUSH2 0xA12 PUSH2 0x325F JUMP JUMPDEST PUSH1 0x0 DUP3 PUSH2 0x35C3 JUMPI PUSH2 0x35C3 PUSH2 0x3573 JUMP JUMPDEST POP DIV SWAP1 JUMP JUMPDEST PUSH1 0x0 PUSH1 0x20 DUP3 DUP5 SUB SLT ISZERO PUSH2 0x35DA JUMPI PUSH1 0x0 DUP1 REVERT JUMPDEST DUP2 CALLDATALOAD PUSH4 0xFFFFFFFF DUP2 AND DUP2 EQ PUSH2 0xEDC JUMPI PUSH1 0x0 DUP1 REVERT JUMPDEST PUSH4 0xFFFFFFFF DUP2 DUP2 AND DUP4 DUP3 AND ADD SWAP1 DUP1 DUP3 GT ISZERO PUSH2 0x360B JUMPI PUSH2 0x360B PUSH2 0x325F JUMP JUMPDEST POP SWAP3 SWAP2 POP POP JUMP JUMPDEST PUSH1 0x0 PUSH1 0xFF DUP3 AND PUSH1 0xFF DUP2 SUB PUSH2 0x3628 JUMPI PUSH2 0x3628 PUSH2 0x325F JUMP JUMPDEST PUSH1 0x1 ADD SWAP3 SWAP2 POP POP JUMP JUMPDEST PUSH1 0x0 DUP3 MLOAD PUSH2 0x3643 DUP2 DUP5 PUSH1 0x20 DUP8 ADD PUSH2 0x2ABF JUMP JUMPDEST PUSH1 0x31 PUSH1 0xF8 SHL SWAP3 ADD SWAP2 DUP3 MSTORE POP PUSH1 0x1 ADD SWAP2 SWAP1 POP JUMP JUMPDEST PUSH1 0x0 DUP3 MLOAD PUSH2 0x3668 DUP2 DUP5 PUSH1 0x20 DUP8 ADD PUSH2 0x2ABF JUMP JUMPDEST PUSH1 0x3 PUSH1 0xFC SHL SWAP3 ADD SWAP2 DUP3 MSTORE POP PUSH1 0x1 ADD SWAP2 SWAP1 POP JUMP JUMPDEST PUSH1 0x0 DUP2 PUSH2 0x368A JUMPI PUSH2 0x368A PUSH2 0x325F JUMP JUMPDEST POP PUSH1 0x0 NOT ADD SWAP1 JUMP JUMPDEST PUSH1 0x0 DUP4 MLOAD PUSH2 0x36A4 DUP2 DUP5 PUSH1 0x20 DUP9 ADD PUSH2 0x2ABF JUMP JUMPDEST DUP4 MLOAD SWAP1 DUP4 ADD SWAP1 PUSH2 0x36B8 DUP2 DUP4 PUSH1 0x20 DUP9 ADD PUSH2 0x2ABF JUMP JUMPDEST ADD SWAP5 SWAP4 POP POP POP POP JUMP JUMPDEST PUSH1 0x0 DUP5 MLOAD PUSH2 0x36D3 DUP2 DUP5 PUSH1 0x20 DUP10 ADD PUSH2 0x2ABF JUMP JUMPDEST DUP5 MLOAD SWAP1 DUP4 ADD SWAP1 PUSH2 0x36E7 DUP2 DUP4 PUSH1 0x20 DUP10 ADD PUSH2 0x2ABF JUMP JUMPDEST DUP5 MLOAD SWAP2 ADD SWAP1 PUSH2 0x36FA DUP2 DUP4 PUSH1 0x20 DUP9 ADD PUSH2 0x2ABF JUMP JUMPDEST ADD SWAP6 SWAP5 POP POP POP POP POP JUMP JUMPDEST PUSH1 0x0 DUP5 MLOAD PUSH2 0x3716 DUP2 DUP5 PUSH1 0x20 DUP10 ADD PUSH2 0x2ABF JUMP JUMPDEST DUP5 MLOAD SWAP1 DUP4 ADD SWAP1 PUSH2 0x372A DUP2 DUP4 PUSH1 0x20 DUP10 ADD PUSH2 0x2ABF JUMP JUMPDEST DUP5 MLOAD SWAP2 ADD SWAP1 PUSH2 0x373D DUP2 DUP4 PUSH1 0x20 DUP9 ADD PUSH2 0x2ABF JUMP JUMPDEST PUSH1 0x9 PUSH1 0xFA SHL SWAP2 ADD SWAP1 DUP2 MSTORE PUSH1 0x1 ADD SWAP6 SWAP5 POP POP POP POP POP JUMP JUMPDEST PUSH1 0x0 PUSH1 0x20 DUP3 DUP5 SUB SLT ISZERO PUSH2 0x3765 JUMPI PUSH1 0x0 DUP1 REVERT JUMPDEST POP MLOAD SWAP2 SWAP1 POP JUMP JUMPDEST PUSH1 0x1 PUSH1 0x1 PUSH1 0xA0 SHL SUB DUP6 DUP2 AND DUP3 MSTORE DUP5 AND PUSH1 0x20 DUP3 ADD MSTORE PUSH1 0x40 DUP2 ADD DUP4 SWAP1 MSTORE PUSH1 0x80 PUSH1 0x60 DUP3 ADD DUP2 SWAP1 MSTORE PUSH1 0x0 SWAP1 PUSH2 0x379F SWAP1 DUP4 ADD DUP5 PUSH2 0x2AE3 JUMP JUMPDEST SWAP7 SWAP6 POP POP POP POP POP POP JUMP JUMPDEST PUSH1 0x0 PUSH1 0x20 DUP3 DUP5 SUB SLT ISZERO PUSH2 0x37BB JUMPI PUSH1 0x0 DUP1 REVERT JUMPDEST DUP2 MLOAD PUSH2 0xEDC DUP2 PUSH2 0x2B94 JUMP JUMPDEST PUSH1 0x0 DUP3 MLOAD PUSH2 0x37D8 DUP2 DUP5 PUSH1 0x20 DUP8 ADD PUSH2 0x2ABF JUMP JUMPDEST SWAP2 SWAP1 SWAP2 ADD SWAP3 SWAP2 POP POP JUMP INVALID DUP1 0xBB 0x2B PUSH4 0x8CC20BC4 0xD0 0xA6 0xD PUSH7 0x940F3AB4A00C1D PUSH28 0x313497CA82FB0B4AB007930068747470733A2F2F666163746F727961 PUSH17 0x692E63656C6C756C612E6C6966652F6C69 PUSH7 0x65546F6B656E2F CALLDATASIZE ADDMOD SWAP5 LOG1 EXTCODESIZE LOG1 LOG3 0x21 MOD PUSH8 0xC828492DB98DCA3E KECCAK256 PUSH23 0xCC3735A920A3CA505D382BBCA264697066735822122032 AND 0xF8 MULMOD GT SWAP1 0xEC 0xF9 SWAP11 MUL 0xFB 0xF7 LT GASLIMIT 0x4A 0xC3 0xEC SHL DUP6 0xE0 0xD6 0xE9 DUP6 SLOAD PUSH8 0x1001FC42EA4DCB64 PUSH20 0x6F6C634300081700330000000000000000000000 "
		},
		"gasEstimates": {
			"creation": {
				"codeDepositCost": "2893200",
				"executionCost": "infinite",
				"totalCost": "infinite"
			},
			"external": {
				"BLOCK_TIME()": "327",
				"EVOLUTION_TIME()": "316",
				"UPGRADE_INTERFACE_VERSION()": "infinite",
				"_cell()": "2448",
				"_currentLifeId()": "2406",
				"_foodPayToken()": "2403",
				"_foodPrices(uint256)": "2483",
				"approve(address,uint256)": "infinite",
				"balanceOf(address)": "infinite",
				"buyFood(uint256[],uint256)": "infinite",
				"changeBaseURL(string)": "infinite",
				"changeFoodPrice(uint256[],uint256[])": "infinite",
				"createLife(address,uint256,uint256[][],uint256[],uint32[])": "infinite",
				"getApproved(uint256)": "infinite",
				"getEvolutionaryAlgebra(uint256)": "infinite",
				"getGenesSequence(uint256)": "infinite",
				"getLifeGene(uint256)": "infinite",
				"getRLESting(uint256)": "infinite",
				"initialize(address,string,string)": "infinite",
				"isApprovedForAll(address,address)": "infinite",
				"isCenterCellAlive(uint8[9])": "infinite",
				"lifeBaseRules(uint8[9])": "infinite",
				"name()": "infinite",
				"owner()": "2377",
				"ownerOf(uint256)": "infinite",
				"proxiableUUID()": "infinite",
				"renounceOwnership()": "infinite",
				"safeTransferFrom(address,address,uint256)": "infinite",
				"safeTransferFrom(address,address,uint256,bytes)": "infinite",
				"setApprovalForAll(address,bool)": "infinite",
				"setCellAddress(address)": "26880",
				"supportsInterface(bytes4)": "612",
				"symbol()": "infinite",
				"tokenURI(uint256)": "infinite",
				"transferFrom(address,address,uint256)": "infinite",
				"transferOwnership(address)": "28478",
				"upgradeToAndCall(address,bytes)": "infinite",
				"withdraw(uint256,address)": "infinite"
			},
			"internal": {
				"_authorizeUpgrade(address)": "infinite",
				"_baseURI()": "infinite",
				"decodeGenes(uint256)": "infinite"
			}
		},
		"methodIdentifiers": {
			"BLOCK_TIME()": "f9301910",
			"EVOLUTION_TIME()": "1ae52519",
			"UPGRADE_INTERFACE_VERSION()": "ad3cb1cc",
			"_cell()": "bb6ba587",
			"_currentLifeId()": "a895327b",
			"_foodPayToken()": "cb71e0c0",
			"_foodPrices(uint256)": "b77de0c6",
			"approve(address,uint256)": "095ea7b3",
			"balanceOf(address)": "70a08231",
			"buyFood(uint256[],uint256)": "091d530e",
			"changeBaseURL(string)": "2fe24d36",
			"changeFoodPrice(uint256[],uint256[])": "c4417aa2",
			"createLife(address,uint256,uint256[][],uint256[],uint32[])": "9b8d51b3",
			"getApproved(uint256)": "081812fc",
			"getEvolutionaryAlgebra(uint256)": "9e2591dd",
			"getGenesSequence(uint256)": "b9ac62f5",
			"getLifeGene(uint256)": "01f4fd23",
			"getRLESting(uint256)": "3c3a8746",
			"initialize(address,string,string)": "90657147",
			"isApprovedForAll(address,address)": "e985e9c5",
			"isCenterCellAlive(uint8[9])": "a3d62e9c",
			"lifeBaseRules(uint8[9])": "7c772596",
			"name()": "06fdde03",
			"owner()": "8da5cb5b",
			"ownerOf(uint256)": "6352211e",
			"proxiableUUID()": "52d1902d",
			"renounceOwnership()": "715018a6",
			"safeTransferFrom(address,address,uint256)": "42842e0e",
			"safeTransferFrom(address,address,uint256,bytes)": "b88d4fde",
			"setApprovalForAll(address,bool)": "a22cb465",
			"setCellAddress(address)": "4db85780",
			"supportsInterface(bytes4)": "01ffc9a7",
			"symbol()": "95d89b41",
			"tokenURI(uint256)": "c87b56dd",
			"transferFrom(address,address,uint256)": "23b872dd",
			"transferOwnership(address)": "f2fde38b",
			"upgradeToAndCall(address,bytes)": "4f1ef286",
			"withdraw(uint256,address)": "00f714ce"
		}
	},
	"abi": [
		{
			"inputs": [],
			"stateMutability": "nonpayable",
			"type": "constructor"
		},
		{
			"inputs": [
				{
					"internalType": "address",
					"name": "target",
					"type": "address"
				}
			],
			"name": "AddressEmptyCode",
			"type": "error"
		},
		{
			"inputs": [
				{
					"internalType": "address",
					"name": "implementation",
					"type": "address"
				}
			],
			"name": "ERC1967InvalidImplementation",
			"type": "error"
		},
		{
			"inputs": [],
			"name": "ERC1967NonPayable",
			"type": "error"
		},
		{
			"inputs": [
				{
					"internalType": "address",
					"name": "sender",
					"type": "address"
				},
				{
					"internalType": "uint256",
					"name": "tokenId",
					"type": "uint256"
				},
				{
					"internalType": "address",
					"name": "owner",
					"type": "address"
				}
			],
			"name": "ERC721IncorrectOwner",
			"type": "error"
		},
		{
			"inputs": [
				{
					"internalType": "address",
					"name": "operator",
					"type": "address"
				},
				{
					"internalType": "uint256",
					"name": "tokenId",
					"type": "uint256"
				}
			],
			"name": "ERC721InsufficientApproval",
			"type": "error"
		},
		{
			"inputs": [
				{
					"internalType": "address",
					"name": "approver",
					"type": "address"
				}
			],
			"name": "ERC721InvalidApprover",
			"type": "error"
		},
		{
			"inputs": [
				{
					"internalType": "address",
					"name": "operator",
					"type": "address"
				}
			],
			"name": "ERC721InvalidOperator",
			"type": "error"
		},
		{
			"inputs": [
				{
					"internalType": "address",
					"name": "owner",
					"type": "address"
				}
			],
			"name": "ERC721InvalidOwner",
			"type": "error"
		},
		{
			"inputs": [
				{
					"internalType": "address",
					"name": "receiver",
					"type": "address"
				}
			],
			"name": "ERC721InvalidReceiver",
			"type": "error"
		},
		{
			"inputs": [
				{
					"internalType": "address",
					"name": "sender",
					"type": "address"
				}
			],
			"name": "ERC721InvalidSender",
			"type": "error"
		},
		{
			"inputs": [
				{
					"internalType": "uint256",
					"name": "tokenId",
					"type": "uint256"
				}
			],
			"name": "ERC721NonexistentToken",
			"type": "error"
		},
		{
			"inputs": [
				{
					"internalType": "uint256",
					"name": "price",
					"type": "uint256"
				}
			],
			"name": "EtherNotEnough",
			"type": "error"
		},
		{
			"inputs": [],
			"name": "FailedInnerCall",
			"type": "error"
		},
		{
			"inputs": [
				{
					"internalType": "uint256",
					"name": "workTime",
					"type": "uint256"
				}
			],
			"name": "FoodNotOnSale",
			"type": "error"
		},
		{
			"inputs": [],
			"name": "InvalidInitialization",
			"type": "error"
		},
		{
			"inputs": [
				{
					"internalType": "address",
					"name": "account",
					"type": "address"
				}
			],
			"name": "MustBeNftOwner",
			"type": "error"
		},
		{
			"inputs": [],
			"name": "NotInitializing",
			"type": "error"
		},
		{
			"inputs": [
				{
					"internalType": "address",
					"name": "owner",
					"type": "address"
				}
			],
			"name": "OwnableInvalidOwner",
			"type": "error"
		},
		{
			"inputs": [
				{
					"internalType": "address",
					"name": "account",
					"type": "address"
				}
			],
			"name": "OwnableUnauthorizedAccount",
			"type": "error"
		},
		{
			"inputs": [],
			"name": "UUPSUnauthorizedCallContext",
			"type": "error"
		},
		{
			"inputs": [
				{
					"internalType": "bytes32",
					"name": "slot",
					"type": "bytes32"
				}
			],
			"name": "UUPSUnsupportedProxiableUUID",
			"type": "error"
		},
		{
			"anonymous": false,
			"inputs": [
				{
					"indexed": true,
					"internalType": "address",
					"name": "owner",
					"type": "address"
				},
				{
					"indexed": true,
					"internalType": "address",
					"name": "approved",
					"type": "address"
				},
				{
					"indexed": true,
					"internalType": "uint256",
					"name": "tokenId",
					"type": "uint256"
				}
			],
			"name": "Approval",
			"type": "event"
		},
		{
			"anonymous": false,
			"inputs": [
				{
					"indexed": true,
					"internalType": "address",
					"name": "owner",
					"type": "address"
				},
				{
					"indexed": true,
					"internalType": "address",
					"name": "operator",
					"type": "address"
				},
				{
					"indexed": false,
					"internalType": "bool",
					"name": "approved",
					"type": "bool"
				}
			],
			"name": "ApprovalForAll",
			"type": "event"
		},
		{
			"anonymous": false,
			"inputs": [
				{
					"indexed": false,
					"internalType": "uint256",
					"name": "tokenId",
					"type": "uint256"
				},
				{
					"indexed": false,
					"internalType": "uint256",
					"name": "startTime",
					"type": "uint256"
				},
				{
					"indexed": false,
					"internalType": "uint256",
					"name": "workTime",
					"type": "uint256"
				}
			],
			"name": "FeedEvent",
			"type": "event"
		},
		{
			"anonymous": false,
			"inputs": [
				{
					"indexed": false,
					"internalType": "uint64",
					"name": "version",
					"type": "uint64"
				}
			],
			"name": "Initialized",
			"type": "event"
		},
		{
			"anonymous": false,
			"inputs": [
				{
					"indexed": false,
					"internalType": "uint256",
					"name": "tokenId",
					"type": "uint256"
				}
			],
			"name": "LifeCreation",
			"type": "event"
		},
		{
			"anonymous": false,
			"inputs": [
				{
					"indexed": true,
					"internalType": "address",
					"name": "previousOwner",
					"type": "address"
				},
				{
					"indexed": true,
					"internalType": "address",
					"name": "newOwner",
					"type": "address"
				}
			],
			"name": "OwnershipTransferred",
			"type": "event"
		},
		{
			"anonymous": false,
			"inputs": [
				{
					"indexed": true,
					"internalType": "address",
					"name": "from",
					"type": "address"
				},
				{
					"indexed": true,
					"internalType": "address",
					"name": "to",
					"type": "address"
				},
				{
					"indexed": true,
					"internalType": "uint256",
					"name": "tokenId",
					"type": "uint256"
				}
			],
			"name": "Transfer",
			"type": "event"
		},
		{
			"anonymous": false,
			"inputs": [
				{
					"indexed": true,
					"internalType": "address",
					"name": "implementation",
					"type": "address"
				}
			],
			"name": "Upgraded",
			"type": "event"
		},
		{
			"inputs": [],
			"name": "BLOCK_TIME",
			"outputs": [
				{
					"internalType": "uint256",
					"name": "",
					"type": "uint256"
				}
			],
			"stateMutability": "view",
			"type": "function"
		},
		{
			"inputs": [],
			"name": "EVOLUTION_TIME",
			"outputs": [
				{
					"internalType": "uint32",
					"name": "",
					"type": "uint32"
				}
			],
			"stateMutability": "view",
			"type": "function"
		},
		{
			"inputs": [],
			"name": "UPGRADE_INTERFACE_VERSION",
			"outputs": [
				{
					"internalType": "string",
					"name": "",
					"type": "string"
				}
			],
			"stateMutability": "view",
			"type": "function"
		},
		{
			"inputs": [],
			"name": "_cell",
			"outputs": [
				{
					"internalType": "address",
					"name": "",
					"type": "address"
				}
			],
			"stateMutability": "view",
			"type": "function"
		},
		{
			"inputs": [],
			"name": "_currentLifeId",
			"outputs": [
				{
					"internalType": "uint256",
					"name": "",
					"type": "uint256"
				}
			],
			"stateMutability": "view",
			"type": "function"
		},
		{
			"inputs": [],
			"name": "_foodPayToken",
			"outputs": [
				{
					"internalType": "address",
					"name": "",
					"type": "address"
				}
			],
			"stateMutability": "view",
			"type": "function"
		},
		{
			"inputs": [
				{
					"internalType": "uint256",
					"name": "",
					"type": "uint256"
				}
			],
			"name": "_foodPrices",
			"outputs": [
				{
					"internalType": "uint256",
					"name": "",
					"type": "uint256"
				}
			],
			"stateMutability": "view",
			"type": "function"
		},
		{
			"inputs": [
				{
					"internalType": "address",
					"name": "to",
					"type": "address"
				},
				{
					"internalType": "uint256",
					"name": "tokenId",
					"type": "uint256"
				}
			],
			"name": "approve",
			"outputs": [],
			"stateMutability": "nonpayable",
			"type": "function"
		},
		{
			"inputs": [
				{
					"internalType": "address",
					"name": "owner",
					"type": "address"
				}
			],
			"name": "balanceOf",
			"outputs": [
				{
					"internalType": "uint256",
					"name": "",
					"type": "uint256"
				}
			],
			"stateMutability": "view",
			"type": "function"
		},
		{
			"inputs": [
				{
					"internalType": "uint256[]",
					"name": "tokenIds",
					"type": "uint256[]"
				},
				{
					"internalType": "uint256",
					"name": "foodWorkTime",
					"type": "uint256"
				}
			],
			"name": "buyFood",
			"outputs": [],
			"stateMutability": "payable",
			"type": "function"
		},
		{
			"inputs": [
				{
					"internalType": "string",
					"name": "newBaseURL",
					"type": "string"
				}
			],
			"name": "changeBaseURL",
			"outputs": [],
			"stateMutability": "nonpayable",
			"type": "function"
		},
		{
			"inputs": [
				{
					"internalType": "uint256[]",
					"name": "foodWorkTimes",
					"type": "uint256[]"
				},
				{
					"internalType": "uint256[]",
					"name": "foodPrices",
					"type": "uint256[]"
				}
			],
			"name": "changeFoodPrice",
			"outputs": [],
			"stateMutability": "nonpayable",
			"type": "function"
		},
		{
			"inputs": [
				{
					"internalType": "address",
					"name": "to",
					"type": "address"
				},
				{
					"internalType": "uint256",
					"name": "bornPrice",
					"type": "uint256"
				},
				{
					"internalType": "uint256[][]",
					"name": "cellsPositions",
					"type": "uint256[][]"
				},
				{
					"internalType": "uint256[]",
					"name": "cellGenes",
					"type": "uint256[]"
				},
				{
					"internalType": "uint32[]",
					"name": "livingCellTotals",
					"type": "uint32[]"
				}
			],
			"name": "createLife",
			"outputs": [],
			"stateMutability": "nonpayable",
			"type": "function"
		},
		{
			"inputs": [
				{
					"internalType": "uint256",
					"name": "tokenId",
					"type": "uint256"
				}
			],
			"name": "getApproved",
			"outputs": [
				{
					"internalType": "address",
					"name": "",
					"type": "address"
				}
			],
			"stateMutability": "view",
			"type": "function"
		},
		{
			"inputs": [
				{
					"internalType": "uint256",
					"name": "tokenId",
					"type": "uint256"
				}
			],
			"name": "getEvolutionaryAlgebra",
			"outputs": [
				{
					"internalType": "uint256",
					"name": "",
					"type": "uint256"
				}
			],
			"stateMutability": "view",
			"type": "function"
		},
		{
			"inputs": [
				{
					"internalType": "uint256",
					"name": "tokenID",
					"type": "uint256"
				}
			],
			"name": "getGenesSequence",
			"outputs": [
				{
					"internalType": "string",
					"name": "genes",
					"type": "string"
				}
			],
			"stateMutability": "view",
			"type": "function"
		},
		{
			"inputs": [
				{
					"internalType": "uint256",
					"name": "tokenID",
					"type": "uint256"
				}
			],
			"name": "getLifeGene",
			"outputs": [
				{
					"internalType": "string",
					"name": "genes",
					"type": "string"
				},
				{
					"internalType": "uint256",
					"name": "bornBlock",
					"type": "uint256"
				},
				{
					"internalType": "uint256",
					"name": "livingCellTotal",
					"type": "uint256"
				},
				{
					"internalType": "uint64",
					"name": "bornTime",
					"type": "uint64"
				},
				{
					"internalType": "uint64",
					"name": "workEndTime",
					"type": "uint64"
				},
				{
					"internalType": "uint256",
					"name": "bornPrice",
					"type": "uint256"
				},
				{
					"internalType": "uint256[]",
					"name": "parentTokenIds",
					"type": "uint256[]"
				}
			],
			"stateMutability": "view",
			"type": "function"
		},
		{
			"inputs": [
				{
					"internalType": "uint256",
					"name": "tokenId",
					"type": "uint256"
				}
			],
			"name": "getRLESting",
			"outputs": [
				{
					"internalType": "string",
					"name": "rleSting",
					"type": "string"
				}
			],
			"stateMutability": "view",
			"type": "function"
		},
		{
			"inputs": [
				{
					"internalType": "address",
					"name": "owner_",
					"type": "address"
				},
				{
					"internalType": "string",
					"name": "name_",
					"type": "string"
				},
				{
					"internalType": "string",
					"name": "symbol_",
					"type": "string"
				}
			],
			"name": "initialize",
			"outputs": [],
			"stateMutability": "nonpayable",
			"type": "function"
		},
		{
			"inputs": [
				{
					"internalType": "address",
					"name": "owner",
					"type": "address"
				},
				{
					"internalType": "address",
					"name": "operator",
					"type": "address"
				}
			],
			"name": "isApprovedForAll",
			"outputs": [
				{
					"internalType": "bool",
					"name": "",
					"type": "bool"
				}
			],
			"stateMutability": "view",
			"type": "function"
		},
		{
			"inputs": [
				{
					"internalType": "uint8[9]",
					"name": "cells",
					"type": "uint8[9]"
				}
			],
			"name": "isCenterCellAlive",
			"outputs": [
				{
					"internalType": "bool",
					"name": "",
					"type": "bool"
				}
			],
			"stateMutability": "pure",
			"type": "function"
		},
		{
			"inputs": [
				{
					"internalType": "uint8[9]",
					"name": "cellGenes",
					"type": "uint8[9]"
				}
			],
			"name": "lifeBaseRules",
			"outputs": [
				{
					"internalType": "uint8",
					"name": "",
					"type": "uint8"
				}
			],
			"stateMutability": "pure",
			"type": "function"
		},
		{
			"inputs": [],
			"name": "name",
			"outputs": [
				{
					"internalType": "string",
					"name": "",
					"type": "string"
				}
			],
			"stateMutability": "view",
			"type": "function"
		},
		{
			"inputs": [],
			"name": "owner",
			"outputs": [
				{
					"internalType": "address",
					"name": "",
					"type": "address"
				}
			],
			"stateMutability": "view",
			"type": "function"
		},
		{
			"inputs": [
				{
					"internalType": "uint256",
					"name": "tokenId",
					"type": "uint256"
				}
			],
			"name": "ownerOf",
			"outputs": [
				{
					"internalType": "address",
					"name": "",
					"type": "address"
				}
			],
			"stateMutability": "view",
			"type": "function"
		},
		{
			"inputs": [],
			"name": "proxiableUUID",
			"outputs": [
				{
					"internalType": "bytes32",
					"name": "",
					"type": "bytes32"
				}
			],
			"stateMutability": "view",
			"type": "function"
		},
		{
			"inputs": [],
			"name": "renounceOwnership",
			"outputs": [],
			"stateMutability": "nonpayable",
			"type": "function"
		},
		{
			"inputs": [
				{
					"internalType": "address",
					"name": "from",
					"type": "address"
				},
				{
					"internalType": "address",
					"name": "to",
					"type": "address"
				},
				{
					"internalType": "uint256",
					"name": "tokenId",
					"type": "uint256"
				}
			],
			"name": "safeTransferFrom",
			"outputs": [],
			"stateMutability": "nonpayable",
			"type": "function"
		},
		{
			"inputs": [
				{
					"internalType": "address",
					"name": "from",
					"type": "address"
				},
				{
					"internalType": "address",
					"name": "to",
					"type": "address"
				},
				{
					"internalType": "uint256",
					"name": "tokenId",
					"type": "uint256"
				},
				{
					"internalType": "bytes",
					"name": "data",
					"type": "bytes"
				}
			],
			"name": "safeTransferFrom",
			"outputs": [],
			"stateMutability": "nonpayable",
			"type": "function"
		},
		{
			"inputs": [
				{
					"internalType": "address",
					"name": "operator",
					"type": "address"
				},
				{
					"internalType": "bool",
					"name": "approved",
					"type": "bool"
				}
			],
			"name": "setApprovalForAll",
			"outputs": [],
			"stateMutability": "nonpayable",
			"type": "function"
		},
		{
			"inputs": [
				{
					"internalType": "address",
					"name": "cell_",
					"type": "address"
				}
			],
			"name": "setCellAddress",
			"outputs": [],
			"stateMutability": "nonpayable",
			"type": "function"
		},
		{
			"inputs": [
				{
					"internalType": "bytes4",
					"name": "interfaceId",
					"type": "bytes4"
				}
			],
			"name": "supportsInterface",
			"outputs": [
				{
					"internalType": "bool",
					"name": "",
					"type": "bool"
				}
			],
			"stateMutability": "view",
			"type": "function"
		},
		{
			"inputs": [],
			"name": "symbol",
			"outputs": [
				{
					"internalType": "string",
					"name": "",
					"type": "string"
				}
			],
			"stateMutability": "view",
			"type": "function"
		},
		{
			"inputs": [
				{
					"internalType": "uint256",
					"name": "tokenId",
					"type": "uint256"
				}
			],
			"name": "tokenURI",
			"outputs": [
				{
					"internalType": "string",
					"name": "",
					"type": "string"
				}
			],
			"stateMutability": "view",
			"type": "function"
		},
		{
			"inputs": [
				{
					"internalType": "address",
					"name": "from",
					"type": "address"
				},
				{
					"internalType": "address",
					"name": "to",
					"type": "address"
				},
				{
					"internalType": "uint256",
					"name": "tokenId",
					"type": "uint256"
				}
			],
			"name": "transferFrom",
			"outputs": [],
			"stateMutability": "nonpayable",
			"type": "function"
		},
		{
			"inputs": [
				{
					"internalType": "address",
					"name": "newOwner",
					"type": "address"
				}
			],
			"name": "transferOwnership",
			"outputs": [],
			"stateMutability": "nonpayable",
			"type": "function"
		},
		{
			"inputs": [
				{
					"internalType": "address",
					"name": "newImplementation",
					"type": "address"
				},
				{
					"internalType": "bytes",
					"name": "data",
					"type": "bytes"
				}
			],
			"name": "upgradeToAndCall",
			"outputs": [],
			"stateMutability": "payable",
			"type": "function"
		},
		{
			"inputs": [
				{
					"internalType": "uint256",
					"name": "amount",
					"type": "uint256"
				},
				{
					"internalType": "address",
					"name": "receiver",
					"type": "address"
				}
			],
			"name": "withdraw",
			"outputs": [],
			"stateMutability": "nonpayable",
			"type": "function"
		},
		{
			"stateMutability": "payable",
			"type": "receive"
		}
	]
}